:020000040800F2
:1000000000000320350F0008D12A0008D32A000879
:10001000D52A0008D72A0008D92A000800000000C5
:10002000000000000000000000000000017800084F
:10003000DB2A000800000000917800081D7100080C
:10004000850F0008850F0008850F0008850F000840
:10005000850F0008850F0008850F0008850F000830
:10006000850F0008850F0008850F0008850F000820
:10007000850F0008850F0008850F0008850F000810
:10008000850F0008850F0008850F0008850F000800
:10009000850F0008850F0008850F0008850F0008F0
:1000A000850F0008850F0008850F0008850F0008E0
:1000B000850F0008850F0008850F0008850F0008D0
:1000C000850F0008850F0008850F0008850F0008C0
:1000D000850F0008850F0008850F0008850F0008B0
:1000E000850F0008850F0008850F0008850F0008A0
:1000F000850F0008850F0008850F0008850F000890
:10010000850F0008850F0008850F0008850F00087F
:10011000850F0008850F0008DD2A0008850F0008FC
:10012000850F0008850F0008850F0008850F00085F
:10013000850F0008850F0008850F0008850F00084F
:10014000850F0008850F0008850F0008850F00083F
:10015000850F0008850F0008850F0008850F00082F
:10016000850F0008850F0008850F0008850F00081F
:10017000850F0008850F0008850F000800000000AB
:10018000850F0008850F0008850F0008850F0008FF
:10019000850F0008850F0008850F0008850F0008EF
:0C01A000E92A0008850F0008F52A000875
:1001B00010B5054C237833B9044B13B10448AFF3A1
:1001C00000800123237010BD800300200000000088
:1001D0001841020808B5034B1BB103490348AFF3AC
:1001E000008008BD000000008403002018410208C0
:1001F00001F0FF01102A2BDB10F0070F08D010F8D8
:10020000013B013A8B422DD010F0070F42B3F6D1DB
:10021000F0B441EA012141EA014122F007047FF0F4
:1002200000070023F0E80256083C85EA010586EA4B
:10023000010685FA47F5A3FA87F586FA47F6A5FA87
:1002400087F68EB9EED1F0BC01F0FF0102F0070293
:1002500032B110F8013B013A83EA010313B1F8D13E
:100260000020704701387047002D06BF354603381F
:10027000073815F0010F07D1013015F4807F02BF58
:10028000013015F4C03F0130F0BC0138704700BFA9
:1002900081F0004102E000BF83F0004330B54FEA37
:1002A00041044FEA430594EA050F08BF90EA020FA4
:1002B0001FBF54EA000C55EA020C7FEA645C7FEA37
:1002C000655C00F0E2804FEA5454D4EB5555B8BF5A
:1002D0006D420CDD2C4480EA020281EA030382EACB
:1002E000000083EA010180EA020281EA0303362D5D
:1002F00088BF30BD11F0004F4FEA01314FF4801C30
:100300004CEA113102D0404261EB410113F0004F41
:100310004FEA03334CEA133302D0524263EB4303F8
:1003200094EA050F00F0A780A4F10104D5F1200E96
:100330000DDB02FA0EFC22FA05F2801841F10001F1
:1003400003FA0EF2801843FA05F359410EE0A5F1C5
:1003500020050EF1200E012A03FA0EFC28BF4CF0F6
:10036000020C43FA05F3C01851EBE37101F00045AC
:1003700007D54FF0000EDCF1000C7EEB00006EEBB9
:100380000101B1F5801F1BD3B1F5001F0CD3490843
:100390005FEA30004FEA3C0C04F101044FEA44529A
:1003A00012F5800F80F09A80BCF1004F08BF5FEA21
:1003B000500C50F1000041EB045141EA050130BD01
:1003C0005FEA4C0C404141EB0101013C28BFB1F513
:1003D000801FE9D291F0000F04BF01460020B1FA5E
:1003E00081F308BF2033A3F10B03B3F120020CDA31
:1003F0000C3208DD02F1140CC2F10C0201FA0CF00F
:1004000021FA02F10CE002F11402D8BFC2F1200C73
:1004100001FA02F120FA0CFCDCBF41EA0C01904029
:10042000E41AA2BF01EB0451294330BD6FEA040472
:100430001F3C1CDA0C340EDC04F11404C4F120025D
:1004400020FA04F001FA02F340EA030021FA04F36F
:1004500045EA030130BDC4F10C04C4F1200220FAC6
:1004600002F001FA04F340EA0300294630BD21FA04
:1004700004F0294630BD94F0000F83F4801306BFCA
:1004800081F480110134013D4EE77FEA645C18BFBE
:100490007FEA655C29D094EA050F08BF90EA020F55
:1004A00005D054EA000C04BF1946104630BD91EA4D
:1004B000030F1EBF0021002030BD5FEA545C05D150
:1004C0004000494128BF41F0004130BD14F580048F
:1004D0003CBF01F5801130BD01F0004545F0FE4103
:1004E00041F470014FF0000030BD7FEA645C1ABF38
:1004F000194610467FEA655C1CBF0B46024650EA6F
:10050000013406BF52EA033591EA030F41F400219A
:1005100030BD00BF90F0000F04BF0021704730B520
:100520004FF4806404F132044FF000054FF00001F5
:1005300050E700BF90F0000F04BF0021704730B5B6
:100540004FF4806404F1320410F0004548BF40428B
:100550004FF000013EE700BF42004FEAE2014FEAE0
:1005600031014FEA02701FBF12F07F4393F07F4FBB
:1005700081F06051704732F07F4208BF704793F0BE
:100580007F4F04BF41F40021704730B54FF46074D1
:1005900001F0004521F000411CE700BF50EA0102D4
:1005A00008BF704730B54FF000050AE050EA01027D
:1005B00008BF704730B511F0004502D5404261EBED
:1005C00041014FF4806404F132045FEA915C3FF42E
:1005D000D8AE4FF003025FEADC0C18BF03325FEACB
:1005E000DC0C18BF033202EBDC02C2F1200300FA7C
:1005F00003FC20FA02F001FA03FE40EA0E0021FAA1
:1006000002F11444BDE600BF70B54FF0FF0C4CF48E
:10061000E06C1CEA11541DBF1CEA135594EA0C0F40
:1006200095EA0C0F00F0DEF82C4481EA030621EA7B
:100630004C5123EA4C5350EA013518BF52EA0335B6
:1006400041F4801143F4801338D0A0FB02CE4FF068
:100650000005E1FB02E506F00042E0FB03E54FF098
:100660000006E1FB03569CF0000F18BF4EF0010E90
:10067000A4F1FF04B6F5007F64F5407404D25FEA8C
:100680004E0E6D4146EB060642EAC62141EA55513F
:100690004FEAC52040EA5E504FEACE2EB4F1FD0C81
:1006A00088BFBCF5E06F1ED8BEF1004F08BF5FEAFF
:1006B000500E50F1000041EB045170BD06F00046B1
:1006C00046EA010140EA020081EA0301B4EB5C045E
:1006D000C2BFD4EB0C0541EA045170BD41F4801156
:1006E0004FF0000E013C00F3AB8014F1360FDEBF7B
:1006F000002001F0004170BDC4F10004203C35DA57
:100700000C341BDC04F11404C4F1200500FA05F3D9
:1007100020FA04F001FA05F240EA020001F000427A
:1007200021F0004110EBD37021FA04F642EB0601F0
:100730005EEA430E08BF20EAD37070BDC4F10C041A
:10074000C4F1200500FA04F320FA05F001FA04F2DE
:1007500040EA020001F0004110EBD37041F10001CA
:100760005EEA430E08BF20EAD37070BDC4F12005D5
:1007700000FA05F24EEA020E20FA04F301FA05F23D
:1007800043EA020321FA04F001F0004121FA04F2E5
:1007900020EA020000EBD3705EEA430E08BF20EAB5
:1007A000D37070BD94F0000F0FD101F000464000EF
:1007B00041EB010111F4801F08BF013CF7D041EA71
:1007C000060195F0000F18BF704703F00046520075
:1007D00043EB030313F4801F08BF013DF7D043EA46
:1007E0000603704794EA0C0F0CEA135518BF95EAFC
:1007F0000C0F0CD050EA410618BF52EA4306D1D183
:1008000081EA030101F000414FF0000070BD50EAA1
:10081000410606BF1046194652EA430619D094EA2B
:100820000C0F02D150EA013613D195EA0C0F05D115
:1008300052EA03361CBF104619460AD181EA030169
:1008400001F0004141F0FE4141F470014FF0000021
:1008500070BD41F0FE4141F4780170BD70B54FF0BC
:10086000FF0C4CF4E06C1CEA11541DBF1CEA13553C
:1008700094EA0C0F95EA0C0F00F0A7F8A4EB05041E
:1008800081EA030E52EA03354FEA013100F0888015
:100890004FEA03334FF0805545EA131343EA1263DE
:1008A0004FEA022245EA111545EA10654FEA002693
:1008B0000EF000419D4208BF964244F1FD0404F54C
:1008C000407402D25B084FEA3202B61A65EB0305A8
:1008D0005B084FEA32024FF480104FF4002CB6EB65
:1008E000020E75EB030E22BFB61A754640EA0C00E5
:1008F0005B084FEA3202B6EB020E75EB030E22BF25
:10090000B61A754640EA5C005B084FEA3202B6EB65
:10091000020E75EB030E22BFB61A754640EA9C0024
:100920005B084FEA3202B6EB020E75EB030E22BFF4
:10093000B61A754640EADC0055EA060E18D04FEAB2
:10094000051545EA16754FEA06164FEAC30343EA52
:1009500052734FEAC2025FEA1C1CC0D111F4801F1F
:100960000BD141EA00014FF000004FF0004CB6E718
:1009700011F4801F04BF01430020B4F1FD0C88BFB7
:10098000BCF5E06F3FF6AFAEB5EB030C04BFB6EBC2
:10099000020C5FEA500C50F1000041EB045170BDB5
:1009A0000EF0004E4EEA113114EB5C04C2BFD4EBE2
:1009B0000C0541EA045170BD41F480114FF0000E66
:1009C000013C90E645EA060E8DE60CEA135594EAE2
:1009D0000C0F08BF95EA0C0F3FF43BAF94EA0C0FE5
:1009E0000AD150EA01347FF434AF95EA0C0F7FF45A
:1009F00025AF104619462CE795EA0C0F06D152EAAE
:100A000003353FF4FDAE1046194622E750EA410691
:100A100018BF52EA43067FF4C5AE50EA41047FF4A2
:100A20000DAF52EA43057FF4EBAE12E74FF0FF3C07
:100A300006E000BF4FF0010C02E000BF4FF0010CD8
:100A40004DF804CD4FEA410C7FEA6C5C4FEA430C51
:100A500018BF7FEA6C5C1BD001B050EA410C0CBFA0
:100A600052EA430C91EA030F02BF90EA020F002002
:100A7000704710F1000F91EA030F58BF994208BF69
:100A800090422CBFD8176FEAE37040F00100704726
:100A90004FEA410C7FEA6C5C02D150EA013C07D17D
:100AA0004FEA430C7FEA6C5CD6D152EA033CD3D0C8
:100AB0005DF8040B704700BF8446104662468C46C2
:100AC0001946634600E000BF01B5FFF7B7FF0028F5
:100AD00048BF10F1000F01BD4DF808EDFFF7F4FF1E
:100AE0000CBF012000205DF808FB00BF4DF808EDA9
:100AF000FFF7EAFF34BF012000205DF808FB00BFCC
:100B00004DF808EDFFF7E0FF94BF012000205DF8ED
:100B100008FB00BF4DF808EDFFF7CEFF94BF0120A2
:100B200000205DF808FB00BF4DF808EDFFF7C4FF9B
:100B300034BF012000205DF808FB00BF4FEA410CE4
:100B40007FEA6C5C02D150EA013C0AD14FEA430CC7
:100B50007FEA6C5C02D152EA033C02D14FF0000004
:100B600070474FF0010070477BB972B90029BEBFD2
:100B700000204FF0004106E008BF00281CBF6FF0C6
:100B800000414FF0FF3000F0D3B9ADF1080C6DE932
:100B900004CE002909DB002B1ADB00F04DF8DDF84C
:100BA00004E0DDE9022304B07047404261EB4101FB
:100BB000002B1BDB00F040F8DDF804E0DDE9022348
:100BC00004B0404261EB4101524263EB4303704782
:100BD000524263EB430300F02FF8DDF804E0DDE957
:100BE000022304B0404261EB41017047524263EB83
:100BF000430300F021F8DDF804E0DDE9022304B04E
:100C0000524263EB4303704753B94AB9002908BF06
:100C100000281CBF4FF0FF314FF0FF3000F088B9C3
:100C2000ADF1080C6DE904CE00F006F8DDF804E043
:100C3000DDE9022304B070472DE9F047089D8E4698
:100C400004468846002B4AD18A42174662D9B2FA36
:100C500082F64EB1C6F1200301FA06F820FA03F33A
:100C6000B74043EA0808B4404FEA174E1FFA87FC22
:100C7000B8FBFEF1230C0EFB118843EA084301FB8D
:100C80000CF29A4209D9FB1801F1FF3080F0EA809A
:100C90009A4240F2E78002393B449A1AA3B2B2FB6F
:100CA000FEF00EFB102243EA024300FB0CFC9C45C5
:100CB00009D9FB1800F1FF3280F0D6809C4540F244
:100CC000D3803B44023840EA0140A3EB0C030021EF
:100CD0001DB1F3400022C5E90032BDE8F0878B4228
:100CE00005D90DB1C5E9000100210846F5E7B3FAC1
:100CF00083F1002946D1734502D3824200F2058177
:100D0000841A6EEB030201209046002DE5D0C5E960
:100D10000048E2E7002A00F09080B2FA82F6002E46
:100D200040F0A4808A1A030C4FEA174E80B2BCB27E
:100D30000121B2FBFEFC0EFB1C2243EA024304FB32
:100D40000CF29A4207D9FB180CF1FF3802D29A42F2
:100D500000F2E080C4469B1AB3FBFEF20EFB123396
:100D600040EA034302FB04F49C4207D9FB1802F15A
:100D7000FF3002D29C4200F2CA8002461B1B42EAAC
:100D80000C40A5E7C1F120068B4022FA06F71F436D
:100D90000EFA01F420FA06F32EFA06FE4FEA17497E
:100DA000234300FA01F81FFA87FCBEFBF9F01C0C84
:100DB00009FB10EE44EA0E4400FB0CFEA64502FAC5
:100DC00001F209D93C1900F1FF3A80F09C80A64558
:100DD00040F2998002383C44A4EB0E041FFA83FED3
:100DE000B4FBF9F309FB13444EEA044403FB0CFC87
:100DF000A44508D93C1903F1FF3E80F08280A44548
:100E00007FD9023B3C4443EA0040A4EB0C04A0FB26
:100E100002EC64457346E14662D35FD05DB1B8EB46
:100E2000030264EB090404FA06F622FA01F31E43F6
:100E3000CC40C5E9006400214FE7B1FBF2FC010C96
:100E400041EA0E4180B240EA01423B4638463C4608
:100E5000B846BE462026B1FBF7F1A2EB080241EAF4
:100E60000C4166E7014618E710462CE7C6F1200260
:100E70002EFA02F3B740B14020FA02F24FEA174EC1
:100E80000A43B3FBFEF8BCB20EFB1833110C41EA67
:100E9000034108FB04F9B04089454FEA104380B292
:100EA0003ED9791808F1FF3C01D289451FD8A1EB42
:100EB0000901B1FBFEF909FB04F80EFB191192B20E
:100EC00042EA0142424529D2BA1809F1FF31C4D29F
:100ED0004245C2D2A9F102013A44BEE7F0459DD293
:100EE000BEEB02036CEB070C0138E14696E7A7EB7B
:100EF00009094944A8F1020CB1FBFEF909FB04F809
:100F0000DBE773467FE7504666E70846FDE63B446D
:100F1000023A33E7ACF1020C3B441CE749469CE73C
:100F2000A1EB0901C446B1FBFEF909FB04F8C4E7D3
:100F3000704700BFDFF834D0002103E00C4B5B5852
:100F4000435004310B480C4B42189A42F6D30B4ADB
:100F500002E0002342F8043B094B9A42F9D303F024
:100F60005FFE22F06BFB01F063F870470000032086
:100F7000D4CF0F080000002064010020800300206F
:100F80007C350120FEE7704708B500F0BBFDBDE8E9
:100F9000084000F03FBD00F0B7BD704710B5042118
:100FA000044621F05DF8204610BD000038B50C4B1A
:100FB0000C4C18800C4B822019806368984740F6CF
:100FC000110398420AD1094D23682C60822098476A
:100FD0002B688220DB689847002038BD0120FCE7A1
:100FE000A60300204C000020A4030020A80300203A
:100FF0004FF4A071F020FFF7D9BF0000F7B5394DCD
:101000002B6804461B6982209847208000284ED018
:101010002B680DF106025B6901A982209847324BCB
:101020001B78002B4BD0BDF8062040F674639A4223
:101030003FD9ADF80630BDF806209B1A9BB20A2BAB
:1010400042D90B22B3FBF2F3284A1288934201D90A
:10105000013A93B2BDF80420254840F6B8318A42DF
:1010600034D8C2F571620E32016892B20F25B2FB1C
:10107000F5F2204D2D88AA4284BF05F1FF35AAB2B2
:101080008A4215468EB22AD9921B91B21A4E3768FF
:10109000BB42BAB28CBF9A1AD21A92B21144052935
:1010A000C4BF05603360036863803368A38003B006
:1010B000F0BDB32A9CBFB422ADF80620BBE7BDF853
:1010C0000630A3F5B473B9E70023C3E7C2F56D6238
:1010D000083292B20E2A0168C8D800252A46891A19
:1010E00089B2D3E7A80300205C170020A4030020E6
:1010F000A0030020A60300209C03002037B568460B
:101100000D461446FFF77AFFBDF8000030B1BDF878
:1011100002302B60BDF804302360012003B030BDE5
:10112000032821D8DFE800F0020B12190F4B1A68D0
:10113000B2FA82F2520904210D4804F005B80B4BB3
:101140005A68B2FA82F252090821F5E7074B9A6809
:10115000B2FA82F252091021EEE7044BDA68B2FAD1
:1011600082F252092021E7E7704700BFAC0300205C
:1011700000100240032821D8DFE800F0020B12190A
:101180000F4B1A68003A18BF012204210D4803F0E2
:10119000DBBF0B4B5A68003A18BF01220821F5E764
:1011A000074B9A68003A18BF01221021EEE7044B62
:1011B000DA68003A18BF01222021E7E7704700BF34
:1011C000AC0300200010024003280DD8DFE800F037
:1011D0000206080A0421054803F0BBBF0821FAE70C
:1011E0001021F8E72021F6E7704700BF0010024009
:1011F00008B5032811D8DFE800F0020A0C0E04211C
:10120000074803F09BFF431E5842584108BD082180
:10121000F6E71021F4E72021F2E70020F3E700BF12
:101220000010024070B5084D00240126E0B2FFF71F
:10123000DFFF18B12B68012B18BF2E600134052C7D
:1012400005F10405F2D170BDAC030020012380F844
:10125000781080F8793070477047002070470000A0
:10126000034B4164003918BF01211970704700BF5A
:101270003B280120704700207047836B0BB1084664
:10128000184770474FF6FF707047406803689B69C6
:1012900018477047704770477047704710B504464D
:1012A00000F048FD23680349D3F890302046BDE89C
:1012B00010401847000000D008B503680446D3F872
:1012C0008430984723682046DB6F984700F0ECF89D
:1012D000236820465B6F9847292001F019F900F038
:1012E000E3F8236820465B6F9847F8E710B504469B
:1012F00009F07EF823682046D3F8BC30BDE81040E2
:10130000184700F0FBBC00F0FFBC00F031BD00F05E
:10131000D1BC00F041BD00F049BD00F0D5BC08F0E3
:1013200095BA10B58421044620F09AFE204610BDDF
:1013300010B590F8341090F878400C4B8C421A7825
:1013400009D03AB90A4A0B491488088810800C80E1
:1013500001221A7010BD002AFCD0054A05491488E4
:10136000088810800C800022F3E700BF3428012099
:10137000302801203228012070B50D46194635B9B4
:10138000094B0A4A0A4840F2FF2121F0A7FEC0E9B2
:101390000F52084B003A18BF01221A700368BDE8CB
:1013A0007040D3F89030184788410208C0410208C5
:1013B0000E4202083A28012008B5094B1B888B42CF
:1013C00003D8084B1B88934205D9074B074A0848A6
:1013D000A32121F083FE074B1980074B1A8008BD1B
:1013E000302801203228012053420208B642020868
:1013F0000E4202083628012038280120034690F8C2
:101400007A0018B1586803681B68184770470000D5
:10141000012108B50022084605F00AFF0A4B1860B2
:1014200028B90A4B0A4A28210A4821F057FE00220F
:101430000421012005F09BFF074B186018B9074BEA
:10144000034A2C21F0E708BDC0030020F94202083E
:101450004243020871430208BC030020B343020860
:10146000024B4FF0FF31186805F02CBFC00300207D
:10147000014B186805F052BFC0030020024B002149
:10148000186805F01FBF00BFC0030020FFF7F0BFC2
:1014900003480449006800231A4605F0A3BF00BFB3
:1014A000BC0300200400002013B5084C00231A469A
:1014B00001A9206805F0C7FF20684FF0FF33002224
:1014C00001A905F0C0FF02B010BD00BFBC030020A1
:1014D00003685B6C18470120704703689B6A1847D4
:1014E000FEE740F2EF307047054B0360054B4FF0CD
:1014F0008062C3F88820BFF34F8FBFF36F8F7047B0
:101500008C4F020800E100E010B504464FF45A6128
:10151000FFF7EAFF204620F0A3FD204610BD0000A3
:1015200082B0002301930E4B1A6B42F400021A633F
:101530001A6B02F400020192019A1A6942F4000245
:101540001A611A6922F400021A61064B064A1A61EE
:10155000064A5A61064B4FF080629A6002B07047AB
:1015600000380240F0180020C1170008E1140008FC
:1015700000E100E008B50A2809D8DFE800F006100D
:101580000E080808081010101000022008BD054BB6
:10159000054A0648902121F0A1FD0020F6E7012030
:1015A000F4E700BFF5430208104402085B44020858
:1015B00038B50C46887FFFF7DDFFA58AE28A164B17
:1015C0002169586342EA05425A64628BD963521B0F
:1015D0001A642568082D0ED19A611A615862207F1D
:1015E0000E4A42EA0062DA61E2681A620C4A596104
:1015F000D9601A6038BD0022D8611A61E1680A0A10
:10160000480902F4784200F4FC600243C1F3C401CB
:101610000A439A63034AECE700B002400900010064
:10162000012302000123030008B50B280BD8DFE8D3
:1016300000F00612100A0A0A0A0808080808022020
:1016400008BD0520FCE7054B054A06486F2121F03F
:1016500045FD0020F4E70120F2E700BFF543020852
:101660009B4402085B4402082DE9F04191F81D807B
:101670000C464046FFF7D8FFA77F05463846FFF7E0
:10168000D3FF06463846FFF775FFA18A628B444BAD
:10169000521A1A649A61228B521A1A61E28A5863AA
:1016A00042EA01425A6421696268D963DA602068BB
:1016B000802828D0227F0FD8202867D0402865D0E6
:1016C00004281AD0364B45EA026545F40035B84582
:1016D000DD6161D0334A44E0B0F5807F04D0B0F5DD
:1016E000007FEFD1304800E0304840EA0262DA6122
:1016F000E2681A625E62596132E045EA026242F4CF
:101700000032DA61F6E7A068021DDA62227F45EA5C
:10171000026545F40035DD615E625961017841B1D1
:10172000012921D0224B234A23484FF48D7121F007
:10173000D5FCDA69418822F47F42013922F0100297
:1017400042EA0122DA610121154BDA6942F02002F6
:10175000DA61DA699206FCD410229A600029B9D0C5
:10176000164A1A60BDE8F081B2F1FF01DA694088DB
:1017700022F47F4200F1FF3022F0100242EA002200
:1017800042F0100218BF0121DA61DDE745EA02628A
:10179000034B42F40032B4E742F20132E1E700BF0A
:1017A00000B0024001230100090002000A0002000B
:1017B000E5440208FF4402085B44020801230200DA
:1017C000024B1B68586803685B6918473C28012076
:1017D00070B5044625460A4B0C3000266060267220
:1017E000667245F8203B6022294608F057FF04F551
:1017F0005A63EE6024359D42FBD1204670BD00BF88
:101800008C4F0208034B1A68D207FCD423229A603B
:10181000704700BF00B002407047000030B50F4C69
:101820002568ED07FCD423250904A56041F00101DA
:101830000225FF2B65636164E0630AD00849656295
:1018400041EA0363E361074B22626061E060236069
:1018500030BDE561039BA363034BF8E700B0024092
:1018600009000100010002000100030030B50E4C28
:101870002568ED07FCD423251204A56042F001027F
:101880000225FF2B65636264E063E16008D01B06FC
:1018900043F00213E361054B65626061236030BD74
:1018A000034BE3610123F9E700B0024001000200AD
:1018B000020002FF30B50B4C2568ED07FCD4232550
:1018C00012041B06A56043F40033022542F0010216
:1018D00065636264E063E160E361034B65626061DC
:1018E000236030BD00B002400100020001207047BB
:1018F0000C2070470C2303FB0100083070470C23B9
:1019000003FB010008307047012070474FF414704A
:1019100070474FF4147303FB0100083070474FF415
:10192000147303FB0100083070470120704710203A
:10193000704700EB01100830704700EB01100830D1
:101940007047084601F03CBA10B5034B03600446EB
:1019500007F0D1FC204610BD4450020810B50446E3
:10196000FFF7F2FF2046142120F07AFB204610BD3D
:1019700010B5034B0360044607F0BDFC204610BDC4
:101980001050020810B50446FFF7F2FF20464FF44E
:10199000167120F065FB204610BD000010B5034B0A
:1019A0000360044607F0A7FC204610BDDC4F020888
:1019B00010B50446FFF7F2FF2046182120F050FB37
:1019C000204610BD10B5084B0360044600F5217099
:1019D000FFF7BAFF04F12C00FFF7CAFF04F114006F
:1019E000FFF7DCFF204610BD7850020808B502481A
:1019F000FFF7E8FF08BD00BF9C12002010B50446A9
:101A0000FFF7E0FF20464FF47E7120F029FB2046CF
:101A100010BD00002DE9F34101F0EEF8054601F09C
:101A2000EFF800240146234628462246009411F090
:101A300065FA274B274A1A60204602F0C3FB264D61
:101A4000264B274A27489A6011F0C0F92B68BFF34C
:101A50005B8FDB0735D4284620F004FB88B3224C8B
:101A6000224B236004F5277604F1140004F12C08BE
:101A700004F521776060C4F80880E760266107F00C
:101A80003BFC1B4B6361404607F036FC194BE3629D
:101A9000384607F031FC184BC4F8843204F5267040
:101AA00002F0B0FC224604F52671304602F00EFC2E
:101AB000304601F085F9114821F02EFB284620F030
:101AC000DDFA0F4802B0BDE8F041FFF7E7BB00BF09
:101AD000A02801204804002098120020680400205B
:101AE0004C040020080000209C12002078500208BE
:101AF000DC4F02081050020844500208ED1900089B
:101B0000C4030020704700000148FFF7D5BB00BFA9
:101B1000C403002070B5264E264C274D274B23606A
:101B20003046FFF755FE284616F0EEFA24480EF030
:101B3000F5FE244B2448DC6000224FF48071C3E999
:101B4000121222491A86C3E91A12214983F8582031
:101B5000C3E91E011F49C3F880101F491F480B60CD
:101B6000F021C3E90422C3E90622C3E90822C3E93C
:101B70000A22C3E90E22C3E91022C3E91422C3E9F1
:101B800017225A6683F870205A67C3E901650180FD
:101B90001348018013484FF4A0710180124801805E
:101BA00012490A70012283F83420114A1A6070BD6C
:101BB000F4040020941200206804002078410208F8
:101BC0004C040020C40300200000010101000001BA
:101BD000000450001A0014003C2801203028012085
:101BE00036280120322801203828012034280120FD
:101BF000A04E02080148FFF777BC00BFF4040020A4
:101C00000020704781807047C18070470181704714
:101C1000418170477047704770477047704710B4F4
:101C2000C4880368121B84885B6D091B12B25DF8BF
:101C3000044B09B218474FF6FF7383814FF0FF330F
:101C400003621368C36110607047002070478B887F
:101C5000838001207047704780F82610704790F805
:101C60002600704710B50022B1F90840B1F90A10FA
:101C7000028042808480C18010BD002202804280A8
:101C80008280C28070470177704780ED080A7047F4
:101C900080F82410704780F82510704701207047A5
:101CA000983070478C307047843070477047704769
:101CB00070470000034B902283F85A2383F858237F
:101CC000704700BF00E100E0094A0A49D3680A48AA
:101CD000C3F30A03013B9BB20B801169C1F30A01F4
:101CE000013901801364536B43F001035363704760
:101CF000006801409616002094160020014BD3F88E
:101D0000AC00704700680140024B0122C3F8AC10E0
:101D10005A6270470068014010B52C21044620F03B
:101D20009FF9204610BD10B5BC21044620F098F95B
:101D3000204610BD70B5044607F0DDFD23689D6E9A
:101D40000DF084FB01462046A8472368054AD3F8D6
:101D50008C502046AC460023BDE87040A2F51631F9
:101D6000604700BF00B004D007F0ACBD07F0B6BDBF
:101D700007F072BD07F0E1BE90F8252012B10368AC
:101D80005B691847704790F825201AB190F8242015
:101D900002B1186070470000034B4FF080629A60F8
:101DA0004FF080729A60704700E100E0084B4FF0FE
:101DB0008062C3F88820BFF34F8FBFF36F8F4FF05F
:101DC0008072C3F88820BFF34F8FBFF36F8F7047C7
:101DD00000E100E070B50023124E8380124B0360D7
:101DE000336893F8582005460AB1D86C00B9986852
:101DF0000368DB6A98473368B0FA80F4D86C6409EA
:101E000030B10368DB6A9847002808BF44F001043A
:101E10002CB9064B064A07482C2121F05FF92846C9
:101E200070BD00BF3C2801208C5002083D450208CF
:101E30009B450208D445020870B5254E3568BFF3AE
:101E40005B8F15F0010540D1304620F00BF90028DA
:101E50003BD0204C204B256104F13400C4E900350F
:101E6000C4E90255E584A562A5850FF03CF804F1AC
:101E700058000AF0C9F8194BA3652046184B40F8E2
:101E8000843BFFF7A7FF174BC4F884302433C4F812
:101E90008C304FF4C803C4E928350023C4F8AC30B3
:101EA000C4F8B030C4F8B430C4F8B8300E480F4BA2
:101EB000C4F89050C4F89C50C4F8A850C4F89830A6
:101EC00021F02AF9304620F0D9F8024870BD00BF51
:101ED000981600209C16002070580208AC5002088A
:101EE0002451020824580208B11C000804580208B2
:101EF00038B5184C23685BB3174B184A1B6C118814
:101F00008B4216D1164B198803F026FF236893F8ED
:101F10006A200025013283F86A2083F87C50FFF79D
:101F2000B7FA206808F064FA2846BDE83840FFF7A1
:101F3000F7B803F011FF2468236820461B6A98470E
:101F4000012384F87C300020BDE83840FFF712B947
:101F500038BD00BF3C2801200068014096160020D3
:101F60009416002007B5064BADF806001B6805481F
:101F700001220DF1060104F08FFC03B05DF804FBB3
:101F80000C0000209C17002008B5642005F044F9DF
:101F9000FBE7000030B595B0102200210AA821F01F
:101FA000A4FA1422002103A821F09FFA00241E4B5A
:101FB00001941A6C42F080521A641B6C03F0805337
:101FC0000193019B194B02941A6842F440421A6033
:101FD0001B6803F4404302930122029B4FF48033B9
:101FE000CDE9082302254FF480030821CDE90E53E3
:101FF0004FF4B473CDE9101308A80423139312957A
:1020000003F002FF03F0C6FE0F23CDE903354FF4C2
:10201000A0504FF48053CDE90603052103A8059491
:1020200004F0CEF815B030BD00380240007000401A
:1020300080B59AB002F002FEFFF7ACFF1422002137
:102040000DA821F052FA0024C74B00941A6BC74820
:10205000C74DDFF8588342F010021A631A6B02F082
:1020600010020092009A01941A6B42F020021A6347
:102070001A6B02F020020192019A02941A6B42F04C
:1020800080021A631A6B02F080020292029A039491
:102090001A6B42F004021A631A6B02F004020392F4
:1020A000039A04941A6B42F001021A631A6B02F04D
:1020B00001020492049A05941A6B42F002021A6318
:1020C0001A6B02F002020592059A06941A6B42F00E
:1020D00040021A631A6B02F040020692069A0794B5
:1020E0001A6B42F008021A631B6B03F008032246C6
:1020F00007933C21079B03F027F89E480122022109
:1021000003F022F822469B48042103F01DF82246E2
:1021100099484FF4405103F017F801263C23CDE9CC
:102120000D3692480F9403230DA90227109302F055
:1021300021FF90480DA9CDE90D76CDE90F4402F0BD
:1021400019FF04238B480DA9CDE90D36CDE90F47C2
:1021500002F010FF0DA94FF440538748CDE90D362A
:10216000CDE90F4702F006FF8448854B036002F07B
:10217000F7FDDFF83CE2834B2C62C5E900E328461B
:102180004FF48043C5E90434C5E90244C5E9064477
:1021900003F0E8F91021284603F02CFC21462846DC
:1021A000794D03F046FC4FF48273C5E900834FF488
:1021B00000791823C5E9069328460A23C5E9024495
:1021C000C5E90444C5E90844AC62EB6204F008FBCD
:1021D0008F232246394667488DF824308DF83440E5
:1021E00002F0B2FF32464FF47A7309A9284604F090
:1021F00053FB4FF47A7332460DA9284604F0F8FCDD
:10220000324639465B48614D02F09EFF9DF83430FE
:10221000D32B04BF5E4B1E705E4B0126C5E9003612
:10222000102240230024C5E904234FF4C073C5E9FC
:1022300006344FF40063C5E908344FF40053022715
:102240004FF00409AB624FF0030A07230DA928469B
:10225000CDE90D73CDE90F934FF00808C5E90249A8
:10226000CDE911A7139704F09FF94FF6FF7209A962
:102270002846CDE90A86089409960C9404F0B4F92E
:10228000304602F007FD4FF6FF7209A92846CDE956
:102290000978CDE90B6404F0A7F94FF6FF7209A99C
:1022A0002846CDE909A8CDE90B9404F09DF94FF437
:1022B0000C730893089B0C934FF6FF7209A92846EC
:1022C000CDE909980B9604F08FF940F26A5128463F
:1022D00004F0A8F934220DEB0200214621F005F9A3
:1022E0002D4D2E4B2C61C5E900340923C5E9053677
:1022F0001D23C5E9073A40F20D1140F24313C5E929
:10230000091340F2171040F24713C5E90B032846A2
:10231000C5E90244AC8685F8364003F025FCFF2170
:102320004FF4806CF022CDE912140521CDE914C1DF
:102330004FF4A0730DA9CDE90E24CDE9164228462D
:102340002246174D1893CDE910370D94ADF864402F
:102350008DF8664003F0D3FC124B2B601B68984746
:102360002B68114DDB6825E0003802400010024068
:102370009C18002000080240000C02403019002088
:1023800000300240A08601009C1700206817002042
:102390005C170020400100A0F417002000680140F5
:1023A0005817002014000020F018002000500140B1
:1023B000005C00409847134B2846C5E90034C5E946
:1023C0000274C5E90A47C5E90C4402F0D9FC31465C
:1023D000284602F08BFDFEF7D7FDFEF7D4FD04F092
:1023E000ABFE094A0948214604F0D2FE084B094ACF
:1023F00018602146084804F0CBFE084B186004F032
:10240000ADFEFEE700B002408C510208891F0008B3
:102410006417002068510208970F00086017002019
:10242000704770477FB5094B8DF817201B680293E2
:102430000DF117020123009201930A460146044858
:1024400003F038F907B05DF804FB00BF100000206E
:102450009C1800207FB500238DF81730084B1B68AF
:1024600002930A4601230DF11701009101930146E1
:10247000044803F0AFF99DF8170007B05DF804FBBE
:10248000100000209C1800201FB5084C2468009202
:10249000CDE901340A4601230146054803F09AF9C3
:1024A000003818BF012004B010BD00BF100000208C
:1024B0009C18002002F0EEBB10B5064C002220460E
:1024C000042102F041FE20460122BDE81040042113
:1024D00002F03ABE0008024038B50B4D0446012216
:1024E0000A484FF4005102F02FFE00220421284632
:1024F00002F02AFE2046FFF735FD28460122BDE8FE
:102500003840042102F020BE00080240000C0240C6
:1025100038B50B4D044600220A484FF4005102F032
:1025200013FE00220421284602F00EFE2046FFF78B
:1025300019FD28460122BDE83840042102F004BEFE
:1025400000080240000C0240F7B5144E144F054637
:102550000C4630460022042102F0F6FD00224FF422
:102560000051384602F0F0FD2846FFF7FBFC0D4B0A
:102570000D481B68224601A904F03AFB38460122A7
:102580004FF40051019C02F0DFFD3046012204218E
:1025900002F0DAFD204603B0F0BD00BF00080240A3
:1025A000000C02400C0000209C17002002F072BBBF
:1025B0000268034B9A4201D102F05ABB704700BF38
:1025C000001000407047000082B00E4B00220092C5
:1025D000596C41F480415964596C01F48041009177
:1025E00000990192196C41F0805119641B6C03F041
:1025F00080530193019B0F216FF0010002B002F0A4
:102600006FBB00BF003802400268094B9A4282B09B
:102610000BD100230193074B1A6B42F480521A63CB
:102620001B6B03F480530193019B02B0704700BF02
:10263000003002400038024007B50F4B02689A4252
:1026400016D10022A3F5F0430192196B41F4000169
:1026500019631B6B03F40003019305215A20019BAE
:1026600002F03EFB5A2003B05DF804EB02F06ABBB7
:1026700003B05DF804FB00BF00B002402DE9F04359
:10268000044689B01422002103A820F02EFF2268FE
:10269000244B9A4243D1244C244800250095236BB7
:1026A00043F004032363236B03F004030093009BB4
:1026B0000195236B43F001032363236B03F00103B4
:1026C0000193019B4FF012094FF400734FF0010882
:1026D0000327042603A9CDE90339CDE90587079629
:1026E00002F048FC4FF480731148079603A9CDE926
:1026F0000339CDE9058702F03DFC0295236C43F4D4
:1027000000032364236C03F400030293029B236AF7
:1027100043F400032362236A23F40003236209B015
:10272000BDE8F083005C0040003802400008024031
:1027300000000240F0B599B004461422002107A819
:1027400020F0D3FE30220DEB0200002120F0CDFE60
:1027500022685E4B9A4240F0B78008230C93C02356
:102760001093042312930CA84FF40033159303F035
:10277000EFFD08B1FFF726FF554B564800240094A3
:102780005A6C42F080625A645A6C02F08062009285
:10279000009A01941A6B42F020021A631A6B02F03D
:1027A00020020192019A02941A6B42F001021A630C
:1027B0001A6B02F001020292029A03941A6B42F021
:1027C00002021A631A6B02F002020392039A049443
:1027D0001A6B42F040021A631A6B02F04002049234
:1027E000049A05941A6B42F004021A631A6B02F001
:1027F00004020592059A06941A6B42F008021A63C5
:102800001B6B03F00803069302250E26069B0B960E
:102810004FF4806307A9CDE90735CDE9094502F0FA
:10282000A9FB41F658032C480B9607A9CDE90735BB
:102830000927CDE9094502F09DFB032327480B97A3
:1028400007A9CDE90735CDE9094502F093FB4FF41F
:10285000706322480B9607A9CDE90735CDE90945F4
:1028600002F088FB4FF40C631D480B9607A9CDE9D5
:102870000735CDE9094502F07DFBC02319480B96C9
:1028800007A9CDE90735CDE9094502F073FB082317
:1028900015480B9607A9CDE90735CDE9094502F0A2
:1028A00069FB4FF4A0530E480B9707A9CDE90735F4
:1028B000CDE9094502F05EFB58202246052102F0D1
:1028C0000FFA582002F03EFA19B0F0BD006801403E
:1028D00000380240001402400000024000040240A0
:1028E0000018024000080240000C024010B50446E7
:1028F00088B01422002103A820F0F7FD2268144BB1
:102900009A4223D103F56843002101915A6C114882
:1029100042F480125A645A6C02F480120192019AB5
:1029200002911A6B42F020021A631B6B03F0200322
:102930000293029B4FF4607202230321CDE903232B
:102940000523CDE9061303A902F014FB08B010BD5E
:1029500000500140001402402DE9F04186B00023F0
:1029600003932B4B1C68002C4FD14FF00108C3F888
:102970000080284B00949A6B274842EA08029A6329
:102980009B6B03EA08030093022703260C25009B98
:1029900001A94FF63F03CDE90137CDE9046502F007
:1029A000E9FA1E48059501A9CDE90187CDE903465D
:1029B00002F0E0FA48F233131948059501A9CDE970
:1029C0000137CDE9034602F0D5FA4FF68373154877
:1029D000059501A9CDE90137CDE9034602F0CAFA10
:1029E0004CF203731048059501A9CDE90137CDE9F3
:1029F000034602F0BFFA60230C48059501A9CDE912
:102A00000137CDE9034602F0B5FA06B0BDE8F08122
:102A1000381900200038024000140240000802402B
:102A20000018024000100240000C02400004024066
:102A300070B588B000230293204B1A6C42F010024C
:102A40001A641B6C03F010030293054601A903A846
:102A5000029B03F05FFC069B4BBB03F04BFC184E44
:102A6000184B336040F2E733F360174BB0FBF3F3DE
:102A7000013B7360304600233361B360B36104F0FF
:102A800087FA044680B9304604F058F9044658B92C
:102A9000362002F057F90F2D0DD822462946362050
:102AA00002F01EF9094B1D60204608B070BD03F00E
:102AB00021FC4000D3E70124F6E700BF00380240C4
:102AC0003C1900200010004040420F007C00002014
:102AD0007047FEE7FEE7FEE7FEE77047014804F0B7
:102AE0006BB900BF3C190020014803F0ABB800BF30
:102AF000F4170020014802F06FB900BFF018002061
:102B00000120704708B520F093FD162303604FF0B5
:102B1000FF3008BD08B520F08BFD16230360FEE7EB
:102B200070B50D4614460E46731B9C4201DC2046D0
:102B300070BDAFF3008006F8010BF5E770B50D46E8
:102B400014460E46731B9C4201DC204670BD16F8ED
:102B5000010BAFF30080F5E74FF0FF3070474FF403
:102B600000534B60002070470120704700207047E1
:102B70000A4A116808B5034609B909491160106885
:102B8000694603448B4206D920F052FD0C230360B2
:102B90004FF0FF3008BD1360FCE700BF8419002030
:102BA00080350120704708B505291CD8DFE801F001
:102BB00003070B0F131701F051FB006808BD01F06C
:102BC0004DFB4068FAE701F049FB8068F6E701F049
:102BD00045FBC068F2E701F041FB0069EEE701F058
:102BE0003DFB4069EAE70020E8E710B50421044610
:102BF0001FF036FA204610BD00487047C451020845
:102C00000A20704713B5002451B1036801948DF870
:102C1000034001AA9C680DF10303A04702B010BD58
:102C20000846FBE7C0897047008A7047C088704734
:102C300080887047807A00F07F007047807AC009F2
:102C400070470020704700009FED010A704700BFE9
:102C500000000000704710B5082104461FF000FA7C
:102C6000204610BD7047704700F5987308684968A2
:102C700003C37047704770474160704770477047A3
:102C8000064BC0F84C310023C0F8503100F5A27358
:102C9000C0F84801C0F84031704700BFB9300008A3
:102CA000012303727047704710B4C2684168541022
:102CB000034601EB6200D20748BF0A599B685DF8E2
:102CC000044B48BFD35818470346406830B19A6850
:102CD0001AB9D86800F0010070470120704710B59C
:102CE0000C2104461FF0BCF9204610BD10B5102180
:102CF00004461FF0B5F9204610BD10B54FF4AE7173
:102D000004461FF0ADF9204610BD10B50CF09EFB37
:102D10000368BDE81040DB6B184710B50446D0F8D7
:102D2000400158B10368DB68984738B1D4F84001D6
:102D300003689B6898470023C4F8403110BD000029
:102D4000044B1B6893F858200AB1D86C00B99868F6
:102D5000704700BF3C280120F8B5174604460E46D0
:102D60000CF036FC124B1C60124B2360124B0025FA
:102D7000C4E95135114BC4E9535518680368012162
:102D80009B68C4E94F55C4E955769847284601F039
:102D900019FAFFF7D5FF17F060F8FFF7D1FF17F02A
:102DA000D7F8FFF7CDFF17F0DFF82046F8BD00BFDA
:102DB00090280120BC520208A45202083C2801209D
:102DC000064BC0F84C310023C0F8503100F5A27317
:102DD000C0F84801C0F84031704700BFB930000862
:102DE000064BC0F84C310023C0F8503100F5A273F7
:102DF000C0F84801C0F84031704700BF712F00088B
:102E0000064BC0F84C310023C0F8503100F5A273D6
:102E1000C0F84801C0F84031704700BF292E0008B3
:102E200003685B6A184700002DE9F14FD0E9556A45
:102E30000746B06803681B6A9847B0F5FE7F05D265
:102E4000434B444AA321444820F048F97068036882
:102E50001B6A98470F2803D8404B3E4AA421F2E74B
:102E6000F06803681B6A98470B2803D83C4B394A23
:102E7000A521E8E70CF0EAFADFF8EC9004300CF05A
:102E80000AFBD9F8000010B10368DB689847D9F84D
:102E9000000010B103681B689847DFF8D080D8F8AD
:102EA000000010B103685B699847D7F83C0110B186
:102EB00003685B689847D8F8000010B103681B6886
:102EC0009847D7F83C0110B103689B689847F068B1
:102ED0000021FFF7A5FF4FF0000B224BC0F804B014
:102EE000044680F808B00360B068036859465B6A1E
:102EF0009847054601F024FA7068036859465B6AF2
:102F000098472946064601F0F9F9331DC7F83C6198
:102F1000C9F80040C8F80050CAF800302B68C6F85D
:102F200008A02846DB68EE639847336830461B6884
:102F30009847214628460EF039FC236820461B6935
:102F4000984723685B69204601B0BDE8F04F1847F9
:102F50004B460208D9460208B94702080048020851
:102F6000A348020810530208842801208028012069
:102F70002DE9F14FD0E9556A0746B06803681B6A2E
:102F80009847B0F5147F05D2434B444AA3214448E7
:102F900020F0A4F8706803681B6A98470F2803D8CC
:102FA000404B3E4AA421F2E7F06803681B6A984749
:102FB0000B2803D83C4B394AA521E8E70CF046FA28
:102FC000DFF8EC9004300CF066FAD9F8000010B18C
:102FD0000368DB689847D9F8000010B103681B68E4
:102FE0009847DFF8D080D8F8000010B103685B691B
:102FF0009847D7F83C0110B103685B689847D8F848
:10300000000010B103681B689847D7F83C0110B165
:1030100003689B689847F0680021FFF701FF4FF0B5
:10302000000B224BC0F804B0044680F808B00360DF
:10303000B068036859465B6A9847054601F020FA74
:103040007068036859465B6A98472946064601F04E
:10305000EBF9331DC7F83C61C9F80040C8F80050CF
:10306000CAF800302B68C6F808A02846DB68EE6373
:103070009847336830461B689847214628460EF02B
:1030800095FB236820461B69984723685B692046A7
:1030900001B0BDE8F04F18474B4602084649020808
:1030A000B947020800480208A34802081053020862
:1030B00084280120802801202DE9F14FD0E9556AAC
:1030C0000746B06803681B6A9847B0F5C87F05D209
:1030D000434B444AA321444820F000F87068036839
:1030E0001B6A98470F2803D8404B3E4AA421F2E7B9
:1030F000F06803681B6A98470B2803D83C4B394A91
:10310000A521E8E70CF0A2F9DFF8EC9004300CF010
:10311000C2F9D9F8000010B10368DB689847D9F804
:10312000000010B103681B689847DFF8D080D8F81A
:10313000000010B103685B699847D7F83C0110B1F3
:1031400003685B689847D8F8000010B103681B68F3
:103150009847D7F83C0110B103689B689847F0681E
:103160000021FFF75DFE4FF0000B224BC0F804B0CA
:10317000044680F808B00360B068036859465B6A8B
:103180009847054601F032F97068036859465B6A52
:1031900098472946064601F007F9331DC7F83C61F8
:1031A000C9F80040C8F80050CAF800302B68C6F8CB
:1031B00008A02846DB68EE639847336830461B68F2
:1031C0009847214628460EF0F1FA236820461B69ED
:1031D000984723685B69204601B0BDE8F04F184767
:1031E0004B460208184A0208B9470208004802087C
:1031F000A3480208105302088428012080280120D7
:103200007047704770477047704730B5036885B0A6
:103210006D460181D3F8843001460446284698471C
:1032200095E807003C3484E8070005B030BD30B5B0
:10323000036885B06D464181D3F884300146044669
:103240002846984795E807003C3484E8070005B015
:1032500030BD0022028042808280C280704780F8A8
:103260003610704770B5036804461B6B15469847C7
:103270002368294620465B6EBDE870401847002051
:103280007047806C7047704770477047704730B424
:10329000C26844685510034604EB6200D20748BF79
:1032A00062599B6830BC48BFD358184703464068F2
:1032B00030B19A681AB9D86800F00100704701204F
:1032C000704710B54C2104461EF0CAFE204610BDC2
:1032D00010B5102104461EF0C3FE204610BD10B5E7
:1032E0004FF4FC7104461EF0BBFE204610BD08B52D
:1032F000FEF742FD08BD0000036870B55E6B124B1F
:103300001B6804468DB22BB9104B114A6C21114831
:103310001FF0E4FE1049828D0988914203D80F4BBB
:103320000B4A6D21F3E713F812200D4B1B6853F87D
:10333000220003681B6B9847291A3346204609B2BE
:10334000BDE87040184700BF94280120E44A0208F5
:10335000264B0208614B020898280120A84B02085E
:103360009C280120E030884208B505D10CF06EF8A9
:10337000BDE80840FFF734BD08BD00224FF0FF3123
:10338000C0E900218260704770B5036804461B6B7A
:10339000154698472368294620465B6BBDE8704078
:1033A000184770B504461D46BDF91060FFF7ECFFE5
:1033B0002368294620469B6B984723683146204660
:1033C000DB6BBDE870401847094A02604FF480711A
:1033D00000228184FF21C0E90122C0E90322C0E963
:1033E0000522C0E9072280F826108262704700BFDC
:1033F000C45902084FF4807181840D4901600D4960
:1034000081624FF6FF7181854FF47F010022416395
:103410004FF0FF31C0E90122C0E90322C0E90522D3
:10342000C0E90722C0E9101202630287C263704735
:103430003459020894520208F8B5194B018F1B88C1
:103440008B4206462AD9174B1B682BB9164B174AD5
:1034500017486C211FF042FE13F81120154B1B6812
:1034600053F82250144B186800F0E8FE2B6807460A
:103470009B6B284698472B6804469B6C3946284628
:1034800098472B6814FB00F45B6A39462846984736
:10349000A4B223181BB2A6F84630F8BD0023FAE701
:1034A0009828012094280120E44A0208264B0208AB
:1034B000614B02089C280120A02801202DE9F04F33
:1034C00004468FB0A04600250DF0C4FF924BE56383
:1034D00048F8403B04F16C0A404604F19807FFF7B6
:1034E00073FF504604F1E006FFF76EFF3846FFF722
:1034F00081FF304609F0FEFB04F594731846DFF8AF
:1035000048920393FFF776FF04F5BA73C4F8289145
:103510001846C4F870510493FFF76CFF7F4BC4F852
:103520007491C4E97A347E4BC4F8BC51C4E97C354B
:103530004FF4A07304F1040B2A4640464FF07F4934
:1035400000932946F023FFF72CFF41465846C4F864
:10355000689005F0E5FE4FF4A0732A4650460093AC
:103560002946F023FFF71DFF6E4BC4F894305146F7
:10357000584605F0D5FE0DF118086622384605219B
:10358000FFF702FF39464046C4F8C890A4F8CC5073
:1035900008F038FE98E8070004F1D40383E8070038
:1035A000DFF8A8A1CDF830A0072338460CA9ADF864
:1035B000343009F0CFF83946584605F0B1FE3046B0
:1035C000B4222121FFF7E0FE03270CAA4FF00403E9
:1035D0000BA93046ADF83030ADF82C7009F017F972
:1035E00006233046A4F81831FFF726FF4FF0FF33CB
:1035F000C4E9473304F5F4733146C4F8083158463A
:1036000005F08EFE1E238922039800931621D523F0
:10361000FFF7C7FED4F828310399D3F88430C4F8F3
:1036200058914046A4F85C51984798E8070004F583
:10363000B2733D4E83E8070004F5E07305933368E9
:103640002BB93A4B3A4A60213A481FF047FD3A4BB2
:103650001B88042B03D8394B354A6121F4E7DFF886
:10366000F0900421D9F8000000F0E8FD344A034648
:103670000A2105980FF09CFB059B0398C4F8703154
:103680000CA90523ADF83430CDF830A009F062F86C
:103690000399584605F044FE1B230C22049800931E
:1036A0000F21E123FFF77DFE264BC4F8A431D4F8A7
:1036B00074310499D3F88430A4F8A851404698474F
:1036C00098E8070004F5D87383E80700336804F529
:1036D000EA75002BB5D0184B1B88022BBBD9D9F843
:1036E0000000022100F0AAFD154A03460A212846DF
:1036F0000FF05EFB0498C4F8BC510CA9CDF830A0C3
:10370000ADF8347009F026F85846049905F008FE23
:1037100020460FB0BDE8F08FDC530208C453020806
:1037200065330008EFF781FF94280120E44A02087E
:10373000E64B0208614B020898280120A84B0208BA
:10374000314C02080000FFFF345302089452020873
:10375000A0280120406A7047806A704770478A88B5
:103760000B8810B5D20A4C88C1699BB251F822006F
:1037700043EA0443184410BD10B50446BAB1107BA7
:1037800068B1537BD27A1B0203F4E0631A43236AC5
:1037900003EB82031A888A4202D193F9020010BD1A
:1037A00005D8013880B204330028F3D1F7E70020B0
:1037B000F5E710B52C2104461EF052FC204610BD42
:1037C00030B58BB00446BDF860500895BDF85C502C
:1037D00007959DF8505006959DF84C5005959DF81D
:1037E000485004959DF8445003959DF8405002952B
:1037F0009DF83C500195BDF8385000950DF030FC17
:10380000064B2360159BE361169B2362199B636241
:103810001A9BA36220460BB030BD00BF10540208B3
:1038200070477047704730B4C2684468551003460B
:1038300004EB6200D20748BF62599B6830BC48BFA6
:10384000D35818470346406830B19A681AB9D86807
:1038500000F0010070470120704710B510210446A8
:103860001EF0FEFB204610BD10B54FF4C871044693
:103870001EF0F6FB204610BD9830884208B505D1F1
:103880000BF0E4FDBDE80840FFF7AABA08BD000050
:103890000022C0E90122C0E90322C0E90522C0E9F3
:1038A00007224FF480728284014A0260704700BF91
:1038B0007854020838B5262204460D4600211FF030
:1038C00014FE2046FFF7E4FF064B23602B88E384B9
:1038D000FF23204684F82830294609F0CAF82046FC
:1038E00038BD00BF2C5A02082DE9F04F04468DB0B8
:1038F000A14600250DF0AEFD694BE56349F8403B5C
:103900004846FFF761FD04F16C0304F1980818467E
:1039100004F1E0070393FFF757FD404609F0EAF989
:103920002946262238461FF0E0FD3846FFF7B0FF53
:103930005C4BC4F8E0305C4BC4F8083104F5947279
:103940004FF47F034FF0FF3A4FF6FF7604F5AA7B62
:10395000C4F81431A4F80C610AA91046C4E948A5BA
:10396000C4F81051A4F81851C4F81C510292ADF8D3
:1039700028A0FFF79FFF0AA95846ADF82860FFF777
:1039800099FF4A4BC4E96034494B4FF4A072C4E933
:10399000623529460092F0232A464846FFF701FD8A
:1039A000261D4FF07F42A2664946304605F0B8FC1E
:1039B0004FF4A0720398009229462A46F023FFF79D
:1039C000F0FC3C4BC4F894300399304605F0A8FC59
:1039D00029464046DC22FFF7D7FC4FF001090AAA2E
:1039E000022309A94046ADF82830ADF8249008F02C
:1039F0000EFF4046A4F8D090FFF71EFD04F5C073FB
:103A0000C4F8C03041463046C4E935AA05F088FC08
:103A100038462E220521FFF7B7FC0DF110084FF0B4
:103A20007F42C4F8102139464046A4F8145108F0EA
:103A3000E9FB98E8070004F58E7383E807001A4B4A
:103A40000A930AA93846ADF82C5008F083FE39468F
:103A5000304605F065FC782202981B21FFF794FCA4
:103A600007230298ADF828300AA909F002F8029954
:103A7000304605F055FC78225846A721FFF784FC14
:103A800008230AA95846ADF8283008F0F2FF30465E
:103A9000594605F045FC20460DB0BDE8F08F00BF4B
:103AA000F85402083459020894520208E0540208FB
:103AB00079380008EFF781FF70477047704770470B
:103AC00030B4C26844685510034604EB6200D20764
:103AD00048BF62599B6830BC48BFD358184703465B
:103AE000406830B19A681AB9D86800F00100704790
:103AF0000120704710B5102104461EF0B1FA20468F
:103B000010BD10B54FF40B7104461EF0A9FA204603
:103B100010BD08B50BF09AFCBDE80840FFF770B97E
:103B200000F58E728A4202D103681B6B18477047FA
:103B30002DE9F04F044691B0A14600250DF08AFC16
:103B4000A04BE56349F8403B4846FFF73DFC04F1D4
:103B50006C0318460693FFF737FC04F198031846E8
:103B60000793FFF731FC04F1C4034FF6FF760EA96B
:103B700018460393ADF83860FFF79CFE04F1F0039C
:103B8000184604F58E780EA9049304F5B277ADF8C3
:103B90003860FFF78FFE404609F0ACF82622294630
:103BA00038461FF0A2FC3846FFF772FE864BC4F879
:103BB0008C314FF47F03C4F89831844BC4F86431DE
:103BC0004FF0FF3A04F5D8731846C4E969A5A4F884
:103BD0009061C4F89451A4F89C51C4F8A051C4F861
:103BE000AC510EA904F5EE7B0593ADF838A0FFF7B4
:103BF00061FE0EA95846ADF83860FFF75BFE744BC6
:103C0000C4E98734734BC4E989354FF4A0732A465D
:103C1000294600934846F023FFF7C3FB261D4FF0CB
:103C20007F43A3664946304605F07AFB4FF4A07304
:103C30002A46294606980093F023FFF7B2FB664B0D
:103C40000699C4F89430304605F06AFB8223BE2200
:103C5000294607980093F023FFF7A3FB5F4BC4F8B6
:103C6000C0300799304605F05BFB8F22039818217E
:103C7000FFF78AFB07230398ADF838300EA908F048
:103C8000F8FE0399304605F04BFB9222049840F26F
:103C90002D11FFF779FB06230498ADF838300EA9F3
:103CA00008F0E7FE0499304605F03AFB2946E62283
:103CB0004046FFF769FB0EAA0DA94046ADF8345007
:103CC000ADF8385008F0A3FD0823A4F8543140465D
:103CD000FFF7B2FB04F50773C4F8443141463046A0
:103CE000C4E956AA05F01CFB15232A46009351216E
:103CF00095233846FFF755FB4FF07F43C4F89431C6
:103D0000D4F86431A4F8985108AD2846D3F884302B
:103D10003946984795E8070004F5D07383E8070013
:103D20002F4B1B6804F502752BB92E4B2E4A6021D0
:103D30002E481FF0D3F92E4B1B88092B03D82D4B8F
:103D4000294A6121F4E72C4B0921186800F076FA22
:103D50002A4A03460A2128460FF02AF81A4BC4F8CB
:103D6000AC510E930EA90A233846ADF83C3008F04A
:103D7000F1FC3946304605F0D3FA21220598F021AE
:103D8000FFF702FB05250598ADF838500EA908F09D
:103D900070FE0599304605F0C3FA3F2258464FF4AD
:103DA000B971FFF7F1FA0EA95846ADF8385008F08E
:103DB00060FE3046594605F0B3FA204611B0BDE822
:103DC000F08F00BF44550208945202083453020891
:103DD0002C550208213B0008EFF781FF2B2321FF20
:103DE00094280120E44A0208E64B0208614B0208CD
:103DF00098280120A84B0208A0280120314C020875
:103E00007047000030B5164D2C6814F001048FB0D7
:103E1000BFF35B8F21D128461EF024F9E8B13F2380
:103E20000993104B0893104B104911480A94CDE99F
:103E3000064301220423CDE90332172300930F2206
:103E4000CDE90B44CDE901440594FFF7B9FC0948DD
:103E50001FF062F928461EF011F905480FB030BD79
:103E600088190020AC840208D8840208B4800208B3
:103E70008C190020013E00087047000030B5174D36
:103E80002C6814F001048FB0BFF35B8F23D1284658
:103E90001EF0E8F8F8B13F230993114B0893114B3A
:103EA00007930223CDE9053301220423CDE9033230
:103EB0001D230D4900930A221F23CDE90B44CDE9B0
:103EC00001440A480A94FFF77BFC09481FF024F9D3
:103ED00028461EF0D3F805480FB030BDB8190020B1
:103EE000B0840208DC84020888810208BC19002022
:103EF000793E00087047000030B5164D2C6814F06C
:103F000001048FB0BFF35B8F21D128461EF0AAF8C1
:103F1000E8B13F230993104B0893104B07930123FB
:103F2000CDE9054304930423CDE9024316230C494C
:103F300000931222CDE90B440A480A940194FFF73A
:103F40003FFC09481FF0E8F828461EF097F805489E
:103F50000FB030BDE8190020C8840208E0840208D0
:103F600014820208EC190020F53E0008704700009A
:103F700030B5164D2C6814F001048FB0BFF35B8F81
:103F800020D128461EF06EF8E0B13F230993104B74
:103F90000893104B104911480A940122CDE90643B9
:103FA0000423CDE903320A230093CDE90B44CDE984
:103FB00001440594FFF704FC09481FF0ADF82846BA
:103FC0001EF05CF805480FB030BD00BF181A002085
:103FD000CC840208E4840208108302081C1A002022
:103FE0006D3F00087047000030B5174D2C6814F085
:103FF00001048FB0BFF35B8F22D128461EF032F848
:10400000F0B13F230993114B0893114B114912480A
:104010000A94CDE9064301220423CDE90332142397
:1040200000931B221823CDE90B44CDE901440594EC
:10403000FFF7C6FB09481FF06FF828461EF01EF870
:1040400005480FB030BD00BF481A0020D0840208D8
:10405000E8840208208302084C1A0020E53F00088B
:104060007047000030B5164D2C6814F001048FB075
:10407000BFF35B8F20D128461DF0F4FFE0B13F2352
:104080000993104B0893104B104911480A940122D0
:10409000CDE906430423CDE9033228230093CDE97B
:1040A0000B44CDE901440594FFF78AFB09481FF052
:1040B00033F828461DF0E2FF05480FB030BD00BFC1
:1040C000781A0020D4840208EC8402089C84020838
:1040D0007C1A0020614000080020704700207047D3
:1040E0000EB403B503AB002153F8042B01930CF07D
:1040F00035FA02B05DF804EB03B070470CB407B5B5
:1041000004AB53F8042B01930CF028FA03B05DF8CC
:1041100004EB02B070470000436C10B5044673B363
:10412000038F2BB9184B194AC52119481EF0D6FF29
:10413000C38E00EB43035B8C0BB30EF090F8238F20
:10414000012B03D8134B144ACB21EEE7E28E531C0C
:104150009BB2092B194688BFA3F10A0104EB410168
:1041600040F63F10498C814209D10A2B04EB4202F0
:1041700028BF002304EB4303508C5884518420460D
:10418000BDE810400DF06EBF344C02083D4C0208F3
:10419000E84C0208324D0208404D02080DF029BFDC
:1041A00010B586B002AC84E806001A460AAB059347
:1041B0000193099B00932146089B0AF0E5FC06B099
:1041C00010BD000038B518BB124B13481C681349CA
:1041D000B4B1226822440260626822440A60A26884
:1041E00014440F4B00221A8000F038F8054600F006
:1041F00033F80C4B1C600C4B1D600C4B188007E017
:104200000B4B03600B4B0B600B4B1C68002CE8D175
:1042100038BD00BFB41A0020AC1A0020A81A002034
:10422000B01A0020942801209C2801209828012001
:104230001C850208F0840208D4850208044B1B6820
:1042400053F82100034B1B6803EB4000704700BF8D
:10425000A81A0020AC1A00200B20704700487047B5
:10426000B81A002010B5FFF7BFFE094C2060FFF719
:10427000F9FE6060FFF77CFEA060FFF7C3FDE06021
:10428000FFF7FCFD2061FFF737FE606110BD00BF46
:10429000B81A002010B5002404600C6014601C6083
:1042A00010BD704710B54FF4AE7104461DF0D8FE36
:1042B000204610BD10B50446D0F8580100F0A5F80E
:1042C0002046BDE810400BF043B9000010B504468D
:1042D000FEF742FD014B2360204610BD80550208C9
:1042E000704704387047704710B5102104461DF020
:1042F000B7FE204610BDA0F10400F5E70022826061
:10430000024A026018324260C1607047D455020808
:104310007047000010B5034B03600446FEF7B5FF7D
:10432000204610BDFC55020810B50446FFF7F2FF09
:1043300020464FF4FE711DF093FE204610BD000094
:1043400010B50446FFF7BAF8034B23600023C4F806
:10435000F831204610BD00BFFC55020810B50446D8
:10436000FEF794FF074B084A1B68C4F8F83104F5C0
:10437000E0700A210EF01CFD04F59470BDE81040B9
:104380000CF016BAD01A0020124E020870470438FA
:104390007047704710B5102104461DF061FE20469D
:1043A00010BDA0F10400F5E700228260024A02601D
:1043B00018324260C16070473056020870470000F2
:1043C00010B5034B03600446FFF72BFA204610BDDF
:1043D0005856020810B50446FFF7F2FF20464FF486
:1043E000C8711DF03DFE204610BD000010B504460A
:1043F000FFF77AFA014B2360204610BD5856020899
:10440000FFF710BA00220260704770477047043807
:104410007047704710B5102104461DF021FE20465C
:1044200010BDA0F10400F5E700228260024A02609C
:1044300018324260C16070478C560208704790F88D
:10444000383233B9012380F838326FF00E03C0F8E8
:104450003032704710B5034B03600446FFF72EFB64
:10446000204610BDB456020810B50446FFF7F2FF0F
:1044700020464FF414711DF0F3FD204610BD0000DE
:1044800010B50446FFF754FB074B236001220023BD
:10449000C4E98B33C4E98F33C4F8342284F838324A
:1044A000C4F84C32204610BDB456020810B504467C
:1044B000FFF705FBB4F9CE20B4F99E309B1AC4F87F
:1044C0002C32A4F8CA30064B1A88C4F83C22922336
:1044D000C4F84032A4F8F420A4F8F63010BD00BFB0
:1044E0003028012090F838322DE9F04704461BB3FC
:1044F00000F1C40528460CF05BF9D4E98B21D4F80F
:1045000034320B440A44C4F83032B4F9CE10B4F952
:104510009E30C4F82C225B1A9A42A1BFC4F82C32F8
:104520000023C4F8303284F83832D4F82C32A4F89E
:10453000CA3028460CF03CF904F1F00528460CF08E
:1045400037F9D4F83C32B4F9F820043BDA42C4F825
:104550003C3212D55E4B5F4A1B88C4F83C32D4F81B
:104560004C320133C4F84C320A2104F502700EF0CB
:104570001FFC04F5B2700CF01BF9D4F83C32A4F81F
:10458000F430D4F84032A4F8F630284604F5D87553
:104590000CF00EF928460CF00BF9D4F84432B4F9BB
:1045A000B821013BDA42C4F8443242BF484B1B8871
:1045B000C4F84432D4F84432A4F8B43128460CF09C
:1045C000F7F804F5EE700CF0F3F894ED927AB4F984
:1045D000E431F7EE047A37EE677A07EE903AF8EEB8
:1045E000E77A84ED927A77EE877AF5EEC07AF1EE8B
:1045F00010FA13D5364B374A1B8807EE903AF8EE7F
:10460000677AD4F84C32C4ED927A0A2104F502702C
:104610000EF0CEFB04F5B2700CF0CAF8D4ED927A2D
:10462000FDEEE77A284617EE903AA4F8E0310CF058
:10463000BFF8B4F9C830D4F83C02C01AFBF77AFFCF
:10464000B4F9CA300646D4F84002C01A0F46FBF748
:1046500071FF3246804689463B4630463946FBF775
:10466000D3FF424606460F464B4640464946FBF7B7
:10467000CBFF02460B4630463946FBF70FFE41ECB6
:10468000100B1DF014FD144B51EC100B0022FCF725
:104690002DFAD0B1114BD4F84C221A600C4A0023E9
:1046A0001288C4F84C32C4F83C220A21094A04F5A5
:1046B00002700EF07DFB04F5B2700CF079F82368FF
:1046C0002046DB6ABDE8F0471847BDE8F08700BF29
:1046D00030280120124E020800004640D01A002067
:1046E000F02070474FF4A07070472920FDF710BFED
:1046F0002820FDF70DBF08B5FDF7DEFECA20FDF747
:1047000007FFC320FDF7E8FE0820FDF7E5FE502077
:10471000FDF7E2FECF20FDF7FBFE0020FDF7DCFEFB
:10472000C120FDF7D9FE3020FDF7D6FEED20FDF7C4
:10473000EFFE6420FDF7D0FE0320FDF7CDFE122032
:10474000FDF7CAFE8120FDF7C7FEE820FDF7E0FE79
:104750008520FDF7C1FE0020FDF7BEFE7820FDF7A5
:10476000BBFECB20FDF7D4FE3920FDF7B5FE2C2093
:10477000FDF7B2FE0020FDF7AFFE3420FDF7ACFEE2
:104780000220FDF7A9FEF720FDF7C2FE2020FDF76D
:10479000A3FEEA20FDF7BCFE0020FDF79DFE0020F1
:1047A000FDF79AFEB120FDF7B3FE0020FDF794FE61
:1047B0001B20FDF791FEB620FDF7AAFE0A20FDF7AB
:1047C0008BFEA220FDF788FEC020FDF7A1FE102081
:1047D000FDF782FEC120FDF79BFE1020FDF77CFE59
:1047E000C520FDF795FE4520FDF776FE1520FDF767
:1047F00073FEC720FDF78CFE9020FDF76DFE36207E
:10480000FDF786FEC820FDF767FEF220FDF780FE6B
:104810000020FDF761FEB020FDF77AFEC220FDF713
:104820005BFEB620FDF774FE0A20FDF755FEA720BB
:10483000FDF752FE2720FDF74FFE0420FDF74CFE4A
:104840002A20FDF765FE0020FDF746FE0020FDF75B
:1048500043FE0020FDF740FEEF20FDF73DFE2B203C
:10486000FDF756FE0020FDF737FE0020FDF734FE71
:104870000120FDF731FE3F20FDF72EFEF620FDF76B
:1048800047FE0120FDF728FE0020FDF725FE06204B
:10489000FDF722FE2C20FDF73BFEC820FDF786FE2B
:1048A0002620FDF735FE0120FDF716FEE020FDF77E
:1048B0002FFE0F20FDF710FE2920FDF70DFE24200E
:1048C000FDF70AFE0C20FDF707FE0E20FDF704FEA3
:1048D0000920FDF701FE4E20FDF7FEFD7820FDF7D3
:1048E000FBFD3C20FDF7F8FD0920FDF7F5FD132049
:1048F000FDF7F2FD0520FDF7EFFD1720FDF7ECFDBC
:104900001120FDF7E9FD0020FDF7E6FDE120FDF7B0
:10491000FFFD0020FDF7E0FD1620FDF7DDFD1B206B
:10492000FDF7DAFD0420FDF7D7FD1120FDF7D4FDDA
:104930000720FDF7D1FD3120FDF7CEFD3320FDF737
:10494000CBFD4220FDF7C8FD0520FDF7C5FD0C207D
:10495000FDF7C2FD0A20FDF7BFFD2820FDF7BCFDD5
:104960002F20FDF7B9FD0F20FDF7B6FD1120FDF753
:10497000CFFDC820FDF71AFE2920FDF7C9FDBDE8CF
:1049800008402C20FDF7C4BD08B5FDF795FD0321B7
:10499000D320FDF7D9FD80B208BD10B5C4B2022204
:1049A00003212046FDF73EFD0A20FDF783FD20464A
:1049B00000220321FDF736FDBDE810400220FDF77F
:1049C00079BD38B50446E4B2FDF72AFD0021204642
:1049D000FDF740FD012105462046FDF73BFD40EA7D
:1049E000052080B238BD10B5C4B240212046FDF785
:1049F00031FD030607D54C212046FDF72BFD00387D
:104A000018BF012010BD01224B212046FDF70AFDF1
:104A1000204600224B21FDF705FD0020F2E773B58B
:104A20000423C4B20E461546D7210DEB03022046DF
:104A3000FDF72AFD019B1BBA1A0DC3F30B2332802D
:104A400020462B8001224B21FDF7ECFC00224B215C
:104A50002046FDF7E7FC02B070BD000010B50A4A21
:104A60001378984204460DD0517888420AD00BB191
:104A700041B90123D454FDF7D3FC2046BDE81040D2
:104A8000FFF78BBF10BD00BFD41A002010B5C4B211
:104A900009212046FDF7DEFC40F00102D2B220469B
:104AA0000921BDE81040FDF7BDBC10B5C4B2092115
:104AB0002046FDF7CFFC092100F0FE022046BDE8AC
:104AC0001040FDF7AFBC38B5C4B20D4620460A21F0
:104AD000FDF7C0FC40EA0502D2B220460A21BDE83B
:104AE0003840FDF79FBC10B50446FDF79AFC204600
:104AF0001F21FFF7E8FF2046BDE81040FFF7C6BFC3
:104B000038B5C4B20D4620460A21FDF7A3FC20EAC1
:104B10000502D2B220460A21BDE83840FDF782BC2A
:104B200010B50446FFF7C1FF20461F21BDE8104025
:104B3000FFF7E6BF10B5C0B20C460B21FDF78AFCAB
:104B4000204010BD1F21FFF7F5BF0A46C0B20B2160
:104B5000FDF768BC1F21FFF7F8BF38B5C4B20D469A
:104B600020461721FDF776FC20EA0502D2B2204646
:104B70001721BDE83840FDF755BC70B5C4B20646F4
:104B800004212046FDF766FC042100F0FB020546E7
:104B90002046FDF747FC3046F021FFF7DEFF05F029
:104BA000F80220460421FDF73DFC49222021204641
:104BB000FDF738FC0220FDF77DFC20460122212173
:104BC000FDF730FC20469A224121FDF72BFC2046C0
:104BD00001224A21FDF726FC204601224B21FDF748
:104BE00021FC204600224B21FDF71CFC204601221F
:104BF0005621FDF717FC204601225821FDF712FC33
:104C0000204601224021FDF70DFC2046FF220B210A
:104C1000FDF708FCBDE870400220FDF74BBC00002A
:104C2000054BD3F8882042F47002C3F888204FF077
:104C300000629A60704700BF00ED00E008B50B4BC2
:104C40001A6842F400721A601A6842F480621A60AC
:104C50001A6842F480721A60032000F02FF80020D6
:104C6000FDF7E6FEFDF7B0FC002008BD003C024069
:104C7000034A044B11681B780B441360704700BF54
:104C8000D81A002078000020014B1868704700BF38
:104C9000D81A002038B50446FFF7F6FF631C1CBF86
:104CA000054B1B78054618BFE418FFF7EDFF431BC3
:104CB000A342FAD338BD00BF780000200749CA6874
:104CC00022F4E0620302120403F4E063120C1343C3
:104CD00043F0BF6343F40033CB60704700ED00E066
:104CE000164B30B5DC68C4F30224C4F10703251D5C
:104CF000042B28BF0423062D4FF0FF358CBF033C47
:104D0000002405FA03F321EA0303A54022EA050281
:104D1000A340002843EA0203ACBF00F16040084A08
:104D20004FEA0313B8BF00F00F00DBB2AABF00F5D3
:104D30006140135480F8003330BD00BF00ED00E047
:104D400014ED00E0002807DB044A4109012300F0CC
:104D50001F00834042F82130704700BF00E100E0AF
:104D600010B5044650B1437903F0FF0213B9027144
:104D7000FDF74AFC01236371002010BD0120FCE710
:104D800010B5044620B390F8393003F0FF021BB988
:104D900080F83820FDF750FC022384F8393023686E
:104DA00061681A6822F440320A431A605A6BA1689B
:104DB00022F007020A435A631A6CE1686FF30D028E
:104DC0000A431A6400200123E06384F8393010BDDF
:104DD0000120FCE770477047036870B55E681D6886
:104DE000F207044614D5E90512D51A6822F4807238
:104DF0001A60C26B42F00102C26301229A6004236E
:104E000080F83930002380F83830436903B198477F
:104E1000B20616D5AB0414D523681A6822F40052E2
:104E20001A6020229A60E36B43F00203E3630423D9
:104E300084F83930002384F8383063690BB1204698
:104E40009847300716D5290514D523681A6822F427
:104E500000621A6008229A60E36B43F00403E36384
:104E6000042384F83930002384F8383063690BB1A7
:104E70002046984772070BD56B0509D523681A6839
:104E800022F480621A6004229A602046FFF7A2FF93
:104E9000B00714D5A90512D523681A6822F4007248
:104EA0001A6002229A60E36BE363012384F83930CD
:104EB000002384F8383023690BB120469847F20666
:104EC00013D5EB0411D523681A6822F480521A60B6
:104ED00010229A60E36BE363012384F839300023E6
:104EE00084F838302046FFF776FF70BDF0B590F8B3
:104EF0003820012A03464FF002002BD0012283F80C
:104F0000382083F8390003EB0112D2E90740556AD3
:104F1000174F44EA0040093C012C9CBF05F07F423A
:104F200010434FEA01161A6888BF40EA056091B93C
:104F3000516A394001435162012C9969916103D84A
:104F4000596A21F07F4191620122002083F83920C3
:104F500083F83800F0BDD16939400143D161991916
:104F6000012C896911619CBF25F07F451562EBE733
:104F7000F0FFFC002DE9F74FDFF8BC916C4A0023ED
:104F80000D6801249C4004EA0506AC4340F0B7805C
:104F90004D68032705F003044FEA430807FA08FCAD
:104FA000671E012F6FEA0C0C34D8876807EA0C0ED5
:104FB000CF6807FA08F747EA0E078760476827EACD
:104FC000060EC5F300179F4047EA0E074760C76803
:104FD00007EA0C0E8F6807FA08F747EA0E07022C5B
:104FE000C76019D14FEAD30A00EB8A0A03F0070B16
:104FF000DAF820704FEA8B0B4FF00F0E0EFA0BFE13
:1050000027EA0E0E0F6907FA0BF747EA0E07CAF8F0
:10501000207001E0032CDAD1076804FA08F407EAEB
:105020000C073C4315F4403F046068D00024019411
:10503000D9F8444044F48044C9F84440D9F8444085
:1050400023F0030707F1804704F4804407F59C37F9
:10505000019403F0030C019CD7F808E04FEA8C0C94
:105060000F2404FA0CF42EEA040E324CA0424DD068
:1050700004F58064A0424BD004F58064A04249D07E
:1050800004F58064A04247D004F58064A04245D076
:1050900004F58064A04243D004F58064A04241D06E
:1050A00004F58064A0423FD004F58064A0423DD066
:1050B00004F58064A04214BF0A24092404FA0CF405
:1050C00044EA0E04BC609468F74315F4801F0CBFDB
:1050D0003C4034439460D46815F4001F0CBF3C403E
:1050E0003443D460546815F4003F0CBF3C40344353
:1050F00054601468ED0354BF3C40344314600133E2
:10510000102B7FF43DAF03B0BDE8F08F0024D5E74E
:105110000124D3E70224D1E70324CFE70424CDE719
:105120000524CBE70624C9E70724C7E70824C5E719
:10513000003C01400000024000380240036919426F
:1051400014BF0120002070470AB181617047090433
:10515000FBE7436901EA030221EA030141EA024154
:105160008161704701684B6913F480634FF000025E
:1051700010D06FF480634B612023026380F83D30D0
:1051800080F83E20036C80F83C2043F00403036465
:1051900001207047184670472DE9F84606460F462D
:1051A00091461D464FEA114A3368BAF1010F0CBF10
:1051B0005C699C6927EA0404A4B2B4FA84F4640923
:1051C000A14501D0002025E06A1CEED0FFF75CFD70
:1051D000089BC01AA84201D8002DE5D13368BAF166
:1051E000010F0CBF5B699B6927EA03039BB2B3FA0B
:1051F00083F35B099945D7D100232022336386F8D6
:105200003D2086F83E30326C86F83C3042F0200279
:1052100032640120BDE8F8862DE9F04104460F46CE
:10522000164698462568686927EA000080B2C0B132
:105230006B695A0517D52B6843F400732B606FF424
:1052400080636B6120220023236384F83D2084F86F
:105250003E30236C43F004032364002384F83C3085
:105260000120BDE8F081731CDDD0FFF70DFDA0EB40
:105270000800B04201D8002ED4D123685A6927EA29
:10528000020292B2002ACDD000232022236384F8A8
:105290003D2084F83E30236C1343DDE770B50446AF
:1052A0000D46164623685B691B0601D500201EE0EB
:1052B0002046FFF757FFC8B96A1CF3D0FFF7E4FC9C
:1052C000801BA84201D8002DECD123685B6913F044
:1052D0008003E7D12022236384F83D2084F83E3008
:1052E000226C84F83C3042F020022264012070BD20
:1052F0002DE9F0431546026885B0DDE90C78994642
:10530000136843F4807313600E463B46CDF800806B
:1053100000224FF001110446FFF73EFF236838B129
:105320001B68DB0502D54FF400732364032620E0DD
:1053300006F0FE061E611A4943463A462046FFF72C
:105340006BFFA8B9236803905A6903929B69039382
:10535000424639462046039BFFF7A0FF064660B150
:10536000236C042B01BF2268136843F4007313609D
:105370000126304605B0BDE8F083B9F1010F23687E
:1053800002D1EDB21D61F4E72A0A1A61394642469C
:105390002046FFF783FF0028E2D12368F1E700BF32
:1053A000020001002DE9FF479A46036815461A6876
:1053B00042F480621A601A68DDE90C7842F4807267
:1053C0001A600E463B46CDF8008000224FF00111D6
:1053D0000446FFF7E1FE236838B11B68DB0544BFD4
:1053E0004FF400732364032021E05FFA86F906F08E
:1053F000FE061E612B4943463A462046FFF70CFF46
:10540000A0B9236803905A6903929B6903934246AB
:1054100039462046039BFFF741FF58B1236C042B0C
:1054200001BF2268136843F400731360012004B0C5
:10543000BDE8F087BAF1010F23681AD1EDB24246F8
:105440001D6139462046FFF729FF02460028E5D1B5
:1054500021680B6843F480730B602046CDF8008010
:105460003B464FF00111FFF797FE226860B11368C9
:10547000B4E72A0A1A61394642462046FFF70EFF72
:105480000028CBD12368D9E749F00103136105490E
:1054900043463A462046FFF7BFFE003818BF0120BA
:1054A000C5E700BF0200010070B504460D46164670
:1054B00023685B695B0701D500201EE02046FFF7EB
:1054C00051FEC8B96A1CF3D0FFF7DEFB801BA8426F
:1054D00001D8002DECD123685B6913F00403E7D1F8
:1054E0002022236384F83D2084F83E30226C84F827
:1054F0003C3042F020022264012070BD70B50446A9
:105500000D46164621684B6913F0400301D0002078
:1055100011E04A69D2060FD56FF010024A612022CD
:10552000236384F83D2084F83E30236C23640023F9
:1055300084F83C30012070BDFFF7A6FB801BA84219
:1055400001D8002DDED123685B6913F04003D9D167
:105550002022236384F83D2084F83E30236C1343DB
:10556000E4E7000070B5044608B9012070BD90F86A
:105570003D3003F0FF021BB980F83C20FDF77EF8B8
:10558000242384F83D3023681A6822F001021A604F
:105590001A6842F400421A601A6822F400421A6043
:1055A00000F0A8FE3F4B65689D4294BF3E4B3F4BC9
:1055B00098428CBF00230123002BD6D12268394E9C
:1055C00051683B4BB0FBF3F321F03F011943B54267
:1055D000516088BF4FF49676116A88BF734321F0FB
:1055E0003F0184BF4FF47A76B3FBF6F301330B43EC
:1055F0001362D169431E2B4821F44F41854221F0AB
:10560000FF0132D86D0040F6FC70B3FBF5F30133B7
:10561000034242D0C3F30B031943D161D4E90730ED
:105620001168034321F0C0010B4313609168D4E972
:10563000030321F40341034321F0FF010B43936073
:10564000D4E90530D168034321F0FF010B43D36057
:10565000136843F00103136000202023206484F8C2
:105660003D30206384F83E0080E7A06850B905EB28
:105670004505B3FBF5F30133C3F30B037BB143F4EF
:105680000043C9E719206843B3FBF0F30133C3F3C8
:105690000B0323B143F44043BEE70423BCE70123DB
:1056A000BAE700BFA08601007F841E00FF083D000E
:1056B00040420F002DE9F743044699460C9E0F46E1
:1056C0009046FFF7E1FA94F83D30202B054603D0D1
:1056D000022003B0BDE8F08300903C491923012269
:1056E0002046FFF759FD0028F2D194F83C30012BF9
:1056F000EED02068012384F83C300368D9075EBFF0
:10570000036843F001030360036823F4006303604C
:10571000212384F83D30402384F83E300023236465
:105720000A9B6362BDF82C306385638D2385284B0B
:10573000E3624246CDE900654B4639462046FFF715
:10574000D7FD00282AD00120C3E7FFF7A7FD40B10D
:10575000236C042B01BF2268136843F400731360A9
:10576000F1E7636A27681A4612F8011B3961626221
:10577000628D218D013A92B262857A69481E80B2AB
:10578000520720850AD548B15A783A6102336362DC
:10579000638D013B02399BB221856385238D2A46A7
:1057A00031462046002BD0D1FFF77EFE0028CFD116
:1057B0002268136843F400731360202384F83D309B
:1057C00084F83C0084F83E0083E700BF020010002C
:1057D0000000FFFF2DE9F043044687B09946109F73
:1057E0000D469046FFF750FA94F83D30202B0646C0
:1057F00004D00225284607B0BDE8F08300907A491E
:10580000192301222046FFF7C7FC0028F1D194F8A4
:105810003C30012BEDD02068012384F83C30036834
:10582000DB075EBF036843F001030360036823F4F2
:1058300000630360222384F83D30402384F83E3027
:10584000002323640E9B6362BDF83C306385638D47
:105850002385664BE3622946CDE900764B464246F6
:105860002046FFF79FFD054608B10125C2E7228DBE
:105870002368B2B902905A6902929A690292029A16
:105880001A6842F400721A60DFF86481238D002BDD
:105890002CD1202284F83D2084F83C3084F83E301E
:1058A000A8E7012A0AD11A6822F480621A600390DC
:1058B0005A6903929A690392039AE1E7022A0ED188
:1058C0001A6822F480621A601A6842F400621A6050
:1058D00004905A6904929B690493049BD4E7059051
:1058E0005A6905929B690593059BCDE7032B56D812
:1058F000012B15D1324639462046FFF7FFFD00281F
:10590000B3D123681A69636A1A70636A01336362E8
:10591000238D013B2385638D013B9BB26385B5E7F6
:10592000022B00963B464FF000024146204619D11B
:10593000FFF732FC002898D123681A6842F40072FD
:105940001A601A69636A1A70626A531C6362238D53
:10595000013B2385638D013B9BB2638523681B69F3
:105960005370D2E7FFF718FC024600287FF47DAFA2
:105970002368196821F4806119601969636A1970D4
:10598000636A01336362238D013B2385638D013B91
:105990009BB26385414600963B462046C8E73246A7
:1059A00039462046FFF7AAFD00287FF45EAF236842
:1059B0001A69636A1A70628D616A013A92B24B1C6D
:1059C000628522686362238D5069013B9BB2400768
:1059D00023857FF55BAF032B02BF136823F480633D
:1059E000136013694B7090E7020010000000FFFF86
:1059F0000400010010B590F83D30202BDCB216D128
:105A0000242380F83D3003681A6822F001021A60EE
:105A10005A6A22F010025A625A6A114359621A688D
:105A200042F001021A6080F83D40002010BD0220C3
:105A3000FCE730B590F83D30202BDCB216D102687F
:105A4000242380F83D30136823F001031360556A66
:105A50004FF6F0732B400B439BB25362136843F035
:105A60000103136080F83D40002030BD0220FCE7B8
:105A70000068D1F800C0D201843283182DE9F043C8
:105A8000C6685D684C68D1F8189005F470455D6093
:105A9000C5680CF10107C5F30B45C6F30B46264458
:105AA0003D4445EA06455D60C668CD68C6F30A0612
:105AB0002E449D6805F470459D60C7688D68C7F3E6
:105AC0000A0701353D4445EA06459D601D690E699A
:105AD00025F007051D614FF0000E1E6191F8327030
