:020000040800F2
:1000000000000320350F0008252B0008272B0008CF
:10001000292B00082B2B00082D2B000800000000C6
:1000200000000000000000000000000071790008DE
:100030002F2B000800000000017A000891720008D0
:10004000850F0008850F0008850F0008850F000840
:10005000850F0008850F0008552B0008850F000844
:10006000850F0008850F0008850F0008850F000820
:10007000850F0008850F0008850F0008850F000810
:10008000850F0008850F0008850F0008850F000800
:10009000850F0008850F0008850F0008850F0008F0
:1000A000850F0008850F0008850F0008850F0008E0
:1000B000850F0008850F0008850F0008850F0008D0
:1000C000850F0008850F0008850F0008850F0008C0
:1000D000850F0008850F0008850F0008850F0008B0
:1000E000850F0008850F0008850F0008850F0008A0
:1000F000850F0008850F0008850F0008850F000890
:10010000850F0008850F0008850F0008850F00087F
:10011000850F0008850F0008312B0008850F0008A7
:10012000850F0008850F0008850F0008850F00085F
:10013000850F0008850F0008850F0008850F00084F
:10014000850F0008850F0008850F0008850F00083F
:10015000850F0008850F0008850F0008850F00082F
:10016000850F0008850F0008850F0008850F00081F
:10017000850F0008850F0008850F000800000000AB
:10018000850F0008850F0008850F0008850F0008FF
:10019000850F0008850F0008850F0008850F0008EF
:0C01A0003D2B0008850F0008492B0008CB
:1001B00010B5054C237833B9044B13B10448AFF3A1
:1001C00000800123237010BD800300200000000088
:1001D0006043020808B5034B1BB103490348AFF362
:1001E000008008BD00000000840300206043020876
:1001F00001F0FF01102A2BDB10F0070F08D010F8D8
:10020000013B013A8B422DD010F0070F42B3F6D1DB
:10021000F0B441EA012141EA014122F007047FF0F4
:1002200000070023F0E80256083C85EA010586EA4B
:10023000010685FA47F5A3FA87F586FA47F6A5FA87
:1002400087F68EB9EED1F0BC01F0FF0102F0070293
:1002500032B110F8013B013A83EA010313B1F8D13E
:100260000020704701387047002D06BF354603381F
:10027000073815F0010F07D1013015F4807F02BF58
:10028000013015F4C03F0130F0BC0138704700BFA9
:1002900081F0004102E000BF83F0004330B54FEA37
:1002A00041044FEA430594EA050F08BF90EA020FA4
:1002B0001FBF54EA000C55EA020C7FEA645C7FEA37
:1002C000655C00F0E2804FEA5454D4EB5555B8BF5A
:1002D0006D420CDD2C4480EA020281EA030382EACB
:1002E000000083EA010180EA020281EA0303362D5D
:1002F00088BF30BD11F0004F4FEA01314FF4801C30
:100300004CEA113102D0404261EB410113F0004F41
:100310004FEA03334CEA133302D0524263EB4303F8
:1003200094EA050F00F0A780A4F10104D5F1200E96
:100330000DDB02FA0EFC22FA05F2801841F10001F1
:1003400003FA0EF2801843FA05F359410EE0A5F1C5
:1003500020050EF1200E012A03FA0EFC28BF4CF0F6
:10036000020C43FA05F3C01851EBE37101F00045AC
:1003700007D54FF0000EDCF1000C7EEB00006EEBB9
:100380000101B1F5801F1BD3B1F5001F0CD3490843
:100390005FEA30004FEA3C0C04F101044FEA44529A
:1003A00012F5800F80F09A80BCF1004F08BF5FEA21
:1003B000500C50F1000041EB045141EA050130BD01
:1003C0005FEA4C0C404141EB0101013C28BFB1F513
:1003D000801FE9D291F0000F04BF01460020B1FA5E
:1003E00081F308BF2033A3F10B03B3F120020CDA31
:1003F0000C3208DD02F1140CC2F10C0201FA0CF00F
:1004000021FA02F10CE002F11402D8BFC2F1200C73
:1004100001FA02F120FA0CFCDCBF41EA0C01904029
:10042000E41AA2BF01EB0451294330BD6FEA040472
:100430001F3C1CDA0C340EDC04F11404C4F120025D
:1004400020FA04F001FA02F340EA030021FA04F36F
:1004500045EA030130BDC4F10C04C4F1200220FAC6
:1004600002F001FA04F340EA0300294630BD21FA04
:1004700004F0294630BD94F0000F83F4801306BFCA
:1004800081F480110134013D4EE77FEA645C18BFBE
:100490007FEA655C29D094EA050F08BF90EA020F55
:1004A00005D054EA000C04BF1946104630BD91EA4D
:1004B000030F1EBF0021002030BD5FEA545C05D150
:1004C0004000494128BF41F0004130BD14F580048F
:1004D0003CBF01F5801130BD01F0004545F0FE4103
:1004E00041F470014FF0000030BD7FEA645C1ABF38
:1004F000194610467FEA655C1CBF0B46024650EA6F
:10050000013406BF52EA033591EA030F41F400219A
:1005100030BD00BF90F0000F04BF0021704730B520
:100520004FF4806404F132044FF000054FF00001F5
:1005300050E700BF90F0000F04BF0021704730B5B6
:100540004FF4806404F1320410F0004548BF40428B
:100550004FF000013EE700BF42004FEAE2014FEAE0
:1005600031014FEA02701FBF12F07F4393F07F4FBB
:1005700081F06051704732F07F4208BF704793F0BE
:100580007F4F04BF41F40021704730B54FF46074D1
:1005900001F0004521F000411CE700BF50EA0102D4
:1005A00008BF704730B54FF000050AE050EA01027D
:1005B00008BF704730B511F0004502D5404261EBED
:1005C00041014FF4806404F132045FEA915C3FF42E
:1005D000D8AE4FF003025FEADC0C18BF03325FEACB
:1005E000DC0C18BF033202EBDC02C2F1200300FA7C
:1005F00003FC20FA02F001FA03FE40EA0E0021FAA1
:1006000002F11444BDE600BF70B54FF0FF0C4CF48E
:10061000E06C1CEA11541DBF1CEA135594EA0C0F40
:1006200095EA0C0F00F0DEF82C4481EA030621EA7B
:100630004C5123EA4C5350EA013518BF52EA0335B6
:1006400041F4801143F4801338D0A0FB02CE4FF068
:100650000005E1FB02E506F00042E0FB03E54FF098
:100660000006E1FB03569CF0000F18BF4EF0010E90
:10067000A4F1FF04B6F5007F64F5407404D25FEA8C
:100680004E0E6D4146EB060642EAC62141EA55513F
:100690004FEAC52040EA5E504FEACE2EB4F1FD0C81
:1006A00088BFBCF5E06F1ED8BEF1004F08BF5FEAFF
:1006B000500E50F1000041EB045170BD06F00046B1
:1006C00046EA010140EA020081EA0301B4EB5C045E
:1006D000C2BFD4EB0C0541EA045170BD41F4801156
:1006E0004FF0000E013C00F3AB8014F1360FDEBF7B
:1006F000002001F0004170BDC4F10004203C35DA57
:100700000C341BDC04F11404C4F1200500FA05F3D9
:1007100020FA04F001FA05F240EA020001F000427A
:1007200021F0004110EBD37021FA04F642EB0601F0
:100730005EEA430E08BF20EAD37070BDC4F10C041A
:10074000C4F1200500FA04F320FA05F001FA04F2DE
:1007500040EA020001F0004110EBD37041F10001CA
:100760005EEA430E08BF20EAD37070BDC4F12005D5
:1007700000FA05F24EEA020E20FA04F301FA05F23D
:1007800043EA020321FA04F001F0004121FA04F2E5
:1007900020EA020000EBD3705EEA430E08BF20EAB5
:1007A000D37070BD94F0000F0FD101F000464000EF
:1007B00041EB010111F4801F08BF013CF7D041EA71
:1007C000060195F0000F18BF704703F00046520075
:1007D00043EB030313F4801F08BF013DF7D043EA46
:1007E0000603704794EA0C0F0CEA135518BF95EAFC
:1007F0000C0F0CD050EA410618BF52EA4306D1D183
:1008000081EA030101F000414FF0000070BD50EAA1
:10081000410606BF1046194652EA430619D094EA2B
:100820000C0F02D150EA013613D195EA0C0F05D115
:1008300052EA03361CBF104619460AD181EA030169
:1008400001F0004141F0FE4141F470014FF0000021
:1008500070BD41F0FE4141F4780170BD70B54FF0BC
:10086000FF0C4CF4E06C1CEA11541DBF1CEA13553C
:1008700094EA0C0F95EA0C0F00F0A7F8A4EB05041E
:1008800081EA030E52EA03354FEA013100F0888015
:100890004FEA03334FF0805545EA131343EA1263DE
:1008A0004FEA022245EA111545EA10654FEA002693
:1008B0000EF000419D4208BF964244F1FD0404F54C
:1008C000407402D25B084FEA3202B61A65EB0305A8
:1008D0005B084FEA32024FF480104FF4002CB6EB65
:1008E000020E75EB030E22BFB61A754640EA0C00E5
:1008F0005B084FEA3202B6EB020E75EB030E22BF25
:10090000B61A754640EA5C005B084FEA3202B6EB65
:10091000020E75EB030E22BFB61A754640EA9C0024
:100920005B084FEA3202B6EB020E75EB030E22BFF4
:10093000B61A754640EADC0055EA060E18D04FEAB2
:10094000051545EA16754FEA06164FEAC30343EA52
:1009500052734FEAC2025FEA1C1CC0D111F4801F1F
:100960000BD141EA00014FF000004FF0004CB6E718
:1009700011F4801F04BF01430020B4F1FD0C88BFB7
:10098000BCF5E06F3FF6AFAEB5EB030C04BFB6EBC2
:10099000020C5FEA500C50F1000041EB045170BDB5
:1009A0000EF0004E4EEA113114EB5C04C2BFD4EBE2
:1009B0000C0541EA045170BD41F480114FF0000E66
:1009C000013C90E645EA060E8DE60CEA135594EAE2
:1009D0000C0F08BF95EA0C0F3FF43BAF94EA0C0FE5
:1009E0000AD150EA01347FF434AF95EA0C0F7FF45A
:1009F00025AF104619462CE795EA0C0F06D152EAAE
:100A000003353FF4FDAE1046194622E750EA410691
:100A100018BF52EA43067FF4C5AE50EA41047FF4A2
:100A20000DAF52EA43057FF4EBAE12E74FF0FF3C07
:100A300006E000BF4FF0010C02E000BF4FF0010CD8
:100A40004DF804CD4FEA410C7FEA6C5C4FEA430C51
:100A500018BF7FEA6C5C1BD001B050EA410C0CBFA0
:100A600052EA430C91EA030F02BF90EA020F002002
:100A7000704710F1000F91EA030F58BF994208BF69
:100A800090422CBFD8176FEAE37040F00100704726
:100A90004FEA410C7FEA6C5C02D150EA013C07D17D
:100AA0004FEA430C7FEA6C5CD6D152EA033CD3D0C8
:100AB0005DF8040B704700BF8446104662468C46C2
:100AC0001946634600E000BF01B5FFF7B7FF0028F5
:100AD00048BF10F1000F01BD4DF808EDFFF7F4FF1E
:100AE0000CBF012000205DF808FB00BF4DF808EDA9
:100AF000FFF7EAFF34BF012000205DF808FB00BFCC
:100B00004DF808EDFFF7E0FF94BF012000205DF8ED
:100B100008FB00BF4DF808EDFFF7CEFF94BF0120A2
:100B200000205DF808FB00BF4DF808EDFFF7C4FF9B
:100B300034BF012000205DF808FB00BF4FEA410CE4
:100B40007FEA6C5C02D150EA013C0AD14FEA430CC7
:100B50007FEA6C5C02D152EA033C02D14FF0000004
:100B600070474FF0010070477BB972B90029BEBFD2
:100B700000204FF0004106E008BF00281CBF6FF0C6
:100B800000414FF0FF3000F0D3B9ADF1080C6DE932
:100B900004CE002909DB002B1ADB00F04DF8DDF84C
:100BA00004E0DDE9022304B07047404261EB4101FB
:100BB000002B1BDB00F040F8DDF804E0DDE9022348
:100BC00004B0404261EB4101524263EB4303704782
:100BD000524263EB430300F02FF8DDF804E0DDE957
:100BE000022304B0404261EB41017047524263EB83
:100BF000430300F021F8DDF804E0DDE9022304B04E
:100C0000524263EB4303704753B94AB9002908BF06
:100C100000281CBF4FF0FF314FF0FF3000F088B9C3
:100C2000ADF1080C6DE904CE00F006F8DDF804E043
:100C3000DDE9022304B070472DE9F047089D8E4698
:100C400004468846002B4AD18A42174662D9B2FA36
:100C500082F64EB1C6F1200301FA06F820FA03F33A
:100C6000B74043EA0808B4404FEA174E1FFA87FC22
:100C7000B8FBFEF1230C0EFB118843EA084301FB8D
:100C80000CF29A4209D9FB1801F1FF3080F0EA809A
:100C90009A4240F2E78002393B449A1AA3B2B2FB6F
:100CA000FEF00EFB102243EA024300FB0CFC9C45C5
:100CB00009D9FB1800F1FF3280F0D6809C4540F244
:100CC000D3803B44023840EA0140A3EB0C030021EF
:100CD0001DB1F3400022C5E90032BDE8F0878B4228
:100CE00005D90DB1C5E9000100210846F5E7B3FAC1
:100CF00083F1002946D1734502D3824200F2058177
:100D0000841A6EEB030201209046002DE5D0C5E960
:100D10000048E2E7002A00F09080B2FA82F6002E46
:100D200040F0A4808A1A030C4FEA174E80B2BCB27E
:100D30000121B2FBFEFC0EFB1C2243EA024304FB32
:100D40000CF29A4207D9FB180CF1FF3802D29A42F2
:100D500000F2E080C4469B1AB3FBFEF20EFB123396
:100D600040EA034302FB04F49C4207D9FB1802F15A
:100D7000FF3002D29C4200F2CA8002461B1B42EAAC
:100D80000C40A5E7C1F120068B4022FA06F71F436D
:100D90000EFA01F420FA06F32EFA06FE4FEA17497E
:100DA000234300FA01F81FFA87FCBEFBF9F01C0C84
:100DB00009FB10EE44EA0E4400FB0CFEA64502FAC5
:100DC00001F209D93C1900F1FF3A80F09C80A64558
:100DD00040F2998002383C44A4EB0E041FFA83FED3
:100DE000B4FBF9F309FB13444EEA044403FB0CFC87
:100DF000A44508D93C1903F1FF3E80F08280A44548
:100E00007FD9023B3C4443EA0040A4EB0C04A0FB26
:100E100002EC64457346E14662D35FD05DB1B8EB46
:100E2000030264EB090404FA06F622FA01F31E43F6
:100E3000CC40C5E9006400214FE7B1FBF2FC010C96
:100E400041EA0E4180B240EA01423B4638463C4608
:100E5000B846BE462026B1FBF7F1A2EB080241EAF4
:100E60000C4166E7014618E710462CE7C6F1200260
:100E70002EFA02F3B740B14020FA02F24FEA174EC1
:100E80000A43B3FBFEF8BCB20EFB1833110C41EA67
:100E9000034108FB04F9B04089454FEA104380B292
:100EA0003ED9791808F1FF3C01D289451FD8A1EB42
:100EB0000901B1FBFEF909FB04F80EFB191192B20E
:100EC00042EA0142424529D2BA1809F1FF31C4D29F
:100ED0004245C2D2A9F102013A44BEE7F0459DD293
:100EE000BEEB02036CEB070C0138E14696E7A7EB7B
:100EF00009094944A8F1020CB1FBFEF909FB04F809
:100F0000DBE773467FE7504666E70846FDE63B446D
:100F1000023A33E7ACF1020C3B441CE749469CE73C
:100F2000A1EB0901C446B1FBFEF909FB04F8C4E7D3
:100F3000704700BFDFF834D0002103E00C4B5B5852
:100F4000435004310B480C4B42189A42F6D30B4ADB
:100F500002E0002342F8043B094B9A42F9D303F024
:100F60000DFF22F08FFC01F063F8704700000320B2
:100F700060CB0508000000206401002080030020F1
:100F80001C350120FEE7704708B500F0BBFDBDE849
:100F9000084000F03FBD00F0B7BD704710B5042118
:100FA000044621F015F9204610BD000038B50C4B61
:100FB0000C4C18800C4B822019806368984740F6CF
:100FC000110398420AD1094D23682C60822098476A
:100FD0002B688220DB689847002038BD0120FCE7A1
:100FE000A60300204C000020A4030020A80300203A
:100FF0004FF4A071F020FFF7D9BF0000F7B5394DCD
:101000002B6804461B6982209847208000284ED018
:101010002B680DF106025B6901A982209847324BCB
:101020001B78002B4BD0BDF8062040F674639A4223
:101030003FD9ADF80630BDF806209B1A9BB20A2BAB
:1010400042D90B22B3FBF2F3284A1288934201D90A
:10105000013A93B2BDF80420254840F6B8318A42DF
:1010600034D8C2F571620E32016892B20F25B2FB1C
:10107000F5F2204D2D88AA4284BF05F1FF35AAB2B2
:101080008A4215468EB22AD9921B91B21A4E3768FF
:10109000BB42BAB28CBF9A1AD21A92B21144052935
:1010A000C4BF05603360036863803368A38003B006
:1010B000F0BDB32A9CBFB422ADF80620BBE7BDF853
:1010C0000630A3F5B473B9E70023C3E7C2F56D6238
:1010D000083292B20E2A0168C8D800252A46891A19
:1010E00089B2D3E7A80300202C170020A403002016
:1010F000A0030020A60300209C03002037B568460B
:101100000D461446FFF77AFFBDF8000030B1BDF878
:1011100002302B60BDF804302360012003B030BDE5
:10112000032821D8DFE800F0020B12190F4B1A68D0
:10113000B2FA82F2520904210D4804F0B3B80B4B05
:101140005A68B2FA82F252090821F5E7074B9A6809
:10115000B2FA82F252091021EEE7044BDA68B2FAD1
:1011600082F252092021E7E7704700BFAC0300205C
:1011700000100240032821D8DFE800F0020B12190A
:101180000F4B1A68003A18BF012204210D4804F0E1
:1011900089B80B4B5A68003A18BF01220821F5E7BD
:1011A000074B9A68003A18BF01221021EEE7044B62
:1011B000DA68003A18BF01222021E7E7704700BF34
:1011C000AC0300200010024003280DD8DFE800F037
:1011D0000206080A0421054804F069B80821FAE764
:1011E0001021F8E72021F6E7704700BF0010024009
:1011F00008B5032811D8DFE800F0020A0C0E04211C
:10120000074804F049F8431E5842584108BD0821D8
:10121000F6E71021F4E72021F2E70020F3E700BF12
:101220000010024070B5084D00240126E0B2FFF71F
:10123000DFFF18B12B68012B18BF2E600134052C7D
:1012400005F10405F2D170BDAC030020012380F844
:10125000781080F8793070477047002070470000A0
:10126000034B4164003918BF01211970704700BF5A
:10127000DB270120704700207047836B0BB10846C5
:10128000184770474FF6FF707047406803689B69C6
:1012900018477047704770477047704710B504464D
:1012A00000F048FD23680349D3F890302046BDE89C
:1012B00010401847000000D008B503680446D3F872
:1012C0008430984723682046DB6F984700F0ECF89D
:1012D000236820465B6F9847292001F043F900F00E
:1012E000E3F8236820465B6F9847F8E710B504469B
:1012F00009F036F923682046D3F8BC30BDE8104029
:10130000184700F0FBBC00F0FFBC00F031BD00F05E
:10131000D1BC00F041BD00F049BD00F0D5BC08F0E3
:101320004DBB10B58421044620F052FF204610BD6D
:1013300010B590F8341090F878400C4B8C421A7825
:1013400009D03AB90A4A0B491488088810800C80E1
:1013500001221A7010BD002AFCD0054A05491488E4
:10136000088810800C800022F3E700BFD4270120FA
:10137000D0270120D227012070B50D46194635B976
:10138000094B0A4A0A4840F2FF2121F05FFFC0E9F9
:101390000F52084B003A18BF01221A700368BDE8CB
:1013A0007040D3F890301847D04302080844020830
:1013B00056440208DA27012008B5094B1B888B42E6
:1013C00003D8084B1B88934205D9074B074A0848A6
:1013D000A32121F03BFF074B1980074B1A8008BD62
:1013E000D0270120D22701209B440208FE44020896
:1013F00056440208D6270120D8270120034690F83A
:101400007A0018B1586803681B68184770470000D5
:10141000012108B50022084605F0C4FF0A4B1860F8
:1014200028B90A4B0A4A28210A4821F00FFF002256
:101430000421012006F055F8074B186018B9074B36
:10144000034A2C21F0E708BDC003002041450208F3
:101450008A450208B9450208BC030020FB45020882
:10146000024B4FF0FF31186805F0E6BFC0030020C3
:10147000014B186806F00CB8C0030020024B002195
:10148000186805F0D9BF00BFC0030020FFF7F0BF08
:1014900003480449006800231A4606F05DB800BFFF
:1014A000BC0300200400002013B5084C00231A469A
:1014B00001A9206806F081F820684FF0FF33002270
:1014C00001A906F07AF802B010BD00BFBC030020ED
:1014D00003685B6C18470120704703689B6A1847D4
:1014E000FEE740F2EF307047054B0360054B4FF0CD
:1014F0008062C3F88820BFF34F8FBFF36F8F7047B0
:101500004452020800E100E010B504464FF45A616D
:10151000FFF7EAFF204620F05BFE204610BD0000EA
:1015200082B0002301930E4B1A6B42F400021A633F
:101530001A6B02F400020192019A1A6942F4000245
:101540001A611A6922F400021A61064B064A1A61EE
:10155000064A5A61064B4FF080629A6002B07047AB
:1015600000380240C0180020C1170008E11400082C
:1015700000E100E008B50A2809D8DFE800F006100D
:101580000E080808081010101000022008BD054BB6
:10159000054A0648902121F059FE0020F6E7012077
:1015A000F4E700BF3D46020858460208A346020879
:1015B00038B50C46887FFFF7DDFFA58AE28A164B17
:1015C0002169586342EA05425A64628BD963521B0F
:1015D0001A642568082D0ED19A611A615862207F1D
:1015E0000E4A42EA0062DA61E2681A620C4A596104
:1015F000D9601A6038BD0022D8611A61E1680A0A10
:10160000480902F4784200F4FC600243C1F3C401CB
:101610000A439A63034AECE700B002400900010064
:10162000012302000123030008B50B280BD8DFE8D3
:1016300000F00612100A0A0A0A0808080808022020
:1016400008BD0520FCE7054B054A06486F2121F03F
:10165000FDFD0020F4E70120F2E700BF3D4602084F
:10166000E3460208A34602082DE9F04191F81D80E7
:101670000C464046FFF7D8FFA77F05463846FFF7E0
:10168000D3FF06463846FFF775FFA18A628B444BAD
:10169000521A1A649A61228B521A1A61E28A5863AA
:1016A00042EA01425A6421696268D963DA602068BB
:1016B000802828D0227F0FD8202867D0402865D0E6
:1016C00004281AD0364B45EA026545F40035B84582
:1016D000DD6161D0334A44E0B0F5807F04D0B0F5DD
:1016E000007FEFD1304800E0304840EA0262DA6122
:1016F000E2681A625E62596132E045EA026242F4CF
:101700000032DA61F6E7A068021DDA62227F45EA5C
:10171000026545F40035DD615E625961017841B1D1
:10172000012921D0224B234A23484FF48D7121F007
:101730008DFDDA69418822F47F42013922F01002DE
:1017400042EA0122DA610121154BDA6942F02002F6
:10175000DA61DA699206FCD410229A600029B9D0C5
:10176000164A1A60BDE8F081B2F1FF01DA694088DB
:1017700022F47F4200F1FF3022F0100242EA002200
:1017800042F0100218BF0121DA61DDE745EA02628A
:10179000034B42F40032B4E742F20132E1E700BF0A
:1017A00000B0024001230100090002000A0002000B
:1017B0002D47020847470208A346020801230200FA
:1017C000024B1B68586803685B691847DC270120D7
:1017D00070B5044625460A4B0C3000266060267220
:1017E000667245F8203B6022294609F00FF804F59F
:1017F0005A63EE6024359D42FBD1204670BD00BF88
:1018000044520208034B1A68D207FCD423229A6080
:10181000704700BF00B002407047000030B50F4C69
:101820002568ED07FCD423250904A56041F00101DA
:101830000225FF2B65636164E0630AD00849656295
:1018400041EA0363E361074B22626061E060236069
:1018500030BDE561039BA363034BF8E700B0024092
:1018600009000100010002000100030030B50E4C28
:101870002568ED07FCD423251204A56042F001027F
:101880000225FF2B65636264E063E16008D01B06FC
:1018900043F00213E361054B65626061236030BD74
:1018A000034BE3610123F9E700B0024001000200AD
:1018B000020002FF30B50B4C2568ED07FCD4232550
:1018C00012041B06A56043F40033022542F0010216
:1018D00065636264E063E160E361034B65626061DC
:1018E000236030BD00B002400100020001207047BB
:1018F0000C2070470C2303FB0100083070470C23B9
:1019000003FB010008307047012070474FF4077057
:1019100070474FF4077303FB0100083070474FF422
:10192000077303FB01000830704701207047102047
:10193000704700EB01100830704700EB01100830D1
:101940007047084601F06EBA10B5034B03600446B9
:1019500007F089FD204610BDFC52020810B5044670
:10196000FFF7F2FF2046142120F032FC204610BD84
:1019700010B5034B0360044607F075FD204610BD0B
:10198000C852020810B50446FFF7F2FF20464FF494
:10199000097120F01DFC204610BD000010B5034B5E
:1019A0000360044607F05FFD204610BD9452020814
:1019B00010B50446FFF7F2FF2046182120F008FC7E
:1019C000204610BD10B5084B0360044600F51470A6
:1019D000FFF7BAFF04F12C00FFF7CAFF04F114006F
:1019E000FFF7DCFF204610BD3053020808B502485F
:1019F000FFF7E8FF08BD00BF9C12002010B50446A9
:101A0000FFF7E0FF20464FF4717120F0E1FB204624
:101A100010BD00002DE9F34101F020F9054601F069
:101A200021F900240146234628462246009411F05D
:101A30001DFB274B274A1A60204602F063FB264D08
:101A4000264B274A27489A6011F078FA2B68BFF393
:101A50005B8FDB0735D4284620F0BCFB88B3224CD3
:101A6000224B236004F51A7604F1140004F12C08CB
:101A700004F514776060C4F80880E760266107F019
:101A8000F3FC1B4B6361404607F0EEFC194BE3622D
:101A9000384607F0E9FC184BC4F8503204F51970C9
:101AA00002F060FC224604F51971304602F0AAFBF0
:101AB000304601F0B7F9114821F0E6FB284620F046
:101AC00095FB0F4802B0BDE8F041FFF7E7BB00BF50
:101AD00040280120480400209812002068040020BB
:101AE0004C040020080000209C1200203053020803
:101AF00094520208C8520208FC520208ED1900086C
:101B0000C4030020704700000148FFF7D5BB00BFA9
:101B1000C403002070B5264E264C274D274B23606A
:101B20003046FFF755FE284616F0A6FB24480EF077
:101B3000ADFF244B2448DC6000224FF48071C3E9E0
:101B4000121222491A86C3E91A12214983F8582031
:101B5000C3E91E011F49C3F880101F491F480B60CD
:101B6000F021C3E90422C3E90622C3E90822C3E93C
:101B70000A22C3E90E22C3E91022C3E91422C3E9F1
:101B800017225A6683F870205A67C3E901650180FD
:101B90001348018013484FF4A0710180124801805E
:101BA00012490A70012283F83420114A1A6070BD6C
:101BB000F40400209412002068040020C0430208AE
:101BC0004C040020C40300200000010101000001BA
:101BD000000450001A001400DC270120D027012047
:101BE000D6270120D2270120D8270120D427012081
:101BF000585102080148FFF777BC00BFF4040020E9
:101C00000020704781807047C18070470181704714
:101C1000418170477047704770477047704710B4F4
:101C2000C4880368121B84885B6D091B12B25DF8BF
:101C3000044B09B218474FF6FF7383814FF0FF330F
:101C400003621368C36110607047002070478B887F
:101C5000838001207047704780F82610704790F805
:101C60002600704710B50022B1F90840B1F90A10FA
:101C7000028042808480C18010BD002202804280A8
:101C80008280C28070470177704780ED080A7047F4
:101C900080F82410704780F82510704701207047A5
:101CA000983070478C307047843070477047704769
:101CB00070470000034B902283F85A2383F858237F
:101CC000704700BF00E100E0094A0A49D3680A48AA
:101CD000C3F30A03013B9BB20B801169C1F30A01F4
:101CE000013901801364536B43F001035363704760
:101CF000006801406216002060160020014BD3F8F6
:101D0000AC00704700680140024B0122C3F8AC10E0
:101D10005A6270470068014010B52C21044620F03B
:101D200057FA204610BD10B5BC21044620F050FAE9
:101D3000204610BD70B5044607F095FE23689D6EE1
:101D40000DF03CFC01462046A8472368054AD3F81D
:101D50008C502046AC460023BDE87040A2F51631F9
:101D6000604700BF00B004D007F064BE07F06EBE4D
:101D700007F02ABE07F099BF90F8252012B103683A
:101D80005B691847704790F825201AB190F8242015
:101D900002B1186070470000034B4FF080629A60F8
:101DA0004FF080729A60704700E100E0084B4FF0FE
:101DB0008062C3F88820BFF34F8FBFF36F8F4FF05F
:101DC0008072C3F88820BFF34F8FBFF36F8F7047C7
:101DD00000E100E070B50023124E8380124B0360D7
:101DE000336893F8582005460AB1D86C00B9986852
:101DF0000368DB6A98473368B0FA80F4D86C6409EA
:101E000030B10368DB6A9847002808BF44F001043A
:101E10002CB9064B064A07482C2121F017FA284610
:101E200070BD00BFDC27012044530208854702082B
:101E3000E34702081C48020870B5254E3568BFF319
:101E40005B8F15F0010540D1304620F0C3F9002822
:101E50003BD0204C204B256104F13400C4E900350F
:101E6000C4E90255E584A562A5850FF0F4F804F1F4
:101E700058000AF081F9194BA3652046184B40F829
:101E8000843BFFF7A7FF174BC4F884302433C4F812
:101E90008C304FF4C803C4E928350023C4F8AC30B3
:101EA000C4F8B030C4F8B430C4F8B8300E480F4BA2
:101EB000C4F89050C4F89C50C4F8A850C4F89830A6
:101EC00021F0E2F9304620F091F9024870BD00BFE0
:101ED00064160020681600200C5B02086453020898
:101EE000DC530208C05A0208B11C0008A05A0208BC
:101EF00038B5184C23685BB3174B184A1B6C118814
:101F00008B4216D1164B198803F0E0FF236893F833
:101F10006A200025013283F86A2083F87C50FFF79D
:101F2000B7FA206808F01CFB2846BDE83840FFF7E8
:101F3000F7B803F0CBFF2468236820461B6A984754
:101F4000012384F87C300020BDE83840FFF712B947
:101F500038BD00BFDC270120006801406216002068
:101F60006016002007B5064BADF806001B68054853
:101F700001220DF1060104F049FD03B05DF804FBF8
:101F80000C0000206C17002008B5642005F0FEF955
:101F9000FBE7000030B595B0102200210AA821F01F
:101FA000C8FB1422002103A821F0C3FB00241E4B10
:101FB00001941A6C42F080521A641B6C03F0805337
:101FC0000193019B194B02941A6842F440421A6033
:101FD0001B6803F4404302930122029B4FF48033B9
:101FE000CDE9082302254FF480030821CDE90E53E3
:101FF0004FF4B473CDE9101308A80423139312957A
:1020000003F0BCFF03F080FF0F23CDE903354FF44D
:10201000A0504FF48053CDE90603052103A8059491
:1020200004F088F915B030BD00380240007000405F
:1020300080B59CB002F0D6FE21F0EAF902F0ACFEC9
:10204000FFF7A8FF142200210FA821F072FB002443
:10205000C74B01941A6BC74DDFF8508342F0100252
:102060001A631A6B02F010020192019A02941A6B21
:1020700042F020021A631A6B02F020020292029AC6
:1020800003941A6B42F080021A631A6B02F080020A
:102090000392039A04941A6B42F004021A631A6BB7
:1020A00002F004020492049A05941A6B42F00102B1
:1020B0001A631A6B02F001020592059A06941A6BD4
:1020C00042F002021A631A6B02F002020692069AAA
:1020D00007941A6B42F040021A631A6B02F0400236
:1020E0000792079A08941A6B42F008021A631A6B57
:1020F00002F008020892089A09941A6B42F0010251
:102100001A631B6B03F00103224605210993062085
:10211000099B02F093FE062002F0C2FE224696487A
:102120003C2103F0BFF895480122022103F0BAF8E0
:1021300022469248042103F0B5F8224690484FF415
:10214000405103F0AFF801264FF488138D481194E5
:102150000FA9CDE90F6302F0BBFF202389480FA927
:10216000CDE90F36CDE9114402F0B2FF3C23CDE9B1
:102170000F368148119403230FA90227129302F00E
:10218000A7FF7E480FA9CDE90F76CDE9114402F0F3
:102190009FFF042379480FA9CDE90F36CDE91147F8
:1021A00002F096FF0FA94FF440537548CDE90F3662
:1021B000CDE9114702F08CFF7348744B036002F0C5
:1021C0007DFEDFF8ECE1724B2C62C5E900E32846A6
:1021D0004FF48043C5E90434C5E90244C5E9064427
:1021E00003F07AFA1021284603F0BEFC2146284667
:1021F000684D03F0D8FC4FF48273C5E900834FF4B7
:1022000000791823C5E9069328460A23C5E9024444
:10221000C5E90444C5E90844AC62EB6204F09AFBEA
:102220008F232246394655488DF82C308DF83C4096
:1022300003F038F832464FF47A730BA9284604F0BD
:10224000E5FB4FF47A7332460FA9284604F08AFD65
:10225000324639464948504D03F024F89DF83C3049
:10226000D32B04BF4D4B1E704D4B0126C5E90036E4
:10227000102240230024C5E904234FF4C073C5E9AC
:1022800006344FF40063C5E908344FF400530227C5
:102290004FF00409AB624FF0030A07230FA9284649
:1022A000CDE90F73CDE911934FF00808C5E9024954
:1022B000CDE913A7159704F031FA4FF6FF720BA979
:1022C0002846CDE90C860A940B960E9404F046FA43
:1022D000304602F08DFD4FF6FF720BA92846CDE97E
:1022E0000B78CDE90D6404F039FA4FF6FF720BA9B3
:1022F0002846CDE90BA8CDE90D9404F02FFA4FF450
:102300000C730A930A9B0E934FF6FF720BA9284693
:10231000CDE90B980D9604F021FA40F26A51284657
:1023200004F03AFA342221460FA821F002FA1D4D9A
:102330001D4B2C61C5E900340923C5E905361D2371
:10234000C5E9073A40F20D1140F24313C5E90913FC
:1023500040F2171040F24713C5E90B032846C5E9C0
:102360000244AC8685F8364003F0B8FC22E000BF9A
:10237000003802406C1800200010024000080240A3
:10238000000C024000000240001900200030024012
:10239000A08601006C170020381700202C170020A1
:1023A000400100A0C4170020006801400050014017
:1023B000005C0040FF214FF4806CF022CDE9141442
:1023C0000521CDE916C14FF4A0730FA9CDE9102462
:1023D000CDE91842284622461C4D1A93CDE9123702
:1023E0000F94ADF86C408DF86E4003F042FD184B31
:1023F0002B601B6898472B68164DDB689847164B77
:102400002846C5E90034C5E90274C5E90A47C5E9AB
:102410000C4402F063FD3146284602F015FEFEF73B
:10242000B3FDFEF7B0FD04F041FF0C4A0C48214615
:1024300004F068FF0B4B0C4A186021460B4804F06F
:1024400061FF0B4B186004F043FFFEE728170020E4
:1024500014000020C018002000B0024044540208BC
:10246000891F00083417002020540208970F000825
:1024700030170020704770477FB5094B8DF8172043
:102480001B6802930DF117020123009201930A4683
:102490000146044803F0C8F907B05DF804FB00BF2B
:1024A000100000206C1800207FB500238DF8173035
:1024B000084B1B6802930A4601230DF11701009196
:1024C00001930146044803F03FFA9DF8170007B056
:1024D0005DF804FB100000206C1800201FB5084CAC
:1024E00024680092CDE901340A46012301460548DB
:1024F00003F02AFA003818BF012004B010BD00BF55
:10250000100000206C18002002F072BC10B5064CC0
:1025100000222046042102F0C5FE20460122BDE82B
:102520001040042102F0BEBE0008024038B50B4D39
:10253000044601220A484FF4005102F0B3FE002283
:102540000421284602F0AEFE2046FFF70BFD284688
:102550000122BDE83840042102F0A4BE0008024078
:10256000000C024038B50B4D044600220A484FF4D7
:10257000005102F097FE00220421284602F092FE4C
:102580002046FFF7EFFC28460122BDE83840042131
:1025900002F088BE00080240000C0240F7B5144E5D
:1025A000144F05460C4630460022042102F07AFE04
:1025B00000224FF40051384602F074FE2846FFF71F
:1025C000D1FC0D4B0D481B68224601A904F0CAFB43
:1025D000384601224FF40051019C02F063FE304660
:1025E0000122042102F05EFE204603B0F0BD00BFD0
:1025F00000080240000C02400C0000206C17002074
:1026000002F0F6BB0268034B9A4201D102F0DEBB36
:10261000704700BF001000407047000082B00E4BB2
:1026200000220092596C41F480415964596C01F4C4
:102630008041009100990192196C41F08051196418
:102640001B6C03F080530193019B0F216FF001007D
:1026500002B002F0F3BB00BF003802400268094B31
:102660009A4282B00BD100230193074B1A6B42F4BC
:1026700080521A631B6B03F480530193019B02B0D9
:10268000704700BF003002400038024007B50F4BD2
:1026900002689A4216D10022A3F5F0430192196B09
:1026A00041F4000119631B6B03F40003019305213E
:1026B0005A20019B02F0C2FB5A2003B05DF804EBE4
:1026C00002F0EEBB03B05DF804FB00BF00B00240B7
:1026D0002DE9F043044689B01422002103A821F01B
:1026E00028F82268244B9A4243D1244C24480025E0
:1026F0000095236B43F004032363236B03F004036F
:102700000093009B0195236B43F001032363236B2C
:1027100003F001030193019B4FF012094FF4007382
:102720004FF001080327042603A9CDE90339CDE9B9
:102730000587079602F0CCFC4FF48073114807968A
:1027400003A9CDE90339CDE9058702F0C1FC029563
:10275000236C43F400032364236C03F4000302930B
:10276000029B236A43F400032362236A23F40003D9
:10277000236209B0BDE8F083005C004000380240ED
:102780000008024000000240F0B599B0044614224F
:10279000002107A820F0CDFF30220DEB0200002120
:1027A00020F0C7FF22685E4B9A4240F0B7800823B2
:1027B0000C93C0231093042312930CA84FF40033FE
:1027C000159303F07FFE08B1FFF726FF554B5648DF
:1027D000002400945A6C42F080625A645A6C02F0F1
:1027E00080620092009A01941A6B42F020021A63F0
:1027F0001A6B02F020020192019A02941A6B42F0C5
:1028000001021A631A6B02F001020292029A039407
:102810001A6B42F002021A631A6B02F00202039270
:10282000039A04941A6B42F040021A631A6B02F086
:1028300040020492049A05941A6B42F004021A634F
:102840001A6B02F004020592059A06941A6B42F084
:1028500008021A631B6B03F00803069302250E2679
:10286000069B0B964FF4806307A9CDE90735CDE9A8
:10287000094502F02DFC41F658032C480B9607A998
:10288000CDE907350927CDE9094502F021FC0323ED
:1028900027480B9707A9CDE90735CDE9094502F08F
:1028A00017FC4FF4706322480B9607A9CDE9073552
:1028B000CDE9094502F00CFC4FF40C631D480B9662
:1028C00007A9CDE90735CDE9094502F001FCC02390
:1028D00019480B9607A9CDE90735CDE9094502F05E
:1028E000F7FB082315480B9607A9CDE90735CDE975
:1028F000094502F0EDFB4FF4A0530E480B9707A9D2
:10290000CDE90735CDE9094502F0E2FB5820224622
:10291000052102F093FA582002F0C2FA19B0F0BD76
:1029200000680140003802400014024000000240EC
:10293000000402400018024000080240000C02405F
:1029400010B5044688B01422002103A820F0F1FE3F
:102950002268144B9A4223D103F568430021019168
:102960005A6C114842F480125A645A6C02F4801274
:102970000192019A02911A6B42F020021A631B6BBA
:1029800003F020030293029B4FF4607202230321A1
:10299000CDE903230523CDE9061303A902F098FB33
:1029A00008B010BD00500140001402402DE9F04174
:1029B00086B0002303932B4B1C68002C4FD14FF0A3
:1029C0000108C3F80080284B00949A6B274842EA1C
:1029D00008029A639B6B03EA08030093022703260D
:1029E0000C25009B01A94FF63F03CDE90137CDE946
:1029F000046502F06DFB1E48059501A9CDE901872C
:102A0000CDE9034602F064FB48F2331319480595FB
:102A100001A9CDE90137CDE9034602F059FB4FF694
:102A200083731548059501A9CDE90137CDE9034622
:102A300002F04EFB4CF203731048059501A9CDE955
:102A40000137CDE9034602F043FB60230C480595AE
:102A500001A9CDE90137CDE9034602F039FB06B003
:102A6000BDE8F0810819002000380240001402403F
:102A7000000802400018024000100240000C024012
:102A80000004024070B588B000230293204B1A6CFA
:102A900042F010021A641B6C03F010030293054607
:102AA00001A903A8029B03F0EFFC069B4BBB03F0BC
:102AB000DBFC184E184B336040F2E733F360174BE2
:102AC000B0FBF3F3013B7360304600233361B36026
:102AD000B36104F017FB044680B9304604F0E8F90E
:102AE000044658B9362002F0DBF90F2D0DD82246E6
:102AF0002946362002F0A2F9094B1D60204608B095
:102B000070BD03F0B1FC4000D3E70124F6E700BF3D
:102B1000003802400C1900200010004040420F0015
:102B20007C0000207047FEE7FEE7FEE7FEE7704707
:102B3000014804F0FBB900BF0C190020014803F064
:102B40003BB900BFC4170020014802F0F3B900BF31
:102B5000C0180020012002F0B3BB0000012804BF10
:102B6000014B1870704700BF2417002001207047E8
:102B700008B520F081FE162303604FF0FF3008BD3A
:102B800008B520F079FE16230360FEE770B50D4608
:102B900014460E46731B9C4201DC204670BDAFF309
:102BA000008006F8010BF5E770B50D4614460E4699
:102BB000731B9C4201DC204670BD16F8010BAFF37D
:102BC0000080F5E74FF0FF3070474FF400534B6043
:102BD0000020704701207047002070470A4A1168A2
:102BE00008B5034609B909491160106869460344EC
:102BF0008B4206D920F040FE0C2303604FF0FF30DB
:102C000008BD1360FCE700BF5419002020350120E7
:102C1000704708B5042918D8DFE801F003070B0F47
:102C2000130001F0BBFA006808BD01F0B7FA406874
:102C3000FAE701F0B3FA8068F6E701F0AFFAC0688E
:102C4000F2E701F0ABFA0069EEE70020ECE710B51F
:102C5000042104461FF0BCFA204610BD004870470E
:102C60007C5402080A20704713B5002451B1036850
:102C700001948DF8034001AA9C680DF10303A0475D
:102C800002B010BD0846FBE7C0897047008A704754
:102C9000C088704780887047807A00F07F00704756
:102CA000807AC00970470020704700009FED010A3C
:102CB000704700BF00000000704710B508210446AF
:102CC0001FF086FA204610BD7047704700F59873D4
:102CD0000868496803C37047704770474160704790
:102CE00070477047064BC0F84C310023C0F8503194
:102CF00000F5A273C0F84801C0F84031704700BF2A
:102D00001D310008012303727047704710B4C26878
:102D100041685410034601EB6200D20748BF0A59CC
:102D20009B685DF8044B48BFD3581847034640687A
:102D300030B19A681AB9D86800F0010070470120D4
:102D4000704710B50C2104461FF042FA204610BD12
:102D500010B5102104461FF03BFA204610BD10B5F7
:102D60004FF4AE7104461FF033FA204610BD10B583
:102D70000CF024FC0368BDE81040DB6B184710B56D
:102D80000446D0F8400158B10368DB68984738B171
:102D9000D4F8400103689B6898470023C4F8403189
:102DA00010BD0000044B1B6893F858200AB1D86C82
:102DB00000B99868704700BFDC270120F8B51746B6
:102DC00004460E460CF0BCFC124B1C60124B2360F8
:102DD000124B0025C4E95135114BC4E9535518680D
:102DE000036829469B68C4E94F55C4E9557698475E
:102DF000284601F087F9FFF7D5FF17F0E6F8FFF74F
:102E0000D1FF17F05DF9FFF7CDFF17F065F9204608
:102E1000F8BD00BF30280120745502085C55020837
:102E2000DC270120064BC0F84C310023C0F850319C
:102E300000F5A273C0F84801C0F84031704700BFE8
:102E40001D310008064BC0F84C310023C0F850314A
:102E500000F5A273C0F84801C0F84031704700BFC8
:102E6000D52F0008064BC0F84C310023C0F8503174
:102E700000F5A273C0F84801C0F84031704700BFA8
:102E80008D2E000803685B6A184700002DE9F14F9A
:102E9000D0E9556A0746B06803681B6A9847B0F5E1
:102EA000007F05D2434B444AA321444820F0CEF989
:102EB000706803681B6A98470F2803D8404B3E4A46
:102EC000A421F2E7F06803681B6A98470B2803D82F
:102ED0003C4B394AA521E8E70CF070FBDFF8EC9099
:102EE00004300CF090FBD9F8000010B10368DB68E7
:102EF0009847D9F8000010B103681B689847DFF8BD
:102F0000D080D8F8000010B103685B699847D7F803
:102F10003C0110B103685B689847D8F8000010B115
:102F200003681B689847D7F83C0110B103689B6899
:102F30009847F0680021FFF7A5FF4FF0000B224BE8
:102F4000C0F804B0044680F808B00360B0680368B5
:102F500059465B6A9847054601F08EF97068036828
:102F600059465B6A98472946064601F063F9331DC6
:102F7000C7F83C61C9F80040C8F80050CAF80030F2
:102F80002B68C6F808A02846DB68EE6398473368CC
:102F900030461B689847214628460EF0BFFC236840
:102FA00020461B69984723685B69204601B0BDE84D
:102FB000F04F18479348020821490208014A0208C5
:102FC000484A0208EB4A0208C85502082428012092
:102FD000202801202DE9F14FD0E9556A0746B06855
:102FE00003681B6A9847B0F5077F05D2434B444AF4
:102FF000A321444820F02AF9706803681B6A9847A7
:103000000F2803D8404B3E4AA421F2E7F06803683A
:103010001B6A98470B2803D83C4B394AA521E8E79F
:103020000CF0CCFADFF8EC9004300CF0ECFAD9F8A4
:10303000000010B10368DB689847D9F8000010B1B0
:1030400003681B689847DFF8D080D8F8000010B1FB
:1030500003685B699847D7F83C0110B103685B6867
:103060009847D8F8000010B103681B689847D7F854
:103070003C0110B103689B689847F0680021FFF796
:1030800001FF4FF0000B224BC0F804B0044680F85B
:1030900008B00360B068036859465B6A9847054604
:1030A00001F094F97068036859465B6A98472946AD
:1030B000064601F069F9331DC7F83C61C9F80040C4
:1030C000C8F80050CAF800302B68C6F808A0284697
:1030D000DB68EE639847336830461B6898472146A3
:1030E00028460EF01BFC236820461B69984723687E
:1030F0005B69204601B0BDE8F04F184793480208CD
:103100008E4B0208014A0208484A0208EB4A0208AC
:10311000C855020824280120202801202DE9F14F5C
:10312000D0E9556A0746B06803681B6A9847B0F54E
:10313000C87F05D2434B444AA321444820F086F877
:10314000706803681B6A98470F2803D8404B3E4AB3
:10315000A421F2E7F06803681B6A98470B2803D89C
:103160003C4B394AA521E8E70CF028FADFF8EC904F
:1031700004300CF048FAD9F8000010B10368DB689D
:103180009847D9F8000010B103681B689847DFF82A
:10319000D080D8F8000010B103685B699847D7F871
:1031A0003C0110B103685B689847D8F8000010B183
:1031B00003681B689847D7F83C0110B103689B6807
:1031C0009847F0680021FFF75DFE4FF0000B224B9F
:1031D000C0F804B0044680F808B00360B068036823
:1031E00059465B6A9847054601F0B0F87068036875
:1031F00059465B6A98472946064601F085F8331D13
:10320000C7F83C61C9F80040C8F80050CAF800305F
:103210002B68C6F808A02846DB68EE639847336839
:1032200030461B689847214628460EF077FB2368F6
:1032300020461B69984723685B69204601B0BDE8BA
:10324000F04F184793480208604C0208014A0208F0
:10325000484A0208EB4A0208C855020824280120FF
:10326000202801207047704770477047704730B57D
:10327000036885B06D460181D3F884300146044669
:103280002846984795E807003C3484E8070005B0D5
:1032900030BD30B5036885B06D464181D3F88430C8
:1032A000014604462846984795E807003C3484E8E0
:1032B000070005B030BD0022028042808280C280BB
:1032C000704780F83610704770B5036804461B6B72
:1032D000154698472368294620465B6EBDE8704036
:1032E000184700207047806C7047704770477047E0
:1032F000704730B4C26844685510034604EB62005E
:10330000D20748BF62599B6830BC48BFD3581847A2
:103310000346406830B19A681AB9D86800F00100D5
:1033200070470120704710B54C2104461EF050FF35
:10333000204610BD10B5102104461EF049FF20465E
:1033400010BD10B54FF4FC7104461EF041FF20463D
:1033500010BD08B5FEF710FD08BD0000036870B58C
:103360005E6B124B1B6804468DB22BB9104B114A91
:103370006C2111481FF06AFF1049828D0988914223
:1033800003D80F4B0B4A6D21F3E713F812200D4BB6
:103390001B6853F8220003681B6B9847291A3346B1
:1033A000204609B2BDE87040184700BF342801200C
:1033B0002C4D02086E4D0208A94D02083828012044
:1033C000F04D02083C280120E030884208B505D1C4
:1033D0000CF0F4F8BDE80840FFF734BD08BD00224A
:1033E0004FF0FF31C0E900218260704770B503687B
:1033F00004461B6B154698472368294620465B6B9D
:10340000BDE87040184770B504461D46BDF9106010
:10341000FFF7ECFF2368294620469B6B98472368FB
:1034200031462046DB6BBDE870401847094A026010
:103430004FF4807100228184FF21C0E90122C0E99C
:103440000322C0E90522C0E9072280F82610826223
:10345000704700BF605C02084FF4807181840D49A1
:1034600001600D4981624FF6FF7181854FF47F0144
:10347000002241634FF0FF31C0E90122C0E903227D
:10348000C0E90522C0E90722C0E9101202630287E1
:10349000C2637047D05B02084C550208F8B5194B5F
:1034A000018F1B888B4206462AD9174B1B682BB904
:1034B000164B174A17486C211FF0C8FE13F811204D
:1034C000154B1B6853F82250144B186800F056FE39
:1034D0002B6807469B6B284698472B6804469B6CD5
:1034E0003946284698472B6814FB00F45B6A394636
:1034F00028469847A4B223181BB2A6F84630F8BD58
:103500000023FAE738280120342801202C4D020836
:103510006E4D0208A94D02083C28012040280120D8
:103520002DE9F04F04468FB0A04600250EF04AF872
:10353000924BE56348F8403B04F16C0A404604F1C5
:103540009807FFF773FF504604F1E006FFF76EFFA0
:103550003846FFF781FF304609F084FC04F5947388
:103560001846DFF848920393FFF776FF04F5BA7325
:10357000C4F828911846C4F870510493FFF76CFF03
:103580007F4BC4F87491C4E97A347E4BC4F8BC51C3
:10359000C4E97C35F02304F1040B2A4640464FF081
:1035A0007F49009329464FF4A073FFF72CFF414653
:1035B0005846C4F8689005F06BFFF0232A46504641
:1035C000009329464FF4A073FFF71DFF6E4BC4F81C
:1035D00094305146584605F05BFF0DF1180838222B
:1035E00038462D21FFF702FF39464046C4F8C890FF
:1035F000A4F8CC5008F0BEFE98E8070004F1D4030C
:1036000083E80700DFF8A8A1CDF830A007233846EB
:103610000CA9ADF8343009F055F93946584605F093
:1036200037FF3046B6224921FFF7E0FE03270CAAF8
:103630004FF002030BA93046ADF82C30ADF83070D6
:1036400009F09DF906233046A4F81831FFF726FF4C
:103650004FF0FF33C4E9473304F5F4733146C4F83F
:103660000831584605F014FF1E235A220398009390
:103670004921D523FFF7C7FED4F828310399D3F8A1
:103680008430C4F858914046A4F85C51984798E8B3
:10369000070004F5B2733D4E83E8070004F5E073BC
:1036A000059333682BB93A4B3A4A60213A481FF0E8
:1036B000CDFDDFF80091B9F80030042B03D8374B6B
:1036C000344A6121F2E7364B0421186800F056FDB8
:1036D000344A03460A2105980FF022FC059AC4F8E3
:1036E000702105230398ADF834300CA9CDF830A033
:1036F00009F0E8F80399584605F0CAFE1B232A464C
:10370000049800934921E123FFF77DFE264BC4F87E
:10371000A431D4F874310499D3F88430A4F8A851B2
:103720004046984798E8070004F5D87383E80700F7
:10373000336804F5EA75002BB5D0B9F80030022BD8
:10374000BDD9174B0221186800F018FD154A034631
:103750000A2128460FF0E4FB0498C4F8BC510CA9D8
:10376000CDF830A0ADF8347009F0ACF858460499A3
:1037700005F08EFE20460FB0BDE8F08F945602088B
:103780007C560208C9330008EFF781FF3428012076
:103790002C4D02082E4E0208A94D0208F04D0208D9
:1037A00040280120794E02080000FFFFEC55020876
:1037B0004C55020838280120406A7047806A7047DB
:1037C00070478A880B8810B5D20A4C88C1699BB2B1
:1037D00051F8220043EA0443184410BD10B50446D2
:1037E000BAB1107B68B1537BD27A1B0203F4E06359
:1037F0001A43236A03EB82031A888A4202D193F99F
:10380000020010BD05D8013880B204330028F3D17E
:10381000F7E70020F5E710B52C2104461EF0D8FC90
:10382000204610BD30B58BB00446BDF860500895F9
:10383000BDF85C5007959DF8505006959DF84C508A
:1038400005959DF8485004959DF8445003959DF8C2
:10385000405002959DF83C500195BDF838500095B8
:103860000DF0B6FC064B2360159BE361169B2362AB
:10387000199B63621A9BA36220460BB030BD00BF48
:10388000C856020870477047704730B4C268446831
:103890005510034604EB6200D20748BF62599B688B
:1038A00030BC48BFD35818470346406830B19A68C7
:1038B0001AB9D86800F0010070470120704710B5B0
:1038C000102104461EF084FC204610BD10B54FF4B4
:1038D000C87104461EF07CFC204610BD983088421A
:1038E00008B505D10BF06AFEBDE80840FFF7AABA9B
:1038F00008BD00000022C0E90122C0E90322C0E99E
:103900000522C0E907224FF480728284014A0260D6
:10391000704700BF3057020838B5262204460D46CE
:1039200000211FF006FF2046FFF7E4FF064B23604F
:103930002B88E384FF23204684F82830294609F0A9
:1039400050F9204638BD00BFC85C02082DE9F04F91
:1039500004468DB0A14600250DF034FE684BE563AA
:1039600049F8403B4846FFF761FD04F16C0304F160
:103970009808184604F1E0070393FFF757FD404607
:1039800009F070FA2946262238461FF0D2FE384642
:10399000FFF7B0FF5B4BC4F8E0305B4BC4F8083175
:1039A00004F594724FF47F034FF0FF3A4FF6FF7621
:1039B00004F5AA7BC4F81431A4F80C610AA91046D6
:1039C000C4E948A5C4F81051A4F81851C4F81C5112
:1039D0000292ADF828A0FFF79FFF0AA95846ADF85C
:1039E0002860FFF799FF494BC4E96034484BF02247
:1039F000C4E96235294600924FF4A0732A4648462E
:103A0000FFF701FD261D4FF07F42A2664946304672
:103A100005F03EFDF0220398009229462A464FF415
:103A2000A073FFF7F0FC3B4BC4F894300399304689
:103A300005F02EFD4046B0222821FFF7D7FC4FF0BD
:103A400001090AAA09A94046ADF82450ADF828900A
:103A500008F095FF4046A4F8D090FFF71FFD04F54D
:103A6000C073C4F8C03041463046C4E935AA05F0F9
:103A70000FFD38460D223721FFF7B8FC0DF1100875
:103A80004FF07F42C4F8102139464046A4F8145143
:103A900008F070FC98E8070004F58E7383E80700CF
:103AA000194B0A930AA93846ADF82C5008F00AFFC2
:103AB0003946304605F0ECFC492202982121FFF7F7
:103AC00095FC08230298ADF828300AA909F089F876
:103AD0000299304605F0DCFC49225846FA21FFF7EE
:103AE00085FC07230AA95846ADF8283009F079F873
:103AF0003046594605F0CCFC20460DB0BDE8F08FAD
:103B0000B0570208D05B02084C55020898570208CB
:103B1000DD380008EFF781FF7047704710B54FF4AC
:103B2000EA7104461EF054FB204610BD08B50BF0A8
:103B300045FDBDE80840FFF795B900002DE9F04FBD
:103B400004468DB0A04600250DF03CFD8C4BE5638E
:103B500048F8403B4046FFF769FC04F16C03184607
:103B60000493FFF763FC04F19803184604F1C409B9
:103B700005934FF6FF76FFF759FC04F1F0070AA909
:103B80004846ADF82860FFF7C7FE2946262238468A
:103B90001FF0CFFD3846FFF7ADFE7A4BC4F8183161
:103BA0004FF47F03C4F82431774BC4F8F03004F5A8
:103BB0009E724FF0FF33C4E94C351046A4F81C61E7
:103BC000C4F82051A4F82851C4F82C51C4F8385135
:103BD0000AA904F5B47A0392ADF8283004F5CA7B3B
:103BE000FFF79AFE0AA95046ADF82860FFF794FE49
:103BF0000AA95846ADF82860FFF78EFEF0232A4642
:103C00002946404600934FF4A073FFF7FCFB261DA6
:103C10004FF07F434146A366304605F039FCF02360
:103C20002A462946049800934FF4A073FFF7EBFB54
:103C3000564B0499C4F89430304605F029FC822391
:103C4000BE222946059800934FF4A073FFF7DBFBD3
:103C50004F4BC4F8C0300599304605F019FC92224C
:103C60004FF4C8714846FFF7C1FB05230AA948462F
:103C7000ADF828304FF0210808F0B3FF4946304630
:103C800005F006FC2A469523DD213846CDF8008054
:103C9000FFF7B9FB4FF07F43C4F82031D4F8F03080
:103CA000A4F8245106AD2846D3F884303946984705
:103CB00095E8070004F5967383E80700354B1B6809
:103CC00004F5E0752BB9344B344A602134481FF0B9
:103CD000BDFA344B1B88082B03D8334B2F4A612184
:103CE000F4E7324B0821186800F048FA304A0346DE
:103CF0000A2128460FF014F9224BC4F838510A93D0
:103D00000AA909233846ADF82C3008F0DBFD394606
:103D1000304605F0BDFB424603984FF4A471FFF70F
:103D200065FB04250398ADF828500AA908F059FF4F
:103D30000399304605F0ACFB3F2250464FF4CA7160
:103D4000FFF754FB0AA95046ADF8285008F049FF88
:103D50005146304605F09CFB8F2258461821FFF74C
:103D600045FB08230AA95846ADF8283008F039FF6A
:103D70003046594605F08CFB20460DB0BDE8F08F6B
:103D8000E45702084C550208EC550208EFF781FF92
:103D90002B2321FF342801202C4D02082E4E02082F
:103DA000A94D020838280120F04D020840280120C2
:103DB000794E02087047000030B5174D2C6814F09A
:103DC00001048FB0BFF35B8F22D128461EF002FAA8
:103DD000F0B13F230993114B0893114B0793012333
:103DE000CDE9053304930423CDE9024314230D499F
:103DF000009310221623CDE90B440B480A9401943A
:103E0000FFF710FD09481FF03FFA28461EF0EEF9B3
:103E100005480FB030BD00BF58190020388D02088A
:103E2000A48D02087C8902085C190020B53D0008B9
:103E30007047000030B5174D2C6814F001048FB0A6
:103E4000BFF35B8F23D128461EF0C4F9F8B13F239E
:103E50000993114B0893114B07930223CDE90533C6
:103E600001220423CDE903321E230D4900930A22C7
:103E70002123CDE90B44CDE901440A480A94FFF718
:103E8000D1FC09481FF000FA28461EF0AFF905489A
:103E90000FB030BD881900204C8D0208A88D020893
:103EA0005C8A02088C190020313E0008704700002F
:103EB00030B5174D2C6814F001048FB0BFF35B8F41
:103EC00022D128461EF086F9F0B13F230993114B09
:103ED0000893114B07930123CDE905430493042371
:103EE000CDE9024314230D4900931E221823CDE986
:103EF0000B440B480A940194FFF794FC09481FF007
:103F0000C3F928461EF072F905480FB030BD00BF56
:103F1000B8190020648D0208AC8D0208E88A0208F6
:103F2000BC190020AD3E00087047000030B5164DAA
:103F30002C6814F001048FB0BFF35B8F20D12846AA
:103F40001EF048F9E0B13F230993104B0893104B42
:103F5000104911480A940122CDE906430423CDE912
:103F6000033219230093CDE90B44CDE901440594B4
:103F7000FFF758FC09481FF087F928461EF036F96C
:103F800005480FB030BD00BFE81900209C8D020825
:103F9000B08D02088C8C0208EC190020293F000823
:103FA0007047000030B5164D2C6814F001048FB036
:103FB000BFF35B8F21D128461EF00CF9E8B13F23F7
:103FC0000993104B0893104B104911480A94CDE9FE
:103FD000064301220423CDE903321E2300930B2262
:103FE000CDE90B44CDE901440594FFF71BFC0948DA
:103FF0001FF04AF928461EF0F9F805480FB030BD09
:10400000181A0020A08D0208B48D02089C8C0208AA
:104010001C1A0020A13F00080020704700207047B4
:104020000EB403B503AB002153F8042B01930CF03D
:104030004DFB02B05DF804EB03B070470CB407B55C
:1040400004AB53F8042B01930CF040FB03B05DF874
:1040500004EB02B070470000436C10B5044673B324
:10406000038F2BB9184B194AC52119481FF0EEF8D8
:10407000C38E00EB43035B8C0BB30EF0A8F9238FC8
:10408000012B03D8134B144ACB21EEE7E28E531CCD
:104090009BB2092B194688BFA3F10A0104EB410129
:1040A00040F63F10498C814209D10A2B04EB4202B1
:1040B00028BF002304EB4303508C588451842046CE
:1040C000BDE810400EF086B87C4E0208854E02080E
:1040D000304F02087A4F0208884F02080EF041B8AC
:1040E00010B586B002AC84E806001A460AAB059308
:1040F0000193099B00932146089B0AF0FDFD06B041
:1041000010BD000038B518BB124B13481C6813498A
:10411000B4B1226822440260626822440A60A26844
:1041200014440F4B00221A8000F038F8054600F0C6
:1041300033F80C4B1C600C4B1D600C4B188007E0D7
:104140000B4B03600B4B0B600B4B1C68002CE8D136
:1041500038BD00BF541A00204C1A0020481A002015
:10416000501A0020342801203C2801203828012042
:10417000E08D0208B88D0208848E0208044B1B688B
:1041800053F82100034B1B6803EB4000704700BF4E
:10419000481A00204C1A00200A2070470048704737
:1041A000581A002010B5FFF783FE074C2060FFF778
:1041B000F9FE6060FFF7BAFEA060FFF73BFEE0602B
:1041C000FFF7FAFD206110BD581A002010B5002439
:1041D00004600C6014601C6010BD704710B54FF493
:1041E000AE7104461DF0F4FF204610BD10B5044624
:1041F000D0F8580100F0B9F82046BDE810400BF0A7
:104200005FBA000010B50446FEF7D8FD014B2360ED
:10421000204610BD1C58020870470438704770478C
:1042200010B5102104461DF0D3FF204610BDA0F1AB
:104230000400F5E700228260024A02601832426000
:10424000C1607047705802087047000010B5034BFA
:1042500003600446FFF74BF8204610BD985802084B
:1042600010B50446FFF7F2FF20464FF400711DF031
:10427000AFFF204610BD000010B50446FFF750F90F
:10428000034B23600023C4F8F831204610BD00BF63
:104290009858020838B50446FFF72AF8104B114A1F
:1042A000114D1B681268C4F8F831C4F8FC210A21CA
:1042B0002A4604F5E0700EF033FE04F594700CF01D
:1042C0002FFBD4F8FC312A4604F5EA700A210EF0DF
:1042D00027FE04F5BA70BDE838400CF021BB00BFE2
:1042E000701A00206C1A00205A50020870470438D7
:1042F0007047704710B5102104461DF069FF204635
:1043000010BDA0F10400F5E700228260024A0260BD
:1043100018324260C1607047CC58020870470000F4
:1043200010B5034B03600446FFF7ADFA204610BDFD
:10433000F458020810B50446FFF7F2FF20464FF488
:10434000C8711DF045FF204610BD000010B50446A1
:10435000FFF7FCFA014B2360204610BDF458020819
:10436000FFF792BA00220260704770477047043826
:104370007047704710B5102104461DF029FF2046F4
:1043800010BDA0F10400F5E700228260024A02603D
:1043900018324260C1607047285902087047000017
:1043A00010B5034B03600446FFF7B6FB204610BD73
:1043B0005059020810B50446FFF7F2FF20464FF4AB
:1043C00007711DF005FF204610BD000010B5044622
:1043D000FFF7B4FB104B236001220023C4F8DC215B
:1043E0000A22C4E97533C4E97933C4E97E3384F819
:1043F000E031C4F8EC31C4F8003284F80632C4F875
:10440000083284F80C32C4F81032C4F8142284F84C
:104410001832204610BD00BF5059020810B504469E
:10442000FFF77BFBB4F99E21B4F99E309B1AC4F8C8
:10443000D431A4F89A31174B1B88C4F8E431922385
:10444000C4F8E8311FF012F8032390FBF3F303EBF9
:104450004303C01AD4F8E431A4F8C830D4F8E831E2
:10446000A4F8CA30FF220023C4E97E33043084F864
:104470000632C4F80832A4F804224FF07F43C4F88F
:10448000EC01C4F8203104F1F000BDE810400CF05C
:1044900047BA00BFD02701202DE9F7430446012188
:1044A000D94800F0F9FE012894F8E03131D15BB928
:1044B0006FF00E0284F8E001C4F8D82184F80C02F1
:1044C000C4F8103284F8183204F5CA7528460CF086
:1044D00027FAD4E97521D4F8DC310B440A44C4F836
:1044E000D831B4F99E11B4F99E30C4F8D4215B1AC6
:1044F0009A4206DBC4F8D4310023C4F8D83184F8DA
:10450000E031D4F8D431A4F89A3128460CF008FAF6
:1045100001E0002BD8D104F1C40528460CF000FAC4
:10452000D4F8E431D4F8EC219B1AB4F9CC20C4F8C7
:10453000E431DA422FD5B54B1B88C4F8E4311EF0C4
:1045400095FFD4F80032002800F0010003F10103C8
:10455000B8BF4042052293FBF2F202EB8202043024
:104560009A1AC4F8EC01C4F800320AD194F8051282
:10457000C4F8082281F0010184F80512012184F8B1
:104580000612A34A0A2104F5E0700EF0C9FC04F1FA
:10459000F0000CF0C5F9D4F8E431A4F8C830D4F830
:1045A000E831A4F8CA30284604F59E750CF0B8F935
:1045B00028460CF0B5F9D4F8F031B4F94421013BA8
:1045C000DA42C4F8F03142BF904B1B88C4F8F03196
:1045D000D4F8F031A4F84031284604F5B4750CF055
:1045E0009FF928460CF09CF994ED7D7AB4F970316E
:1045F000F7EE047A37EE677A07EE903AF8EEE77A4C
:1046000084ED7D7A77EE877AF5EEC07AF1EE10FAD6
:1046100007D57E4B1B8807EE903AF8EE677AC4ED1B
:104620007D7AD4ED7D7AFDEEE77A284617EE903A52
:10463000A4F86C310CF074F994F8E031002B00F020
:10464000BD8004F5CA750823284601A9ADF80430D9
:1046500008F0C7FA28460CF063F9B4F99831D4F899
:10466000E401C01AFBF766FFB4F99A310646D4F8A4
:10467000E801C01A0F46FBF75DFF324680468946C7
:104680003B4630463946FBF7BFFF424606460F46DB
:104690004B4640464946FBF7B7FF02460B463046BD
:1046A0003946FBF7FBFD41EC100B1DF0B8FD594BF3
:1046B00051EC100B0022FCF719FA30B301235649D4
:1046C00084F80C320A220023C4E98432D4F8002290
:1046D0000A60524984F818320868C4F800324B4B1B
:1046E00082421B88C8BF0A60C4F8E431484A0023EC
:1046F0000A2104F5E0700EF013FC04F1F0000CF058
:104700000FF923682046DB6A984794F8052294F84D
:104710000432002A73D0322B02D9033B84F80432CE
:1047200094F8043203EB032203EB022343F07F43AC
:10473000C4F8943004F16C000CF0F2F894F80632EE
:104740001BB3D4F808320A220133C4F8083293FBB1
:10475000F2F102FB1133042B04F1F005304BC8BF1A
:104760004FF07F43C4F8203128460CF0D9F8D4F834
:1047700008321E2B09DD002384F806324FF07F43F8
:10478000C4F8203128460CF0CBF894F80C3293B1E1
:10479000D4E984239A4245DA94F818221A4882F020
:1047A000010284F81822202100F07CFDD4F8103298
:1047B0000133C4F8103203B0BDE8F083D4F8F83107
:1047C0000133042BC4F8F8317FF747AFD4F8FC313C
:1047D000C3F10103C4F8FC3104F5CA756BB90823B1
:1047E00001A92846ADF8043008F0FBF928460CF082
:1047F00097F80023C4F8F8312FE70923F0E7FF2BDF
:104800008ED003338AE700BF00000240D02701208A
:104810005A50020800004640701A00206C1A00200E
:104820000000FFFF04480022202100F03BFD002390
:1048300084F80C32BFE700BF00000240F020704750
:104840004FF4A07070472920FDF78CBE2820FDF79B
:1048500089BE08B5FDF75AFECA20FDF783FEC320C6
:10486000FDF764FE0820FDF761FE5020FDF75EFEB7
:10487000CF20FDF777FE0020FDF758FEC120FDF7A1
:1048800055FE3020FDF752FEED20FDF76BFE642053
:10489000FDF74CFE0320FDF749FE1220FDF746FE12
:1048A0008120FDF743FEE820FDF75CFE8520FDF743
:1048B0003DFE0020FDF73AFE7820FDF737FECB20C5
:1048C000FDF750FE3920FDF731FE2C20FDF72EFEBE
:1048D0000020FDF72BFE3420FDF728FE0220FDF717
:1048E00025FEF720FDF73EFE2020FDF71FFEEA2003
:1048F000FDF738FE0020FDF719FE0020FDF716FE3B
:10490000B120FDF72FFE0020FDF710FE1B20FDF764
:104910000DFEB620FDF726FE0A20FDF707FEA220B9
:10492000FDF704FEC020FDF71DFE1020FDF7FEFD83
:10493000C120FDF717FE1020FDF7F8FDC520FDF79B
:1049400011FE4520FDF7F2FD1520FDF7EFFDC72014
:10495000FDF708FE9020FDF7E9FD3620FDF702FE89
:10496000C820FDF7E3FDF220FDF7FCFD0020FDF778
:10497000DDFDB020FDF7F6FDC220FDF7D7FDB62026
:10498000FDF7F0FD0A20FDF7D1FDA720FDF7CEFDD4
:104990002720FDF7CBFD0420FDF7C8FD2A20FDF7F9
:1049A000E1FD0020FDF7C2FD0020FDF7BFFD002066
:1049B000FDF7BCFDEF20FDF7B9FD2B20FDF7D2FD83
:1049C0000020FDF7B3FD0020FDF7B0FD0120FDF74D
:1049D000ADFD3F20FDF7AAFDF620FDF7C3FD012048
:1049E000FDF7A4FD0020FDF7A1FD0620FDF79EFDCB
:1049F0002C20FDF7B7FDC820FDF702FE2620FDF7AD
:104A0000B1FD0120FDF792FDE020FDF7ABFD0F2089
:104A1000FDF78CFD2920FDF789FD2420FDF786FD9B
:104A20000C20FDF783FD0E20FDF780FD0920FDF72A
:104A30007DFD4E20FDF77AFD7820FDF777FD3C20C7
:104A4000FDF774FD0920FDF771FD1320FDF76EFDE4
:104A50000520FDF76BFD1720FDF768FD1120FDF720
:104A600065FD0020FDF762FDE120FDF77BFD0020E4
:104A7000FDF75CFD1620FDF759FD1B20FDF756FDE7
:104A80000420FDF753FD1120FDF750FD0720FDF731
:104A90004DFD3120FDF74AFD3320FDF747FD422053
:104AA000FDF744FD0520FDF741FD0C20FDF73EFD1F
:104AB0000A20FDF73BFD2820FDF738FD2F20FDF7EC
:104AC00035FD0F20FDF732FD1120FDF74BFDC8200D
:104AD000FDF796FD2920FDF745FDBDE808402C2097
:104AE000FDF740BD08B5FDF711FD0321D320FDF70B
:104AF00055FD80B208BD10B5C4B202220321204684
:104B0000FDF7BAFC0A20FDF7FFFC20460022032136
:104B1000FDF7B2FCBDE810400220FDF7F5BC38B54A
:104B20000446E4B2FDF7A6FC00212046FDF7BCFCDC
:104B3000012105462046FDF7B7FC40EA052080B27A
:104B400038BD10B5C4B240212046FDF7ADFC0306C8
:104B500007D54C212046FDF7A7FC003818BF0120DF
:104B600010BD01224B212046FDF786FC2046002285
:104B70004B21FDF781FC0020F2E773B50423C4B29A
:104B80000E461546D7210DEB03022046FDF7A6FC85
:104B9000019B1BBA1A0DC3F30B23328020462B80D6
:104BA00001224B21FDF768FC00224B212046FDF736
:104BB00063FC02B070BD000010B50A4A1378984239
:104BC00004460DD0517888420AD00BB141B9012377
:104BD000D454FDF74FFC2046BDE81040FFF78BBFD3
:104BE00010BD00BF741A002010B5C4B209212046C0
:104BF000FDF75AFC40F00102D2B220460921BDE87F
:104C00001040FDF739BC10B5C4B209212046FDF7AC
:104C10004BFC092100F0FE022046BDE81040FDF7E4
:104C20002BBC38B5C4B20D4620460A21FDF73CFC2A
:104C300040EA0502D2B220460A21BDE83840FDF71D
:104C40001BBC10B50446FDF716FC20461F21FFF7DC
:104C5000E8FF2046BDE81040FFF7C6BF38B5C4B234
:104C60000D4620460A21FDF71FFC20EA0502D2B2BC
:104C700020460A21BDE83840FDF7FEBB10B50446CA
:104C8000FFF7C1FF20461F21BDE81040FFF7E6BF38
:104C900010B5C0B20C460B21FDF706FC204010BD3C
:104CA0001F21FFF7F5BF0A46C0B20B21FDF7E4BB99
:104CB0001F21FFF7F8BF38B5C4B20D4620461721B3
:104CC000FDF7F2FB20EA0502D2B220461721BDE82B
:104CD0003840FDF7D1BB70B5C4B20646042120466A
:104CE000FDF7E2FB042100F0FB0205462046FDF73C
:104CF000C3FB3046F021FFF7DEFF05F0F802204647
:104D00000421FDF7B9FB492220212046FDF7B4FB21
:104D10000220FDF7F9FB204601222121FDF7ACFB23
:104D200020469A224121FDF7A7FB204601224A2175
:104D3000FDF7A2FB204601224B21FDF79DFB2046FB
:104D400000224B21FDF798FB204601225621FDF75A
:104D500093FB204601225821FDF78EFB20460122BD
:104D60004021FDF789FB2046FF220B21FDF784FB44
:104D7000BDE870400220FDF7C7BB0000054BD3F82B
:104D8000882042F47002C3F888204FF000629A60D5
:104D9000704700BF00ED00E008B50B4B1A6842F405
:104DA00000721A601A6842F480621A601A6842F44B
:104DB00080721A60032000F02FF80020FDF762FED9
:104DC000FDF72CFC002008BD003C0240034A044BC8
:104DD00011681B780B441360704700BF781A0020DD
:104DE00078000020014B1868704700BF781A002037
:104DF00038B50446FFF7F6FF631C1CBF054B1B7854
:104E0000054618BFE418FFF7EDFF431BA342FAD392
:104E100038BD00BF780000200749CA6822F4E0626C
:104E20000302120403F4E063120C134343F0BF6364
:104E300043F40033CB60704700ED00E0164B30B513
:104E4000DC68C4F30224C4F10703251D042B28BF2A
:104E50000423062D4FF0FF358CBF033C002405FAD8
:104E600003F321EA0303A54022EA0502A340002838
:104E700043EA0203ACBF00F16040084A4FEA031363
:104E8000B8BF00F00F00DBB2AABF00F561401354B9
:104E900080F8003330BD00BF00ED00E014ED00E00D
:104EA000002807DB044A4109012300F01F0083406A
:104EB00042F82130704700BF00E100E010B5044621
:104EC00050B1437903F0FF0213B90271FDF7C6FB3D
:104ED00001236371002010BD0120FCE710B50446DA
:104EE00020B390F8393003F0FF021BB980F8382066
:104EF000FDF7CCFB022384F83930236861681A6817
:104F000022F440320A431A605A6BA16822F0070269
:104F10000A435A631A6CE1686FF30D020A431A647C
:104F200000200123E06384F8393010BD0120FCE744
:104F300070477047036870B55E681D68F2070446E5
:104F400014D5E90512D51A6822F480721A60C26B72
:104F500042F00102C26301229A60042380F83930D2
:104F6000002380F83830436903B19847B20616D55C
:104F7000AB0414D523681A6822F400521A60202268
:104F80009A60E36B43F00203E363042384F839304F
:104F9000002384F8383063690BB120469847300706
:104FA00016D5290514D523681A6822F400621A6000
:104FB00008229A60E36B43F00403E363042384F85C
:104FC0003930002384F8383063690BB120469847A4
:104FD00072070BD56B0509D523681A6822F4806225
:104FE0001A6004229A602046FFF7A2FFB00714D58A
:104FF000A90512D523681A6822F400721A600222E9
:105000009A60E36BE363012384F83930002384F86A
:10501000383023690BB120469847F20613D5EB04CC
:1050200011D523681A6822F480521A6010229A60FF
:10503000E36BE363012384F83930002384F83830CC
:105040002046FFF776FF70BDF0B590F83820012AB2
:1050500003464FF002002BD0012283F8382083F85A
:10506000390003EB0112D2E90740556A174F44EAB1
:105070000040093C012C9CBF05F07F4210434FEAE1
:1050800001161A6888BF40EA056091B9516A394033
:1050900001435162012C9969916103D8596A21F049
:1050A0007F4191620122002083F8392083F8380083
:1050B000F0BDD16939400143D1619919012C896949
:1050C00011619CBF25F07F451562EBE7F0FFFC0006
:1050D0002DE9F74FDFF8BC916C4A00230D680124DD
:1050E0009C4004EA0506AC4340F0B7804D680327B6
:1050F00005F003044FEA430807FA08FC671E012F76
:105100006FEA0C0C34D8876807EA0C0ECF6807FAF0
:1051100008F747EA0E078760476827EA060EC5F3D7
:1051200000179F4047EA0E074760C76807EA0C0E62
:105130008F6807FA08F747EA0E07022CC76019D1F3
:105140004FEAD30A00EB8A0A03F0070BDAF8207063
:105150004FEA8B0B4FF00F0E0EFA0BFE27EA0E0EE6
:105160000F6907FA0BF747EA0E07CAF8207001E04B
:10517000032CDAD1076804FA08F407EA0C073C4369
:1051800015F4403F046068D000240194D9F84440ED
:1051900044F48044C9F84440D9F8444023F003075C
:1051A00007F1804704F4804407F59C37019403F02D
:1051B000030C019CD7F808E04FEA8C0C0F2404FA8A
:1051C0000CF42EEA040E324CA0424DD004F580645B
:1051D000A0424BD004F58064A04249D004F580641D
:1051E000A04247D004F58064A04245D004F5806415
:1051F000A04243D004F58064A04241D004F580640D
:10520000A0423FD004F58064A0423DD004F5806404
:10521000A04214BF0A24092404FA0CF444EA0E0440
:10522000BC609468F74315F4801F0CBF3C403443C6
:105230009460D46815F4001F0CBF3C403443D46024
:10524000546815F4003F0CBF3C403443546014686C
:10525000ED0354BF3C40344314600133102B7FF402
:105260003DAF03B0BDE8F08F0024D5E70124D3E7BC
:105270000224D1E70324CFE70424CDE70524CBE7BC
:105280000624C9E70724C7E70824C5E7003C014016
:1052900000000240003802400369194214BF012097
:1052A000002070470AB1816170470904FBE7436938
:1052B00001EA030221EA030141EA024181617047E8
:1052C000044A5169014208B502D05061FDF746FC1D
:1052D00008BD00BF003C014001684B6913F48063C6
:1052E0004FF0000210D06FF480634B612023026303
:1052F00080F83D3080F83E20036C80F83C2043F07D
:105300000403036401207047184670472DE9F846EE
:1053100006460F4691461D464FEA114A3368BAF1D8
:10532000010F0CBF5C699C6927EA0404A4B2B4FABB
:1053300084F46409A14501D0002025E06A1CEED068
:10534000FFF750FD089BC01AA84201D8002DE5D1F7
:105350003368BAF1010F0CBF5B699B6927EA03034D
:105360009BB2B3FA83F35B099945D7D1002320227E
:10537000336386F83D2086F83E30326C86F83C3048
:1053800042F0200232640120BDE8F8862DE9F041A8
:1053900004460F46164698462568686927EA0000C5
:1053A00080B2C0B16B695A0517D52B6843F40073FE
:1053B0002B606FF480636B6120220023236384F8E9
:1053C0003D2084F83E30236C43F004032364002323
:1053D00084F83C300120BDE8F081731CDDD0FFF77C
:1053E00001FDA0EB0800B04201D8002ED4D1236803
:1053F0005A6927EA020292B2002ACDD00023202265
:10540000236384F83D2084F83E30236C1343DDE7AA
:1054100070B504460D46164623685B691B0601D528
:1054200000201EE02046FFF757FFC8B96A1CF3D0E2
:10543000FFF7D8FC801BA84201D8002DECD12368CF
:105440005B6913F08003E7D12022236384F83D20B9
:1054500084F83E30226C84F83C3042F02002226412
:10546000012070BD2DE9F0431546026885B0DDE9E5
:105470000C789946136843F4807313600E463B46DC
:10548000CDF8008000224FF001110446FFF73EFFE7
:10549000236838B11B68DB0502D54FF40073236421
:1054A000032620E006F0FE061E611A4943463A46EE
:1054B0002046FFF76BFFA8B9236803905A6903924F
:1054C0009B690393424639462046039BFFF7A0FFA2
:1054D000064660B1236C042B01BF2268136843F4B5
:1054E000007313600126304605B0BDE8F083B9F1C2
:1054F000010F236802D1EDB21D61F4E72A0A1A6197
:10550000394642462046FFF783FF0028E2D1236850
:10551000F1E700BF020001002DE9FF479A4603684A
:1055200015461A6842F480621A601A68DDE90C7840
:1055300042F480721A600E463B46CDF8008000228D
:105540004FF001110446FFF7E1FE236838B11B68F4
:10555000DB0544BF4FF400732364032021E05FFAAE
:1055600086F906F0FE061E612B4943463A46204660
:10557000FFF70CFFA0B9236803905A6903929B6957
:105580000393424639462046039BFFF741FF58B13B
:10559000236C042B01BF2268136843F4007313606B
:1055A000012004B0BDE8F087BAF1010F23681AD1D9
:1055B000EDB242461D6139462046FFF729FF0246FB
:1055C0000028E5D121680B6843F480730B60204606
:1055D000CDF800803B464FF00111FFF797FE22689F
:1055E00060B11368B4E72A0A1A6139464246204678
:1055F000FFF70EFF0028CBD12368D9E749F001035C
:105600001361054943463A462046FFF7BFFE00387E
:1056100018BF0120C5E700BF0200010070B50446B5
:105620000D46164623685B695B0701D500201EE026
:105630002046FFF751FEC8B96A1CF3D0FFF7D2FB32
:10564000801BA84201D8002DECD123685B6913F0C0
:105650000403E7D12022236384F83D2084F83E3000
:10566000226C84F83C3042F020022264012070BD9C
:1056700070B504460D46164621684B6913F0400389
:1056800001D0002011E04A69D2060FD56FF0100258
:105690004A612022236384F83D2084F83E30236C45
:1056A0002364002384F83C30012070BDFFF79AFB8F
:1056B000801BA84201D8002DDED123685B6913F05E
:1056C0004003D9D12022236384F83D2084F83E3062
:1056D000236C1343E4E7000070B5044608B90120C9
:1056E00070BD90F83D3003F0FF021BB980F83C20FC
:1056F000FCF7EEFF242384F83D3023681A6822F07B
:1057000001021A601A6842F400421A601A6822F410
:1057100000421A6000F0A8FE3F4B65689D4294BFAE
:105720003E4B3F4B98428CBF00230123002BD6D128
:105730002268394E51683B4BB0FBF3F321F03F0137
:105740001943B542516088BF4FF49676116A88BFFD
:10575000734321F03F0184BF4FF47A76B3FBF6F335
:1057600001330B431362D169431E2B4821F44F418F
:10577000854221F0FF0132D86D0040F6FC70B3FB8A
:10578000F5F30133034242D0C3F30B031943D16154
:10579000D4E907301168034321F0C0010B431360C3
:1057A0009168D4E9030321F40341034321F0FF018D
:1057B0000B439360D4E90530D168034321F0FF0126
:1057C0000B43D360136843F00103136000202023D0
:1057D000206484F83D30206384F83E0080E7A068B0
:1057E00050B905EB4505B3FBF5F30133C3F30B03E8
:1057F0007BB143F40043C9E719206843B3FBF0F3DE
:105800000133C3F30B0323B143F44043BEE7042346
:10581000BCE70123BAE700BFA08601007F841E0019
:10582000FF083D0040420F002DE9F743044699462A
:105830000C9E0F469046FFF7D5FA94F83D30202B8A
:10584000054603D0022003B0BDE8F08300903C4938
:10585000192301222046FFF759FD0028F2D194F8C0
:105860003C30012BEED02068012384F83C300368E3
:10587000D9075EBF036843F001030360036823F4A4
:1058800000630360212384F83D30402384F83E30D8
:10589000002323640A9B6362BDF82C306385638D0B
:1058A0002385284BE3624246CDE900654B463946E5
:1058B0002046FFF7D7FD00282AD00120C3E7FFF7D5
:1058C000A7FD40B1236C042B01BF2268136843F489
:1058D00000731360F1E7636A27681A4612F8011B28
:1058E00039616262628D218D013A92B262857A6974
:1058F000481E80B2520720850AD548B15A783A61CD
:1059000002336362638D013B02399BB2218563855B
:10591000238D2A4631462046002BD0D1FFF77EFE4C
:105920000028CFD12268136843F40073136020234A
:1059300084F83D3084F83C0084F83E0083E700BFE3
:10594000020010000000FFFF2DE9F043044687B07D
:105950009946109F0D469046FFF744FA94F83D3063
:10596000202B064604D00225284607B0BDE8F08368
:1059700000907A49192301222046FFF7C7FC00282E
:10598000F1D194F83C30012BEDD02068012384F84C
:105990003C300368DB075EBF036843F0010303602C
:1059A000036823F400630360222384F83D3040231E
:1059B00084F83E30002323640E9B6362BDF83C30C4
:1059C0006385638D2385664BE3622946CDE90076C6
:1059D0004B4642462046FFF79FFD054608B101258C
:1059E000C2E7228D2368B2B902905A6902929A697D
:1059F0000292029A1A6842F400721A60DFF8648117
:105A0000238D002B2CD1202284F83D2084F83C30BB
:105A100084F83E30A8E7012A0AD11A6822F480628D
:105A20001A6003905A6903929A690392039AE1E714
:105A3000022A0ED11A6822F480621A601A6842F4AF
:105A400000621A6004905A6904929B690493049B53
:105A5000D4E705905A6905929B690593059BCDE7AC
:105A6000032B56D8012B15D1324639462046FFF775
:105A7000FFFD0028B3D123681A69636A1A70636A4C
:105A800001336362238D013B2385638D013B9BB210
:105A90006385B5E7022B00963B464FF00002414676
:105AA000204619D1FFF732FC002898D123681A68E4
:105AB00042F400721A601A69636A1A70626A531CAF
:105AC0006362238D013B2385638D013B9BB263851C
:105AD00023681B695370D2E7FFF718FC02460028C1
