:020000040800F2
:1000000000000320350F0008CD2A0008CF2A000881
:10001000D12A0008D32A0008D52A000800000000D1
:10002000000000000000000000000000D177000880
:10003000D72A00080000000061780008F570000869
:10004000850F0008850F0008850F0008850F000840
:10005000850F0008850F0008850F0008850F000830
:10006000850F0008850F0008850F0008850F000820
:10007000850F0008850F0008850F0008850F000810
:10008000850F0008850F0008850F0008850F000800
:10009000850F0008850F0008850F0008850F0008F0
:1000A000850F0008850F0008850F0008850F0008E0
:1000B000850F0008850F0008850F0008850F0008D0
:1000C000850F0008850F0008850F0008850F0008C0
:1000D000850F0008850F0008850F0008850F0008B0
:1000E000850F0008850F0008850F0008850F0008A0
:1000F000850F0008850F0008850F0008850F000890
:10010000850F0008850F0008850F0008850F00087F
:10011000850F0008850F0008D92A0008850F000800
:10012000850F0008850F0008850F0008850F00085F
:10013000850F0008850F0008850F0008850F00084F
:10014000850F0008850F0008850F0008850F00083F
:10015000850F0008850F0008850F0008850F00082F
:10016000850F0008850F0008850F0008850F00081F
:10017000850F0008850F0008850F000800000000AB
:10018000850F0008850F0008850F0008850F0008FF
:10019000850F0008850F0008850F0008850F0008EF
:0C01A000E52A0008850F0008F12A00087D
:1001B00010B5054C237833B9044B13B10448AFF3A1
:1001C00000800123237010BD800300200000000088
:1001D000A042020808B5034B1BB103490348AFF323
:1001E000008008BD0000000084030020A042020837
:1001F00001F0FF01102A2BDB10F0070F08D010F8D8
:10020000013B013A8B422DD010F0070F42B3F6D1DB
:10021000F0B441EA012141EA014122F007047FF0F4
:1002200000070023F0E80256083C85EA010586EA4B
:10023000010685FA47F5A3FA87F586FA47F6A5FA87
:1002400087F68EB9EED1F0BC01F0FF0102F0070293
:1002500032B110F8013B013A83EA010313B1F8D13E
:100260000020704701387047002D06BF354603381F
:10027000073815F0010F07D1013015F4807F02BF58
:10028000013015F4C03F0130F0BC0138704700BFA9
:1002900081F0004102E000BF83F0004330B54FEA37
:1002A00041044FEA430594EA050F08BF90EA020FA4
:1002B0001FBF54EA000C55EA020C7FEA645C7FEA37
:1002C000655C00F0E2804FEA5454D4EB5555B8BF5A
:1002D0006D420CDD2C4480EA020281EA030382EACB
:1002E000000083EA010180EA020281EA0303362D5D
:1002F00088BF30BD11F0004F4FEA01314FF4801C30
:100300004CEA113102D0404261EB410113F0004F41
:100310004FEA03334CEA133302D0524263EB4303F8
:1003200094EA050F00F0A780A4F10104D5F1200E96
:100330000DDB02FA0EFC22FA05F2801841F10001F1
:1003400003FA0EF2801843FA05F359410EE0A5F1C5
:1003500020050EF1200E012A03FA0EFC28BF4CF0F6
:10036000020C43FA05F3C01851EBE37101F00045AC
:1003700007D54FF0000EDCF1000C7EEB00006EEBB9
:100380000101B1F5801F1BD3B1F5001F0CD3490843
:100390005FEA30004FEA3C0C04F101044FEA44529A
:1003A00012F5800F80F09A80BCF1004F08BF5FEA21
:1003B000500C50F1000041EB045141EA050130BD01
:1003C0005FEA4C0C404141EB0101013C28BFB1F513
:1003D000801FE9D291F0000F04BF01460020B1FA5E
:1003E00081F308BF2033A3F10B03B3F120020CDA31
:1003F0000C3208DD02F1140CC2F10C0201FA0CF00F
:1004000021FA02F10CE002F11402D8BFC2F1200C73
:1004100001FA02F120FA0CFCDCBF41EA0C01904029
:10042000E41AA2BF01EB0451294330BD6FEA040472
:100430001F3C1CDA0C340EDC04F11404C4F120025D
:1004400020FA04F001FA02F340EA030021FA04F36F
:1004500045EA030130BDC4F10C04C4F1200220FAC6
:1004600002F001FA04F340EA0300294630BD21FA04
:1004700004F0294630BD94F0000F83F4801306BFCA
:1004800081F480110134013D4EE77FEA645C18BFBE
:100490007FEA655C29D094EA050F08BF90EA020F55
:1004A00005D054EA000C04BF1946104630BD91EA4D
:1004B000030F1EBF0021002030BD5FEA545C05D150
:1004C0004000494128BF41F0004130BD14F580048F
:1004D0003CBF01F5801130BD01F0004545F0FE4103
:1004E00041F470014FF0000030BD7FEA645C1ABF38
:1004F000194610467FEA655C1CBF0B46024650EA6F
:10050000013406BF52EA033591EA030F41F400219A
:1005100030BD00BF90F0000F04BF0021704730B520
:100520004FF4806404F132044FF000054FF00001F5
:1005300050E700BF90F0000F04BF0021704730B5B6
:100540004FF4806404F1320410F0004548BF40428B
:100550004FF000013EE700BF42004FEAE2014FEAE0
:1005600031014FEA02701FBF12F07F4393F07F4FBB
:1005700081F06051704732F07F4208BF704793F0BE
:100580007F4F04BF41F40021704730B54FF46074D1
:1005900001F0004521F000411CE700BF50EA0102D4
:1005A00008BF704730B54FF000050AE050EA01027D
:1005B00008BF704730B511F0004502D5404261EBED
:1005C00041014FF4806404F132045FEA915C3FF42E
:1005D000D8AE4FF003025FEADC0C18BF03325FEACB
:1005E000DC0C18BF033202EBDC02C2F1200300FA7C
:1005F00003FC20FA02F001FA03FE40EA0E0021FAA1
:1006000002F11444BDE600BF70B54FF0FF0C4CF48E
:10061000E06C1CEA11541DBF1CEA135594EA0C0F40
:1006200095EA0C0F00F0DEF82C4481EA030621EA7B
:100630004C5123EA4C5350EA013518BF52EA0335B6
:1006400041F4801143F4801338D0A0FB02CE4FF068
:100650000005E1FB02E506F00042E0FB03E54FF098
:100660000006E1FB03569CF0000F18BF4EF0010E90
:10067000A4F1FF04B6F5007F64F5407404D25FEA8C
:100680004E0E6D4146EB060642EAC62141EA55513F
:100690004FEAC52040EA5E504FEACE2EB4F1FD0C81
:1006A00088BFBCF5E06F1ED8BEF1004F08BF5FEAFF
:1006B000500E50F1000041EB045170BD06F00046B1
:1006C00046EA010140EA020081EA0301B4EB5C045E
:1006D000C2BFD4EB0C0541EA045170BD41F4801156
:1006E0004FF0000E013C00F3AB8014F1360FDEBF7B
:1006F000002001F0004170BDC4F10004203C35DA57
:100700000C341BDC04F11404C4F1200500FA05F3D9
:1007100020FA04F001FA05F240EA020001F000427A
:1007200021F0004110EBD37021FA04F642EB0601F0
:100730005EEA430E08BF20EAD37070BDC4F10C041A
:10074000C4F1200500FA04F320FA05F001FA04F2DE
:1007500040EA020001F0004110EBD37041F10001CA
:100760005EEA430E08BF20EAD37070BDC4F12005D5
:1007700000FA05F24EEA020E20FA04F301FA05F23D
:1007800043EA020321FA04F001F0004121FA04F2E5
:1007900020EA020000EBD3705EEA430E08BF20EAB5
:1007A000D37070BD94F0000F0FD101F000464000EF
:1007B00041EB010111F4801F08BF013CF7D041EA71
:1007C000060195F0000F18BF704703F00046520075
:1007D00043EB030313F4801F08BF013DF7D043EA46
:1007E0000603704794EA0C0F0CEA135518BF95EAFC
:1007F0000C0F0CD050EA410618BF52EA4306D1D183
:1008000081EA030101F000414FF0000070BD50EAA1
:10081000410606BF1046194652EA430619D094EA2B
:100820000C0F02D150EA013613D195EA0C0F05D115
:1008300052EA03361CBF104619460AD181EA030169
:1008400001F0004141F0FE4141F470014FF0000021
:1008500070BD41F0FE4141F4780170BD70B54FF0BC
:10086000FF0C4CF4E06C1CEA11541DBF1CEA13553C
:1008700094EA0C0F95EA0C0F00F0A7F8A4EB05041E
:1008800081EA030E52EA03354FEA013100F0888015
:100890004FEA03334FF0805545EA131343EA1263DE
:1008A0004FEA022245EA111545EA10654FEA002693
:1008B0000EF000419D4208BF964244F1FD0404F54C
:1008C000407402D25B084FEA3202B61A65EB0305A8
:1008D0005B084FEA32024FF480104FF4002CB6EB65
:1008E000020E75EB030E22BFB61A754640EA0C00E5
:1008F0005B084FEA3202B6EB020E75EB030E22BF25
:10090000B61A754640EA5C005B084FEA3202B6EB65
:10091000020E75EB030E22BFB61A754640EA9C0024
:100920005B084FEA3202B6EB020E75EB030E22BFF4
:10093000B61A754640EADC0055EA060E18D04FEAB2
:10094000051545EA16754FEA06164FEAC30343EA52
:1009500052734FEAC2025FEA1C1CC0D111F4801F1F
:100960000BD141EA00014FF000004FF0004CB6E718
:1009700011F4801F04BF01430020B4F1FD0C88BFB7
:10098000BCF5E06F3FF6AFAEB5EB030C04BFB6EBC2
:10099000020C5FEA500C50F1000041EB045170BDB5
:1009A0000EF0004E4EEA113114EB5C04C2BFD4EBE2
:1009B0000C0541EA045170BD41F480114FF0000E66
:1009C000013C90E645EA060E8DE60CEA135594EAE2
:1009D0000C0F08BF95EA0C0F3FF43BAF94EA0C0FE5
:1009E0000AD150EA01347FF434AF95EA0C0F7FF45A
:1009F00025AF104619462CE795EA0C0F06D152EAAE
:100A000003353FF4FDAE1046194622E750EA410691
:100A100018BF52EA43067FF4C5AE50EA41047FF4A2
:100A20000DAF52EA43057FF4EBAE12E74FF0FF3C07
:100A300006E000BF4FF0010C02E000BF4FF0010CD8
:100A40004DF804CD4FEA410C7FEA6C5C4FEA430C51
:100A500018BF7FEA6C5C1BD001B050EA410C0CBFA0
:100A600052EA430C91EA030F02BF90EA020F002002
:100A7000704710F1000F91EA030F58BF994208BF69
:100A800090422CBFD8176FEAE37040F00100704726
:100A90004FEA410C7FEA6C5C02D150EA013C07D17D
:100AA0004FEA430C7FEA6C5CD6D152EA033CD3D0C8
:100AB0005DF8040B704700BF8446104662468C46C2
:100AC0001946634600E000BF01B5FFF7B7FF0028F5
:100AD00048BF10F1000F01BD4DF808EDFFF7F4FF1E
:100AE0000CBF012000205DF808FB00BF4DF808EDA9
:100AF000FFF7EAFF34BF012000205DF808FB00BFCC
:100B00004DF808EDFFF7E0FF94BF012000205DF8ED
:100B100008FB00BF4DF808EDFFF7CEFF94BF0120A2
:100B200000205DF808FB00BF4DF808EDFFF7C4FF9B
:100B300034BF012000205DF808FB00BF4FEA410CE4
:100B40007FEA6C5C02D150EA013C0AD14FEA430CC7
:100B50007FEA6C5C02D152EA033C02D14FF0000004
:100B600070474FF0010070477BB972B90029BEBFD2
:100B700000204FF0004106E008BF00281CBF6FF0C6
:100B800000414FF0FF3000F0D3B9ADF1080C6DE932
:100B900004CE002909DB002B1ADB00F04DF8DDF84C
:100BA00004E0DDE9022304B07047404261EB4101FB
:100BB000002B1BDB00F040F8DDF804E0DDE9022348
:100BC00004B0404261EB4101524263EB4303704782
:100BD000524263EB430300F02FF8DDF804E0DDE957
:100BE000022304B0404261EB41017047524263EB83
:100BF000430300F021F8DDF804E0DDE9022304B04E
:100C0000524263EB4303704753B94AB9002908BF06
:100C100000281CBF4FF0FF314FF0FF3000F088B9C3
:100C2000ADF1080C6DE904CE00F006F8DDF804E043
:100C3000DDE9022304B070472DE9F047089D8E4698
:100C400004468846002B4AD18A42174662D9B2FA36
:100C500082F64EB1C6F1200301FA06F820FA03F33A
:100C6000B74043EA0808B4404FEA174E1FFA87FC22
:100C7000B8FBFEF1230C0EFB118843EA084301FB8D
:100C80000CF29A4209D9FB1801F1FF3080F0EA809A
:100C90009A4240F2E78002393B449A1AA3B2B2FB6F
:100CA000FEF00EFB102243EA024300FB0CFC9C45C5
:100CB00009D9FB1800F1FF3280F0D6809C4540F244
:100CC000D3803B44023840EA0140A3EB0C030021EF
:100CD0001DB1F3400022C5E90032BDE8F0878B4228
:100CE00005D90DB1C5E9000100210846F5E7B3FAC1
:100CF00083F1002946D1734502D3824200F2058177
:100D0000841A6EEB030201209046002DE5D0C5E960
:100D10000048E2E7002A00F09080B2FA82F6002E46
:100D200040F0A4808A1A030C4FEA174E80B2BCB27E
:100D30000121B2FBFEFC0EFB1C2243EA024304FB32
:100D40000CF29A4207D9FB180CF1FF3802D29A42F2
:100D500000F2E080C4469B1AB3FBFEF20EFB123396
:100D600040EA034302FB04F49C4207D9FB1802F15A
:100D7000FF3002D29C4200F2CA8002461B1B42EAAC
:100D80000C40A5E7C1F120068B4022FA06F71F436D
:100D90000EFA01F420FA06F32EFA06FE4FEA17497E
:100DA000234300FA01F81FFA87FCBEFBF9F01C0C84
:100DB00009FB10EE44EA0E4400FB0CFEA64502FAC5
:100DC00001F209D93C1900F1FF3A80F09C80A64558
:100DD00040F2998002383C44A4EB0E041FFA83FED3
:100DE000B4FBF9F309FB13444EEA044403FB0CFC87
:100DF000A44508D93C1903F1FF3E80F08280A44548
:100E00007FD9023B3C4443EA0040A4EB0C04A0FB26
:100E100002EC64457346E14662D35FD05DB1B8EB46
:100E2000030264EB090404FA06F622FA01F31E43F6
:100E3000CC40C5E9006400214FE7B1FBF2FC010C96
:100E400041EA0E4180B240EA01423B4638463C4608
:100E5000B846BE462026B1FBF7F1A2EB080241EAF4
:100E60000C4166E7014618E710462CE7C6F1200260
:100E70002EFA02F3B740B14020FA02F24FEA174EC1
:100E80000A43B3FBFEF8BCB20EFB1833110C41EA67
:100E9000034108FB04F9B04089454FEA104380B292
:100EA0003ED9791808F1FF3C01D289451FD8A1EB42
:100EB0000901B1FBFEF909FB04F80EFB191192B20E
:100EC00042EA0142424529D2BA1809F1FF31C4D29F
:100ED0004245C2D2A9F102013A44BEE7F0459DD293
:100EE000BEEB02036CEB070C0138E14696E7A7EB7B
:100EF00009094944A8F1020CB1FBFEF909FB04F809
:100F0000DBE773467FE7504666E70846FDE63B446D
:100F1000023A33E7ACF1020C3B441CE749469CE73C
:100F2000A1EB0901C446B1FBFEF909FB04F8C4E7D3
:100F3000704700BFDFF834D0002103E00C4B5B5852
:100F4000435004310B480C4B42189A42F6D30B4ADB
:100F500002E0002342F8043B094B9A42F9D303F024
:100F60004BFE22F02FFC01F061F8704700000320D7
:100F700064CC0608000000206401002080030020EB
:100F8000B43C0120FEE7704708B500F0B9FDBDE8AC
:100F9000084000F03DBD00F0B5BD704710B504211C
:100FA000044621F021F9204610BD000038B50C4B55
:100FB0000C4C18800C4B822019806368984740F6CF
:100FC000110398420AD1094D23682C60822098476A
:100FD0002B688220DB689847002038BD0120FCE7A1
:100FE000A60300204C000020A4030020A80300203A
:100FF0004FF4A071F020FFF7D9BF0000F7B5394DCD
:101000002B6804461B6982209847208000284ED018
:101010002B680DF106025B6901A982209847324BCB
:101020001B78002B4BD0BDF8062040F674639A4223
:101030003FD9ADF80630BDF806209B1A9BB20A2BAB
:1010400042D90B22B3FBF2F3284A1288934201D90A
:10105000013A93B2BDF80420254840F6B8318A42DF
:1010600034D8C2F571620E32016892B20F25B2FB1C
:10107000F5F2204D2D88AA4284BF05F1FF35AAB2B2
:101080008A4215468EB22AD9921B91B21A4E3768FF
:10109000BB42BAB28CBF9A1AD21A92B21144052935
:1010A000C4BF05603360036863803368A38003B006
:1010B000F0BDB32A9CBFB422ADF80620BBE7BDF853
:1010C0000630A3F5B473B9E70023C3E7C2F56D6238
:1010D000083292B20E2A0168C8D800252A46891A19
:1010E00089B2D3E7A8030020001F0020A40300203A
:1010F000A0030020A60300209C03002037B568460B
:101100000D461446FFF77AFFBDF8000030B1BDF878
:1011100002302B60BDF804302360012003B030BDE5
:10112000032821D8DFE800F0020B12190F4B1A68D0
:10113000B2FA82F2520904210D4803F0F1BF0B4BC1
:101140005A68B2FA82F252090821F5E7074B9A6809
:10115000B2FA82F252091021EEE7044BDA68B2FAD1
:1011600082F252092021E7E7704700BFAC0300205C
:1011700000100240032821D8DFE800F0020B12190A
:101180000F4B1A68003A18BF012204210D4803F0E2
:10119000C7BF0B4B5A68003A18BF01220821F5E778
:1011A000074B9A68003A18BF01221021EEE7044B62
:1011B000DA68003A18BF01222021E7E7704700BF34
:1011C000AC0300200010024003280DD8DFE800F037
:1011D0000206080A0421054803F0A7BF0821FAE720
:1011E0001021F8E72021F6E7704700BF0010024009
:1011F00008B5032811D8DFE800F0020A0C0E04211C
:10120000074803F087FF431E5842584108BD082194
:10121000F6E71021F4E72021F2E70020F3E700BF12
:101220000010024070B5084D00240126E0B2FFF71F
:10123000DFFF18B12B68012B18BF2E600134052C7D
:1012400005F10405F2D170BDAC030020012380F844
:10125000781080F8793070477047002070470000A0
:10126000034B4164003918BF01211970704700BF5A
:10127000732F0120704700207047836B0BB1084625
:10128000184770474FF6FF707047406803689B69C6
:1012900018477047704770477047704710B504464D
:1012A00000F046FD23680349D3F890302046BDE89E
:1012B00010401847000000D008B503680446D3F872
:1012C0008430984723682046DB6F984700F0ECF89D
:1012D000236820465B6F9847292001F017F900F03A
:1012E000E3F8236820465B6F9847F8E710B504469B
:1012F00009F066F823682046D3F8BC30BDE81040FA
:10130000184700F0F9BC00F0FDBC00F02FBD00F064
:10131000CFBC00F03FBD00F047BD00F0D3BC08F0EB
:101320007DBA10B58421044620F05EFF204610BD32
:1013300010B590F8341090F878400C4B8C421A7825
:1013400009D03AB90A4A0B491488088810800C80E1
:1013500001221A7010BD002AFCD0054A05491488E4
:10136000088810800C800022F3E700BF6C2F01205A
:10137000682F01206A2F012070B50D46194635B936
:10138000094B0A4A0A4840F2FF2121F06BFFC0E9ED
:101390000F52084B003A18BF01221A700368BDE8CB
:1013A0007040D3F8903018471043020848430208B1
:1013B00096430208722F012008B5094B1B888B4207
:1013C00003D8084B1B88934205D9074B074A0848A6
:1013D000A32121F047FF074B1980074B1A8008BD56
:1013E000682F01206A2F0120DB4302083E440208D7
:1013F000964302086E2F0120702F0120034690F8BB
:101400007A0018B1586803681B68184770470000D5
:10141000012108B50022084605F0F6FE0A4B1860C7
:1014200028B90A4B0A4A28210A4821F01BFF00224A
:101430000421012005F087FF074B186018B9074BFE
:10144000034A2C21F0E708BDC003002081440208B4
:10145000CA440208F9440208BC03002044450208BB
:10146000024B4FF0FF31186805F018BFC003002091
:10147000014B186805F03EBFC0030020024B00215D
:10148000186805F00BBF00BFC0030020FFF7F0BFD6
:1014900003480449006800231A4605F08FBF00BFC7
:1014A000BC0300200400002013B5084C00231A469A
:1014B00001A9206805F0B3FF20684FF0FF33002238
:1014C00001A905F0ACFF02B010BD00BFBC030020B5
:1014D00003685B6C18470120704703689B6A1847D4
:1014E000FEE740F2EF307047054B0360054B4FF0CD
:1014F0008062C3F88820BFF34F8FBFF36F8F7047B0
:101500000C52020800E100E010B504464FF45A61A5
:10151000FFF7EAFF204620F067FE204610BD0000DE
:1015200082B0002301930E4B1A6B42F400021A633F
:101530001A6B02F400020192019A1A6942F4000245
:101540001A611A6922F400021A61064B064A1A61EE
:10155000064A5A61064B4FF080629A6002B07047AB
:101560000038024094200020C1170008E114000850
:1015700000E100E008B50A2809D8DFE800F006100D
:101580000E080808081010101000022008BD054BB6
:10159000054A0648902121F065FE0020F6E701206B
:1015A000F4E700BF86450208A1450208EC450208A1
:1015B00038B50C46887FFFF7DDFFA58AE28A164B17
:1015C0002169586342EA05425A64628BD963521B0F
:1015D0001A642568082D0ED19A611A615862207F1D
:1015E0000E4A42EA0062DA61E2681A620C4A596104
:1015F000D9601A6038BD0022D8611A61E1680A0A10
:10160000480902F4784200F4FC600243C1F3C401CB
:101610000A439A63034AECE700B002400900010064
:10162000012302000123030008B50B280BD8DFE8D3
:1016300000F00612100A0A0A0A0808080808022020
:1016400008BD0520FCE7054B054A06486F2121F03F
:1016500009FE0020F4E70120F2E700BF86450208FA
:1016600035460208EC4502082DE9F04191F81D804D
:101670000C464046FFF7D8FFA77F05463846FFF7E0
:10168000D3FF06463846FFF775FFA18A628B444BAD
:10169000521A1A649A61228B521A1A61E28A5863AA
:1016A00042EA01425A6421696268D963DA602068BB
:1016B000802828D0227F0FD8202867D0402865D0E6
:1016C00004281AD0364B45EA026545F40035B84582
:1016D000DD6161D0334A44E0B0F5807F04D0B0F5DD
:1016E000007FEFD1304800E0304840EA0262DA6122
:1016F000E2681A625E62596132E045EA026242F4CF
:101700000032DA61F6E7A068021DDA62227F45EA5C
:10171000026545F40035DD615E625961017841B1D1
:10172000012921D0224B234A23484FF48D7121F007
:1017300099FDDA69418822F47F42013922F01002D2
:1017400042EA0122DA610121154BDA6942F02002F6
:10175000DA61DA699206FCD410229A600029B9D0C5
:10176000164A1A60BDE8F081B2F1FF01DA694088DB
:1017700022F47F4200F1FF3022F0100242EA002200
:1017800042F0100218BF0121DA61DDE745EA02628A
:10179000034B42F40032B4E742F20132E1E700BF0A
:1017A00000B0024001230100090002000A0002000B
:1017B0007F46020899460208EC4502080123020010
:1017C000024B1B68586803685B691847742F012037
:1017D00070B5044625460A4B0C3000266060267220
:1017E000667245F8203B6022294608F03FFF04F569
:1017F0005A63EE6024359D42FBD1204670BD00BF88
:101800000C520208034B1A68D207FCD423229A60B8
:10181000704700BF00B002407047000030B50F4C69
:101820002568ED07FCD423250904A56041F00101DA
:101830000225FF2B65636164E0630AD00849656295
:1018400041EA0363E361074B22626061E060236069
:1018500030BDE561039BA363034BF8E700B0024092
:1018600009000100010002000100030030B50E4C28
:101870002568ED07FCD423251204A56042F001027F
:101880000225FF2B65636264E063E16008D01B06FC
:1018900043F00213E361054B65626061236030BD74
:1018A000034BE3610123F9E700B0024001000200AD
:1018B000020002FF30B50B4C2568ED07FCD4232550
:1018C00012041B06A56043F40033022542F0010216
:1018D00065636264E063E160E361034B65626061DC
:1018E000236030BD00B002400100020001207047BB
:1018F0004020704700EB81100830704700EB8110EA
:1019000008307047012070474FF41C6070474FF457
:101910001C6303FB0100083070474FF41C6303FB9A
:10192000010008307047012070471020704700EB1D
:1019300001100830704700EB01100830704708466E
:1019400001F070BB10B5034B0360044607F0BBFC0D
:10195000204610BDC452020810B50446FFF7F2FF3E
:101960002046482120F040FC204610BD10B5034B16
:101970000360044607F0A7FC204610BD9052020801
:1019800010B50446FFF7F2FF204640F6C81120F0DC
:101990002BFC204610BD000010B5034B036004462D
:1019A00007F091FC204610BD5C52020810B50446B9
:1019B000FFF7F2FF2046182120F016FC204610BD4C
:1019C00010B5084B0360044600F6F410FFF7BAFFA9
:1019D00004F12C00FFF7CAFF04F11400FFF7DCFF4D
:1019E000204610BDF852020808B50248FFF7E8FF8C
:1019F00008BD00BF9C12002010B50446FFF7E0FFB1
:101A0000204640F69C3120F0EFFB204610BD000040
:101A10002DE9F34101F0E6F8054601F0E7F800246E
:101A20000146234628462246009411F02BFB274B03
:101A3000274A1A60204602F00BFC264D264B274A07
:101A400027489A6011F086FA2B68BFF35B8FDB079B
:101A500035D4284620F0CAFB88B3224C224B2360A1
:101A600004F5246604F1140004F12C0804F6F417BC
:101A70006060C4F80880E760266107F025FC1B4B16
:101A80006361404607F020FC194BE362384607F0DB
:101A90001BFC184BC4F8F43904F63C2002F0D8FCC7
:101AA000224604F63C21304602F050FC304601F05C
:101AB000B9FA114821F0F4FB284620F0A3FB0F48A7
:101AC00002B0BDE8F041FFF7E9BB00BFD82F01200D
:101AD0004804002098120020680400204C040020D4
:101AE000080000209C120020F85202085C520208F4
:101AF00090520208C4520208E9190008C4030020E9
:101B0000704700000148FFF7D7BB00BFC4030020A7
:101B100070B5264E264C274D274B23603046FFF7E5
:101B200057FE284616F0B4FB24480EF089FF244BDC
:101B30002448DC6000224FF48071C3E9121222496C
:101B40001A86C3E91A12214983F85820C3E91E01F5
:101B50001F49C3F880101F491F480B60F021C3E9DB
:101B60000422C3E90622C3E90822C3E90A22C3E921
:101B70000E22C3E91022C3E91422C3E917225A66D0
:101B800083F870205A67C3E901650180134801801A
:101B900013484FF4A07101801248018012490A7065
:101BA000012283F83420114A1A6070BDF404002029
:101BB0009412002068040020004302084C04002016
:101BC000C4030020000001010100000100045000D6
:101BD0001A001400742F0120682F01206E2F01209D
:101BE0006A2F0120702F01206C2F01202051020844
:101BF0000148FFF779BC00BFF404002000207047C3
:101C000081807047C1807047018170474181704772
:101C10007047704770477047704710B4C4880368B6
:101C2000121B84885B6D091B12B25DF8044B09B26C
:101C300018474FF6FF7383814FF0FF330362136839
:101C4000C36110607047002070478B88838001203B
:101C50007047704780F82610704790F8260070474C
:101C600010B50022B1F90840B1F90A100280428093
:101C70008480C18010BD0022028042808280C280A8
:101C800070470177704780ED080A704780F824108C
:101C9000704780F8251070470120704798307047D2
:101CA0008C30704784307047704770477047000031
:101CB000034B902283F85A2383F85823704700BFC0
:101CC00000E100E0094A0A49D3680A48C3F30A035D
:101CD000013B9BB20B801169C1F30A0101390180FC
:101CE0001364536B43F00103536370470068014072
:101CF0003A1E0020381E0020014BD3F8AC0070477C
:101D000000680140024B0122C3F8AC105A627047D0
:101D10000068014010B52C21044620F065FA2046E9
:101D200010BD10B5BC21044620F05EFA204610BD5F
:101D300070B5044607F0C7FD23689D6E0DF018FCD2
:101D400001462046A8472368054AD3F88C50204610
:101D5000AC460023BDE87040A2F51631604700BFD5
:101D600000B004D007F096BD07F0A0BD07F05CBD41
:101D700007F0CBBE90F8252012B103685B691847C5
:101D8000704790F825201AB190F8242002B118600D
:101D900070470000034B4FF080629A604FF08072F2
:101DA0009A60704700E100E0084B4FF08062C3F892
:101DB0008820BFF34F8FBFF36F8F4FF08072C3F84F
:101DC0008820BFF34F8FBFF36F8F704700E100E0B3
:101DD00070B50023124E8380124B0360336893F872
:101DE000582005460AB1D86C00B998680368DB6AC8
:101DF00098473368B0FA80F4D86C640930B103684E
:101E0000DB6A9847002808BF44F001042CB9064B50
:101E1000064A07482C2121F025FA284670BD00BF4C
:101E2000742F01200C530208D746020835470208D8
:101E30006E47020870B5254E3568BFF35B8F15F00D
:101E4000010540D1304620F0D1F900283BD0204C8C
:101E5000204B256104F13400C4E90035C4E9025582
:101E6000E584A562A5850FF0D0F804F158000AF0CA
:101E7000B3F8194BA3652046184B40F8843BFFF795
:101E8000A7FF174BC4F884302433C4F88C304FF4C8
:101E9000C803C4E928350023C4F8AC30C4F8B03016
:101EA000C4F8B430C4F8B8300E480F4BC4F89050A2
:101EB000C4F89C50C4F8A850C4F8983021F0F0F948
:101EC000304620F09FF9024870BD00BF3C1E002044
:101ED000401E0020EC5A02082C530208A4530208AA
:101EE000A05A0208AD1C0008805A020838B5184CE8
:101EF00023685BB3174B184A1B6C11888B4216D1B1
:101F0000164B198803F014FF236893F86A20002504
:101F1000013283F86A2083F87C50FFF7B9FA206811
:101F200008F04EFA2846BDE83840FFF7F9B803F04C
:101F3000FFFE2468236820461B6A9847012384F823
:101F40007C300020BDE83840FFF714B938BD00BF31
:101F5000742F0120006801403A1E0020381E002026
:101F600007B5064BADF806001B68054801220DF1C8
:101F7000060104F07DFC03B05DF804FB0C000020BA
:101F8000401F002008B5642005F032F9FBE700008F
:101F900030B595B0102200210AA821F06AFB142266
:101FA000002103A821F065FB00241E4B01941A6C4C
:101FB00042F080521A641B6C03F080530193019B22
:101FC000194B02941A6842F440421A601B6803F4E9
:101FD000404302930122029B4FF48033CDE9082352
:101FE00002254FF480030821CDE90E534FF4B4735A
:101FF000CDE9101308A804231393129503F0F0FE03
:1020000003F0B4FE0F23CDE903354FF4A0504FF495
:102010008053CDE90603052103A8059404F0BCF81C
:1020200015B030BD003802400070004080B59AB055
:1020300002F0F0FDFFF7ACFF142200210DA821F003
:1020400018FB0024C74B00941A6BC748C74DDFF834
:10205000588342F010021A631A6B02F010020092C9
:10206000009A01941A6B42F020021A631A6B02F074
:1020700020020192019A02941A6B42F080021A63C4
:102080001A6B02F080020292029A03941A6B42F0D9
:1020900004021A631A6B02F004020392039A049476
:1020A0001A6B42F001021A631A6B02F001020492E9
:1020B000049A05941A6B42F002021A631A6B02F03A
:1020C00002020592059A06941A6B42F040021A63C6
:1020D0001A6B02F040020692069A07941A6B42F0BD
:1020E00008021A631B6B03F00803224607933C2186
:1020F000079B03F015F89E480122022103F010F817
:1021000022469B48042103F00BF8224699484FF4DD
:10211000405103F005F801263C23CDE90D369248E5
:102120000F9403230DA90227109302F00FFF90488C
:102130000DA9CDE90D76CDE90F4402F007FF042388
:102140008B480DA9CDE90D36CDE90F4702F0FEFE13
:102150000DA94FF440538748CDE90D36CDE90F471F
:1021600002F0F4FE8448854B036002F0E5FDDFF8E1
:102170003CE2834B2C62C5E900E328464FF48043E0
:10218000C5E90434C5E90244C5E9064403F0D6F9BB
:102190001021284603F01AFC21462846794D03F009
:1021A00034FC4FF48273C5E900834FF4007918239F
:1021B000C5E9069328460A23C5E90244C5E9044453
:1021C000C5E90844AC62EB6204F0F6FA8F232246BC
:1021D000394667488DF824308DF8344002F0A0FF6E
:1021E00032464FF47A7309A9284604F041FB4FF4B4
:1021F0007A7332460DA9284604F0E6FC3246394689
:102200005B48614D02F08CFF9DF83430D32B04BF46
:102210005E4B1E705E4B0126C5E90036102240233E
:102220000024C5E904234FF4C073C5E906344FF414
:102230000063C5E908344FF4005302274FF0040946
:10224000AB624FF0030A07230DA92846CDE90D73B1
:10225000CDE90F934FF00808C5E90249CDE911A770
:10226000139704F08DF94FF6FF7209A92846CDE9BE
:102270000A86089409960C9404F0A2F9304602F0FC
:10228000F5FC4FF6FF7209A92846CDE90978CDE99A
:102290000B6404F095F94FF6FF7209A92846CDE9C1
:1022A00009A8CDE90B9404F08BF94FF40C73089353
:1022B000089B0C934FF6FF7209A92846CDE90998AF
:1022C0000B9604F07DF940F26A51284604F096F925
:1022D00034220DEB0200214621F0CBF92D4D2E4B7F
:1022E0002C61C5E900340923C5E905361D23C5E97C
:1022F000073A40F20D1140F24313C5E9091340F2C9
:10230000171040F24713C5E90B032846C5E90244FC
:10231000AC8685F8364003F013FCFF214FF4806C47
:10232000F022CDE912140521CDE914C14FF4A073B8
:102330000DA9CDE90E24CDE9164228462246174DB7
:102340001893CDE910370D94ADF864408DF86640D0
:1023500003F0C1FC124B2B601B6898472B68114D92
:10236000DB6825E0003802400010024040200020D9
:1023700000080240000C0240D4200020003002403F
:10238000A0860100401F00200C1F0020001F00201D
:10239000400100A0981F002000680140FC1E0020A2
:1023A000140000209420002000500140005C0040F8
:1023B0009847134B2846C5E90034C5E90274C5E9BE
:1023C0000A47C5E90C4402F0C7FC3146284602F032
:1023D00079FDFEF7D9FDFEF7D6FD04F099FE094A16
:1023E0000948214604F0C0FE084B094A18602146FE
:1023F000084804F0B9FE084B186004F09BFEFEE7A5
:1024000000B002400C540208851F0008081F00207D
:10241000E8530208970F0008041F00207047704718
:102420007FB5094B8DF817201B6802930DF1170239
:102430000123009201930A460146044803F026F95D
:1024400007B05DF804FB00BF100000204020002012
:102450007FB500238DF81730084B1B6802930A469E
:1024600001230DF11701009101930146044803F087
:102470009DF99DF8170007B05DF804FB10000020DF
:10248000402000201FB5084C24680092CDE901349B
:102490000A4601230146054803F088F9003818BFB1
:1024A000012004B010BD00BF10000020402000201B
:1024B00002F0DCBB10B5064C00222046042102F0DD
:1024C0002FFE20460122BDE81040042102F028BE64
:1024D0000008024038B50B4D044601220A484FF46B
:1024E000005102F01DFE00220421284602F018FED1
:1024F0002046FFF735FD28460122BDE8384004217B
:1025000002F00EBE00080240000C024038B50B4D30
:10251000044600220A484FF4005102F001FE002256
:102520000421284602F0FCFD2046FFF719FD28464D
:102530000122BDE83840042102F0F2BD000802404B
:10254000000C0240F7B5144E144F05460C463046B9
:102550000022042102F0E4FD00224FF4005138462D
:1025600002F0DEFD2846FFF7FBFC0D4B0D481B6813
:10257000224601A904F028FB384601224FF40051FD
:10258000019C02F0CDFD30460122042102F0C8FD7D
:10259000204603B0F0BD00BF00080240000C02401E
:1025A0000C000020401F002002F060BB0268034BBB
:1025B0009A4201D102F048BB704700BF00100040B2
:1025C0007047000082B00E4B00220092596C41F41B
:1025D00080415964596C01F4804100910099019245
:1025E000196C41F0805119641B6C03F08053019306
:1025F000019B0F216FF0010002B002F05DBB00BF34
:10260000003802400268094B9A4282B00BD1002385
:102610000193074B1A6B42F480521A631B6B03F44D
:1026200080530193019B02B0704700BF003002400D
:102630000038024007B50F4B02689A4216D10022BB
:10264000A3F5F0430192196B41F4000119631B6B70
:1026500003F40003019305215A20019B02F02CFB97
:102660005A2003B05DF804EB02F058BB03B05DF8EC
:1026700004FB00BF00B002402DE9F043044689B0DE
:102680001422002103A820F0F4FF2268244B9A4270
:1026900043D1244C244800250095236B43F00403C8
:1026A0002363236B03F004030093009B0195236BCA
:1026B00043F001032363236B03F001030193019BA8
:1026C0004FF012094FF400734FF00108032704265E
:1026D00003A9CDE90339CDE90587079602F036FC59
:1026E0004FF480731148079603A9CDE90339CDE96A
:1026F000058702F02BFC0295236C43F4000323644E
:10270000236C03F400030293029B236A43F4000347
:102710002362236A23F40003236209B0BDE8F08337
:10272000005C004000380240000802400000024007
:10273000F0B599B004461422002107A820F099FFB3
:1027400030220DEB0200002120F093FF22685E4B47
:102750009A4240F0B78008230C93C02310930423BF
:1027600012930CA84FF40033159303F0DDFD08B16C
:10277000FFF726FF554B5648002400945A6C42F050
:1027800080625A645A6C02F080620092009A01944E
:102790001A6B42F020021A631A6B02F020020192B7
:1027A000019A02941A6B42F001021A631A6B02F04A
:1027B00001020292029A03941A6B42F002021A6317
:1027C0001A6B02F002020392039A04941A6B42F00D
:1027D00040021A631A6B02F040020492049A0594B4
:1027E0001A6B42F004021A631A6B02F0040205929B
:1027F000059A06941A6B42F008021A631B6B03F0E9
:102800000803069302250E26069B0B964FF4806361
:1028100007A9CDE90735CDE9094502F097FB41F657
:1028200058032C480B9607A9CDE907350927CDE9B0
:10283000094502F08BFB032327480B9707A9CDE935
:102840000735CDE9094502F081FB4FF4706322485A
:102850000B9607A9CDE90735CDE9094502F076FBCE
:102860004FF40C631D480B9607A9CDE90735CDE958
:10287000094502F06BFBC02319480B9607A9CDE967
:102880000735CDE9094502F061FB082315480B9691
:1028900007A9CDE90735CDE9094502F057FB4FF40B
:1028A000A0530E480B9707A9CDE90735CDE9094597
:1028B00002F04CFB58202246052102F0FDF9582079
:1028C00002F02CFA19B0F0BD006801400038024057
:1028D00000140240000002400004024000180240C0
:1028E00000080240000C024010B5044688B01422D3
:1028F000002103A820F0BDFE2268144B9A4223D188
:1029000003F56843002101915A6C114842F480128A
:102910005A645A6C02F480120192019A02911A6B65
:1029200042F020021A631B6B03F020030293029B08
:102930004FF4607202230321CDE903230523CDE97F
:10294000061303A902F002FB08B010BD00500140BD
:10295000001402402DE9F04186B0002303932B4B75
:102960001C68002C4FD14FF00108C3F80080284BA1
:1029700000949A6B274842EA08029A639B6B03EA29
:1029800008030093022703260C25009B01A94FF69C
:102990003F03CDE90137CDE9046502F0D7FA1E48BF
:1029A000059501A9CDE90187CDE9034602F0CEFAEC
:1029B00048F233131948059501A9CDE90137CDE94E
:1029C000034602F0C3FA4FF683731548059501A933
:1029D000CDE90137CDE9034602F0B8FA4CF20373B2
:1029E0001048059501A9CDE90137CDE9034602F06C
:1029F000ADFA60230C48059501A9CDE90137CDE971
:102A0000034602F0A3FA06B0BDE8F081DC20002006
:102A10000038024000140240000802400018024042
:102A200000100240000C02400004024070B588B063
:102A300000230293204B1A6C42F010021A641B6CA4
:102A400003F010030293054601A903A8029B03F0BB
:102A50004DFC069B4BBB03F039FC184E184B336002
:102A600040F2E733F360174BB0FBF3F3013B7360C5
:102A7000304600233361B360B36104F075FA044655
:102A800080B9304604F046F9044658B9362002F0C1
:102A900045F90F2D0DD822462946362002F00CF9B3
:102AA000094B1D60204608B070BD03F00FFC4000CC
:102AB000D3E70124F6E700BF00380240E020002001
:102AC0000010004040420F007C0000207047FEE7ED
:102AD000FEE7FEE7FEE77047014804F059B900BF82
:102AE000E0200020014803F099B800BF981F0020A3
:102AF000014802F05DB900BF94200020012070471A
:102B000008B520F059FE162303604FF0FF3008BDD2
:102B100008B520F051FE16230360FEE770B50D46A0
:102B200014460E46731B9C4201DC204670BDAFF379
:102B3000008006F8010BF5E770B50D4614460E4609
:102B4000731B9C4201DC204670BD16F8010BAFF3ED
:102B50000080F5E74FF0FF3070474FF400534B60B3
:102B60000020704701207047002070470A4A116812
:102B700008B5034609B9094911601068694603445C
:102B80008B4206D920F018FE0C2303604FF0FF3073
:102B900008BD1360FCE700BF28210020B83C0120DD
:102BA000704708B5042914D8DFE801F00B03070BC0
:102BB0000F0001F099FB406808BD01F095FB8068AB
:102BC000FAE701F091FB0068F6E701F08DFBC068C1
:102BD000F2E70020F0E710B5042104461FF004FBE3
:102BE000204610BD00487047445402080820704732
:102BF00013B5002451B1036801948DF8034001AA74
:102C00009C680DF10303A04702B010BD0846FBE726
:102C1000C0897047008A7047C088704780887047B5
:102C2000807A00F07F007047807AC00970470020EA
:102C3000704700009FED010A704700BF00000000D0
:102C4000704710B5082104461FF0CEFA204610BD8B
:102C50007047704700F598730868496803C3704768
:102C6000704770474160704770477047064BC0F827
:102C70004C310023C0F8503100F5A273C0F8480170
:102C8000C0F84031704700BF3D3300080123037294
:102C900070477047704710B4C268416854100346CB
:102CA00001EB6200D20748BF0A599B685DF8044BEC
:102CB00048BFD35818470346406830B19A681AB9DC
:102CC000D86800F0010070470120704710B50C2152
:102CD00004461FF089FA204610BD10B510210446A5
:102CE0001FF082FA204610BD10B54FF4AE710446B5
:102CF0001FF07AFA204610BD10B5402104461FF09F
:102D000073FA204610BD10B50CF032FC0368BDE824
:102D10001040DB6B18470000054B1B7801462BB1B8
:102D2000406818B103680C315B6E1847704700BFEC
:102D3000732F0120037A70B50546BBB9406803685C
:102D4000DB69984704463CB96868036805F10C01E3
:102D50001B6EBDE870401847E1886B8FC91A236865
:102D600020465B6B09B29847A469ECE770BD10B5CB
:102D70000446D0F8400158B10368DB68984738B181
:102D8000D4F8400103689B6898470023C4F8403199
:102D900010BD70B5044690F8390094F83830013011
:102DA000C0B2984284F8390005D901232372002368
:102DB00084F8393070BDB4F93A2000210EF08EFD50
:102DC000C30706D500284FF6FF73C8BF0123184478
:102DD00000B2638AC01AA08760680368DB699847FD
:102DE00005462DB960680368BDE870405B69184707
:102DF000E988A38F19442B6828465B6B09B2984772
:102E0000AD69EEE72DE9F14FD0E9556A0746B068A4
:102E100003681B6A9847B0F51C6F05D2564B574A9A
:102E2000A321574820F01EFA706803681B6A984770
:102E30000F2803D8534B514AA421F2E7F0680368E6
:102E40001B6A98473F2803D84F4B4C4AA521E8E717
:102E50000CF08EFBDFF8449104300CF0AEFBD9F897
:102E6000000010B10368DB689847D9F8000010B182
:102E700003681B689847DFF82881D8F8000010B174
:102E800003685B699847D7F83C0110B103685B6839
:102E90009847D8F8000010B103681B689847D7F826
:102EA0003C0110B103689B689847F06803680021F3
:102EB0005B6A984705460023344A4360037245F82D
:102EC0000C2B0446284609F02FF914222287304A99
:102ED00012780023A387002A35D101232372B0681A
:102EE000036800215B6A9847054601F0EFFA7068B5
:102EF000036800215B6A98472946064601F0BAFA42
:102F0000331DC7F83C61C9F80040C8F80050CAF842
:102F100000302B68C6F808A02846DB68EE639847A7
:102F2000336830461B689847214628460EF0D0FC8F
:102F3000236820461B69984723685B69204601B0D7
:102F4000BDE8F04F1847E16823618B6B1149124AC5
:102F5000B1F90010B2F900B028469847E368594625
:102F6000DB6B28469847284609F059F80A4A138827
:102F70005B426387B3E700BFE54702087348020876
:102F800059490208A0490208434A02088C55020820
:102F9000732F0120682F01206A2F0120BC2F0120F0
:102FA000B82F0120044B1B6893F858200AB1D86C45
:102FB00000B99868704700BF742F0120F8B5174614
:102FC00004460E460CF096FB124B1C60124B23601D
:102FD000124B0025C4E95135114BC4E9535518680B
:102FE000036801219B68C4E94F55C4E955769847A9
:102FF000284601F02DF9FFF7D5FF16F0F2FFFFF795
:10300000D1FF17F069F8FFF7CDFF17F071F82046F0
:10301000F8BD00BFC82F012014550208FC54020857
:10302000742F0120064BC0F84C310023C0F85031FA
:1030300000F5A273C0F84801C0F84031704700BFE6
:103040003D330008064BC0F84C310023C0F8503126
:1030500000F5A273C0F84801C0F84031704700BFC6
:10306000052E0008064BC0F84C310023C0F8503143
:1030700000F5A273C0F84801C0F84031704700BFA6
:10308000F5310008064BC0F84C310023C0F8503130
:1030900000F5A273C0F84801C0F84031704700BF86
:1030A000AD30000803685B6A184700002DE9F14F56
:1030B000D0E9556A0746B06803681B6A9847B0F5BF
:1030C000C27F05D2434B444AA321444820F0CAF8AA
:1030D000706803681B6A98470F2803D8404B3E4A24
:1030E000A421F2E7F06803681B6A98470B2803D80D
:1030F0003C4B394AA521E8E70CF03AFADFF8EC90AE
:1031000004300CF05AFAD9F8000010B10368DB68FB
:103110009847D9F8000010B103681B689847DFF89A
:10312000D080D8F8000010B103685B699847D7F8E1
:103130003C0110B103685B689847D8F8000010B1F3
:1031400003681B689847D7F83C0110B103689B6877
:103150009847F0680021FFF7A5FF4FF0000B224BC6
:10316000C0F804B0044680F808B00360B068036893
:1031700059465B6A9847054601F022F97068036872
:1031800059465B6A98472946064601F0F7F8331D11
:10319000C7F83C61C9F80040C8F80050CAF80030D0
:1031A0002B68C6F808A02846DB68EE6398473368AA
:1031B00030461B689847214628460EF089FB236855
:1031C00020461B69984723685B69204601B0BDE82B
:1031D000F04F1847E5470208E64A02085949020835
:1031E000A0490208434A020868550208BC2F012082
:1031F000B82F01202DE9F14FD0E9556A0746B06894
:1032000003681B6A9847B0F51C6F05D2434B444ACC
:10321000A321444820F026F8706803681B6A984789
:103220000F2803D8404B3E4AA421F2E7F068036818
:103230001B6A98470B2803D83C4B394AA521E8E77D
:103240000CF096F9DFF8EC9004300CF0B6F9D9F8F0
:10325000000010B10368DB689847D9F8000010B18E
:1032600003681B689847DFF8D080D8F8000010B1D9
:1032700003685B699847D7F83C0110B103685B6845
:103280009847D8F8000010B103681B689847D7F832
:103290003C0110B103689B689847F0680021FFF774
:1032A00001FF4FF0000B224BC0F804B0044680F839
:1032B00008B00360B068036859465B6A98470546E2
:1032C00001F004F97068036859465B6A984729461B
:1032D000064601F0CFF8331DC7F83C61C9F800403D
:1032E000C8F80050CAF800302B68C6F808A0284675
:1032F000DB68EE639847336830461B689847214681
:1033000028460EF0E5FA236820461B699847236893
:103310005B69204601B0BDE8F04F1847E547020859
:10332000C64B020859490208A0490208434A02084C
:1033300068550208BC2F0120B82F01202DE9F14F5C
:10334000D0E9556A0746B06803681B6A9847B0F52C
:10335000C87F05D2434B444AA32144481FF082FF53
:10336000706803681B6A98470F2803D8404B3E4A91
:10337000A421F2E7F06803681B6A98470B2803D87A
:103380003C4B394AA521E8E70CF0F2F8DFF8EC9065
:1033900004300CF012F9D9F8000010B10368DB68B2
:1033A0009847D9F8000010B103681B689847DFF808
:1033B000D080D8F8000010B103685B699847D7F84F
:1033C0003C0110B103685B689847D8F8000010B161
:1033D00003681B689847D7F83C0110B103689B68E5
:1033E0009847F0680021FFF75DFE4FF0000B224B7D
:1033F000C0F804B0044680F808B00360B068036801
:1034000059465B6A9847054601F016F870680368EC
:1034100059465B6A98472946064600F0EBFF331D84
:10342000C7F83C61C9F80040C8F80050CAF800303D
:103430002B68C6F808A02846DB68EE639847336817
:1034400030461B689847214628460EF041FA23680B
:1034500020461B69984723685B69204601B0BDE898
:10346000F04F1847E5470208984C020859490208EE
:10347000A0490208434A020868550208BC2F0120EF
:10348000B82F01207047704770477047704730B5BC
:10349000036885B06D460181D3F884300146044647
:1034A0002846984795E807003C3484E8070005B0B3
:1034B00030BD30B5036885B06D464181D3F88430A6
:1034C000014604462846984795E807003C3484E8BE
:1034D000070005B030BD0022028042808280C28099
:1034E000704780F83610704770B5036804461B6B50
:1034F000154698472368294620465B6EBDE8704014
:10350000184700207047806C7047704770477047BD
:10351000704730B4C26844685510034604EB62003B
:10352000D20748BF62599B6830BC48BFD358184780
:103530000346406830B19A681AB9D86800F00100B3
:1035400070470120704710B54C2104461EF04CFE18
:10355000204610BD10B5102104461EF045FE204641
:1035600010BD10B54FF4C27104461EF03DFE20465A
:1035700010BD08B5FEF7FEFB08BD0000036870B57E
:103580005E6B124B1B6804468DB22BB9104B114A6F
:103590006C2111481FF066FE1049828D0988914206
:1035A00003D80F4B0B4A6D21F3E713F812200D4B94
:1035B0001B6853F8220003681B6B9847291A33468F
:1035C000204609B2BDE87040184700BFCC2F01204B
:1035D000644D0208A64D0208E14D0208D02F0120DB
:1035E000284E0208D42F012000F59670884208B5B5
:1035F00005D10BF0BDFFBDE80840FFF733BD08BDA6
:1036000000224FF0FF31C0E900218260704770B5A1
:10361000036804461B6B15469847236829462046D5
:103620005B6BBDE87040184770B504461D46BDF998
:103630001060FFF7ECFF2368294620469B6B9847F4
:10364000236831462046DB6BBDE870401847000018
:10365000094A02604FF4807100228184FF21C0E991
:103660000122C0E90322C0E90522C0E9072280F84F
:1036700026108262704700BFB05C02084FF4807170
:1036800081840D4901600D4981624FF6FF7181858A
:103690004FF47F01002241634FF0FF31C0E9012266
:1036A000C0E90322C0E90522C0E90722C0E91012DF
:1036B00002630287C2637047205C0208EC54020870
:1036C000F8B5194B018F1B888B4206462AD9174B38
:1036D0001B682BB9164B174A17486C211FF0C2FD07
:1036E00013F81120154B1B6853F82250144B18681F
:1036F00000F0EAFD2B6807469B6B284698472B682D
:1037000004469B6C3946284698472B6814FB00F406
:103710005B6A394628469847A4B223181BB2A6F81C
:103720004630F8BD0023FAE7D02F0120CC2F01202E
:10373000644D0208A64D0208E14D0208D42F012075
:10374000D82F01202DE9F04F04468DB0A246002568
:103750000DF012FF664BE5634AF8403B5046FFF719
:1037600077FF04F16C0304F198091846039304F100
:10377000E006FFF76DFF4846FFF780FF3046FFF792
:103780007DFF04F596785B4BC4F8E030C4F828510F
:10379000404609F041FB584BC4E95D34574BC4E93E
:1037A0005F354FF4A0732A4650464FF07F4B271DDC
:1037B00000932946F023FFF737FF51463846C4F8F7
:1037C00068B005F095FD4FF4A0732A460398009366
:1037D0002946F023FFF728FF494BC4F8943003999A
:1037E000384605F085FD0DF1100A5C222946484651
:1037F000FFF70DFF49465046C4F8C8B0A4F8CC50B6
:1038000008F092FD9AE8070004F1D40383E807006A
:103810003C4B0A930AA905234846ADF82C3009F021
:103820002BF84946384605F063FD8E223321304699
:10383000FFF7EDFED4F8E030C4F810B1D3F88430CF
:10384000A4F814513146504698479AE8070004F509
:103850008E7383E807002C4B1B682BB92B4B2C4A2B
:1038600060212C481FF0FEFC2B4B1B88032B03D838
:103870002A4B274A6121F4E7294B0321186800F0FD
:1038800023FDC4F82801304608F0D6FF04251D4B5F
:103890000A930AA93046ADF82C5008F0EDFF3146E6
:1038A000384605F025FD4046AF222221FFF7AFFE46
:1038B0000AAA09A903234046ADF82830ADF82450E0
:1038C00009F037F80223A4F864314046FFF7F8FE08
:1038D0004FF0FF33C4E95A3304F5BA733846C4F8DD
:1038E0005431414605F004FD20460DB0BDE8F08F8F
:1038F00058560208B055020840560208E93500083B
:10390000D0FF00FFEC540208CC2F0120644D0208C8
:10391000664E0208E14D0208D02F0120284E020811
:10392000D82F0120406A7047806A704770478A88A4
:103930000B8810B5D20A4C88C1699BB251F822009D
:1039400043EA0443184410BD10B50446BAB1107BD5
:1039500068B1537BD27A1B0203F4E0631A43236AF3
:1039600003EB82031A888A4202D193F9020010BD48
:1039700005D8013880B204330028F3D1F7E70020DE
:10398000F5E710B52C2104461EF02EFC204610BD94
:1039900030B58BB00446BDF860500895BDF85C505A
:1039A00007959DF8505006959DF84C5005959DF84B
:1039B000485004959DF8445003959DF84050029559
:1039C0009DF83C500195BDF8385000950DF0DAFB9C
:1039D000064B2360159BE361169B2362199B636270
:1039E0001A9BA36220460BB030BD00BF8C56020864
:1039F00070477047704730B4C2684468551003463A
:103A000004EB6200D20748BF62599B6830BC48BFD4
:103A1000D35818470346406830B19A681AB9D86835
:103A200000F0010070470120704710B510210446D6
:103A30001EF0DAFB204610BD10B54FF4C8710446E5
:103A40001EF0D2FB204610BD9830884208B505D143
:103A50000BF08EFDBDE80840FFF7F4BA08BD00008A
:103A60000022C0E90122C0E90322C0E90522C0E921
:103A700007224FF480728284014A0260704700BFBF
:103A8000F456020838B5262204460D4600211FF0E0
:103A9000F0FD2046FFF7E4FF064B23602B88E3840C
:103AA000FF23204684F82830294609F074F8204680
:103AB00038BD00BF185D02082DE9F04F04468DB0F7
:103AC000A14600250DF058FD684BE56349F8403BE1
:103AD0004846FFF7BDFD04F16C0304F19808184651
:103AE00004F1E0070393FFF7B3FD404609F094F9B2
:103AF0002946262238461FF0BCFD3846FFF7B0FFA6
:103B00005B4BC4F8E0305B4BC4F8083104F59472A9
:103B10004FF47F034FF0FF3A4FF6FF7604F5AA7B90
:103B2000C4F81431A4F80C610AA91046C4E948A5E8
:103B3000C4F81051A4F81851C4F81C510292ADF801
:103B400028A0FFF79FFF0AA95846ADF82860FFF7A5
:103B500099FF494BC4E96034484B4FF4A072C4E963
:103B6000623529460092F0232A464846FFF75CFD5D
:103B7000261D4FF07F42A2664946304605F0B8FB4D
:103B80004FF4A0720398009229462A46F023FFF7CB
:103B90004BFD3B4BC4F894300399304605F0A8FB2D
:103BA00029464046DA22FFF732FD0AAA09A9404613
:103BB000ADF82450ADF8285008F0BBFE0123A4F85E
:103BC000D0304046FFF77CFD04F5C073C4F8C03028
:103BD00041463046C4E935AA05F08AFB384628221A
:103BE0000321FFF714FD0DF110084FF07F42C4F8D8
:103BF000102139464046A4F8145108F095FB98E886
:103C0000070004F58E7383E807001A4B0A930AA98C
:103C10003846ADF82C5008F02FFE3946304605F0F6
:103C200067FB892202981E21FFF7F1FC0623029808
:103C3000ADF828300AA908F0AEFF0299304605F029
:103C400057FB89225846A321FFF7E1FC07230AA965
:103C50005846ADF8283008F09EFF3046594605F02A
:103C600047FB20460DB0BDE8F08F00BF7457020837
:103C7000205C0208EC5402085C570208493A00082C
:103C8000F7E700FF704770477047704730B4C2686D
:103C900044685510034604EB6200D20748BF6259DE
:103CA0009B6830BC48BFD35818470346406830B1C2
:103CB0009A681AB9D86800F001007047012070476F
:103CC00010B5102104461EF08FFA204610BD10B525
:103CD0004FF4196104461EF087FA204610BD08B55E
:103CE0000BF046FCBDE80840FFF7CCB900F58E723A
:103CF0008A4202D103681B6B184770472DE9F04FC9
:103D000004468DB0A14600250DF036FC8B4BE563D3
:103D100049F8403B4846FFF79BFC04F16C0318460A
:103D20000293FFF795FC04F19803184604F1C40BC5
:103D3000039304F1F00AFFF78BFC4FF6FF760AA914
:103D4000584604F58E78ADF82860FFF79BFE0AA967
:103D5000504604F5B277ADF82860FFF793FE404671
:103D600009F05AF82946262238461FF082FC3846C8
:103D7000FFF776FE724BC4F88C314FF47F03C4F822
:103D80009831704BC4F864314FF0FF33C4E96935A2
:103D90006D4BC4F880396D4BC4F888394FF4A0736B
:103DA0002A46A4F89061C4F89451A4F89C51C4F830
:103DB000A051C4F8AC51C4F88C5929464846C4F8FF
:103DC00084490093F023FFF72FFC261D4FF07F431B
:103DD0004946A366304605F08BFA4FF4A0732A4695
:103DE000294602980093F023FFF71EFC584B0299D6
:103DF000C4F89430304605F07BFA8823B82229466F
:103E000003980093F023FFF70FFC524BC4F8C03027
:103E10000399304605F06CFA892219215846FFF7BC
:103E2000F6FB4FF006090AA95846ADF8289008F0AD
:103E3000B2FE5946304605F05BFA9022504640F2F9
:103E40002D11FFF7E4FB052350460AA9ADF82830F1
:103E500008F0A1FE5146304605F04AFA2946E32211
:103E60004046FFF7D4FB01230AAA09A9ADF8243084
:103E7000404602234FF0080AADF8283008F059FDFB
:103E80004046A4F854A1FFF71BFC4FF0FF33C4E9F0
:103E9000563304F51863C4F844314146304605F002
:103EA00027FA1A23524600934D218A233846FFF7FA
:103EB000BBFB4FF07F43C4F89431D4F86431A4F8CD
:103EC000985104AD2846D3F884303946984795E890
:103ED000070004F5D07383E807001F4B1B6804F547
:103EE000D8752BB91D4B1E4A60211E481FF0BAF928
:103EF0001D4B1B88072B03D81C4B194A6121F4E783
:103F00001B4B0721186800F0DFF91A4A03464FF4EB
:103F10007A7128460FF010F8094BC4F8AC510AA981
:103F200038460A93ADF82C9008F0A6FC3046394686
:103F300005F0DEF920460DB0BDE8F08FC05702084D
:103F4000EC540208B0550208A8570208ED3C0008DE
:103F5000FDFF99FF3D3D3DFFCC2F0120644D020840
:103F6000664E0208E14D0208D02F0120284E0208BB
:103F7000D82F0120B14E02087047000030B5164D11
:103F80002C6814F001048FB0BFF35B8F20D128465A
:103F90001EF02CF9E0B13F230993104B0893104B0E
:103FA000104911480A940122CDE906430423CDE9C2
:103FB00003320A230093CDE90B44CDE90144059473
:103FC000FFF7E6FC09481FF06BF928461EF01AF9C6
:103FD00005480FB030BD00BF2C2100205825030834
:103FE000A0270308600C030830210020793F000857
:103FF0007047000030B5184D2C6814F001048FB0E4
:10400000BFF35B8F25D128461EF0F0F808B33F239D
:104010000993124B0893124B079307220A23CDE909
:10402000053201210423CDE9033114230D49009306
:1040300040F2B1121923CDE90B44CDE901440A48FD
:104040000A94FFF7A5FC09481FF02AF928461EF03C
:10405000D9F805480FB030BD5C2100205C2503086D
:10406000A4270308700C030860210020F13F00081A
:104070007047000030B5174D2C6814F001048FB064
:10408000BFF35B8F22D128461EF0B0F8F0B13F237A
:104090000993114B0893114B114912480A94CDE929
:1040A000064301220423CDE9033228230093092289
:1040B0002923CDE90B44CDE901440594FFF768FCC1
:1040C00009481FF0EDF828461EF09CF805480FB08F
:1040D00030BD00BF8C21002094270308A8270308C7
:1040E0002024030890210020714000087047000040
:1040F00030B5164D2C6814F001048FB0BFF35B8F00
:1041000021D128461EF072F8E8B13F230993104BE5
:104110000893104B07930123CDE90543049304232F
:10412000CDE902431E230C4900930D22CDE90B4437
:104130000A480A940194FFF72BFC09481FF0B0F8D5
:1041400028461EF05FF805480FB030BDBC210020A6
:104150009C270308AC270308A0240308C0210020E3
:10416000ED40000800207047002070470EB403B5F2
:1041700003AB002153F8042B01930CF081FA02B039
:104180005DF804EB03B070470CB407B504AB53F80B
:10419000042B01930CF074FA03B05DF804EB02B049
:1041A00070470000436C10B5044673B3038F2BB9FE
:1041B000184B194AC52119481FF054F8C38E00EB5B
:1041C00043035B8C0BB30EF00EF9238F012B03D846
:1041D000134B144ACB21EEE7E28E531C9BB2092B02
:1041E000194688BFA3F10A0104EB410140F63F10D4
:1041F000498C814209D10A2B04EB420228BF0023DB
:1042000004EB4303508C588451842046BDE8104091
:104210000DF0ECBFB44E0208BD4E0208684F020814
:10422000B24F0208C04F02080DF0A7BF10B586B00C
:1042300002AC84E806001A460AAB05930193099B79
:1042400000932146089B0AF031FD06B010BD000026
:1042500038B518BB124B13481C681349B4B1226817
:1042600022440260626822440A60A26814440F4B30
:1042700000221A8000F038F8054600F033F80C4BA5
:104280001C600C4B1D600C4B188007E00B4B03604F
:104290000B4B0B600B4B1C68002CE8D138BD00BFEA
:1042A000F8210020F0210020EC210020F421002042
:1042B000CC2F0120D42F0120D02F0120D827030894
:1042C000B027030858280308044B1B6853F8210043
:1042D000034B1B6803EB4000704700BFEC2100203C
:1042E000F02100200A20704700487047FC21002080
:1042F00010B5FFF77FFE064C2060FFF7BBFE606045
:10430000FFF73CFEA060FFF7F3FEE06010BD00BFCA
:10431000FC21002010B5002404600C6014601C60B7
:1043200010BD704710B54FF4AE7104461DF05CFF30
:10433000204610BD10B50446D0F8580100F08BF8A7
:104340002046BDE810400BF095B9000010B50446BA
:10435000FEF734FE014B2360204610BDFC570208D7
:10436000704704387047704710B5102104461DF09F
:104370003BFF204610BDA0F10400F5E7002282605B
:10438000024A026018324260C16070475058020809
:104390007047000010B5034B03600446FFF7B7F801
:1043A000204610BD7858020810B50446FFF7F2FF0A
:1043B00020464FF4C2711DF017FF204610BD0000CB
:1043C00010B50446FFF7BEF9014B2360204610BD2F
:1043D00078580208FFF79CB8704704387047704758
:1043E00010B5102104461DF0FFFE204610BDA0F1BF
:1043F0000400F5E700228260024A0260183242603F
:10440000C1607047AC5802087047000010B5034BFC
:1044100003600446FFF7EDFA204610BDD4580208A9
:1044200010B50446FFF7F2FF20464FF4C8711DF0A7
:10443000DBFE204610BD000010B50446FFF73CFB34
:10444000014B2360204610BDD4580208FFF7D2BAB2
:104450000022026070477047704704387047704709
:1044600010B5102104461DF0BFFE204610BDA0F17E
:104470000400F5E700228260024A026018324260BE
:10448000C160704708590208704790F89C3933B9E9
:10449000012380F89C396FF00E03C0F894397047FF
:1044A00010B5034B03600446FFF7EEFB204610BD3A
:1044B0003059020810B50446FFF7F2FF20464FF4CA
:1044C0001C611DF091FE204610BD000010B5044691
:1044D000FFF714FC094B236001220023C4F8903934
:1044E000C4F89439C4F8982984F89C39C4F8B439CC
:1044F000C4F8B839A4F8BC39204610BD30590208B8
:1045000038B50446FFF7C1FBB4F9CE20B4F99E30AC
:104510009B1AC4F89039A4F8CA300D4B04F69E15C6
:104520001B88C4F8B4399022C4F8B829A4F8F43030
:104530002846B4F8BC39074A14210EF0FDFCC4F833
:10454000AC5104F5B270BDE838400CF0C3B900BFFF
:10455000682F01209250020890F89C392DE9F0470D
:1045600004462BB300F1C40528460CF0B3F9D4F887
:104570009419D4F89839D4F890290B440A44C4F813
:104580009439B4F9CE10B4F99E30C4F890295B1A6E
:104590009A42A1BFC4F890390023C4F8943984F832
:1045A0009C39D4F89039A4F8CA3028460CF092F916
:1045B00004F1F00630460CF08DF9D4F8B439B4F9B2
:1045C000F820043BDA42C4F8B43916D5374B384AE0
:1045D0001B88C4F8B439B4F8BC3901339BB204F673
:1045E0009E15A4F8BC39142128460EF0A5FCC4F889
:1045F000AC5104F5B2700CF06DF9D4F8B439A4F8EC
:10460000F430D4F8B839A4F8F63030460CF062F93A
:10461000B4F9C830D4F8B409C01AFBF78BFFB4F969
:10462000CA300646D4F8B809C01A0F46FBF782FF15
:104630003246804689463B4630463946FBF7E4FF22
:10464000424606460F464B4640464946FBF7DCFFCE
:1046500002460B4630463946FBF720FE41EC100B74
:104660001DF0E9FD134B51EC100B0022FCF73EFA54
:10467000C8B10E4A00231288A4F8BC3904F69E156E
:10468000C4F8B42914210A4A28460EF055FC04F552
:10469000B270C4F8AC510CF01DF923682046DB6AF7
:1046A000BDE8F0471847BDE8F08700BF682F01203C
:1046B0009250020800804640F02070474FF4A070EE
:1046C00070472920FDF722BF2820FDF71FBF08B53E
:1046D000FDF7F0FECA20FDF719FFC320FDF7FAFE33
:1046E0000820FDF7F7FE5020FDF7F4FECF20FDF780
:1046F0000DFF0020FDF7EEFEC120FDF7EBFE3020A0
:10470000FDF7E8FEED20FDF701FF6420FDF7E2FE76
:104710000320FDF7DFFE1220FDF7DCFE8120FDF710
:10472000D9FEE820FDF7F2FE8520FDF7D3FE00203C
:10473000FDF7D0FE7820FDF7CDFECB20FDF7E6FE9D
:104740003920FDF7C7FE2C20FDF7C4FE0020FDF741
:10475000C1FE3420FDF7BEFE0220FDF7BBFEF720B0
:10476000FDF7D4FE2020FDF7B5FEEA20FDF7CEFED2
:104770000020FDF7AFFE0020FDF7ACFEB120FDF7F5
:10478000C5FE0020FDF7A6FE1B20FDF7A3FEB62008
:10479000FDF7BCFE0A20FDF79DFEA220FDF79AFE64
:1047A000C020FDF7B3FE1020FDF794FEC120FDF7F9
:1047B000ADFE1020FDF78EFEC520FDF7A7FE4520BB
:1047C000FDF788FE1520FDF785FEC720FDF79EFE4C
:1047D0009020FDF77FFE3620FDF798FEC820FDF7FC
:1047E00079FEF220FDF792FE0020FDF773FEB02067
:1047F000FDF78CFEC220FDF76DFEB620FDF786FEAC
:104800000A20FDF767FEA720FDF764FE2720FDF7CD
:1048100061FE0420FDF75EFE2A20FDF777FE0020F2
:10482000FDF758FE0020FDF755FE0020FDF752FE73
:10483000EF20FDF74FFE2B20FDF768FE0020FDF76F
:1048400049FE0020FDF746FE0120FDF743FE3F2014
:10485000FDF740FEF620FDF759FE0120FDF73AFE78
:104860000020FDF737FE0620FDF734FE2C20FDF773
:104870004DFEC820FDF798FE2620FDF747FE0120DB
:10488000FDF728FEE020FDF741FE0F20FDF722FE98
:104890002920FDF71FFE2420FDF71CFE0C20FDF74C
:1048A00019FE0E20FDF716FE0920FDF713FE4E201F
:1048B000FDF710FE7820FDF70DFE3C20FDF70AFE07
:1048C0000920FDF707FE1320FDF704FE0520FDF784
:1048D00001FE1720FDF7FEFD1120FDF7FBFD002076
:1048E000FDF7F8FDE120FDF711FE0020FDF7F2FDD8
:1048F0001620FDF7EFFD1B20FDF7ECFD0420FDF772
:10490000E9FD1120FDF7E6FD0720FDF7E3FD31206D
:10491000FDF7E0FD3320FDF7DDFD4220FDF7DAFD78
:104920000520FDF7D7FD0C20FDF7D4FD0A20FDF78B
:10493000D1FD2820FDF7CEFD2F20FDF7CBFD0F2068
:10494000FDF7C8FD1120FDF7E1FDC820FDF72CFEA5
:104950002920FDF7DBFDBDE808402C20FDF7D6BD82
:1049600008B5FDF7A7FD0321D320FDF7EBFD80B2CD
:1049700008BD10B5C4B2022203212046FDF750FD48
:104980000A20FDF795FD204600220321FDF748FD92
:10499000BDE810400220FDF78BBD38B50446E4B2F7
:1049A000FDF73CFD00212046FDF752FD01210546A3
:1049B0002046FDF74DFD40EA052080B238BD10B518
:1049C000C4B240212046FDF743FD030607D54C2124
:1049D0002046FDF73DFD003818BF012010BD012223
:1049E0004B212046FDF71CFD204600224B21FDF700
:1049F00017FD0020F2E773B50423C4B20E46154636
:104A0000D7210DEB03022046FDF73CFD019B1BBAAD
:104A10001A0DC3F30B23328020462B8001224B2139
:104A2000FDF7FEFC00224B212046FDF7F9FC02B009
:104A300070BD000010B50A4A1378984204460DD0A4
:104A4000517888420AD00BB141B90123D454FDF703
:104A5000E5FC2046BDE81040FFF78BBF10BD00BF4E
:104A60000C22002010B5C4B209212046FDF7F0FC4D
:104A700040F00102D2B220460921BDE81040FDF706
:104A8000CFBC10B5C4B209212046FDF7E1FC0921D5
:104A900000F0FE022046BDE81040FDF7C1BC38B56D
:104AA000C4B20D4620460A21FDF7D2FC40EA0502B9
:104AB000D2B220460A21BDE83840FDF7B1BC10B59E
:104AC0000446FDF7ACFC20461F21FFF7E8FF204617
:104AD000BDE81040FFF7C6BF38B5C4B20D4620464A
:104AE0000A21FDF7B5FC20EA0502D2B220460A21D0
:104AF000BDE83840FDF794BC10B50446FFF7C1FF90
:104B000020461F21BDE81040FFF7E6BF10B5C0B238
:104B10000C460B21FDF79CFC204010BD1F21FFF728
:104B2000F5BF0A46C0B20B21FDF77ABC1F21FFF783
:104B3000F8BF38B5C4B20D4620461721FDF788FCF2
:104B400020EA0502D2B220461721BDE83840FDF721
:104B500067BC70B5C4B2064604212046FDF778FC58
:104B6000042100F0FB0205462046FDF759FC3046C3
:104B7000F021FFF7DEFF05F0F80220460421FDF7E3
:104B80004FFC492220212046FDF74AFC0220FDF778
:104B90008FFC204601222121FDF742FC20469A226B
:104BA0004121FDF73DFC204601224A21FDF738FC5A
:104BB000204601224B21FDF733FC204600224B21E9
:104BC000FDF72EFC204601225621FDF729FC204648
:104BD00001225821FDF724FC204601224021FDF747
:104BE0001FFC2046FF220B21FDF71AFCBDE8704098
:104BF0000220FDF75DBC0000054BD3F8882042F48D
:104C00007002C3F888204FF000629A60704700BFBE
:104C100000ED00E008B50B4B1A6842F400721A6010
:104C20001A6842F480621A601A6842F480721A604C
:104C3000032000F02FF80020FDF7F8FEFDF7C2FC7E
:104C4000002008BD003C0240034A044B11681B7859
:104C50000B441360704700BF102200207800002032
:104C6000014B1868704700BF1022002038B5044679
:104C7000FFF7F6FF631C1CBF054B1B78054618BFEA
:104C8000E418FFF7EDFF431BA342FAD338BD00BF82
:104C9000780000200749CA6822F4E0620302120487
:104CA00003F4E063120C134343F0BF6343F4003397
:104CB000CB60704700ED00E0164B30B5DC68C4F304
:104CC0000224C4F10703251D042B28BF0423062D4D
:104CD0004FF0FF358CBF033C002405FA03F321EAB3
:104CE0000303A54022EA0502A340002843EA020389
:104CF000ACBF00F16040084A4FEA0313B8BF00F0B0
:104D00000F00DBB2AABF00F56140135480F80033F6
:104D100030BD00BF00ED00E014ED00E0002807DB2F
:104D2000044A4109012300F01F00834042F821306A
:104D3000704700BF00E100E010B5044650B1437970
:104D400003F0FF0213B90271FDF75CFC01236371EC
:104D5000002010BD0120FCE710B5044620B390F8F8
:104D6000393003F0FF021BB980F83820FDF762FCF0
:104D7000022384F83930236861681A6822F44032CB
:104D80000A431A605A6BA16822F007020A435A6369
:104D90001A6CE1686FF30D020A431A6400200123C4
:104DA000E06384F8393010BD0120FCE7704770479C
:104DB000036870B55E681D68F207044614D5E905FE
:104DC00012D51A6822F480721A60C26B42F0010296
:104DD000C26301229A60042380F83930002380F8EE
:104DE0003830436903B19847B20616D5AB0414D5E1
:104DF00023681A6822F400521A6020229A60E36B3A
:104E000043F00203E363042384F83930002384F879
:104E1000383063690BB120469847300716D529050D
:104E200014D523681A6822F400621A6008229A6076
:104E3000E36B43F00403E363042384F83930002375
:104E400084F8383063690BB12046984772070BD558
:104E50006B0509D523681A6822F480621A6004225F
:104E60009A602046FFF7A2FFB00714D5A90512D516
:104E700023681A6822F400721A6002229A60E36BB7
:104E8000E363012384F83930002384F83830236940
:104E90000BB120469847F20613D5EB0411D52368D1
:104EA0001A6822F480521A6010229A60E36BE3635E
:104EB000012384F83930002384F838302046FFF786
:104EC00076FF70BDF0B590F83820012A03464FF008
:104ED00002002BD0012283F8382083F8390003EB3D
:104EE0000112D2E90740556A174F44EA0040093CD5
:104EF000012C9CBF05F07F4210434FEA01161A684F
:104F000088BF40EA056091B9516A39400143516256
:104F1000012C9969916103D8596A21F07F4191620E
:104F20000122002083F8392083F83800F0BDD169D0
:104F300039400143D1619919012C896911619CBFE4
:104F400025F07F451562EBE7F0FFFC002DE9F74FF8
:104F5000DFF8BC916C4A00230D6801249C4004EAF0
:104F60000506AC4340F0B7804D68032705F0030405
:104F70004FEA430807FA08FC671E012F6FEA0C0C82
:104F800034D8876807EA0C0ECF6807FA08F747EAB3
:104F90000E078760476827EA060EC5F300179F4093
:104FA00047EA0E074760C76807EA0C0E8F6807FAE2
:104FB00008F747EA0E07022CC76019D14FEAD30A57
:104FC00000EB8A0A03F0070BDAF820704FEA8B0B2C
:104FD0004FF00F0E0EFA0BFE27EA0E0E0F6907FABE
:104FE0000BF747EA0E07CAF8207001E0032CDAD16C
:104FF000076804FA08F407EA0C073C4315F4403F3D
:10500000046068D000240194D9F8444044F48044FA
:10501000C9F84440D9F8444023F0030707F180471A
:1050200004F4804407F59C37019403F0030C019CC1
:10503000D7F808E04FEA8C0C0F2404FA0CF42EEA9F
:10504000040E324CA0424DD004F58064A0424BD0F7
:1050500004F58064A04249D004F58064A04247D0A2
:1050600004F58064A04245D004F58064A04243D09A
:1050700004F58064A04241D004F58064A0423FD092
:1050800004F58064A0423DD004F58064A04214BFC2
:105090000A24092404FA0CF444EA0E04BC6094685F
:1050A000F74315F4801F0CBF3C4034439460D46830
:1050B00015F4001F0CBF3C403443D460546815F411
:1050C000003F0CBF3C40344354601468ED0354BFB0
:1050D0003C40344314600133102B7FF43DAF03B0E8
:1050E000BDE8F08F0024D5E70124D3E70224D1E7FF
:1050F0000324CFE70424CDE70524CBE70624C9E742
:105100000724C7E70824C5E7003C0140000002402F
:10511000003802400369194214BF01200020704783
:105120000AB1816170470904FBE7436901EA0302A0
:1051300021EA030141EA02418161704701684B693C
:1051400013F480634FF0000210D06FF480634B6162
:105150002023026380F83D3080F83E20036C80F805
:105160003C2043F004030364012070471846704755
:105170002DE9F84606460F4691461D464FEA114A6C
:105180003368BAF1010F0CBF5C699C6927EA04041B
:10519000A4B2B4FA84F46409A14501D0002025E04A
:1051A0006A1CEED0FFF75CFD089BC01AA84201D82C
:1051B000002DE5D13368BAF1010F0CBF5B699B6923
:1051C00027EA03039BB2B3FA83F35B099945D7D16E
:1051D00000232022336386F83D2086F83E30326C6F
:1051E00086F83C3042F0200232640120BDE8F886A7
:1051F0002DE9F04104460F46164698462568686931
:1052000027EA000080B2C0B16B695A0517D52B6838
:1052100043F400732B606FF480636B6120220023E2
:10522000236384F83D2084F83E30236C43F004036C
:105230002364002384F83C300120BDE8F081731C16
:10524000DDD0FFF70DFDA0EB0800B04201D8002E25
:10525000D4D123685A6927EA020292B2002ACDD03B
:1052600000232022236384F83D2084F83E30236C01
:105270001343DDE770B504460D46164623685B69A7
:105280001B0601D500201EE02046FFF757FFC8B9D6
:105290006A1CF3D0FFF7E4FC801BA84201D8002D64
:1052A000ECD123685B6913F08003E7D120222363EC
:1052B00084F83D2084F83E30226C84F83C3042F083
:1052C00020022264012070BD2DE9F04315460268DA
:1052D00085B0DDE90C789946136843F48073136058
:1052E0000E463B46CDF8008000224FF001110446E7
:1052F000FFF73EFF236838B11B68DB0502D54FF48A
:1053000000732364032620E006F0FE061E611A499E
:1053100043463A462046FFF76BFFA8B9236803903F
:105320005A6903929B690393424639462046039B80
:10533000FFF7A0FF064660B1236C042B01BF226873
:10534000136843F4007313600126304605B0BDE8CE
:10535000F083B9F1010F236802D1EDB21D61F4E7CA
:105360002A0A1A61394642462046FFF783FF002881
:10537000E2D12368F1E700BF020001002DE9FF47F9
:105380009A46036815461A6842F480621A601A68E1
:10539000DDE90C7842F480721A600E463B46CDF887
:1053A000008000224FF001110446FFF7E1FE236860
:1053B00038B11B68DB0544BF4FF40073236403203E
:1053C00021E05FFA86F906F0FE061E612B4943468E
:1053D0003A462046FFF70CFFA0B9236803905A69AC
:1053E00003929B690393424639462046039BFFF78D
:1053F00041FF58B1236C042B01BF2268136843F4AA
:1054000000731360012004B0BDE8F087BAF1010F0A
:1054100023681AD1EDB242461D6139462046FFF796
:1054200029FF02460028E5D121680B6843F4807308
:105430000B602046CDF800803B464FF00111FFF78E
:1054400097FE226860B11368B4E72A0A1A613946E8
:1054500042462046FFF70EFF0028CBD12368D9E74C
:1054600049F001031361054943463A462046FFF7D8
:10547000BFFE003818BF0120C5E700BF02000100D1
:1054800070B504460D46164623685B695B0701D577
:1054900000201EE02046FFF751FEC8B96A1CF3D079
:1054A000FFF7DEFB801BA84201D8002DECD123685A
:1054B0005B6913F00403E7D12022236384F83D20C5
:1054C00084F83E30226C84F83C3042F020022264A2
:1054D000012070BD70B504460D46164621684B6923
:1054E00013F0400301D0002011E04A69D2060FD525
:1054F0006FF010024A612022236384F83D2084F873
:105500003E30236C2364002384F83C30012070BDBE
:10551000FFF7A6FB801BA84201D8002DDED123682F
:105520005B6913F04003D9D12022236384F83D2026
:1055300084F83E30236C1343E4E7000070B5044662
:1055400008B9012070BD90F83D3003F0FF021BB98F
:1055500080F83C20FDF790F8242384F83D30236840
:105560001A6822F001021A601A6842F400421A60B6
:105570001A6822F400421A6000F0A8FE3F4B6568EA
:105580009D4294BF3E4B3F4B98428CBF002301236A
:10559000002BD6D12268394E51683B4BB0FBF3F358
:1055A00021F03F011943B542516088BF4FF4967610
:1055B000116A88BF734321F03F0184BF4FF47A76AC
:1055C000B3FBF6F301330B431362D169431E2B483F
:1055D00021F44F41854221F0FF0132D86D0040F6A1
:1055E000FC70B3FBF5F30133034242D0C3F30B036A
:1055F0001943D161D4E907301168034321F0C00198
:105600000B4313609168D4E9030321F4034103437E
:1056100021F0FF010B439360D4E90530D1680343C7
:1056200021F0FF010B43D360136843F001031360C3
:1056300000202023206484F83D30206384F83E005D
:1056400080E7A06850B905EB4505B3FBF5F30133DE
:10565000C3F30B037BB143F40043C9E7192068434C
:10566000B3FBF0F30133C3F30B0323B143F4404323
:10567000BEE70423BCE70123BAE700BFA086010010
:105680007F841E00FF083D0040420F002DE9F743D4
:10569000044699460C9E0F469046FFF7E1FA94F8AF
:1056A0003D30202B054603D0022003B0BDE8F08337
:1056B00000903C49192301222046FFF759FD00289C
:1056C000F2D194F83C30012BEED02068012384F80D
:1056D0003C300368D9075EBF036843F001030360F1
:1056E000036823F400630360212384F83D304023E2
:1056F00084F83E30002323640A9B6362BDF82C309B
:105700006385638D2385284BE3624246CDE90065BE
:105710004B4639462046FFF7D7FD00282AD0012006
:10572000C3E7FFF7A7FD40B1236C042B01BF22683C
:10573000136843F400731360F1E7636A27681A463D
:1057400012F8011B39616262628D218D013A92B2B9
:1057500062857A69481E80B2520720850AD548B111
:105760005A783A6102336362638D013B02399BB21E
:1057700021856385238D2A4631462046002BD0D1D2
:10578000FFF77EFE0028CFD12268136843F4007330
:105790001360202384F83D3084F83C0084F83E00F8
:1057A00083E700BF020010000000FFFF2DE9F04377
:1057B000044687B09946109F0D469046FFF750FA71
:1057C00094F83D30202B064604D00225284607B029
:1057D000BDE8F08300907A49192301222046FFF7A3
:1057E000C7FC0028F1D194F83C30012BEDD02068A3
:1057F000012384F83C300368DB075EBF036843F095
:1058000001030360036823F400630360222384F828
:105810003D30402384F83E30002323640E9B6362B6
:10582000BDF83C306385638D2385664BE362294672
:10583000CDE900764B4642462046FFF79FFD0546E0
:1058400008B10125C2E7228D2368B2B902905A69D6
:1058500002929A690292029A1A6842F400721A60DD
:10586000DFF86481238D002B2CD1202284F83D2089
:1058700084F83C3084F83E30A8E7012A0AD11A683F
:1058800022F480621A6003905A6903929A69039223
:10589000039AE1E7022A0ED11A6822F480621A60A4
:1058A0001A6842F400621A6004905A6904929B6973
:1058B0000493049BD4E705905A6905929B6905936C
:1058C000059BCDE7032B56D8012B15D1324639461F
:1058D0002046FFF7FFFD0028B3D123681A69636AE9
:1058E0001A70636A01336362238D013B2385638DE4
:1058F000013B9BB26385B5E7022B00963B464FF018
:1059000000024146204619D1FFF732FC002898D109
:1059100023681A6842F400721A601A69636A1A707E
:10592000626A531C6362238D013B2385638D013BB7
:105930009BB2638523681B695370D2E7FFF718FC9D
:10594000024600287FF47DAF2368196821F4806146
:1059500019601969636A1970636A01336362238D80
:10596000013B2385638D013B9BB2638541460096D5
:105970003B462046C8E7324639462046FFF7AAFD97
:1059800000287FF45EAF23681A69636A1A70628D1B
:10599000616A013A92B24B1C628522686362238D70
:1059A0005069013B9BB2400723857FF55BAF032B1A
:1059B00002BF136823F48063136013694B7090E790
:1059C000020010000000FFFF0400010010B590F875
:1059D0003D30202BDCB216D1242380F83D30036803
:1059E0001A6822F001021A605A6A22F010025A6202
:1059F0005A6A114359621A6842F001021A6080F82B
:105A00003D40002010BD0220FCE730B590F83D304D
:105A1000202BDCB216D10268242380F83D301368B5
:105A200023F001031360556A4FF6F0732B400B43CC
:105A30009BB25362136843F00103136080F83D404A
:105A4000002030BD0220FCE70068D1F800C0D20180
:105A5000843283182DE9F043C6685D684C68D1F83C
:105A6000189005F470455D60C5680CF10107C5F339
:105A70000B45C6F30B4626443D4445EA06455D60AA
:105A8000C668CD68C6F30A062E449D6805F47045C5
:105A90009D60C7688D68C7F30A0701353D4445EA34
:105AA00006459D601D690E6925F007051D614FF0D3
:105AB000000E1E6191F832709D6991F83180C3F833
:105AC00018E091F8305045EA096545EA082545EAAD
:105AD00007459D615D6925F0FF055D614D695D616B
