:020000040800F2
:1000000000000320350F0008012B0008032B000817
:10001000052B0008072B0008092B00080000000032
:10002000000000000000000000000000D17A00087D
:100030000B2B000800000000617B0008E97300083A
:10004000850F0008850F0008850F0008850F000840
:10005000850F0008850F0008850F0008850F000830
:10006000850F0008850F0008850F0008850F000820
:10007000850F0008850F0008850F0008850F000810
:10008000850F0008850F0008850F0008850F000800
:10009000850F0008850F0008850F0008850F0008F0
:1000A000850F0008850F0008850F0008850F0008E0
:1000B000850F0008850F0008850F0008850F0008D0
:1000C000850F0008850F0008850F0008850F0008C0
:1000D000850F0008850F0008850F0008850F0008B0
:1000E000850F0008850F0008850F0008850F0008A0
:1000F000850F0008850F0008850F0008850F000890
:10010000850F0008850F0008850F0008850F00087F
:10011000850F0008850F00080D2B0008850F0008CB
:10012000850F0008850F0008850F0008850F00085F
:10013000850F0008850F0008850F0008850F00084F
:10014000850F0008850F0008850F0008850F00083F
:10015000850F0008850F0008850F0008850F00082F
:10016000850F0008850F0008850F0008850F00081F
:10017000850F0008850F0008850F000800000000AB
:10018000850F0008850F0008850F0008850F0008FF
:10019000850F0008850F0008850F0008850F0008EF
:0C01A000192B0008850F0008252B000813
:1001B00010B5054C237833B9044B13B10448AFF3A1
:1001C00000800123237010BD800300200000000088
:1001D000C044020808B5034B1BB103490348AFF301
:1001E000008008BD0000000084030020C044020815
:1001F00001F0FF01102A2BDB10F0070F08D010F8D8
:10020000013B013A8B422DD010F0070F42B3F6D1DB
:10021000F0B441EA012141EA014122F007047FF0F4
:1002200000070023F0E80256083C85EA010586EA4B
:10023000010685FA47F5A3FA87F586FA47F6A5FA87
:1002400087F68EB9EED1F0BC01F0FF0102F0070293
:1002500032B110F8013B013A83EA010313B1F8D13E
:100260000020704701387047002D06BF354603381F
:10027000073815F0010F07D1013015F4807F02BF58
:10028000013015F4C03F0130F0BC0138704700BFA9
:1002900081F0004102E000BF83F0004330B54FEA37
:1002A00041044FEA430594EA050F08BF90EA020FA4
:1002B0001FBF54EA000C55EA020C7FEA645C7FEA37
:1002C000655C00F0E2804FEA5454D4EB5555B8BF5A
:1002D0006D420CDD2C4480EA020281EA030382EACB
:1002E000000083EA010180EA020281EA0303362D5D
:1002F00088BF30BD11F0004F4FEA01314FF4801C30
:100300004CEA113102D0404261EB410113F0004F41
:100310004FEA03334CEA133302D0524263EB4303F8
:1003200094EA050F00F0A780A4F10104D5F1200E96
:100330000DDB02FA0EFC22FA05F2801841F10001F1
:1003400003FA0EF2801843FA05F359410EE0A5F1C5
:1003500020050EF1200E012A03FA0EFC28BF4CF0F6
:10036000020C43FA05F3C01851EBE37101F00045AC
:1003700007D54FF0000EDCF1000C7EEB00006EEBB9
:100380000101B1F5801F1BD3B1F5001F0CD3490843
:100390005FEA30004FEA3C0C04F101044FEA44529A
:1003A00012F5800F80F09A80BCF1004F08BF5FEA21
:1003B000500C50F1000041EB045141EA050130BD01
:1003C0005FEA4C0C404141EB0101013C28BFB1F513
:1003D000801FE9D291F0000F04BF01460020B1FA5E
:1003E00081F308BF2033A3F10B03B3F120020CDA31
:1003F0000C3208DD02F1140CC2F10C0201FA0CF00F
:1004000021FA02F10CE002F11402D8BFC2F1200C73
:1004100001FA02F120FA0CFCDCBF41EA0C01904029
:10042000E41AA2BF01EB0451294330BD6FEA040472
:100430001F3C1CDA0C340EDC04F11404C4F120025D
:1004400020FA04F001FA02F340EA030021FA04F36F
:1004500045EA030130BDC4F10C04C4F1200220FAC6
:1004600002F001FA04F340EA0300294630BD21FA04
:1004700004F0294630BD94F0000F83F4801306BFCA
:1004800081F480110134013D4EE77FEA645C18BFBE
:100490007FEA655C29D094EA050F08BF90EA020F55
:1004A00005D054EA000C04BF1946104630BD91EA4D
:1004B000030F1EBF0021002030BD5FEA545C05D150
:1004C0004000494128BF41F0004130BD14F580048F
:1004D0003CBF01F5801130BD01F0004545F0FE4103
:1004E00041F470014FF0000030BD7FEA645C1ABF38
:1004F000194610467FEA655C1CBF0B46024650EA6F
:10050000013406BF52EA033591EA030F41F400219A
:1005100030BD00BF90F0000F04BF0021704730B520
:100520004FF4806404F132044FF000054FF00001F5
:1005300050E700BF90F0000F04BF0021704730B5B6
:100540004FF4806404F1320410F0004548BF40428B
:100550004FF000013EE700BF42004FEAE2014FEAE0
:1005600031014FEA02701FBF12F07F4393F07F4FBB
:1005700081F06051704732F07F4208BF704793F0BE
:100580007F4F04BF41F40021704730B54FF46074D1
:1005900001F0004521F000411CE700BF50EA0102D4
:1005A00008BF704730B54FF000050AE050EA01027D
:1005B00008BF704730B511F0004502D5404261EBED
:1005C00041014FF4806404F132045FEA915C3FF42E
:1005D000D8AE4FF003025FEADC0C18BF03325FEACB
:1005E000DC0C18BF033202EBDC02C2F1200300FA7C
:1005F00003FC20FA02F001FA03FE40EA0E0021FAA1
:1006000002F11444BDE600BF70B54FF0FF0C4CF48E
:10061000E06C1CEA11541DBF1CEA135594EA0C0F40
:1006200095EA0C0F00F0DEF82C4481EA030621EA7B
:100630004C5123EA4C5350EA013518BF52EA0335B6
:1006400041F4801143F4801338D0A0FB02CE4FF068
:100650000005E1FB02E506F00042E0FB03E54FF098
:100660000006E1FB03569CF0000F18BF4EF0010E90
:10067000A4F1FF04B6F5007F64F5407404D25FEA8C
:100680004E0E6D4146EB060642EAC62141EA55513F
:100690004FEAC52040EA5E504FEACE2EB4F1FD0C81
:1006A00088BFBCF5E06F1ED8BEF1004F08BF5FEAFF
:1006B000500E50F1000041EB045170BD06F00046B1
:1006C00046EA010140EA020081EA0301B4EB5C045E
:1006D000C2BFD4EB0C0541EA045170BD41F4801156
:1006E0004FF0000E013C00F3AB8014F1360FDEBF7B
:1006F000002001F0004170BDC4F10004203C35DA57
:100700000C341BDC04F11404C4F1200500FA05F3D9
:1007100020FA04F001FA05F240EA020001F000427A
:1007200021F0004110EBD37021FA04F642EB0601F0
:100730005EEA430E08BF20EAD37070BDC4F10C041A
:10074000C4F1200500FA04F320FA05F001FA04F2DE
:1007500040EA020001F0004110EBD37041F10001CA
:100760005EEA430E08BF20EAD37070BDC4F12005D5
:1007700000FA05F24EEA020E20FA04F301FA05F23D
:1007800043EA020321FA04F001F0004121FA04F2E5
:1007900020EA020000EBD3705EEA430E08BF20EAB5
:1007A000D37070BD94F0000F0FD101F000464000EF
:1007B00041EB010111F4801F08BF013CF7D041EA71
:1007C000060195F0000F18BF704703F00046520075
:1007D00043EB030313F4801F08BF013DF7D043EA46
:1007E0000603704794EA0C0F0CEA135518BF95EAFC
:1007F0000C0F0CD050EA410618BF52EA4306D1D183
:1008000081EA030101F000414FF0000070BD50EAA1
:10081000410606BF1046194652EA430619D094EA2B
:100820000C0F02D150EA013613D195EA0C0F05D115
:1008300052EA03361CBF104619460AD181EA030169
:1008400001F0004141F0FE4141F470014FF0000021
:1008500070BD41F0FE4141F4780170BD70B54FF0BC
:10086000FF0C4CF4E06C1CEA11541DBF1CEA13553C
:1008700094EA0C0F95EA0C0F00F0A7F8A4EB05041E
:1008800081EA030E52EA03354FEA013100F0888015
:100890004FEA03334FF0805545EA131343EA1263DE
:1008A0004FEA022245EA111545EA10654FEA002693
:1008B0000EF000419D4208BF964244F1FD0404F54C
:1008C000407402D25B084FEA3202B61A65EB0305A8
:1008D0005B084FEA32024FF480104FF4002CB6EB65
:1008E000020E75EB030E22BFB61A754640EA0C00E5
:1008F0005B084FEA3202B6EB020E75EB030E22BF25
:10090000B61A754640EA5C005B084FEA3202B6EB65
:10091000020E75EB030E22BFB61A754640EA9C0024
:100920005B084FEA3202B6EB020E75EB030E22BFF4
:10093000B61A754640EADC0055EA060E18D04FEAB2
:10094000051545EA16754FEA06164FEAC30343EA52
:1009500052734FEAC2025FEA1C1CC0D111F4801F1F
:100960000BD141EA00014FF000004FF0004CB6E718
:1009700011F4801F04BF01430020B4F1FD0C88BFB7
:10098000BCF5E06F3FF6AFAEB5EB030C04BFB6EBC2
:10099000020C5FEA500C50F1000041EB045170BDB5
:1009A0000EF0004E4EEA113114EB5C04C2BFD4EBE2
:1009B0000C0541EA045170BD41F480114FF0000E66
:1009C000013C90E645EA060E8DE60CEA135594EAE2
:1009D0000C0F08BF95EA0C0F3FF43BAF94EA0C0FE5
:1009E0000AD150EA01347FF434AF95EA0C0F7FF45A
:1009F00025AF104619462CE795EA0C0F06D152EAAE
:100A000003353FF4FDAE1046194622E750EA410691
:100A100018BF52EA43067FF4C5AE50EA41047FF4A2
:100A20000DAF52EA43057FF4EBAE12E74FF0FF3C07
:100A300006E000BF4FF0010C02E000BF4FF0010CD8
:100A40004DF804CD4FEA410C7FEA6C5C4FEA430C51
:100A500018BF7FEA6C5C1BD001B050EA410C0CBFA0
:100A600052EA430C91EA030F02BF90EA020F002002
:100A7000704710F1000F91EA030F58BF994208BF69
:100A800090422CBFD8176FEAE37040F00100704726
:100A90004FEA410C7FEA6C5C02D150EA013C07D17D
:100AA0004FEA430C7FEA6C5CD6D152EA033CD3D0C8
:100AB0005DF8040B704700BF8446104662468C46C2
:100AC0001946634600E000BF01B5FFF7B7FF0028F5
:100AD00048BF10F1000F01BD4DF808EDFFF7F4FF1E
:100AE0000CBF012000205DF808FB00BF4DF808EDA9
:100AF000FFF7EAFF34BF012000205DF808FB00BFCC
:100B00004DF808EDFFF7E0FF94BF012000205DF8ED
:100B100008FB00BF4DF808EDFFF7CEFF94BF0120A2
:100B200000205DF808FB00BF4DF808EDFFF7C4FF9B
:100B300034BF012000205DF808FB00BF4FEA410CE4
:100B40007FEA6C5C02D150EA013C0AD14FEA430CC7
:100B50007FEA6C5C02D152EA033C02D14FF0000004
:100B600070474FF0010070477BB972B90029BEBFD2
:100B700000204FF0004106E008BF00281CBF6FF0C6
:100B800000414FF0FF3000F0D3B9ADF1080C6DE932
:100B900004CE002909DB002B1ADB00F04DF8DDF84C
:100BA00004E0DDE9022304B07047404261EB4101FB
:100BB000002B1BDB00F040F8DDF804E0DDE9022348
:100BC00004B0404261EB4101524263EB4303704782
:100BD000524263EB430300F02FF8DDF804E0DDE957
:100BE000022304B0404261EB41017047524263EB83
:100BF000430300F021F8DDF804E0DDE9022304B04E
:100C0000524263EB4303704753B94AB9002908BF06
:100C100000281CBF4FF0FF314FF0FF3000F088B9C3
:100C2000ADF1080C6DE904CE00F006F8DDF804E043
:100C3000DDE9022304B070472DE9F047089D8E4698
:100C400004468846002B4AD18A42174662D9B2FA36
:100C500082F64EB1C6F1200301FA06F820FA03F33A
:100C6000B74043EA0808B4404FEA174E1FFA87FC22
:100C7000B8FBFEF1230C0EFB118843EA084301FB8D
:100C80000CF29A4209D9FB1801F1FF3080F0EA809A
:100C90009A4240F2E78002393B449A1AA3B2B2FB6F
:100CA000FEF00EFB102243EA024300FB0CFC9C45C5
:100CB00009D9FB1800F1FF3280F0D6809C4540F244
:100CC000D3803B44023840EA0140A3EB0C030021EF
:100CD0001DB1F3400022C5E90032BDE8F0878B4228
:100CE00005D90DB1C5E9000100210846F5E7B3FAC1
:100CF00083F1002946D1734502D3824200F2058177
:100D0000841A6EEB030201209046002DE5D0C5E960
:100D10000048E2E7002A00F09080B2FA82F6002E46
:100D200040F0A4808A1A030C4FEA174E80B2BCB27E
:100D30000121B2FBFEFC0EFB1C2243EA024304FB32
:100D40000CF29A4207D9FB180CF1FF3802D29A42F2
:100D500000F2E080C4469B1AB3FBFEF20EFB123396
:100D600040EA034302FB04F49C4207D9FB1802F15A
:100D7000FF3002D29C4200F2CA8002461B1B42EAAC
:100D80000C40A5E7C1F120068B4022FA06F71F436D
:100D90000EFA01F420FA06F32EFA06FE4FEA17497E
:100DA000234300FA01F81FFA87FCBEFBF9F01C0C84
:100DB00009FB10EE44EA0E4400FB0CFEA64502FAC5
:100DC00001F209D93C1900F1FF3A80F09C80A64558
:100DD00040F2998002383C44A4EB0E041FFA83FED3
:100DE000B4FBF9F309FB13444EEA044403FB0CFC87
:100DF000A44508D93C1903F1FF3E80F08280A44548
:100E00007FD9023B3C4443EA0040A4EB0C04A0FB26
:100E100002EC64457346E14662D35FD05DB1B8EB46
:100E2000030264EB090404FA06F622FA01F31E43F6
:100E3000CC40C5E9006400214FE7B1FBF2FC010C96
:100E400041EA0E4180B240EA01423B4638463C4608
:100E5000B846BE462026B1FBF7F1A2EB080241EAF4
:100E60000C4166E7014618E710462CE7C6F1200260
:100E70002EFA02F3B740B14020FA02F24FEA174EC1
:100E80000A43B3FBFEF8BCB20EFB1833110C41EA67
:100E9000034108FB04F9B04089454FEA104380B292
:100EA0003ED9791808F1FF3C01D289451FD8A1EB42
:100EB0000901B1FBFEF909FB04F80EFB191192B20E
:100EC00042EA0142424529D2BA1809F1FF31C4D29F
:100ED0004245C2D2A9F102013A44BEE7F0459DD293
:100EE000BEEB02036CEB070C0138E14696E7A7EB7B
:100EF00009094944A8F1020CB1FBFEF909FB04F809
:100F0000DBE773467FE7504666E70846FDE63B446D
:100F1000023A33E7ACF1020C3B441CE749469CE73C
:100F2000A1EB0901C446B1FBFEF909FB04F8C4E7D3
:100F3000704700BFDFF834D0002103E00C4B5B5852
:100F4000435004310B480C4B42189A42F6D30B4ADB
:100F500002E0002342F8043B094B9A42F9D303F024
:100F6000C5FF22F03FFD01F063F870470000032049
:100F7000C4820608000000206401002080030020D5
:100F8000D8350120FEE7704708B500F0BBFDBDE88D
:100F9000084000F03FBD00F0B7BD704710B5042118
:100FA000044621F0C5F9204610BD000038B50C4BB1
:100FB0000C4C18800C4B822019806368984740F6CF
:100FC000110398420AD1094D23682C60822098476A
:100FD0002B688220DB689847002038BD0120FCE7A1
:100FE000A60300204C000020A4030020A80300203A
:100FF0004FF4A071F020FFF7D9BF0000F7B5394DCD
:101000002B6804461B6982209847208000284ED018
:101010002B680DF106025B6901A982209847324BCB
:101020001B78002B4BD0BDF8062040F674639A4223
:101030003FD9ADF80630BDF806209B1A9BB20A2BAB
:1010400042D90B22B3FBF2F3284A1288934201D90A
:10105000013A93B2BDF80420254840F6B8318A42DF
:1010600034D8C2F571620E32016892B20F25B2FB1C
:10107000F5F2204D2D88AA4284BF05F1FF35AAB2B2
:101080008A4215468EB22AD9921B91B21A4E3768FF
:10109000BB42BAB28CBF9A1AD21A92B21144052935
:1010A000C4BF05603360036863803368A38003B006
:1010B000F0BDB32A9CBFB422ADF80620BBE7BDF853
:1010C0000630A3F5B473B9E70023C3E7C2F56D6238
:1010D000083292B20E2A0168C8D800252A46891A19
:1010E00089B2D3E7A803002080170020A4030020C2
:1010F000A0030020A60300209C03002037B568460B
:101100000D461446FFF77AFFBDF8000030B1BDF878
:1011100002302B60BDF804302360012003B030BDE5
:10112000032821D8DFE800F0020B12190F4B1A68D0
:10113000B2FA82F2520904210D4804F06BB90B4B4C
:101140005A68B2FA82F252090821F5E7074B9A6809
:10115000B2FA82F252091021EEE7044BDA68B2FAD1
:1011600082F252092021E7E7704700BFAC0300205C
:1011700000100240032821D8DFE800F0020B12190A
:101180000F4B1A68003A18BF012204210D4804F0E1
:1011900041B90B4B5A68003A18BF01220821F5E704
:1011A000074B9A68003A18BF01221021EEE7044B62
:1011B000DA68003A18BF01222021E7E7704700BF34
:1011C000AC0300200010024003280DD8DFE800F037
:1011D0000206080A0421054804F021B90821FAE7AB
:1011E0001021F8E72021F6E7704700BF0010024009
:1011F00008B5032811D8DFE800F0020A0C0E04211C
:10120000074804F001F9431E5842584108BD08211F
:10121000F6E71021F4E72021F2E70020F3E700BF12
:101220000010024070B5084D00240126E0B2FFF71F
:10123000DFFF18B12B68012B18BF2E600134052C7D
:1012400005F10405F2D170BDAC030020012380F844
:10125000781080F8793070477047002070470000A0
:10126000034B4164003918BF01211970704700BF5A
:1012700097280120704700207047836B0BB1084608
:10128000184770474FF6FF707047406803689B69C6
:1012900018477047704770477047704710B504464D
:1012A00000F048FD23680349D3F890302046BDE89C
:1012B00010401847000000D008B503680446D3F872
:1012C0008430984723682046DB6F984700F0ECF89D
:1012D000236820465B6F9847292001F031F900F020
:1012E000E3F8236820465B6F9847F8E710B504469B
:1012F00009F0E6F923682046D3F8BC30BDE8104079
:10130000184700F0FBBC00F0FFBC00F031BD00F05E
:10131000D1BC00F041BD00F049BD00F0D5BC08F0E3
:10132000FDBB10B58421044621F002F8204610BD13
:1013300010B590F8341090F878400C4B8C421A7825
:1013400009D03AB90A4A0B491488088810800C80E1
:1013500001221A7010BD002AFCD0054A05491488E4
:10136000088810800C800022F3E700BF902801203D
:101370008C2801208E28012070B50D46194635B9FC
:10138000094B0A4A0A4840F2FF2122F00FF8C0E94F
:101390000F52084B003A18BF01221A700368BDE8CB
:1013A0007040D3F89030184730450208684502086D
:1013B000B64502089628012008B5094B1B888B42C8
:1013C00003D8084B1B88934205D9074B074A0848A6
:1013D000A32121F0EBFF074B1980074B1A8008BDB2
:1013E0008C2801208E280120FB4502085E46020859
:1013F000B64502089228012094280120034690F85F
:101400007A0018B1586803681B68184770470000D5
:10141000012108B50022084606F070F80A4B186052
:1014200028B90A4B0A4A28210A4821F0BFFF0022A6
:101430000421012006F001F9074B186018B9074B89
:10144000034A2C21F0E708BDC0030020A146020892
:10145000EA46020819470208BC0300205B4702085D
:10146000024B4FF0FF31186806F092B8C00300201D
:10147000014B186806F0B8B8C0030020024B0021E9
:10148000186806F085B800BFC0030020FFF7F0BF62
:1014900003480449006800231A4606F009B900BF52
:1014A000BC0300200400002013B5084C00231A469A
:1014B00001A9206806F02DF920684FF0FF330022C3
:1014C00001A906F026F902B010BD00BFBC03002040
:1014D00003685B6C18470120704703689B6A1847D4
:1014E000FEE740F2EF307047054B0360054B4FF0CD
:1014F0008062C3F88820BFF34F8FBFF36F8F7047B0
:10150000A453020800E100E010B504464FF45A610C
:10151000FFF7EAFF204620F00BFF204610BD000039
:1015200082B0002301930E4B1A6B42F400021A633F
:101530001A6B02F400020192019A1A6942F4000245
:101540001A611A6922F400021A61064B064A1A61EE
:10155000064A5A61064B4FF080629A6002B07047AB
:101560000038024014190020C1170008E1140008D7
:1015700000E100E008B50A2809D8DFE800F006100D
:101580000E080808081010101000022008BD054BB6
:10159000054A0648902121F009FF0020F6E70120C6
:1015A000F4E700BF9D470208B84702080348020855
:1015B00038B50C46887FFFF7DDFFA58AE28A164B17
:1015C0002169586342EA05425A64628BD963521B0F
:1015D0001A642568082D0ED19A611A615862207F1D
:1015E0000E4A42EA0062DA61E2681A620C4A596104
:1015F000D9601A6038BD0022D8611A61E1680A0A10
:10160000480902F4784200F4FC600243C1F3C401CB
:101610000A439A63034AECE700B002400900010064
:10162000012302000123030008B50B280BD8DFE8D3
:1016300000F00612100A0A0A0A0808080808022020
:1016400008BD0520FCE7054B054A06486F2121F03F
:10165000ADFE0020F4E70120F2E700BF9D4702083D
:1016600043480208034802082DE9F04191F81D8023
:101670000C464046FFF7D8FFA77F05463846FFF7E0
:10168000D3FF06463846FFF775FFA18A628B444BAD
:10169000521A1A649A61228B521A1A61E28A5863AA
:1016A00042EA01425A6421696268D963DA602068BB
:1016B000802828D0227F0FD8202867D0402865D0E6
:1016C00004281AD0364B45EA026545F40035B84582
:1016D000DD6161D0334A44E0B0F5807F04D0B0F5DD
:1016E000007FEFD1304800E0304840EA0262DA6122
:1016F000E2681A625E62596132E045EA026242F4CF
:101700000032DA61F6E7A068021DDA62227F45EA5C
:10171000026545F40035DD615E625961017841B1D1
:10172000012921D0224B234A23484FF48D7121F007
:101730003DFEDA69418822F47F42013922F010022D
:1017400042EA0122DA610121154BDA6942F02002F6
:10175000DA61DA699206FCD410229A600029B9D0C5
:10176000164A1A60BDE8F081B2F1FF01DA694088DB
:1017700022F47F4200F1FF3022F0100242EA002200
:1017800042F0100218BF0121DA61DDE745EA02628A
:10179000034B42F40032B4E742F20132E1E700BF0A
:1017A00000B0024001230100090002000A0002000B
:1017B0008D480208A74802080348020801230200D6
:1017C000024B1B68586803685B691847982801201A
:1017D00070B5044625460A4B0C3000266060267220
:1017E000667245F8203B6022294609F0BFF804F5EF
:1017F0005A63EE6024359D42FBD1204670BD00BF88
:10180000A4530208034B1A68D207FCD423229A601F
:10181000704700BF00B002407047000030B50F4C69
:101820002568ED07FCD423250904A56041F00101DA
:101830000225FF2B65636164E0630AD00849656295
:1018400041EA0363E361074B22626061E060236069
:1018500030BDE561039BA363034BF8E700B0024092
:1018600009000100010002000100030030B50E4C28
:101870002568ED07FCD423251204A56042F001027F
:101880000225FF2B65636264E063E16008D01B06FC
:1018900043F00213E361054B65626061236030BD74
:1018A000034BE3610123F9E700B0024001000200AD
:1018B000020002FF30B50B4C2568ED07FCD4232550
:1018C00012041B06A56043F40033022542F0010216
:1018D00065636264E063E160E361034B65626061DC
:1018E000236030BD00B002400100020001207047BB
:1018F0000C2070470C2303FB0100083070470C23B9
:1019000003FB010008307047012070474FF41D7041
:1019100070474FF41D7303FB0100083070474FF40C
:101920001D7303FB01000830704701207047102031
:10193000704700EB01100830704700EB01100830D1
:101940007047084601F05ABA10B5034B03600446CD
:1019500007F039FE204610BD5C54020810B504465D
:10196000FFF7F2FF2046142120F0E2FC204610BDD4
:1019700010B5034B0360044607F025FE204610BD5A
:101980002854020810B50446FFF7F2FF20464FF432
:101990001F7120F0CDFC204610BD000010B5034B98
:1019A0000360044607F00FFE204610BDF453020802
:1019B00010B50446FFF7F2FF2046182120F0B8FCCE
:1019C000204610BD10B5084B0360044600F52A7090
:1019D000FFF7BAFF04F12C00FFF7CAFF04F114006F
:1019E000FFF7DCFF204610BD9054020808B50248FE
:1019F000FFF7E8FF08BD00BF9C12002010B50446A9
:101A0000FFF7E0FF204640F21C4120F091FC204609
:101A100010BD00002DE9F34101F00CF9054601F07D
:101A20000DF900240146234628462246009411F071
:101A3000CDFB274B274A1A60204602F01FFC264D9B
:101A4000264B274A27489A6011F028FB2B68BFF3E2
:101A50005B8FDB0735D4284620F06CFC88B3224C22
:101A6000224B236004F5307604F1140004F12C08B5
:101A700004F52A776060C4F80880E760266107F003
:101A8000A3FD1B4B6361404607F09EFD194BE362CB
:101A9000384607F099FD184BC4F8A83204F52F70AA
:101AA00002F022FD224604F52F71304602F06CFC54
:101AB000304601F0A3F9114821F096FC284620F0A9
:101AC00045FC0F4802B0BDE8F041FFF7E7BB00BF9F
:101AD000FC280120480400209812002068040020FF
:101AE0004C040020080000209C12002090540208A2
:101AF000F4530208285402085C540208ED19000847
:101B0000C4030020704700000148FFF7D5BB00BFA9
:101B1000C403002070B5264E264C274D274B23606A
:101B20003046FFF755FE284616F056FC24480FF0C5
:101B30005DF8244B2448DC6000224FF48071C3E937
:101B4000121222491A86C3E91A12214983F8582031
:101B5000C3E91E011F49C3F880101F491F480B60CD
:101B6000F021C3E90422C3E90622C3E90822C3E93C
:101B70000A22C3E90E22C3E91022C3E91422C3E9F1
:101B800017225A6683F870205A67C3E901650180FD
:101B90001348018013484FF4A0710180124801805E
:101BA00012490A70012283F83420114A1A6070BD6C
:101BB000F40400209412002068040020204502084C
:101BC0004C040020C40300200000010101000001BA
:101BD000000450001A001400982801208C280120CD
:101BE000922801208E28012094280120902801208D
:101BF000B85202080148FFF777BC00BFF404002088
:101C00000020704781807047C18070470181704714
:101C1000418170477047704770477047704710B4F4
:101C2000C4880368121B84885B6D091B12B25DF8BF
:101C3000044B09B218474FF6FF7383814FF0FF330F
:101C400003621368C36110607047002070478B887F
:101C5000838001207047704780F82610704790F805
:101C60002600704710B50022B1F90840B1F90A10FA
:101C7000028042808480C18010BD002202804280A8
:101C80008280C28070470177704780ED080A7047F4
:101C900080F82410704780F82510704701207047A5
:101CA000983070478C307047843070477047704769
:101CB00070470000034B902283F85A2383F858237F
:101CC000704700BF00E100E0094A0A49D3680A48AA
:101CD000C3F30A03013B9BB20B801169C1F30A01F4
:101CE000013901801364536B43F001035363704760
:101CF00000680140BA160020B8160020014BD3F846
:101D0000AC00704700680140024B0122C3F8AC10E0
:101D10005A6270470068014010B52C21044620F03B
:101D200007FB204610BD10B5BC21044620F000FB87
:101D3000204610BD70B5044607F045FF23689D6E30
:101D40000DF0ECFC01462046A8472368054AD3F86D
:101D50008C502046AC460023BDE87040A2F51631F9
:101D6000604700BF00B004D007F014BF07F01EBFEB
:101D700007F0DABE08F049B890F8252012B10368E0
:101D80005B691847704790F825201AB190F8242015
:101D900002B1186070470000034B4FF080629A60F8
:101DA0004FF080729A60704700E100E0084B4FF0FE
:101DB0008062C3F88820BFF34F8FBFF36F8F4FF05F
:101DC0008072C3F88820BFF34F8FBFF36F8F7047C7
:101DD00000E100E070B50023124E8380124B0360D7
:101DE000336893F8582005460AB1D86C00B9986852
:101DF0000368DB6A98473368B0FA80F4D86C6409EA
:101E000030B10368DB6A9847002808BF44F001043A
:101E10002CB9064B064A07482C2121F0C7FA284660
:101E200070BD00BF98280120A4540208E5480208AC
:101E3000434902087C49020870B5254E3568BFF356
:101E40005B8F15F0010540D1304620F073FA002871
:101E50003BD0204C204B256104F13400C4E900350F
:101E6000C4E90255E584A562A5850FF0A4F904F143
:101E700058000AF031FA194BA3652046184B40F878
:101E8000843BFFF7A7FF174BC4F884302433C4F812
:101E90008C304FF4C803C4E928350023C4F8AC30B3
:101EA000C4F8B030C4F8B430C4F8B8300E480F4BA2
:101EB000C4F89050C4F89C50C4F8A850C4F89830A6
:101EC00021F092FA304620F041FA024870BD00BF7E
:101ED000BC160020C01600209C5C0208C4540208F6
:101EE0003C550208505C0208B11C0008305C020836
:101EF00038B5184C23685BB3174B184A1B6C118814
:101F00008B4216D1164B198804F08CF8236893F88D
:101F10006A200025013283F86A2083F87C50FFF79D
:101F2000B7FA206808F0CCFB2846BDE83840FFF738
:101F3000F7B804F077F82468236820461B6A9847AE
:101F4000012384F87C300020BDE83840FFF712B947
:101F500038BD00BF9828012000680140BA16002053
:101F6000B816002007B5064BADF806001B680548FB
:101F700001220DF1060104F0F5FD03B05DF804FB4C
:101F80000C000020C017002008B5642005F0AAFA54
:101F9000FBE7000030B595B0102200210AA821F01F
:101FA00078FC1422002103A821F073FC00241E4BAE
:101FB00001941A6C42F080521A641B6C03F0805337
:101FC0000193019B194B02941A6842F440421A6033
:101FD0001B6803F4404302930122029B4FF48033B9
:101FE000CDE9082302254FF480030821CDE90E53E3
:101FF0004FF4B473CDE9101308A80423139312957A
:1020000004F068F804F02CF80F23CDE903354FF401
:10201000A0504FF48053CDE90603052103A8059491
:1020200004F034FA15B030BD0038024000700040B2
:1020300080B59CB002F08EFF21F09AFA02F064FFA6
:10204000FFF7A8FF142200210FA821F022FC002492
:10205000C74B01941A6BC748C74DDFF8508342F055
:1020600010021A631A6B02F010020192019A029494
:102070001A6B42F020021A631A6B02F020020292DD
:10208000029A03941A6B42F080021A631A6B02F0F0
:1020900080020392039A04941A6B42F004021A63BA
:1020A0001A6B02F004020492049A05941A6B42F02F
:1020B00001021A631A6B02F001020592059A069456
:1020C0001A6B42F002021A631A6B02F002020692C5
:1020D000069A07941A6B42F040021A631A6B02F0D8
:1020E00040020792079A08941A6B42F008021A639A
:1020F0001A6B02F008020892089A09941A6B42F0CF
:1021000001021A631B6B03F00103224609933C2171
:10211000099B03F07FF999480122022103F07AF923
:1021200022469648042103F075F9224694484FF45C
:10213000405103F06FF90126202392480FA9CDE901
:102140000F36CDE9114403F07BF83C23CDE90F367F
:102150008848119403230FA90227129303F070F803
:1021600086480FA9CDE90F76CDE9114403F068F850
:10217000042382480FA9CDE90F36CDE9114703F0BA
:102180005FF80FA94FF440537D48CDE90F36CDE9F4
:10219000114703F055F87C487C4B036002F046FF82
:1021A000DFF80CE27A4B2C62C5E900E328464FF4D5
:1021B0008043C5E90434C5E90244C5E9064403F097
:1021C00037FB1021284603F07BFD21462846714D40
:1021D00003F095FD4FF48273C5E900834FF4007955
:1021E0001823C5E9069328460A23C5E90244C5E930
:1021F0000444C5E90844AC62EB6204F057FC8F2349
:10220000224639465D488DF82C308DF83C4003F06D
:1022100001F932464FF47A730BA9284604F0A2FC68
:102220004FF47A7332460FA9284604F047FE32462F
:1022300039465248584D03F0EDF89DF83C30D32B09
:1022400004BF564B1E70564B0126C5E900361022BE
:1022500040230024C5E904234FF4C073C5E90634C4
:102260004FF40063C5E908344FF4005302274FF0E0
:102270000409AB624FF0030A07230FA92846CDE9F2
:102280000F73CDE911934FF00808C5E90249CDE974
:1022900013A7159704F0EEFA4FF6FF720BA9284624
:1022A000CDE90C860A940B960E9404F003FB30469D
:1022B00002F056FE4FF6FF720BA92846CDE90B78C7
:1022C000CDE90D6404F0F6FA4FF6FF720BA928462B
:1022D000CDE90BA8CDE90D9404F0ECFA4FF40C73A2
:1022E0000A930A9B0E934FF6FF720BA92846CDE97D
:1022F0000B980D9604F0DEFA40F26A51284604F07D
:10230000F7FA342221460FA821F0C3FA254D264BB7
:102310002C61C5E900340923C5E905361D23C5E94B
:10232000073A40F20D1140F24313C5E9091340F298
:10233000171040F24713C5E90B032846C5E90244CC
:10234000AC8685F8364003F075FDFF214FF4806CB4
:10235000F022CDE914140521CDE916C14FF4A07384
:102360000FA9CDE91024CDE918422846224621E0E4
:102370000038024000100240C0180020000802404F
:10238000000C0240000002405419002000300240BE
:10239000A0860100C01700208C17002080170020A5
:1023A000400100A0181800200068014000500140C2
:1023B000005C00401C4D1A93CDE912370F94ADF824
:1023C0006C408DF86E4003F000FE184B2B601B68CC
:1023D00098472B68164DDB689847164B2846C5E989
:1023E0000034C5E90274C5E90A47C5E90C4402F0A6
:1023F0002DFE3146284602F0DFFEFEF7C5FDFEF752
:10240000C2FD04F0FFFF0C4A0C48214605F026F8F7
:102410000B4B0C4A186021460B4805F01FF80B4B7C
:10242000186005F001F8FEE77C170020140000207A
:102430001419002000B00240A4550208891F0008AA
:102440008817002080550208970F00088417002085
:10245000704770477FB5094B8DF817201B680293B2
:102460000DF117020123009201930A460146044828
:1024700003F086FA07B05DF804FB00BF10000020EF
:10248000C01800207FB500238DF81730084B1B685B
:1024900002930A4601230DF11701009101930146B1
:1024A000044803F0FDFA9DF8170007B05DF804FB3F
:1024B00010000020C01800201FB5084C24680092AE
:1024C000CDE901340A4601230146054803F0E8FA44
:1024D000003818BF012004B010BD00BF100000205C
:1024E000C018002002F03CBD10B5064C002220466A
:1024F000042102F08FFF20460122BDE81040042194
:1025000002F088BF0008024038B50B4D0446012296
:102510000A484FF4005102F07DFF002204212846B2
:1025200002F078FF2046FFF71DFD28460122BDE896
:102530003840042102F06EBF00080240000C024047
:1025400038B50B4D044600220A484FF4005102F002
:1025500061FF00220421284602F05CFF2046FFF7BD
:1025600001FD28460122BDE83840042102F052BF97
:1025700000080240000C0240F7B5144E144F054607
:102580000C4630460022042102F044FF00224FF4A2
:102590000051384602F03EFF2846FFF7E3FC0D4BA2
:1025A0000D481B68224601A904F088FC3846012228
:1025B0004FF40051019C02F02DFF3046012204210E
:1025C00002F028FF204603B0F0BD00BF0008024023
:1025D000000C02400C000020C017002002F0C0BC1C
:1025E0000268034B9A4201D102F0A8BC704700BFB9
:1025F000001000407047000082B00E4B0022009295
:10260000596C41F480415964596C01F48041009146
:1026100000990192196C41F0805119641B6C03F010
:1026200080530193019B0F216FF0010002B002F073
:10263000BDBC00BF003802400268094B9A4282B01C
:102640000BD100230193074B1A6B42F480521A639B
:102650001B6B03F480530193019B02B0704700BFD2
:10266000003002400038024007B50F4B02689A4222
:1026700016D10022A3F5F0430192196B41F4000139
:1026800019631B6B03F40003019305215A20019B7E
:1026900002F08CFC5A2003B05DF804EB02F0B8BCE9
:1026A00003B05DF804FB00BF00B002402DE9F04329
:1026B000044689B01422002103A821F0EAF8226818
:1026C000244B9A4243D1244C244800250095236B87
:1026D00043F004032363236B03F004030093009B84
:1026E0000195236B43F001032363236B03F0010384
:1026F0000193019B4FF012094FF400734FF0010852
:102700000327042603A9CDE90339CDE905870796F8
:1027100002F096FD4FF480731148079603A9CDE9A6
:102720000339CDE9058702F08BFD0295236C43F454
:1027300000032364236C03F400030293029B236AC7
:1027400043F400032362236A23F40003236209B0E5
:10275000BDE8F083005C0040003802400008024001
:1027600000000240F0B599B004461422002107A8E9
:1027700021F08FF830220DEB0200002121F089F8C2
:1027800022685E4B9A4240F0B78008230C93C02326
:102790001093042312930CA84FF40033159303F005
:1027A0003DFF08B1FFF726FF554B56480024009423
:1027B0005A6C42F080625A645A6C02F08062009255
:1027C000009A01941A6B42F020021A631A6B02F00D
:1027D00020020192019A02941A6B42F001021A63DC
:1027E0001A6B02F001020292029A03941A6B42F0F1
:1027F00002021A631A6B02F002020392039A049413
:102800001A6B42F040021A631A6B02F04002049203
:10281000049A05941A6B42F004021A631A6B02F0D0
:1028200004020592059A06941A6B42F008021A6394
:102830001B6B03F00803069302250E26069B0B96DE
:102840004FF4806307A9CDE90735CDE9094502F0CA
:10285000F7FC41F658032C480B9607A9CDE907353C
:102860000927CDE9094502F0EBFC032327480B9724
:1028700007A9CDE90735CDE9094502F0E1FC4FF4A0
:10288000706322480B9607A9CDE90735CDE90945C4
:1028900002F0D6FC4FF40C631D480B9607A9CDE956
:1028A0000735CDE9094502F0CBFCC02319480B964A
:1028B00007A9CDE90735CDE9094502F0C1FC082398
:1028C00015480B9607A9CDE90735CDE9094502F072
:1028D000B7FC4FF4A0530E480B9707A9CDE9073575
:1028E000CDE9094502F0ACFC58202246052102F052
:1028F0005DFB582002F08CFB19B0F0BD0068014070
:10290000003802400014024000000240000402406F
:102910000018024000080240000C024010B50446B6
:1029200088B01422002103A820F0B3FF2268144BC2
:102930009A4223D103F56843002101915A6C114852
:1029400042F480125A645A6C02F480120192019A85
:1029500002911A6B42F020021A631B6B03F02003F2
:102960000293029B4FF4607202230321CDE90323FB
:102970000523CDE9061303A902F062FC08B010BDDF
:1029800000500140001402402DE9F04186B00023C0
:1029900003932B4B1C68002C4FD14FF00108C3F858
:1029A0000080284B00949A6B274842EA08029A63F9
:1029B0009B6B03EA08030093022703260C25009B68
:1029C00001A94FF63F03CDE90137CDE9046502F0D7
:1029D00037FC1E48059501A9CDE90187CDE90346DD
:1029E00002F02EFC48F233131948059501A9CDE9F0
:1029F0000137CDE9034602F023FC4FF683731548F7
:102A0000059501A9CDE90137CDE9034602F018FC8F
:102A10004CF203731048059501A9CDE90137CDE9C2
:102A2000034602F00DFC60230C48059501A9CDE991
:102A30000137CDE9034602F003FC06B0BDE8F081A2
:102A40005C190020003802400014024000080240D7
:102A50000018024000100240000C02400004024036
:102A600070B588B000230293204B1A6C42F010021C
:102A70001A641B6C03F010030293054601A903A816
:102A8000029B03F0ADFD069B4BBB03F099FD184E76
:102A9000184B336040F2E733F360174BB0FBF3F3AE
:102AA000013B7360304600233361B360B36104F0CF
:102AB000D5FB044680B9304604F0A6FA044658B95E
:102AC000362002F0A5FA0F2D0DD8224629463620D1
:102AD00002F06CFA094B1D60204608B070BD03F08F
:102AE0006FFD4000D3E70124F6E700BF0038024045
:102AF000601900200010004040420F007C000020C0
:102B00007047FEE7FEE7FEE7FEE77047014804F086
:102B1000B9BA00BF60190020014803F0F9B900BF3D
:102B200018180020014802F0BDBA00BF1419002097
:102B30000120704708B520F04FFF162303604FF0C7
:102B4000FF3008BD08B520F047FF16230360FEE7FD
:102B500070B50D4614460E46731B9C4201DC2046A0
:102B600070BDAFF3008006F8010BF5E770B50D46B8
:102B700014460E46731B9C4201DC204670BD16F8BD
:102B8000010BAFF30080F5E74FF0FF3070474FF4D3
:102B900000534B60002070470120704700207047B1
:102BA0000A4A116808B5034609B909491160106855
:102BB000694603448B4206D920F00EFF0C230360C4
:102BC0004FF0FF3008BD1360FCE700BFA8190020DC
:102BD000D8350120704708B5062921D8DFE801F073
:102BE00004080C1014181C0001F094FB006808BDC8
:102BF00001F090FB4068FAE701F08CFB8068F6E793
:102C000001F088FBC068F2E701F084FB0069EEE7A1
:102C100001F080FB4069EAE701F07CFB8069E6E7B0
:102C20000020E4E710B5042104461FF081FB204694
:102C300010BD000000487047DC5502080B207047AB
:102C400013B5002451B1036801948DF8034001AA23
:102C50009C680DF10303A04702B010BD0846FBE7D6
:102C6000C0897047008A7047C08870478088704765
:102C7000807A00F07F007047807AC009704700209A
:102C8000704700009FED010A704700BF0000000080
:102C9000704710B5082104461FF04AFB204610BDBE
:102CA0007047704700F598730868496803C3704718
:102CB000704770474160704770477047064BC0F8D7
:102CC0004C310023C0F8503100F5A273C0F8480120
:102CD000C0F84031704700BFF5300008012303728F
:102CE0007047704710B4C26841685410034601EB46
:102CF0006200D20748BF0A599B685DF8044B48BF81
:102D0000D35818470346406830B19A681AB9D86852
:102D100000F0010070470120704710B50C210446F7
:102D20001FF006FB204610BD10B5102104461FF011
:102D3000FFFA204610BD10B54FF4AE7104461FF0E7
:102D4000F7FA204610BD10B50CF0E8FC0368BDE8AA
:102D50001040DB6B184710B50446D0F8400158B15D
:102D60000368DB68984738B1D4F8400103689B6872
:102D700098470023C4F8403110BD0000044B1B6885
:102D800093F858200AB1D86C00B99868704700BF12
:102D900098280120F8B5174604460E460CF080FD31
:102DA000124B1C60124B2360124B0025C4E95135B5
:102DB000114BC4E953551868036801219B68C4E9A5
:102DC0004F55C4E955769847284601F057FAFFF762
:102DD000D5FF17F0AAF9FFF7D1FF17F021FAFFF797
:102DE000CDFF17F029FA2046F8BD00BFEC280120DE
:102DF000E8560208D056020898280120064BC0F871
:102E00004C310023C0F8503100F5A273C0F84801DE
:102E1000C0F84031704700BFF5300008064BC0F8DD
:102E20004C310023C0F8503100F5A273C0F84801BE
:102E3000C0F84031704700BFAD2F0008064BC0F806
:102E40004C310023C0F8503100F5A273C0F848019E
:102E5000C0F84031704700BF652E000803685B6A08
:102E6000184700002DE9F14FD0E9556A0746B068D0
:102E700003681B6A9847B0F5007F05D2434B444A6C
:102E8000A321444820F092FA706803681B6A9847AF
:102E90000F2803D8404B3E4AA421F2E7F0680368AC
:102EA0001B6A98470B2803D83C4B394AA521E8E711
:102EB0000CF034FCDFF8EC9004300CF054FCD9F842
:102EC000000010B10368DB689847D9F8000010B122
:102ED00003681B689847DFF8D080D8F8000010B16D
:102EE00003685B699847D7F83C0110B103685B68D9
:102EF0009847D8F8000010B103681B689847D7F8C6
:102F00003C0110B103689B689847F0680021FFF707
:102F1000A5FF4FF0000B224BC0F804B0044680F828
:102F200008B00360B068036859465B6A9847054675
:102F300001F064FA7068036859465B6A984729464D
:102F4000064601F039FA331DC7F83C61C9F8004064
:102F5000C8F80050CAF800302B68C6F808A0284608
:102F6000DB68EE639847336830461B689847214614
:102F700028460EF083FD236820461B699847236886
:102F80005B69204601B0BDE8F04F1847F3490208DD
:102F9000814A0208614B0208A84B02084B4C020808
:102FA0003C570208E0280120DC2801202DE9F14FE0
:102FB000D0E9556A0746B06803681B6A9847B0F5C0
:102FC0001D7F05D2434B444AA321444820F0EEF92B
:102FD000706803681B6A98470F2803D8404B3E4A25
:102FE000A421F2E7F06803681B6A98470B2803D80E
:102FF0003C4B394AA521E8E70CF090FBDFF8EC9058
:1030000004300CF0B0FBD9F8000010B10368DB68A5
:103010009847D9F8000010B103681B689847DFF89B
:10302000D080D8F8000010B103685B699847D7F8E2
:103030003C0110B103685B689847D8F8000010B1F4
:1030400003681B689847D7F83C0110B103689B6878
:103050009847F0680021FFF701FF4FF0000B224B6B
:10306000C0F804B0044680F808B00360B068036894
:1030700059465B6A9847054601F07AFA706803681A
:1030800059465B6A98472946064601F03FFA331DC8
:10309000C7F83C61C9F80040C8F80050CAF80030D1
:1030A0002B68C6F808A02846DB68EE6398473368AB
:1030B00030461B689847214628460EF0DFFC2368FF
:1030C00020461B69984723685B69204601B0BDE82C
:1030D000F04F1847F3490208EE4C0208614B020812
:1030E000A84B02084B4C02083C570208E02801207C
:1030F000DC2801202DE9F14FD0E9556A0746B06878
:1031000003681B6A9847B0F5C87F05D2434B444A11
:10311000A321444820F04AF9706803681B6A984765
:103120000F2803D8404B3E4AA421F2E7F068036819
:103130001B6A98470B2803D83C4B394AA521E8E77E
:103140000CF0ECFADFF8EC9004300CF00CFBD9F842
:10315000000010B10368DB689847D9F8000010B18F
:1031600003681B689847DFF8D080D8F8000010B1DA
:1031700003685B699847D7F83C0110B103685B6846
:103180009847D8F8000010B103681B689847D7F833
:103190003C0110B103689B689847F0680021FFF775
:1031A0005DFE4FF0000B224BC0F804B0044680F8DF
:1031B00008B00360B068036859465B6A98470546E3
:1031C00001F086F97068036859465B6A984729469A
:1031D000064601F05BF9331DC7F83C61C9F80040B1
:1031E000C8F80050CAF800302B68C6F808A0284676
:1031F000DB68EE639847336830461B689847214682
:1032000028460EF03BFC236820461B69984723683C
:103210005B69204601B0BDE8F04F1847F34902084A
:10322000C04D0208614B0208A84B02084B4C020833
:103230003C570208E0280120DC2801207047704735
:1032400070477047704730B5036885B06D4601819F
:10325000D3F88430014604462846984795E807008D
:103260003C3484E8070005B030BD30B5036885B054
:103270006D464181D3F8843001460446284698477C
:1032800095E807003C3484E8070005B030BD002213
:10329000028042808280C280704780F8361070477A
:1032A00070B5036804461B6B15469847236829468A
:1032B00020465B6EBDE87040184700207047806C68
:1032C0007047704770477047704730B4C2684468B1
:1032D0005510034604EB6200D20748BF62599B6851
:1032E00030BC48BFD35818470346406830B19A688D
:1032F0001AB9D86800F0010070470120704710B576
:103300004C2104461FF014F8204610BD10B51021C2
:1033100004461FF00DF8204610BD10B54FF4FC71A7
:1033200004461FF005F8204610BD08B5FEF724FD41
:1033300008BD0000036870B55E6B124B1B68044645
:103340008DB22BB9104B114A6C21114820F02EF888
:103350001049828D0988914203D80F4B0B4A6D2189
:10336000F3E713F812200D4B1B6853F82200036893
:103370001B6B9847291A3346204609B2BDE87040B6
:10338000184700BFF02801208C4E0208CE4E0208DC
:10339000094F0208F4280120504F0208F8280120A4
:1033A000E030884208B505D10CF0B8F9BDE8084016
:1033B000FFF734BD08BD00224FF0FF31C0E9002106
:1033C0008260704770B5036804461B6B15469847CA
:1033D0002368294620465B6BBDE87040184770B5EE
:1033E00004461D46BDF91060FFF7ECFF236829462F
:1033F00020469B6B9847236831462046DB6BBDE82F
:1034000070401847094A02604FF48071002281849D
:10341000FF21C0E90122C0E90322C0E90522C0E979
:10342000072280F826108262704700BFF05D020814
:103430004FF4807181840D4901600D4981624FF61E
:10344000FF7181854FF47F01002241634FF0FF310E
:10345000C0E90122C0E90322C0E90522C0E9072230
:10346000C0E9101202630287C2637047605D020800
:10347000C0560208F8B5194B018F1B888B420646CF
:103480002AD9174B1B682BB9164B174A17486C21C2
:103490001FF08CFF13F81120154B1B6853F82250B6
:1034A000144B186800F026FF2B6807469B6B2846D4
:1034B00098472B6804469B6C3946284698472B68EA
:1034C00014FB00F45B6A394628469847A4B22318D7
:1034D0001BB2A6F84630F8BD0023FAE7F428012015
:1034E000F02801208C4E0208CE4E0208094F020837
:1034F000F8280120FC2801202DE9F04F04468FB068
:10350000A04600250EF00EF9924BE56348F8403BCB
:1035100004F16C0A404604F19807FFF773FF504628
:1035200004F1E006FFF76EFF3846FFF781FF3046F3
:1035300009F048FD04F594731846DFF848920393A8
:10354000FFF776FF04F5BA73C4F828911846C4F85B
:1035500070510493FFF76CFF7F4BC4F87491C4E97A
:103560007A347E4BC4F8BC51C4E97C354FF4A07367
:1035700004F1040B2A4640464FF07F490093294648
:10358000F023FFF72CFF41465846C4F8689006F038
:103590002FF84FF4A0732A46504600932946F02393
:1035A000FFF71DFF6E4BC4F894305146584606F0A5
:1035B0001FF80DF11808662238460521FFF702FFB3
:1035C00039464046C4F8C890A4F8CC5008F082FFB1
:1035D00098E8070004F1D40383E80700DFF8A8A106
:1035E000CDF830A0072338460CA9ADF8343009F0E7
:1035F00019FA3946584605F0FBFF3046B42221211E
:10360000FFF7E0FE03270CAA4FF004030BA9304696
:10361000ADF83030ADF82C7009F061FA0623304671
:10362000A4F81831FFF726FF4FF0FF33C4E9473302
:1036300004F5F4733146C4F80831584605F0D8FF54
:103640001E239122039800932D21D523FFF7C7FE57
:10365000D4F828310399D3F88430C4F858914046FF
:10366000A4F85C51984798E8070004F5B2733D4E02
:1036700083E8070004F5E073059333682BB93A4BF0
:103680003A4A60213A481FF091FE3A4B1B88042BBE
:1036900003D8394B354A6121F4E7DFF8F090042173
:1036A000D9F8000000F026FE344A03460A210598A6
:1036B0000FF0E6FC059B0398C4F870310CA90523B4
:1036C000ADF83430CDF830A009F0ACF90399584684
:1036D00005F08EFF1B232A46049800932121E12345
:1036E000FFF77DFE264BC4F8A431D4F87431049959
:1036F000D3F88430A4F8A8514046984798E80700CA
:1037000004F5D87383E80700336804F5EA75002BE5
:10371000B5D0184B1B88022BBBD9D9F80000022169
:1037200000F0E8FD154A03460A2128460FF0A8FCE0
:103730000498C4F8BC510CA9CDF830A0ADF8347091
:1037400009F070F95846049905F052FF20460FB071
:10375000BDE8F08F08580208F0570208A1330008AE
:10376000EFF781FFF02801208C4E02088E4F0208EF
:10377000094F0208F4280120504F0208D94F0208CF
:103780000000FFFF60570208C0560208FC28012015
:10379000406A7047806A704770478A880B8810B506
:1037A000D20A4C88C1699BB251F8220043EA044313
:1037B000184410BD10B50446BAB1107B68B1537BF4
:1037C000D27A1B0203F4E0631A43236A03EB8203F9
:1037D0001A888A4202D193F9020010BD05D8013837
:1037E00080B204330028F3D1F7E70020F5E710B5E5
:1037F0002C2104461EF09CFD204610BD30B58BB038
:103800000446BDF860500895BDF85C5007959DF8DA
:10381000505006959DF84C5005959DF848500495DC
:103820009DF8445003959DF8405002959DF83C50FA
:103830000195BDF8385000950DF07AFD064B2360D8
:10384000159BE361169B2362199B63621A9BA3621B
:1038500020460BB030BD00BF3C580208704770478F
:10386000704730B4C26844685510034604EB6200E8
:10387000D20748BF62599B6830BC48BFD35818472D
:103880000346406830B19A681AB9D86800F0010060
:1038900070470120704710B5102104461EF048FD06
:1038A000204610BD10B54FF4C87104461EF040FD0F
:1038B000204610BD9830884208B505D10BF02EFF88
:1038C000BDE80840FFF7AABA08BD00000022C0E921
:1038D0000122C0E90322C0E90522C0E907224FF412
:1038E00080728284014A0260704700BFA4580208B7
:1038F00038B5262204460D4600211FF0CAFF204697
:10390000FFF7E4FF064B23602B88E384FF23204668
:1039100084F82830294609F014FA204638BD00BF43
:10392000585E02082DE9F04F04468DB0A1460025EF
:103930000DF0F8FE694BE56349F8403B4846FFF758
:1039400061FD04F16C0304F19808184604F1E007E6
:103950000393FFF757FD404609F034FB2946262222
:1039600038461FF096FF3846FFF7B0FF5C4BC4F8AF
:10397000E0305C4BC4F8083104F594724FF47F03D7
:103980004FF0FF3A4FF6FF7604F5AA7BC4F81431E6
:10399000A4F80C610AA91046C4E948A5C4F810515E
:1039A000A4F81851C4F81C510292ADF828A0FFF7F2
:1039B0009FFF0AA95846ADF82860FFF799FF4A4BC8
:1039C000C4E96034494B4FF4A072C4E9623529461A
:1039D0000092F0232A464846FFF701FD261D4FF0CE
:1039E0007F42A2664946304605F002FE4FF4A072BF
:1039F0000398009229462A46F023FFF7F0FC3C4B3F
:103A0000C4F894300399304605F0F2FD294640464B
:103A1000DC22FFF7D7FC4FF001090AAA022309A90B
:103A20004046ADF82830ADF8249009F058F84046EB
:103A3000A4F8D090FFF71EFD04F5C073C4F8C030A1
:103A400041463046C4E935AA05F0D2FD38462E225B
:103A50000521FFF7B7FC0DF110084FF07F42C4F8C5
:103A6000102139464046A4F8145108F033FD98E877
:103A7000070004F58E7383E807001A4B0A930AA91E
:103A80003846ADF82C5008F0CDFF3946304605F0E9
:103A9000AFFD782202981B21FFF794FC09230298BE
:103AA000ADF828300AA909F04CF90299304605F022
:103AB0009FFD78225846A721FFF784FC08230AA916
:103AC0005846ADF8283009F03CF93046594605F023
:103AD0008FFD20460DB0BDE8F08F00BF24590208CD
:103AE000605D0208C05602080C590208B53800088B
:103AF000EFF781FF704770477047704730B4C26876
:103B000044685510034604EB6200D20748BF62596F
:103B10009B6830BC48BFD35818470346406830B153
:103B20009A681AB9D86800F0010070470120704700
:103B300010B5102104461EF0FBFB204610BD10B549
:103B40004FF40B7104461EF0F3FB204610BD08B580
:103B50000BF0E4FDBDE80840FFF770B900F1F0029A
:103B60008A4202D103681B6B184770472DE9F04F5A
:103B7000044691B0A14600250DF0D4FDA14BE563AC
:103B800049F8403B4846FFF73DFC04F16C031846FA
:103B90000693FFF737FC04F1980318460793FFF7E5
:103BA00031FC04F1C40304F1F0084FF6FF76184627
:103BB0000EA9039304F59C77ADF83860FFF798FEE3
:103BC000404609F0FFF92622294638461FF061FEDB
:103BD0003846FFF77BFE8C4BC4F860314FF47F030F
:103BE000C4F86C31894BC4F838314FF0FF3A04F512
:103BF000C273C4E95EA5A4F86461C4F86851A4F86E
:103C00007051C4F87451C4F880510EA91846049339
:103C1000ADF838A0FFF76CFE04F5D87318460EA96E
:103C200004F5EE7B0593ADF83860FFF761FE0EA951
:103C30005846ADF83860FFF75BFE754BC4E9873432
:103C4000744BC4E989354FF4A0732A462946009382
:103C50004846F023FFF7C3FB261D4FF07F43A366C2
:103C60004946304605F0C4FC4FF4A0732A46294665
:103C700006980093F023FFF7B2FB674B0699C4F850
:103C80009430304605F0B4FC8223BE2229460798C2
:103C90000093F023FFF7A3FB604BC4F8C0300799F3
:103CA000304605F0A5FC9222039840F22D11FFF753
:103CB00089FB06230398ADF838300EA909F041F8C6
:103CC0000399304605F094FC29464046E622FFF76A
:103CD00079FB0EAA0DA94046ADF83450ADF8385026
:103CE00008F0FDFE08234046A4F82831FFF7C2FB88
:103CF00004F507734146C4F818313046C4E94BAAAD
:103D00004FF0210805F074FC2A46952355213846CA
:103D1000CDF80080FFF763FB4FF07F43C4F86831B4
:103D2000D4F83831A4F86C5108AD2846D3F8843063
:103D30003946984795E8070004F5BA7383E8070009
:103D4000374B1B6804F502752BB9364B364A602198
:103D500036481FF02BFB364B1B88092B03D8354BFD
:103D6000314A6121F4E7344B0921186800F0C2FAA6
:103D7000324A03460A2128460FF082F9224BC4F842
:103D800080510E930EA90A233846ADF83C3008F056
:103D900049FE3946304605F02BFC42460498F02196
:103DA000FFF710FB05250498ADF838500EA908F070
:103DB000C8FF0499304605F01BFC3F2205984FF4DC
:103DC000B971FFF7FFFA0598ADF838500EA908F061
:103DD000B8FF0599304605F00BFC8F225846182194
:103DE000FFF7F0FA09230EA95846ADF8383008F06D
:103DF000A8FF3046594605F0FBFB204611B0BDE850
:103E0000F08F00BF70590208C056020860570208C0
:103E1000585902085D3B0008EFF781FF2B2321FF73
:103E2000F02801208C4E02088E4F0208094F02082C
:103E3000F4280120504F0208FC280120D94F020825
:103E40007047000030B5164D2C6814F001048FB097
:103E5000BFF35B8F21D128461EF06CFAE8B13F23F7
:103E60000993104B0893104B104911480A94CDE95F
:103E7000064301220423CDE90332172300930F22C6
:103E8000CDE90B44CDE901440594FFF7B7FC09489F
:103E90001FF0AAFA28461EF059FA05480FB030BDA7
:103EA000AC19002034890208648902082C850208B4
:103EB000B0190020413E00087047000030B5174D92
:103EC0002C6814F001048FB0BFF35B8F23D1284618
:103ED0001EF030FAF8B13F230993114B0893114BB0
:103EE00007930223CDE9053301220423CDE90332F0
:103EF0001D230D4900930A221F23CDE90B44CDE970
:103F000001440A480A94FFF779FC09481FF06CFA4B
:103F100028461EF01BFA05480FB030BDDC19002002
:103F2000388902086889020800860208E019002022
:103F3000B93E00087047000030B5164D2C6814F0EB
:103F400001048FB0BFF35B8F21D128461EF0F2F938
:103F5000E8B13F230993104B0893104B07930123BB
:103F6000CDE9054304930423CDE9024316230C490C
:103F700000931222CDE90B440A480A940194FFF7FA
:103F80003DFC09481FF030FA28461EF0DFF90548CD
:103F90000FB030BD0C1A0020508902086C8902084D
:103FA0008C860208101A0020353F00087047000078
:103FB00030B5164D2C6814F001048FB0BFF35B8F41
:103FC00020D128461EF0B6F9E0B13F230993104BEB
:103FD0000893104B104911480A940122CDE9064379
:103FE0000423CDE903320A230093CDE90B44CDE944
:103FF00001440594FFF702FC09481FF0F5F9284633
:104000001EF0A4F905480FB030BD00BF3C1A0020D7
:10401000548902087089020888870208401A002023
:10402000AD3F00087047000030B5174D2C6814F004
:1040300001048FB0BFF35B8F22D128461EF07AF9BE
:10404000F0B13F230993114B0893114B11491248CA
:104050000A94CDE9064301220423CDE90332142357
:1040600000931B221823CDE90B44CDE901440594AC
:10407000FFF7C4FB09481FF0B7F928461EF066F9A0
:1040800005480FB030BD00BF6C1A002058890208E7
:104090007489020898870208701A002025400008D9
:1040A0007047000030B5164D2C6814F001048FB035
:1040B000BFF35B8F20D128461EF03CF9E0B13F23CF
:1040C0000993104B0893104B104911480A94012290
:1040D000CDE906430423CDE9033216230093CDE94D
:1040E0000B44CDE901440594FFF788FB09481FF014
:1040F0007BF928461EF02AF905480FB030BD00BFF5
:104100009C1A00205C890208788902081489020838
:10411000A01A0020A14000087047000030B5164DDD
:104120002C6814F001048FB0BFF35B8F20D12846B8
:104130001EF000F9E0B13F230993104B0893104B98
:10414000104911480A940122CDE906430423CDE920
:10415000033228230093CDE90B44CDE901440594B3
:10416000FFF74CFB09481FF03FF928461EF0EEF818
:1041700005480FB030BD00BFCC1A0020608902088E
:104180007C89020824890208D01A002019410008FD
:1041900000207047002070470EB403B503AB002128
:1041A00053F8042B01930CF041FB02B05DF804EBD3
:1041B00003B070470CB407B504AB53F8042B01935C
:1041C0000CF034FB03B05DF804EB02B07047000064
:1041D000436C10B5044673B3038F2BB9184B194ABF
:1041E000C52119481FF0E2F8C38E00EB43035B8C36
:1041F0000BB30EF09CF9238F012B03D8134B144AF9
:10420000CB21EEE7E28E531C9BB2092B194688BFE7
:10421000A3F10A0104EB410140F63F10498C8142B1
:1042200009D10A2B04EB420228BF002304EB43030D
:10423000508C588451842046BDE810400EF07AB866
:10424000DC4F0208E54F020890500208DA500208DD
:10425000E85002080EF035B810B586B002AC84E81C
:1042600006001A460AAB05930193099B0093214669
:10427000089B0AF0F1FD06B010BD000038B518BB70
:10428000124B13481C681349B4B1226822440260DF
:10429000626822440A60A26814440F4B00221A800C
:1042A00000F038F8054600F033F80C4B1C600C4B5E
:1042B0001D600C4B188007E00B4B03600B4B0B6031
:1042C0000B4B1C68002CE8D138BD00BF081B002038
:1042D000001B0020FC1A0020041B0020F0280120F5
:1042E000F8280120F4280120AC89020880890208FE
:1042F000648A0208044B1B6853F82100034B1B68B7
:1043000003EB4000704700BFFC1A0020001B002098
:104310000B207047004870470C1B002010B5FFF7BA
:1043200083FE0A4C2060FFF7F9FE6060FFF740FE55
:10433000A060FFF787FDE060FFF7C0FD2061FFF799
:10434000FBFD6061FFF7AEFEA06110BD0C1B0020FD
:1043500010B5002404600C6014601C6010BD704730
:1043600010B54FF4AE7104461DF0E2FF204610BDBB
:1043700010B50446D0F8580100F0B9F82046BDE861
:1043800010400BF04DBA000010B50446FEF702FDD8
:10439000014B2360204610BDAC5902087047043819
:1043A0007047704710B5102104461DF0C1FF20462C
:1043B00010BDA0F10400F5E700228260024A02600D
:1043C00018324260C1607047005A0208704700000E
:1043D00010B5034B03600446FEF775FF204610BD81
:1043E000285A020810B50446FFF7F2FF20464FF4A2
:1043F00000711DF09DFF204610BD000010B5044661
:10440000FFF77AF8034B23600023C4F8F831204605
:1044100010BD00BF285A020838B50446FEF754FF05
:10442000104B114A114D1B681268C4F8F831C4F8DA
:10443000FC210A212A4604F5E0700EF021FE04F565
:1044400094700CF01DFBD4F8FC312A4604F5EA7098
:104450000A210EF015FE04F5BA70BDE838400CF0E4
:104460000FBB00BF2C1B0020281B0020BA510208E4
:10447000704704387047704710B5102104461DF08E
:1044800057FF204610BDA0F10400F5E7002282602E
:10449000024A026018324260C16070475C5A0208EA
:1044A0007047000010B5034B03600446FFF7D7F9CF
:1044B000204610BD845A020810B50446FFF7F2FFEB
:1044C00020464FF4C8711DF033FF204610BD000098
:1044D00010B50446FFF726FA014B2360204610BDB5
:1044E000845A0208FFF7BCB9002202607047704787
:1044F000704704387047704710B5102104461DF00E
:1045000017FF204610BDA0F10400F5E700228260ED
:10451000024A026018324260C1607047B85A02080D
:104520007047000010B5034B03600446FFF7E4FA40
:10453000204610BDE05A020810B50446FFF7F2FF0E
:1045400020464FF41D711DF0F3FE204610BD90F87B
:10455000383263B901226FF00E0180F83822C0F8BA
:10456000301280F86422C0F8683280F870327047E8
:1045700010B50446FFF7FAFA104B2360012200231E
:10458000C4F834220A22C4E98B33C4E98F33C4E966
:10459000943384F83832C4F84432C4F8583284F87A
:1045A0005E32C4F8603284F86432C4F86832C4F809
:1045B0006C2284F87032204610BD00BFE05A020819
:1045C00010B50446FFF799FAB4F9E621B4F99E3024
:1045D0009B1AC4F82C32A4F8E231174B1B88C4F89C
:1045E0003C329223C4F840321EF0F0FF032390FBCC
:1045F000F3F303EB4303C01AD4F83C32A4F8C830F9
:10460000D4F84032A4F8CA30FF220023C4E994331E
:10461000043084F85E32C4F86032A4F85C224FF0B3
:104620007F43C4F84402C4F8683104F59C70BDE8C7
:1046300010400CF025BA00BF8C28012090F83832C9
:104640002DE9F74304461BB300F5EE7528460CF040
:1046500017FAD4E98B21D4F834320B440A44C4F855
:104660003032B4F9E611B4F99E30C4F82C225B1A4A
:104670009A42A1BFC4F82C320023C4F8303284F827
:104680003832D4F82C32A4F8E23128460CF0F8F98C
:1046900004F1C40528460CF0F3F9D4F83C32D4F800
:1046A00044229B1AB4F9CC20C4F83C32DA422FD50C
:1046B000B74B1B88C4F83C321EF088FF032390FBE5
:1046C000F3F303EB4303C01AD4F858320522013345
:1046D00093FBF2F202EB820204309A1AC4F844020D
:1046E000C4F858320AD194F85D12C4F8602281F0FF
:1046F000010184F85D12012184F85E12A54A0A21A5
:1047000004F502700EF0BCFC04F59C700CF0B8F9D6
:10471000D4F83C32A4F8C830D4F84032A4F8CA30F7
:10472000284604F5C2750CF0ABF928460CF0A8F940
:10473000D4F84832B4F98C21013BDA42C4F848324B
:1047400042BF934B1B88C4F84832D4F84832A4F8CF
:10475000883128460CF094F904F5D8700CF090F9E3
:1047600094ED937AB4F9B831F7EE047A37EE677ABC
:1047700007EE903AF8EEE77A84ED937A77EE877A4F
:10478000F5EEC07AF1EE10FA13D5814B814A1B8801
:1047900007EE903AF8EE677AD4F85832C4ED937A7F
:1047A0000A2104F502700EF06BFC04F59C700CF00D
:1047B00067F9D4ED937AFDEEE77A284617EE903A42
:1047C000A4F8B4310CF05CF994F83832002B00F006
:1047D000B08004F5EE750923284601A9ADF8043030
:1047E00008F0AFFA28460CF04BF9B4F9E031D4F8F0
:1047F0003C02C01AFBF79EFEB4F9E2318046D4F8C1
:104800004002C01A8946FBF795FE02460B46FBF7AD
:10481000FBFE424606460F464B4640464946FBF7DE
:10482000F3FE02460B4630463946FBF737FD41ECB6
:10483000100B1DF0A4FD584B51EC100B0022FCF79F
:1048400055F9E8B1554AD4F858321360544A116802
:104850008B42C8BF13604E4A00231288C4F85832F6
:10486000C4F83C220A214B4A04F502700EF008FC01
:1048700004F59C700CF004F923682046DB6A984725
:1048800094F85D2294F85C32002A73D0322B02D95E
:10489000033B84F85C3294F85C3203EB032203EBB5
:1048A000022343F07F43C4F8943004F16C000CF011
:1048B000E7F894F85E321BB3D4F860320A22013371
:1048C000C4F8603293FBF2F102FB1133042B04F5C0
:1048D0009C75344BC8BF4FF07F43C4F868312846FD
:1048E0000CF0CEF8D4F860321E2B09DD002384F8DA
:1048F0005E324FF07F43C4F8683128460CF0C0F8B0
:1049000094F8643293B1D4E99A239A4236DA94F84F
:104910007022254882F0010284F87022202100F0E4
:1049200079FDD4F868320133C4F8683203B0BDE8C9
:10493000F083D4F850320133042BC4F850327FF79F
:1049400054AFD4F85432C3F10103C4F8543204F51F
:10495000EE756BB9092301A92846ADF8043008F0BB
:10496000F0F928460CF08CF80023C4F850323CE7EC
:104970000A23F0E7FF2B8ED003338AE70A48002290
:10498000202100F047FD002384F86432CEE700BF09
:104990008C280120BA510208000046402C1B002040
:1049A000281B00200000FFFF00000240F02070479D
:1049B0004FF4A07070472920FDF7C2BD2820FDF7F5
:1049C000BFBD08B5FDF790FDCA20FDF7B9FDC320B6
:1049D000FDF79AFD0820FDF797FD5020FDF794FDA7
:1049E000CF20FDF7ADFD0020FDF78EFDC120FDF7C6
:1049F0008BFD3020FDF788FDED20FDF7A1FD642043
:104A0000FDF782FD0320FDF77FFD1220FDF77CFD01
:104A10008120FDF779FDE820FDF792FD8520FDF767
:104A200073FD0020FDF770FD7820FDF76DFDCB20B4
:104A3000FDF786FD3920FDF767FD2C20FDF764FDAD
:104A40000020FDF761FD3420FDF75EFD0220FDF73B
:104A50005BFDF720FDF774FD2020FDF755FDEA20F2
:104A6000FDF76EFD0020FDF74FFD0020FDF74CFD2A
:104A7000B120FDF765FD0020FDF746FD1B20FDF789
:104A800043FDB620FDF75CFD0A20FDF73DFDA220A9
:104A9000FDF73AFDC020FDF753FD1020FDF734FD72
:104AA000C120FDF74DFD1020FDF72EFDC520FDF7BF
:104AB00047FD4520FDF728FD1520FDF725FDC72002
:104AC000FDF73EFD9020FDF71FFD3620FDF738FD78
:104AD000C820FDF719FDF220FDF732FD0020FDF79B
:104AE00013FDB020FDF72CFDC220FDF70DFDB62013
:104AF000FDF726FD0A20FDF707FDA720FDF704FDC1
:104B00002720FDF701FD0420FDF7FEFC2A20FDF71C
:104B100017FD0020FDF7F8FC0020FDF7F5FC002054
:104B2000FDF7F2FCEF20FDF7EFFC2B20FDF708FD71
:104B30000020FDF7E9FC0020FDF7E6FC0120FDF771
:104B4000E3FC3F20FDF7E0FCF620FDF7F9FC012037
:104B5000FDF7DAFC0020FDF7D7FC0620FDF7D4FCBA
:104B60002C20FDF7EDFCC820FDF738FD2620FDF7D1
:104B7000E7FC0120FDF7C8FCE020FDF7E1FC0F2079
:104B8000FDF7C2FC2920FDF7BFFC2420FDF7BCFC8B
:104B90000C20FDF7B9FC0E20FDF7B6FC0920FDF74F
:104BA000B3FC4E20FDF7B0FC7820FDF7ADFC3C20B7
:104BB000FDF7AAFC0920FDF7A7FC1320FDF7A4FCD4
:104BC0000520FDF7A1FC1720FDF79EFC1120FDF745
:104BD0009BFC0020FDF798FCE120FDF7B1FC0020D4
:104BE000FDF792FC1620FDF78FFC1B20FDF78CFCD7
:104BF0000420FDF789FC1120FDF786FC0720FDF756
:104C000083FC3120FDF780FC3320FDF77DFC422042
:104C1000FDF77AFC0520FDF777FC0C20FDF774FC0E
:104C20000A20FDF771FC2820FDF76EFC2F20FDF710
:104C30006BFC0F20FDF768FC1120FDF781FCC820FC
:104C4000FDF7CCFC2920FDF77BFCBDE808402C20BB
:104C5000FDF776BC08B5FDF747FC0321D320FDF72F
:104C60008BFC80B208BD10B5C4B2022203212046DD
:104C7000FDF7F0FB0A20FDF735FC2046002203215A
:104C8000FDF7E8FBBDE810400220FDF72BBC38B56E
:104C90000446E4B2FDF7DCFB00212046FDF7F2FB01
:104CA000012105462046FDF7EDFB40EA052080B2D4
:104CB00038BD10B5C4B240212046FDF7E3FB030622
:104CC00007D54C212046FDF7DDFB003818BF012039
:104CD00010BD01224B212046FDF7BCFB20460022DF
:104CE0004B21FDF7B7FB0020F2E773B50423C4B2F4
:104CF0000E461546D7210DEB03022046FDF7DCFBDF
:104D0000019B1BBA1A0DC3F30B23328020462B8064
:104D100001224B21FDF79EFB00224B212046FDF78F
:104D200099FB02B070BD000010B50A4A1378984292
:104D300004460DD0517888420AD00BB141B9012305
:104D4000D454FDF785FB2046BDE81040FFF78BBF2C
:104D500010BD00BF301B002010B5C4B20921204691
:104D6000FDF790FB40F00102D2B220460921BDE8D8
:104D70001040FDF76FBB10B5C4B209212046FDF706
:104D800081FB092100F0FE022046BDE81040FDF73E
:104D900061BB38B5C4B20D4620460A21FDF772FB4F
:104DA00040EA0502D2B220460A21BDE83840FDF7AC
:104DB00051BB10B50446FDF74CFB20461F21FFF701
:104DC000E8FF2046BDE81040FFF7C6BF38B5C4B2C3
:104DD0000D4620460A21FDF755FB20EA0502D2B216
:104DE00020460A21BDE83840FDF734BB10B5044623
:104DF000FFF7C1FF20461F21BDE81040FFF7E6BFC7
:104E000010B5C0B20C460B21FDF73CFB204010BD95
:104E10001F21FFF7F5BF0A46C0B20B21FDF71ABBF1
:104E20001F21FFF7F8BF38B5C4B20D462046172141
:104E3000FDF728FB20EA0502D2B220461721BDE883
:104E40003840FDF707BB70B5C4B2064604212046C2
:104E5000FDF718FB042100F0FB0205462046FDF794
:104E6000F9FA3046F021FFF7DEFF05F0F8022046A0
:104E70000421FDF7EFFA492220212046FDF7EAFA46
:104E80000220FDF72FFB204601222121FDF7E2FA47
:104E900020469A224121FDF7DDFA204601224A21CF
:104EA000FDF7D8FA204601224B21FDF7D3FA204620
:104EB00000224B21FDF7CEFA204601225621FDF7B4
:104EC000C9FA204601225821FDF7C4FA20460122E2
:104ED0004021FDF7BFFA2046FF220B21FDF7BAFA69
:104EE000BDE870400220FDF7FDBA0000054BD3F885
:104EF000882042F47002C3F888204FF000629A6064
:104F0000704700BF00ED00E008B50B4B1A6842F493
:104F100000721A601A6842F480621A601A6842F4D9
:104F200080721A60032000F02FF80020FDF798FD32
:104F3000FDF762FB002008BD003C0240034A044B21
:104F400011681B780B441360704700BF341B0020AE
:104F500078000020014B1868704700BF341B002008
:104F600038B50446FFF7F6FF631C1CBF054B1B78E2
:104F7000054618BFE418FFF7EDFF431BA342FAD321
:104F800038BD00BF780000200749CA6822F4E062FB
:104F90000302120403F4E063120C134343F0BF63F3
:104FA00043F40033CB60704700ED00E0164B30B5A2
:104FB000DC68C4F30224C4F10703251D042B28BFB9
:104FC0000423062D4FF0FF358CBF033C002405FA67
:104FD00003F321EA0303A54022EA0502A3400028C7
:104FE00043EA0203ACBF00F16040084A4FEA0313F2
:104FF000B8BF00F00F00DBB2AABF00F56140135448
:1050000080F8003330BD00BF00ED00E014ED00E09B
:10501000002807DB044A4109012300F01F008340F8
:1050200042F82130704700BF00E100E010B50446AF
:1050300050B1437903F0FF0213B90271FDF7FCFA96
:1050400001236371002010BD0120FCE710B5044668
:1050500020B390F8393003F0FF021BB980F83820F4
:10506000FDF702FB022384F83930236861681A686F
:1050700022F440320A431A605A6BA16822F00702F8
:105080000A435A631A6CE1686FF30D020A431A640B
:1050900000200123E06384F8393010BD0120FCE7D3
:1050A00070477047036870B55E681D68F207044674
:1050B00014D5E90512D51A6822F480721A60C26B01
:1050C00042F00102C26301229A60042380F8393061
:1050D000002380F83830436903B19847B20616D5EB
:1050E000AB0414D523681A6822F400521A602022F7
:1050F0009A60E36B43F00203E363042384F83930DE
:10510000002384F8383063690BB120469847300794
:1051100016D5290514D523681A6822F400621A608E
:1051200008229A60E36B43F00403E363042384F8EA
:105130003930002384F8383063690BB12046984732
:1051400072070BD56B0509D523681A6822F48062B3
:105150001A6004229A602046FFF7A2FFB00714D518
:10516000A90512D523681A6822F400721A60022277
:105170009A60E36BE363012384F83930002384F8F9
:10518000383023690BB120469847F20613D5EB045B
:1051900011D523681A6822F480521A6010229A608E
:1051A000E36BE363012384F83930002384F838305B
:1051B0002046FFF776FF70BDF0B590F83820012A41
:1051C00003464FF002002BD0012283F8382083F8E9
:1051D000390003EB0112D2E90740556A174F44EA40
:1051E0000040093C012C9CBF05F07F4210434FEA70
:1051F00001161A6888BF40EA056091B9516A3940C2
:1052000001435162012C9969916103D8596A21F0D7
:105210007F4191620122002083F8392083F8380011
:10522000F0BDD16939400143D1619919012C8969D7
:1052300011619CBF25F07F451562EBE7F0FFFC0094
:105240002DE9F74FDFF8BC916C4A00230D6801246B
:105250009C4004EA0506AC4340F0B7804D68032744
:1052600005F003044FEA430807FA08FC671E012F04
:105270006FEA0C0C34D8876807EA0C0ECF6807FA7F
:1052800008F747EA0E078760476827EA060EC5F366
:1052900000179F4047EA0E074760C76807EA0C0EF1
:1052A0008F6807FA08F747EA0E07022CC76019D182
:1052B0004FEAD30A00EB8A0A03F0070BDAF82070F2
:1052C0004FEA8B0B4FF00F0E0EFA0BFE27EA0E0E75
:1052D0000F6907FA0BF747EA0E07CAF8207001E0DA
:1052E000032CDAD1076804FA08F407EA0C073C43F8
:1052F00015F4403F046068D000240194D9F844407C
:1053000044F48044C9F84440D9F8444023F00307EA
:1053100007F1804704F4804407F59C37019403F0BB
:10532000030C019CD7F808E04FEA8C0C0F2404FA18
:105330000CF42EEA040E324CA0424DD004F58064E9
:10534000A0424BD004F58064A04249D004F58064AB
:10535000A04247D004F58064A04245D004F58064A3
:10536000A04243D004F58064A04241D004F580649B
:10537000A0423FD004F58064A0423DD004F5806493
:10538000A04214BF0A24092404FA0CF444EA0E04CF
:10539000BC609468F74315F4801F0CBF3C40344355
:1053A0009460D46815F4001F0CBF3C403443D460B3
:1053B000546815F4003F0CBF3C40344354601468FB
:1053C000ED0354BF3C40344314600133102B7FF491
:1053D0003DAF03B0BDE8F08F0024D5E70124D3E74B
:1053E0000224D1E70324CFE70424CDE70524CBE74B
:1053F0000624C9E70724C7E70824C5E7003C0140A5
:1054000000000240003802400369194214BF012025
:10541000002070470AB1816170470904FBE74369C6
:1054200001EA030221EA030141EA02418161704776
:1054300001684B6913F480634FF0000210D06FF4E1
:1054400080634B612023026380F83D3080F83E206A
:10545000036C80F83C2043F0040303640120704790
:10546000184670472DE9F84606460F4691461D46F8
:105470004FEA114A3368BAF1010F0CBF5C699C69AD
:1054800027EA0404A4B2B4FA84F46409A14501D063
:10549000002025E06A1CEED0FFF75CFD089BC01AD7
:1054A000A84201D8002DE5D13368BAF1010F0CBF35
:1054B0005B699B6927EA03039BB2B3FA83F35B0939
:1054C0009945D7D100232022336386F83D2086F802
:1054D0003E30326C86F83C3042F0200232640120CB
:1054E000BDE8F8862DE9F04104460F461646984679
:1054F0002568686927EA000080B2C0B16B695A0567
:1055000017D52B6843F400732B606FF480636B61D5
:1055100020220023236384F83D2084F83E30236C4E
:1055200043F004032364002384F83C300120BDE8E9
:10553000F081731CDDD0FFF70DFDA0EB0800B04239
:1055400001D8002ED4D123685A6927EA020292B208
:10555000002ACDD000232022236384F83D2084F844
:105560003E30236C1343DDE770B504460D46164606
:1055700023685B691B0601D500201EE02046FFF76B
:1055800057FFC8B96A1CF3D0FFF7E4FC801BA842A0
:1055900001D8002DECD123685B6913F08003E7D1BB
:1055A0002022236384F83D2084F83E30226C84F866
:1055B0003C3042F020022264012070BD2DE9F0430E
:1055C0001546026885B0DDE90C789946136843F406
:1055D000807313600E463B46CDF8008000224FF0EA
:1055E00001110446FFF73EFF236838B11B68DB0555
:1055F00002D54FF400732364032620E006F0FE0674
:105600001E611A4943463A462046FFF76BFFA8B988
:10561000236803905A6903929B6903934246394673
:105620002046039BFFF7A0FF064660B1236C042BC6
:1056300001BF2268136843F40073136001263046EB
:1056400005B0BDE8F083B9F1010F236802D1EDB2D6
:105650001D61F4E72A0A1A61394642462046FFF7DF
:1056600083FF0028E2D12368F1E700BF02000100B8
:105670002DE9FF479A46036815461A6842F480628E
:105680001A601A68DDE90C7842F480721A600E46DE
:105690003B46CDF8008000224FF001110446FFF791
:1056A000E1FE236838B11B68DB0544BF4FF400738B
:1056B0002364032021E05FFA86F906F0FE061E61EE
:1056C0002B4943463A462046FFF70CFFA0B9236812
:1056D00003905A6903929B690393424639462046D8
:1056E000039BFFF741FF58B1236C042B01BF2268D5
:1056F000136843F400731360012004B0BDE8F08721
:10570000BAF1010F23681AD1EDB242461D61394644
:105710002046FFF729FF02460028E5D121680B68E3
:1057200043F480730B602046CDF800803B464FF079
:105730000111FFF797FE226860B11368B4E72A0AE7
:105740001A61394642462046FFF70EFF0028CBD1AA
:105750002368D9E749F001031361054943463A46F6
:105760002046FFF7BFFE003818BF0120C5E700BF85
:105770000200010070B504460D46164623685B69B9
:105780005B0701D500201EE02046FFF751FEC8B997
:105790006A1CF3D0FFF7DEFB801BA84201D8002D66
:1057A000ECD123685B6913F00403E7D12022236363
:1057B00084F83D2084F83E30226C84F83C3042F07E
:1057C00020022264012070BD70B504460D461646C5
:1057D00021684B6913F0400301D0002011E04A69B1
:1057E000D2060FD56FF010024A612022236384F89D
:1057F0003D2084F83E30236C2364002384F83C3041
:10580000012070BDFFF7A6FB801BA84201D8002D28
:10581000DED123685B6913F04003D9D120222363D2
:1058200084F83D2084F83E30236C1343E4E7000005
:1058300070B5044608B9012070BD90F83D3003F002
:10584000FF021BB980F83C20FCF730FF242384F8CA
:105850003D3023681A6822F001021A601A6842F487
:1058600000421A601A6822F400421A6000F0A8FE92
:105870003F4B65689D4294BF3E4B3F4B98428CBF67
:1058800000230123002BD6D12268394E51683B4BAF
:10589000B0FBF3F321F03F011943B542516088BFDB
:1058A0004FF49676116A88BF734321F03F0184BF9D
:1058B0004FF47A76B3FBF6F301330B431362D169ED
:1058C000431E2B4821F44F41854221F0FF0132D87D
:1058D0006D0040F6FC70B3FBF5F30133034242D098
:1058E000C3F30B031943D161D4E9073011680343B3
:1058F00021F0C0010B4313609168D4E9030321F444
:105900000341034321F0FF010B439360D4E90530C9
:10591000D168034321F0FF010B43D360136843F0C8
:105920000103136000202023206484F83D302063AD
:1059300084F83E0080E7A06850B905EB4505B3FB4D
:10594000F5F30133C3F30B037BB143F40043C9E721
:1059500019206843B3FBF0F30133C3F30B0323B106
:1059600043F44043BEE70423BCE70123BAE700BF8A
:10597000A08601007F841E00FF083D0040420F000A
:105980002DE9F743044699460C9E0F469046FFF7D3
:10599000E1FA94F83D30202B054603D0022003B0F5
:1059A000BDE8F08300903C49192301222046FFF70F
:1059B00059FD0028F2D194F83C30012BEED020683C
:1059C000012384F83C300368D9075EBF036843F0C5
:1059D00001030360036823F400630360212384F858
:1059E0003D30402384F83E30002323640A9B6362E9
:1059F000BDF82C306385638D2385284BE3624246D6
:105A0000CDE900654B4639462046FFF7D7FD002813
:105A10002AD00120C3E7FFF7A7FD40B1236C042B78
:105A200001BF2268136843F400731360F1E7636AEF
:105A300027681A4612F8011B39616262628D218D56
:105A4000013A92B262857A69481E80B25207208577
:105A50000AD548B15A783A6102336362638D013BDB
:105A600002399BB221856385238D2A463146204623
:105A7000002BD0D1FFF77EFE0028CFD1226813681B
:105A800043F400731360202384F83D3084F83C0015
:105A900084F83E0083E700BF020010000000FFFF13
:105AA0002DE9F043044687B09946109F0D46904675
:105AB000FFF750FA94F83D30202B064604D002251B
:105AC000284607B0BDE8F08300907A4919230122E7
:105AD0002046FFF7C7FC0028F1D194F83C30012B99
