:020000040800F2
:1000000000000320350F0008252B0008272B0008CF
:10001000292B00082B2B00082D2B000800000000C6
:10002000000000000000000000000000717E0008D9
:100030002F2B000800000000017F000891770008C6
:10004000850F0008850F0008850F0008850F000840
:10005000850F0008850F0008552B0008850F000844
:10006000850F0008850F0008850F0008850F000820
:10007000850F0008850F0008850F0008850F000810
:10008000850F0008850F0008850F0008850F000800
:10009000850F0008850F0008850F0008850F0008F0
:1000A000850F0008850F0008850F0008850F0008E0
:1000B000850F0008850F0008850F0008850F0008D0
:1000C000850F0008850F0008850F0008850F0008C0
:1000D000850F0008850F0008850F0008850F0008B0
:1000E000850F0008850F0008850F0008850F0008A0
:1000F000850F0008850F0008850F0008850F000890
:10010000850F0008850F0008850F0008850F00087F
:10011000850F0008850F0008312B0008850F0008A7
:10012000850F0008850F0008850F0008850F00085F
:10013000850F0008850F0008850F0008850F00084F
:10014000850F0008850F0008850F0008850F00083F
:10015000850F0008850F0008850F0008850F00082F
:10016000850F0008850F0008850F0008850F00081F
:10017000850F0008850F0008850F000800000000AB
:10018000850F0008850F0008850F0008850F0008FF
:10019000850F0008850F0008850F0008850F0008EF
:0C01A0003D2B0008850F0008492B0008CB
:1001B00010B5054C237833B9044B13B10448AFF3A1
:1001C00000800123237010BD800300200000000088
:1001D0006048020808B5034B1BB103490348AFF35D
:1001E000008008BD00000000840300206048020871
:1001F00001F0FF01102A2BDB10F0070F08D010F8D8
:10020000013B013A8B422DD010F0070F42B3F6D1DB
:10021000F0B441EA012141EA014122F007047FF0F4
:1002200000070023F0E80256083C85EA010586EA4B
:10023000010685FA47F5A3FA87F586FA47F6A5FA87
:1002400087F68EB9EED1F0BC01F0FF0102F0070293
:1002500032B110F8013B013A83EA010313B1F8D13E
:100260000020704701387047002D06BF354603381F
:10027000073815F0010F07D1013015F4807F02BF58
:10028000013015F4C03F0130F0BC0138704700BFA9
:1002900081F0004102E000BF83F0004330B54FEA37
:1002A00041044FEA430594EA050F08BF90EA020FA4
:1002B0001FBF54EA000C55EA020C7FEA645C7FEA37
:1002C000655C00F0E2804FEA5454D4EB5555B8BF5A
:1002D0006D420CDD2C4480EA020281EA030382EACB
:1002E000000083EA010180EA020281EA0303362D5D
:1002F00088BF30BD11F0004F4FEA01314FF4801C30
:100300004CEA113102D0404261EB410113F0004F41
:100310004FEA03334CEA133302D0524263EB4303F8
:1003200094EA050F00F0A780A4F10104D5F1200E96
:100330000DDB02FA0EFC22FA05F2801841F10001F1
:1003400003FA0EF2801843FA05F359410EE0A5F1C5
:1003500020050EF1200E012A03FA0EFC28BF4CF0F6
:10036000020C43FA05F3C01851EBE37101F00045AC
:1003700007D54FF0000EDCF1000C7EEB00006EEBB9
:100380000101B1F5801F1BD3B1F5001F0CD3490843
:100390005FEA30004FEA3C0C04F101044FEA44529A
:1003A00012F5800F80F09A80BCF1004F08BF5FEA21
:1003B000500C50F1000041EB045141EA050130BD01
:1003C0005FEA4C0C404141EB0101013C28BFB1F513
:1003D000801FE9D291F0000F04BF01460020B1FA5E
:1003E00081F308BF2033A3F10B03B3F120020CDA31
:1003F0000C3208DD02F1140CC2F10C0201FA0CF00F
:1004000021FA02F10CE002F11402D8BFC2F1200C73
:1004100001FA02F120FA0CFCDCBF41EA0C01904029
:10042000E41AA2BF01EB0451294330BD6FEA040472
:100430001F3C1CDA0C340EDC04F11404C4F120025D
:1004400020FA04F001FA02F340EA030021FA04F36F
:1004500045EA030130BDC4F10C04C4F1200220FAC6
:1004600002F001FA04F340EA0300294630BD21FA04
:1004700004F0294630BD94F0000F83F4801306BFCA
:1004800081F480110134013D4EE77FEA645C18BFBE
:100490007FEA655C29D094EA050F08BF90EA020F55
:1004A00005D054EA000C04BF1946104630BD91EA4D
:1004B000030F1EBF0021002030BD5FEA545C05D150
:1004C0004000494128BF41F0004130BD14F580048F
:1004D0003CBF01F5801130BD01F0004545F0FE4103
:1004E00041F470014FF0000030BD7FEA645C1ABF38
:1004F000194610467FEA655C1CBF0B46024650EA6F
:10050000013406BF52EA033591EA030F41F400219A
:1005100030BD00BF90F0000F04BF0021704730B520
:100520004FF4806404F132044FF000054FF00001F5
:1005300050E700BF90F0000F04BF0021704730B5B6
:100540004FF4806404F1320410F0004548BF40428B
:100550004FF000013EE700BF42004FEAE2014FEAE0
:1005600031014FEA02701FBF12F07F4393F07F4FBB
:1005700081F06051704732F07F4208BF704793F0BE
:100580007F4F04BF41F40021704730B54FF46074D1
:1005900001F0004521F000411CE700BF50EA0102D4
:1005A00008BF704730B54FF000050AE050EA01027D
:1005B00008BF704730B511F0004502D5404261EBED
:1005C00041014FF4806404F132045FEA915C3FF42E
:1005D000D8AE4FF003025FEADC0C18BF03325FEACB
:1005E000DC0C18BF033202EBDC02C2F1200300FA7C
:1005F00003FC20FA02F001FA03FE40EA0E0021FAA1
:1006000002F11444BDE600BF70B54FF0FF0C4CF48E
:10061000E06C1CEA11541DBF1CEA135594EA0C0F40
:1006200095EA0C0F00F0DEF82C4481EA030621EA7B
:100630004C5123EA4C5350EA013518BF52EA0335B6
:1006400041F4801143F4801338D0A0FB02CE4FF068
:100650000005E1FB02E506F00042E0FB03E54FF098
:100660000006E1FB03569CF0000F18BF4EF0010E90
:10067000A4F1FF04B6F5007F64F5407404D25FEA8C
:100680004E0E6D4146EB060642EAC62141EA55513F
:100690004FEAC52040EA5E504FEACE2EB4F1FD0C81
:1006A00088BFBCF5E06F1ED8BEF1004F08BF5FEAFF
:1006B000500E50F1000041EB045170BD06F00046B1
:1006C00046EA010140EA020081EA0301B4EB5C045E
:1006D000C2BFD4EB0C0541EA045170BD41F4801156
:1006E0004FF0000E013C00F3AB8014F1360FDEBF7B
:1006F000002001F0004170BDC4F10004203C35DA57
:100700000C341BDC04F11404C4F1200500FA05F3D9
:1007100020FA04F001FA05F240EA020001F000427A
:1007200021F0004110EBD37021FA04F642EB0601F0
:100730005EEA430E08BF20EAD37070BDC4F10C041A
:10074000C4F1200500FA04F320FA05F001FA04F2DE
:1007500040EA020001F0004110EBD37041F10001CA
:100760005EEA430E08BF20EAD37070BDC4F12005D5
:1007700000FA05F24EEA020E20FA04F301FA05F23D
:1007800043EA020321FA04F001F0004121FA04F2E5
:1007900020EA020000EBD3705EEA430E08BF20EAB5
:1007A000D37070BD94F0000F0FD101F000464000EF
:1007B00041EB010111F4801F08BF013CF7D041EA71
:1007C000060195F0000F18BF704703F00046520075
:1007D00043EB030313F4801F08BF013DF7D043EA46
:1007E0000603704794EA0C0F0CEA135518BF95EAFC
:1007F0000C0F0CD050EA410618BF52EA4306D1D183
:1008000081EA030101F000414FF0000070BD50EAA1
:10081000410606BF1046194652EA430619D094EA2B
:100820000C0F02D150EA013613D195EA0C0F05D115
:1008300052EA03361CBF104619460AD181EA030169
:1008400001F0004141F0FE4141F470014FF0000021
:1008500070BD41F0FE4141F4780170BD70B54FF0BC
:10086000FF0C4CF4E06C1CEA11541DBF1CEA13553C
:1008700094EA0C0F95EA0C0F00F0A7F8A4EB05041E
:1008800081EA030E52EA03354FEA013100F0888015
:100890004FEA03334FF0805545EA131343EA1263DE
:1008A0004FEA022245EA111545EA10654FEA002693
:1008B0000EF000419D4208BF964244F1FD0404F54C
:1008C000407402D25B084FEA3202B61A65EB0305A8
:1008D0005B084FEA32024FF480104FF4002CB6EB65
:1008E000020E75EB030E22BFB61A754640EA0C00E5
:1008F0005B084FEA3202B6EB020E75EB030E22BF25
:10090000B61A754640EA5C005B084FEA3202B6EB65
:10091000020E75EB030E22BFB61A754640EA9C0024
:100920005B084FEA3202B6EB020E75EB030E22BFF4
:10093000B61A754640EADC0055EA060E18D04FEAB2
:10094000051545EA16754FEA06164FEAC30343EA52
:1009500052734FEAC2025FEA1C1CC0D111F4801F1F
:100960000BD141EA00014FF000004FF0004CB6E718
:1009700011F4801F04BF01430020B4F1FD0C88BFB7
:10098000BCF5E06F3FF6AFAEB5EB030C04BFB6EBC2
:10099000020C5FEA500C50F1000041EB045170BDB5
:1009A0000EF0004E4EEA113114EB5C04C2BFD4EBE2
:1009B0000C0541EA045170BD41F480114FF0000E66
:1009C000013C90E645EA060E8DE60CEA135594EAE2
:1009D0000C0F08BF95EA0C0F3FF43BAF94EA0C0FE5
:1009E0000AD150EA01347FF434AF95EA0C0F7FF45A
:1009F00025AF104619462CE795EA0C0F06D152EAAE
:100A000003353FF4FDAE1046194622E750EA410691
:100A100018BF52EA43067FF4C5AE50EA41047FF4A2
:100A20000DAF52EA43057FF4EBAE12E74FF0FF3C07
:100A300006E000BF4FF0010C02E000BF4FF0010CD8
:100A40004DF804CD4FEA410C7FEA6C5C4FEA430C51
:100A500018BF7FEA6C5C1BD001B050EA410C0CBFA0
:100A600052EA430C91EA030F02BF90EA020F002002
:100A7000704710F1000F91EA030F58BF994208BF69
:100A800090422CBFD8176FEAE37040F00100704726
:100A90004FEA410C7FEA6C5C02D150EA013C07D17D
:100AA0004FEA430C7FEA6C5CD6D152EA033CD3D0C8
:100AB0005DF8040B704700BF8446104662468C46C2
:100AC0001946634600E000BF01B5FFF7B7FF0028F5
:100AD00048BF10F1000F01BD4DF808EDFFF7F4FF1E
:100AE0000CBF012000205DF808FB00BF4DF808EDA9
:100AF000FFF7EAFF34BF012000205DF808FB00BFCC
:100B00004DF808EDFFF7E0FF94BF012000205DF8ED
:100B100008FB00BF4DF808EDFFF7CEFF94BF0120A2
:100B200000205DF808FB00BF4DF808EDFFF7C4FF9B
:100B300034BF012000205DF808FB00BF4FEA410CE4
:100B40007FEA6C5C02D150EA013C0AD14FEA430CC7
:100B50007FEA6C5C02D152EA033C02D14FF0000004
:100B600070474FF0010070477BB972B90029BEBFD2
:100B700000204FF0004106E008BF00281CBF6FF0C6
:100B800000414FF0FF3000F0D3B9ADF1080C6DE932
:100B900004CE002909DB002B1ADB00F04DF8DDF84C
:100BA00004E0DDE9022304B07047404261EB4101FB
:100BB000002B1BDB00F040F8DDF804E0DDE9022348
:100BC00004B0404261EB4101524263EB4303704782
:100BD000524263EB430300F02FF8DDF804E0DDE957
:100BE000022304B0404261EB41017047524263EB83
:100BF000430300F021F8DDF804E0DDE9022304B04E
:100C0000524263EB4303704753B94AB9002908BF06
:100C100000281CBF4FF0FF314FF0FF3000F088B9C3
:100C2000ADF1080C6DE904CE00F006F8DDF804E043
:100C3000DDE9022304B070472DE9F047089D8E4698
:100C400004468846002B4AD18A42174662D9B2FA36
:100C500082F64EB1C6F1200301FA06F820FA03F33A
:100C6000B74043EA0808B4404FEA174E1FFA87FC22
:100C7000B8FBFEF1230C0EFB118843EA084301FB8D
:100C80000CF29A4209D9FB1801F1FF3080F0EA809A
:100C90009A4240F2E78002393B449A1AA3B2B2FB6F
:100CA000FEF00EFB102243EA024300FB0CFC9C45C5
:100CB00009D9FB1800F1FF3280F0D6809C4540F244
:100CC000D3803B44023840EA0140A3EB0C030021EF
:100CD0001DB1F3400022C5E90032BDE8F0878B4228
:100CE00005D90DB1C5E9000100210846F5E7B3FAC1
:100CF00083F1002946D1734502D3824200F2058177
:100D0000841A6EEB030201209046002DE5D0C5E960
:100D10000048E2E7002A00F09080B2FA82F6002E46
:100D200040F0A4808A1A030C4FEA174E80B2BCB27E
:100D30000121B2FBFEFC0EFB1C2243EA024304FB32
:100D40000CF29A4207D9FB180CF1FF3802D29A42F2
:100D500000F2E080C4469B1AB3FBFEF20EFB123396
:100D600040EA034302FB04F49C4207D9FB1802F15A
:100D7000FF3002D29C4200F2CA8002461B1B42EAAC
:100D80000C40A5E7C1F120068B4022FA06F71F436D
:100D90000EFA01F420FA06F32EFA06FE4FEA17497E
:100DA000234300FA01F81FFA87FCBEFBF9F01C0C84
:100DB00009FB10EE44EA0E4400FB0CFEA64502FAC5
:100DC00001F209D93C1900F1FF3A80F09C80A64558
:100DD00040F2998002383C44A4EB0E041FFA83FED3
:100DE000B4FBF9F309FB13444EEA044403FB0CFC87
:100DF000A44508D93C1903F1FF3E80F08280A44548
:100E00007FD9023B3C4443EA0040A4EB0C04A0FB26
:100E100002EC64457346E14662D35FD05DB1B8EB46
:100E2000030264EB090404FA06F622FA01F31E43F6
:100E3000CC40C5E9006400214FE7B1FBF2FC010C96
:100E400041EA0E4180B240EA01423B4638463C4608
:100E5000B846BE462026B1FBF7F1A2EB080241EAF4
:100E60000C4166E7014618E710462CE7C6F1200260
:100E70002EFA02F3B740B14020FA02F24FEA174EC1
:100E80000A43B3FBFEF8BCB20EFB1833110C41EA67
:100E9000034108FB04F9B04089454FEA104380B292
:100EA0003ED9791808F1FF3C01D289451FD8A1EB42
:100EB0000901B1FBFEF909FB04F80EFB191192B20E
:100EC00042EA0142424529D2BA1809F1FF31C4D29F
:100ED0004245C2D2A9F102013A44BEE7F0459DD293
:100EE000BEEB02036CEB070C0138E14696E7A7EB7B
:100EF00009094944A8F1020CB1FBFEF909FB04F809
:100F0000DBE773467FE7504666E70846FDE63B446D
:100F1000023A33E7ACF1020C3B441CE749469CE73C
:100F2000A1EB0901C446B1FBFEF909FB04F8C4E7D3
:100F3000704700BFDFF834D0002103E00C4B5B5852
:100F4000435004310B480C4B42189A42F6D30B4ADB
:100F500002E0002342F8043B094B9A42F9D303F024
:100F6000C5FF22F00FFF01F063F870470000032077
:100F70006CD00508000000206401002080030020E0
:100F80009C350120FEE7704708B500F0BBFDBDE8C9
:100F9000084000F03FBD00F0B7BD704710B5042118
:100FA000044621F095FB204610BD000038B50C4BDF
:100FB0000C4C18800C4B822019806368984740F6CF
:100FC000110398420AD1094D23682C60822098476A
:100FD0002B688220DB689847002038BD0120FCE7A1
:100FE000A60300204C000020A4030020A80300203A
:100FF0004FF4A071F020FFF7D9BF0000F7B5394DCD
:101000002B6804461B6982209847208000284ED018
:101010002B680DF106025B6901A982209847324BCB
:101020001B78002B4BD0BDF8062040F674639A4223
:101030003FD9ADF80630BDF806209B1A9BB20A2BAB
:1010400042D90B22B3FBF2F3284A1288934201D90A
:10105000013A93B2BDF80420254840F6B8318A42DF
:1010600034D8C2F571620E32016892B20F25B2FB1C
:10107000F5F2204D2D88AA4284BF05F1FF35AAB2B2
:101080008A4215468EB22AD9921B91B21A4E3768FF
:10109000BB42BAB28CBF9A1AD21A92B21144052935
:1010A000C4BF05603360036863803368A38003B006
:1010B000F0BDB32A9CBFB422ADF80620BBE7BDF853
:1010C0000630A3F5B473B9E70023C3E7C2F56D6238
:1010D000083292B20E2A0168C8D800252A46891A19
:1010E00089B2D3E7A80300208C170020A4030020B6
:1010F000A0030020A60300209C03002037B568460B
:101100000D461446FFF77AFFBDF8000030B1BDF878
:1011100002302B60BDF804302360012003B030BDE5
:10112000032821D8DFE800F0020B12190F4B1A68D0
:10113000B2FA82F2520904210D4804F033BB0B4B82
:101140005A68B2FA82F252090821F5E7074B9A6809
:10115000B2FA82F252091021EEE7044BDA68B2FAD1
:1011600082F252092021E7E7704700BFAC0300205C
:1011700000100240032821D8DFE800F0020B12190A
:101180000F4B1A68003A18BF012204210D4804F0E1
:1011900009BB0B4B5A68003A18BF01220821F5E73A
:1011A000074B9A68003A18BF01221021EEE7044B62
:1011B000DA68003A18BF01222021E7E7704700BF34
:1011C000AC0300200010024003280DD8DFE800F037
:1011D0000206080A0421054804F0E9BA0821FAE7E2
:1011E0001021F8E72021F6E7704700BF0010024009
:1011F00008B5032811D8DFE800F0020A0C0E04211C
:10120000074804F0C9FA431E5842584108BD082156
:10121000F6E71021F4E72021F2E70020F3E700BF12
:101220000010024070B5084D00240126E0B2FFF71F
:10123000DFFF18B12B68012B18BF2E600134052C7D
:1012400005F10405F2D170BDAC030020012380F844
:10125000781080F8793070477047002070470000A0
:10126000034B4164003918BF01211970704700BF5A
:101270005B280120704700207047836B0BB1084644
:10128000184770474FF6FF707047406803689B69C6
:1012900018477047704770477047704710B504464D
:1012A00000F048FD23680349D3F890302046BDE89C
:1012B00010401847000000D008B503680446D3F872
:1012C0008430984723682046DB6F984700F0ECF89D
:1012D000236820465B6F9847292001F043F900F00E
:1012E000E3F8236820465B6F9847F8E710B504469B
:1012F00009F0B6FB23682046D3F8BC30BDE81040A7
:10130000184700F0FBBC00F0FFBC00F031BD00F05E
:10131000D1BC00F041BD00F049BD00F0D5BC08F0E3
:10132000CDBD10B58421044621F0D2F9204610BD70
:1013300010B590F8341090F878400C4B8C421A7825
:1013400009D03AB90A4A0B491488088810800C80E1
:1013500001221A7010BD002AFCD0054A05491488E4
:10136000088810800C800022F3E700BF5428012079
:10137000502801205228012070B50D46194635B974
:10138000094B0A4A0A4840F2FF2122F0DFF9C0E97E
:101390000F52084B003A18BF01221A700368BDE8CB
:1013A0007040D3F890301847D04802080849020826
:1013B000564902085A28012008B5094B1B888B4260
:1013C00003D8084B1B88934205D9074B074A0848A6
:1013D000A32122F0BBF9074B1980074B1A8008BDE7
:1013E00050280120522801209B490208FE4902088A
:1013F000564902085628012058280120034690F833
:101400007A0018B1586803681B68184770470000D5
:10141000012108B50022084606F044FA0A4B18607C
:1014200028B90A4B0A4A28210A4822F08FF90022DB
:101430000421012006F0D5FA074B186018B9074BB4
:10144000034A2C21F0E708BDC0030020414A0208EE
:101450008A4A0208B94A0208BC030020FB4A020873
:10146000024B4FF0FF31186806F066BAC003002047
:10147000014B186806F08CBAC0030020024B002113
:10148000186806F059BA00BFC0030020FFF7F0BF8C
:1014900003480449006800231A4606F0DDBA00BF7D
:1014A000BC0300200400002013B5084C00231A469A
:1014B00001A9206806F001FB20684FF0FF330022ED
:1014C00001A906F0FAFA02B010BD00BFBC0300206B
:1014D00003685B6C18470120704703689B6A1847D4
:1014E000FEE740F2EF307047054B0360054B4FF0CD
:1014F0008062C3F88820BFF34F8FBFF36F8F7047B0
:101500004457020800E100E010B504464FF45A6168
:10151000FFF7EAFF204621F0DBF8204610BD00006F
:1015200082B0002301930E4B1A6B42F400021A633F
:101530001A6B02F400020192019A1A6942F4000245
:101540001A611A6922F400021A61064B064A1A61EE
:10155000064A5A61064B4FF080629A6002B07047AB
:101560000038024020190020C1170008E1140008CB
:1015700000E100E008B50A2809D8DFE800F006100D
:101580000E080808081010101000022008BD054BB6
:10159000054A0648902122F0D9F80020F6E70120FC
:1015A000F4E700BF3D4B0208584B0208A34B02086A
:1015B00038B50C46887FFFF7DDFFA58AE28A164B17
:1015C0002169586342EA05425A64628BD963521B0F
:1015D0001A642568082D0ED19A611A615862207F1D
:1015E0000E4A42EA0062DA61E2681A620C4A596104
:1015F000D9601A6038BD0022D8611A61E1680A0A10
:10160000480902F4784200F4FC600243C1F3C401CB
:101610000A439A63034AECE700B002400900010064
:10162000012302000123030008B50B280BD8DFE8D3
:1016300000F00612100A0A0A0A0808080808022020
:1016400008BD0520FCE7054B054A06486F2122F03E
:101650007DF80020F4E70120F2E700BF3D4B0208CF
:10166000E34B0208A34B02082DE9F04191F81D80DD
:101670000C464046FFF7D8FFA77F05463846FFF7E0
:10168000D3FF06463846FFF775FFA18A628B444BAD
:10169000521A1A649A61228B521A1A61E28A5863AA
:1016A00042EA01425A6421696268D963DA602068BB
:1016B000802828D0227F0FD8202867D0402865D0E6
:1016C00004281AD0364B45EA026545F40035B84582
:1016D000DD6161D0334A44E0B0F5807F04D0B0F5DD
:1016E000007FEFD1304800E0304840EA0262DA6122
:1016F000E2681A625E62596132E045EA026242F4CF
:101700000032DA61F6E7A068021DDA62227F45EA5C
:10171000026545F40035DD615E625961017841B1D1
:10172000012921D0224B234A23484FF48D7122F006
:101730000DF8DA69418822F47F42013922F0100263
:1017400042EA0122DA610121154BDA6942F02002F6
:10175000DA61DA699206FCD410229A600029B9D0C5
:10176000164A1A60BDE8F081B2F1FF01DA694088DB
:1017700022F47F4200F1FF3022F0100242EA002200
:1017800042F0100218BF0121DA61DDE745EA02628A
:10179000034B42F40032B4E742F20132E1E700BF0A
:1017A00000B0024001230100090002000A0002000B
:1017B0002D4C0208474C0208A34B020801230200EB
:1017C000024B1B68586803685B6918475C28012056
:1017D00070B5044625460A4B0C3000266060267220
:1017E000667245F8203B6022294609F08FFA04F51D
:1017F0005A63EE6024359D42FBD1204670BD00BF88
:1018000044570208034B1A68D207FCD423229A607B
:10181000704700BF00B002407047000030B50F4C69
:101820002568ED07FCD423250904A56041F00101DA
:101830000225FF2B65636164E0630AD00849656295
:1018400041EA0363E361074B22626061E060236069
:1018500030BDE561039BA363034BF8E700B0024092
:1018600009000100010002000100030030B50E4C28
:101870002568ED07FCD423251204A56042F001027F
:101880000225FF2B65636264E063E16008D01B06FC
:1018900043F00213E361054B65626061236030BD74
:1018A000034BE3610123F9E700B0024001000200AD
:1018B000020002FF30B50B4C2568ED07FCD4232550
:1018C00012041B06A56043F40033022542F0010216
:1018D00065636264E063E160E361034B65626061DC
:1018E000236030BD00B002400100020001207047BB
:1018F0000C2070470C2303FB0100083070470C23B9
:1019000003FB010008307047012070474FF41F703F
:1019100070474FF41F7303FB0100083070474FF40A
:101920001F7303FB0100083070470120704710202F
:10193000704700EB01100830704700EB01100830D1
:101940007047084601F06EBA10B5034B03600446B9
:1019500008F009F8204610BDFC57020810B50446EF
:10196000FFF7F2FF2046142120F0B2FE204610BD02
:1019700010B5034B0360044607F0F5FF204610BD89
:10198000C857020810B50446FFF7F2FF20464FF48F
:10199000217120F09DFE204610BD000010B5034BC4
:1019A0000360044607F0DFFF204610BD945702088D
:1019B00010B50446FFF7F2FF2046182120F088FEFC
:1019C000204610BD10B5084B0360044600F52C708E
:1019D000FFF7BAFF04F12C00FFF7CAFF04F114006F
:1019E000FFF7DCFF204610BD3058020808B502485A
:1019F000FFF7E8FF08BD00BF9C12002010B50446A9
:101A0000FFF7E0FF204640F2244120F061FE20462F
:101A100010BD00002DE9F34101F020F9054601F069
:101A200021F900240146234628462246009411F05D
:101A30009DFD274B274A1A60204602F0B5FB264D34
:101A4000264B274A27489A6011F0F8FC2B68BFF311
:101A50005B8FDB0735D4284620F03CFE88B3224C50
:101A6000224B236004F5327604F1140004F12C08B3
:101A700004F52C776060C4F80880E760266107F001
:101A800073FF1B4B6361404607F06EFF194BE36227
:101A9000384607F069FF184BC4F8B03204F53170CE
:101AA00002F0E6FC224604F53171304602F0FCFB00
:101AB000304601F0B7F9114821F066FE284620F0C3
:101AC00015FE0F4802B0BDE8F041FFF7E7BB00BFCD
:101AD000C02801204804002098120020680400203B
:101AE0004C040020080000209C12002030580208FE
:101AF00094570208C8570208FC570208ED1900085D
:101B0000C4030020704700000148FFF7D5BB00BFA9
:101B1000C403002070B5264E264C274D274B23606A
:101B20003046FFF755FE284616F026FE24480FF0F3
:101B30002DFA244B2448DC6000224FF48071C3E965
:101B4000121222491A86C3E91A12214983F8582031
:101B5000C3E91E011F49C3F880101F491F480B60CD
:101B6000F021C3E90422C3E90622C3E90822C3E93C
:101B70000A22C3E90E22C3E91022C3E91422C3E9F1
:101B800017225A6683F870205A67C3E901650180FD
:101B90001348018013484FF4A0710180124801805E
:101BA00012490A70012283F83420114A1A6070BD6C
:101BB000F40400209412002068040020C0480208A9
:101BC0004C040020C40300200000010101000001BA
:101BD000000450001A0014005C2801205028012045
:101BE000562801205228012058280120542801207D
:101BF000585602080148FFF777BC00BFF4040020E4
:101C00000020704781807047C18070470181704714
:101C1000418170477047704770477047704710B4F4
:101C2000C4880368121B84885B6D091B12B25DF8BF
:101C3000044B09B218474FF6FF7383814FF0FF330F
:101C400003621368C36110607047002070478B887F
:101C5000838001207047704780F82610704790F805
:101C60002600704710B50022B1F90840B1F90A10FA
:101C7000028042808480C18010BD002202804280A8
:101C80008280C28070470177704780ED080A7047F4
:101C900080F82410704780F82510704701207047A5
:101CA000983070478C307047843070477047704769
:101CB00070470000034B902283F85A2383F858237F
:101CC000704700BF00E100E0094A0A49D3680A48AA
:101CD000C3F30A03013B9BB20B801169C1F30A01F4
:101CE000013901801364536B43F001035363704760
:101CF00000680140C2160020C0160020014BD3F836
:101D0000AC00704700680140024B0122C3F8AC10E0
:101D10005A6270470068014010B52C21044620F03B
:101D2000D7FC204610BD10B5BC21044620F0D0FCE5
:101D3000204610BD70B5044608F015F923689D6E65
:101D40000DF0BCFE01462046A8472368054AD3F89B
:101D50008C502046AC460023BDE87040A2F51631F9
:101D6000604700BF00B004D008F0E4B808F0EEB857
:101D700008F0AAB808F019BA90F8252012B1036843
:101D80005B691847704790F825201AB190F8242015
:101D900002B1186070470000034B4FF080629A60F8
:101DA0004FF080729A60704700E100E0084B4FF0FE
:101DB0008062C3F88820BFF34F8FBFF36F8F4FF05F
:101DC0008072C3F88820BFF34F8FBFF36F8F7047C7
:101DD00000E100E070B50023124E8380124B0360D7
:101DE000336893F8582005460AB1D86C00B9986852
:101DF0000368DB6A98473368B0FA80F4D86C6409EA
:101E000030B10368DB6A9847002808BF44F001043A
:101E10002CB9064B064A07482C2121F097FC28468E
:101E200070BD00BF5C28012044580208854C0208A0
:101E3000E34C02081C4D020870B5254E3568BFF30F
:101E40005B8F15F0010540D1304620F043FC00289F
:101E50003BD0204C204B256104F13400C4E900350F
:101E6000C4E90255E584A562A5850FF074FB04F171
:101E700058000AF001FC194BA3652046184B40F8A6
:101E8000843BFFF7A7FF174BC4F884302433C4F812
:101E90008C304FF4C803C4E928350023C4F8AC30B3
:101EA000C4F8B030C4F8B430C4F8B8300E480F4BA2
:101EB000C4F89050C4F89C50C4F8A850C4F89830A6
:101EC00021F062FC304620F011FC024870BD00BFDA
:101ED000C4160020C81600200C60020864580208CE
:101EE000DC580208C05F0208B11C0008A05F0208AD
:101EF00038B5184C23685BB3174B184A1B6C118814
:101F00008B4216D1164B198804F060FA236893F8B7
:101F10006A200025013283F86A2083F87C50FFF79D
:101F2000B7FA206808F09CFD2846BDE83840FFF766
:101F3000F7B804F04BFA2468236820461B6A9847D8
:101F4000012384F87C300020BDE83840FFF712B947
:101F500038BD00BF5C28012000680140C216002087
:101F6000C016002007B5064BADF806001B680548F3
:101F700001220DF1060104F0C9FF03B05DF804FB76
:101F80000C000020CC17002008B5642005F07EFC72
:101F9000FBE7000030B595B0102200210AA821F01F
:101FA00048FE1422002103A821F043FE00241E4B0A
:101FB00001941A6C42F080521A641B6C03F0805337
:101FC0000193019B194B02941A6842F440421A6033
:101FD0001B6803F4404302930122029B4FF48033B9
:101FE000CDE9082302254FF480030821CDE90E53E3
:101FF0004FF4B473CDE9101308A80423139312957A
:1020000004F03CFA04F000FA0F23CDE903354FF455
:10201000A0504FF48053CDE90603052103A8059491
:1020200004F008FC15B030BD0038024000700040DC
:1020300080B59CB002F08EFF21F06AFC02F064FFD4
:10204000FFF7A8FF142200210FA821F0F2FD0024C1
:10205000C74B01941A6BC74DDFF8508342F0100252
:102060001A631A6B02F010020192019A02941A6B21
:1020700042F020021A631A6B02F020020292029AC6
:1020800003941A6B42F080021A631A6B02F080020A
:102090000392039A04941A6B42F004021A631A6BB7
:1020A00002F004020492049A05941A6B42F00102B1
:1020B0001A631A6B02F001020592059A06941A6BD4
:1020C00042F002021A631A6B02F002020692069AAA
:1020D00007941A6B42F040021A631A6B02F0400236
:1020E0000792079A08941A6B42F008021A631A6B57
:1020F00002F008020892089A09941A6B42F0010251
:102100001A631B6B03F00103224605210993062085
:10211000099B02F04BFF062002F07AFF2246964808
:102120003C2103F03FFB95480122022103F03AFBDA
:1021300022469248042103F035FB224690484FF492
:10214000405103F02FFB01264FF488138D48119462
:102150000FA9CDE90F6303F03BFA202389480FA9AB
:10216000CDE90F36CDE9114403F032FA3C23CDE935
:102170000F368148119403230FA90227129303F00D
:1021800027FA7E480FA9CDE90F76CDE9114403F077
:102190001FFA042379480FA9CDE90F36CDE911477D
:1021A00003F016FA0FA94FF440537548CDE90F36E6
:1021B000CDE9114703F00CFA7348744B036002F049
:1021C00035FFDFF8ECE1724B2C62C5E900E32846ED
:1021D0004FF48043C5E90434C5E90244C5E9064427
:1021E00003F0FAFC1021284603F03EFF2146284662
:1021F000684D03F058FF4FF48273C5E900834FF434
:1022000000791823C5E9069328460A23C5E9024444
:10221000C5E90444C5E90844AC62EB6204F01AFE67
:102220008F232246394655488DF82C308DF83C4096
:1022300003F0B8FA32464FF47A730BA9284604F03B
:1022400065FE4FF47A7332460FA9284605F00AF866
:10225000324639464948504D03F0A4FA9DF83C30C7
:10226000D32B04BF4D4B1E704D4B0126C5E90036E4
:10227000102240230024C5E904234FF4C073C5E9AC
:1022800006344FF40063C5E908344FF400530227C5
:102290004FF00409AB624FF0030A07230FA9284649
:1022A000CDE90F73CDE911934FF00808C5E9024954
:1022B000CDE913A7159704F0B1FC4FF6FF720BA9F7
:1022C0002846CDE90C860A940B960E9404F0C6FCC1
:1022D000304602F045FE4FF6FF720BA92846CDE9C5
:1022E0000B78CDE90D6404F0B9FC4FF6FF720BA931
:1022F0002846CDE90BA8CDE90D9404F0AFFC4FF4CE
:102300000C730A930A9B0E934FF6FF720BA9284693
:10231000CDE90B980D9604F0A1FC40F26A512846D5
:1023200004F0BAFC342221460FA821F082FC1D4D96
:102330001D4B2C61C5E900340923C5E905361D2371
:10234000C5E9073A40F20D1140F24313C5E90913FC
:1023500040F2171040F24713C5E90B032846C5E9C0
:102360000244AC8685F8364003F038FF22E000BF17
:1023700000380240CC180020001002400008024043
:10238000000C0240000002406019002000300240B2
:10239000A0860100CC170020981700208C17002081
:1023A000400100A0241800200068014000500140B6
:1023B000005C0040FF214FF4806CF022CDE9141442
:1023C0000521CDE916C14FF4A0730FA9CDE9102462
:1023D000CDE91842284622461C4D1A93CDE9123702
:1023E0000F94ADF86C408DF86E4003F0C2FF184BAF
:1023F0002B601B6898472B68164DDB689847164B77
:102400002846C5E90034C5E90274C5E90A47C5E9AB
:102410000C4402F01BFE3146284602F0CDFEFEF7CA
:10242000B3FDFEF7B0FD05F0C1F90C4A0C4821469A
:1024300005F0E8F90B4B0C4A186021460B4805F0F3
:10244000E1F90B4B186005F0C3F9FEE7881700208F
:10245000140000202019002000B002404459020856
:10246000891F00089417002020590208970F0008C0
:1024700090170020704770477FB5094B8DF81720E3
:102480001B6802930DF117020123009201930A4683
:102490000146044803F048FC07B05DF804FB00BFA8
:1024A00010000020CC1800207FB500238DF81730D5
:1024B000084B1B6802930A4601230DF11701009196
:1024C00001930146044803F0BFFC9DF8170007B0D4
:1024D0005DF804FB10000020CC1800201FB5084C4C
:1024E00024680092CDE901340A46012301460548DB
:1024F00003F0AAFC003818BF012004B010BD00BFD3
:1025000010000020CC18002002F02ABD10B5064CA7
:1025100000222046042103F045F920460122BDE8AF
:102520001040042103F03EB90008024038B50B4DBD
:10253000044601220A484FF4005103F033F9002207
:102540000421284603F02EF92046FFF70BFD28460C
:102550000122BDE83840042103F024B900080240FC
:10256000000C024038B50B4D044600220A484FF4D7
:10257000005103F017F900220421284603F012F954
:102580002046FFF7EFFC28460122BDE83840042131
:1025900003F008B900080240000C0240F7B5144EE1
:1025A000144F05460C4630460022042103F0FAF889
:1025B00000224FF40051384603F0F4F82846FFF7A4
:1025C000D1FC0D4B0D481B68224601A904F04AFEC0
:1025D000384601224FF40051019C03F0E3F83046E5
:1025E0000122042103F0DEF8204603B0F0BD00BF55
:1025F00000080240000C02400C000020CC17002014
:1026000002F0AEBC0268034B9A4201D102F096BCC4
:10261000704700BF001000407047000082B00E4BB2
:1026200000220092596C41F480415964596C01F4C4
:102630008041009100990192196C41F08051196418
:102640001B6C03F080530193019B0F216FF001007D
:1026500002B002F0ABBC00BF003802400268094B78
:102660009A4282B00BD100230193074B1A6B42F4BC
:1026700080521A631B6B03F480530193019B02B0D9
:10268000704700BF003002400038024007B50F4BD2
:1026900002689A4216D10022A3F5F0430192196B09
:1026A00041F4000119631B6B03F40003019305213E
:1026B0005A20019B02F07AFC5A2003B05DF804EB2B
:1026C00002F0A6BC03B05DF804FB00BF00B00240FE
:1026D0002DE9F043044689B01422002103A821F01B
:1026E000A8FA2268244B9A4243D1244C244800255E
:1026F0000095236B43F004032363236B03F004036F
:102700000093009B0195236B43F001032363236B2C
:1027100003F001030193019B4FF012094FF4007382
:102720004FF001080327042603A9CDE90339CDE9B9
:102730000587079602F04CFF4FF480731148079607
:1027400003A9CDE90339CDE9058702F041FF0295E0
:10275000236C43F400032364236C03F4000302930B
:10276000029B236A43F400032362236A23F40003D9
:10277000236209B0BDE8F083005C004000380240ED
:102780000008024000000240F0B599B0044614224F
:10279000002107A821F04DFA30220DEB02000021A4
:1027A00021F047FA22685E4B9A4240F0B780082336
:1027B0000C93C0231093042312930CA84FF40033FE
:1027C000159304F0FFF808B1FFF726FF554B564864
:1027D000002400945A6C42F080625A645A6C02F0F1
:1027E00080620092009A01941A6B42F020021A63F0
:1027F0001A6B02F020020192019A02941A6B42F0C5
:1028000001021A631A6B02F001020292029A039407
:102810001A6B42F002021A631A6B02F00202039270
:10282000039A04941A6B42F040021A631A6B02F086
:1028300040020492049A05941A6B42F004021A634F
:102840001A6B02F004020592059A06941A6B42F084
:1028500008021A631B6B03F00803069302250E2679
:10286000069B0B964FF4806307A9CDE90735CDE9A8
:10287000094502F0ADFE41F658032C480B9607A916
:10288000CDE907350927CDE9094502F0A1FE03236B
:1028900027480B9707A9CDE90735CDE9094502F08F
:1028A00097FE4FF4706322480B9607A9CDE90735D0
:1028B000CDE9094502F08CFE4FF40C631D480B96E0
:1028C00007A9CDE90735CDE9094502F081FEC0230E
:1028D00019480B9607A9CDE90735CDE9094502F05E
:1028E00077FE082315480B9607A9CDE90735CDE9F2
:1028F000094502F06DFE4FF4A0530E480B9707A94F
:10290000CDE90735CDE9094502F062FE582022469F
:10291000052102F04BFB582002F07AFB19B0F0BD04
:1029200000680140003802400014024000000240EC
:10293000000402400018024000080240000C02405F
:1029400010B5044688B01422002103A821F071F9C3
:102950002268144B9A4223D103F568430021019168
:102960005A6C114842F480125A645A6C02F4801274
:102970000192019A02911A6B42F020021A631B6BBA
:1029800003F020030293029B4FF4607202230321A1
:10299000CDE903230523CDE9061303A902F018FEB0
:1029A00008B010BD00500140001402402DE9F04174
:1029B00086B0002303932B4B1C68002C4FD14FF0A3
:1029C0000108C3F80080284B00949A6B274842EA1C
:1029D00008029A639B6B03EA08030093022703260D
:1029E0000C25009B01A94FF63F03CDE90137CDE946
:1029F000046502F0EDFD1E48059501A9CDE90187AA
:102A0000CDE9034602F0E4FD48F233131948059579
:102A100001A9CDE90137CDE9034602F0D9FD4FF612
:102A200083731548059501A9CDE90137CDE9034622
:102A300002F0CEFD4CF203731048059501A9CDE9D3
:102A40000137CDE9034602F0C3FD60230C4805952C
:102A500001A9CDE90137CDE9034602F0B9FD06B081
:102A6000BDE8F081681900200038024000140240DF
:102A7000000802400018024000100240000C024012
:102A80000004024070B588B000230293204B1A6CFA
:102A900042F010021A641B6C03F010030293054607
:102AA00001A903A8029B03F06FFF069B4BBB03F039
:102AB0005BFF184E184B336040F2E733F360174B5F
:102AC000B0FBF3F3013B7360304600233361B36026
:102AD000B36104F097FD044680B9304604F068FC09
:102AE000044658B9362002F093FA0F2D0DD822462D
:102AF0002946362002F05AFA094B1D60204608B0DC
:102B000070BD03F031FF4000D3E70124F6E700BFBA
:102B1000003802406C1900200010004040420F00B5
:102B20007C0000207047FEE7FEE7FEE7FEE7704707
:102B3000014804F07BBC00BF6C190020014803F081
:102B4000BBBB00BF24180020014802F0ABBA00BF95
:102B500020190020012002F033BE0000012804BF2C
:102B6000014B1870704700BF841700200120704788
:102B700008B521F001F9162303604FF0FF3008BDBE
:102B800008B521F0F9F816230360FEE770B50D468D
:102B900014460E46731B9C4201DC204670BDAFF309
:102BA000008006F8010BF5E770B50D4614460E4699
:102BB000731B9C4201DC204670BD16F8010BAFF37D
:102BC0000080F5E74FF0FF3070474FF400534B6043
:102BD0000020704701207047002070470A4A1168A2
:102BE00008B5034609B909491160106869460344EC
:102BF0008B4206D921F0C0F80C2303604FF0FF3060
:102C000008BD1360FCE700BFB4190020A035012007
:102C1000704708B5042918D8DFE801F003070B0F47
:102C2000130001F00DFB006808BD01F009FB4068CE
:102C3000FAE701F005FB8068F6E701F001FBC068E8
:102C4000F2E701F0FDFA0069EEE70020ECE710B5CD
:102C5000042104461FF03CFD204610BD004870478B
:102C60007C5902080A20704713B5002451B103684B
:102C700001948DF8034001AA9C680DF10303A0475D
:102C800002B010BD0846FBE7C0897047008A704754
:102C9000C088704780887047807A00F07F00704756
:102CA000807AC00970470020704700009FED010A3C
:102CB000704700BF00000000704710B508210446AF
:102CC0001FF006FD204610BD7047704700F5987351
:102CD0000868496803C37047704770474160704790
:102CE00070477047064BC0F84C310023C0F8503194
:102CF00000F5A273C0F84801C0F84031704700BF2A
:102D00001D310008012303727047704710B4C26878
:102D100041685410034601EB6200D20748BF0A59CC
:102D20009B685DF8044B48BFD3581847034640687A
:102D300030B19A681AB9D86800F0010070470120D4
:102D4000704710B50C2104461FF0C2FC204610BD90
:102D500010B5102104461FF0BBFC204610BD10B575
:102D60004FF4AE7104461FF0B3FC204610BD10B501
:102D70000CF0A4FE0368BDE81040DB6B184710B5EB
:102D80000446D0F8400158B10368DB68984738B171
:102D9000D4F8400103689B6898470023C4F8403189
:102DA00010BD0000044B1B6893F858200AB1D86C82
:102DB00000B99868704700BF5C280120F8B5174635
:102DC00004460E460CF03CFF124B1C60124B236075
:102DD000124B0025C4E95135114BC4E9535518680D
:102DE000036829469B68C4E94F55C4E9557698475E
:102DF000284601F0D9F9FFF7D5FF17F066FBFFF77A
:102E0000D1FF17F0DDFBFFF7CDFF17F0E5FB204604
:102E1000F8BD00BFB0280120745A02085C5A0208AD
:102E20005C280120064BC0F84C310023C0F850311B
:102E300000F5A273C0F84801C0F84031704700BFE8
:102E40001D310008064BC0F84C310023C0F850314A
:102E500000F5A273C0F84801C0F84031704700BFC8
:102E6000D52F0008064BC0F84C310023C0F8503174
:102E700000F5A273C0F84801C0F84031704700BFA8
:102E80008D2E000803685B6A184700002DE9F14F9A
:102E9000D0E9556A0746B06803681B6A9847B0F5E1
:102EA000047F05D2434B444AA321444820F04EFC02
:102EB000706803681B6A98470F2803D8404B3E4A46
:102EC000A421F2E7F06803681B6A98470B2803D82F
:102ED0003C4B394AA521E8E70CF0F0FDDFF8EC9017
:102EE00004300CF010FED9F8000010B10368DB6864
:102EF0009847D9F8000010B103681B689847DFF8BD
:102F0000D080D8F8000010B103685B699847D7F803
:102F10003C0110B103685B689847D8F8000010B115
:102F200003681B689847D7F83C0110B103689B6899
:102F30009847F0680021FFF7A5FF4FF0000B224BE8
:102F4000C0F804B0044680F808B00360B0680368B5
:102F500059465B6A9847054601F006FA70680368AF
:102F600059465B6A98472946064601F0B5F9331D74
:102F7000C7F83C61C9F80040C8F80050CAF80030F2
:102F80002B68C6F808A02846DB68EE6398473368CC
:102F900030461B689847214628460EF03FFF2368BD
:102FA00020461B69984723685B69204601B0BDE84D
:102FB000F04F1847934D0208214E0208014F0208B6
:102FC000484F0208EB4F0208C85A0208A428012003
:102FD000A02801202DE9F14FD0E9556A0746B068D5
:102FE00003681B6A9847B0F51F7F05D2434B444ADC
:102FF000A321444820F0AAFB706803681B6A984725
:103000000F2803D8404B3E4AA421F2E7F06803683A
:103010001B6A98470B2803D83C4B394AA521E8E79F
:103020000CF04CFDDFF8EC9004300CF06CFDD9F89E
:10303000000010B10368DB689847D9F8000010B1B0
:1030400003681B689847DFF8D080D8F8000010B1FB
:1030500003685B699847D7F83C0110B103685B6867
:103060009847D8F8000010B103681B689847D7F854
:103070003C0110B103689B689847F0680021FFF796
:1030800001FF4FF0000B224BC0F804B0044680F85B
:1030900008B00360B068036859465B6A9847054604
:1030A00001F01AFA7068036859465B6A9847294626
:1030B000064601F0EFF9331DC7F83C61C9F800403E
:1030C000C8F80050CAF800302B68C6F808A0284697
:1030D000DB68EE639847336830461B6898472146A3
:1030E00028460EF09BFE236820461B6998472368FC
:1030F0005B69204601B0BDE8F04F1847934D0208C8
:103100008E500208014F0208484F0208EB4F020898
:10311000C85A0208A4280120A02801202DE9F14F57
:10312000D0E9556A0746B06803681B6A9847B0F54E
:10313000C87F05D2434B444AA321444820F006FBF4
:10314000706803681B6A98470F2803D8404B3E4AB3
:10315000A421F2E7F06803681B6A98470B2803D89C
:103160003C4B394AA521E8E70CF0A8FCDFF8EC90CD
:1031700004300CF0C8FCD9F8000010B10368DB681B
:103180009847D9F8000010B103681B689847DFF82A
:10319000D080D8F8000010B103685B699847D7F871
:1031A0003C0110B103685B689847D8F8000010B183
:1031B00003681B689847D7F83C0110B103689B6807
:1031C0009847F0680021FFF75DFE4FF0000B224B9F
:1031D000C0F804B0044680F808B00360B068036823
:1031E00059465B6A9847054601F036F970680368EE
:1031F00059465B6A98472946064601F00BF9331D8C
:10320000C7F83C61C9F80040C8F80050CAF800305F
:103210002B68C6F808A02846DB68EE639847336839
:1032200030461B689847214628460EF0F7FD236874
:1032300020461B69984723685B69204601B0BDE8BA
:10324000F04F1847934D020860510208014F0208E1
:10325000484F0208EB4F0208C85A0208A428012070
:10326000A02801207047704770477047704730B5FD
:10327000036885B06D460181D3F884300146044669
:103280002846984795E807003C3484E8070005B0D5
:1032900030BD30B5036885B06D464181D3F88430C8
:1032A000014604462846984795E807003C3484E8E0
:1032B000070005B030BD0022028042808280C280BB
:1032C000704780F83610704770B5036804461B6B72
:1032D000154698472368294620465B6EBDE8704036
:1032E000184700207047806C7047704770477047E0
:1032F000704730B4C26844685510034604EB62005E
:10330000D20748BF62599B6830BC48BFD3581847A2
:103310000346406830B19A681AB9D86800F00100D5
:1033200070470120704710B54C2104461FF0D0F9BA
:10333000204610BD10B5102104461FF0C9F92046E3
:1033400010BD10B54FF4FC7104461FF0C1F92046C2
:1033500010BD08B5FEF710FD08BD0000036870B58C
:103360005E6B124B1B6804468DB22BB9104B114A91
:103370006C21114820F0EAF91049828D09889142A8
:1033800003D80F4B0B4A6D21F3E713F812200D4BB6
:103390001B6853F8220003681B6B9847291A3346B1
:1033A000204609B2BDE87040184700BFB42801208C
:1033B0002C5202086E520208A9520208B8280120B5
:1033C000F0520208BC280120E030884208B505D13F
:1033D0000CF074FBBDE80840FFF734BD08BD0022C7
:1033E0004FF0FF31C0E900218260704770B503687B
:1033F00004461B6B154698472368294620465B6B9D
:10340000BDE87040184770B504461D46BDF9106010
:10341000FFF7ECFF2368294620469B6B98472368FB
:1034200031462046DB6BBDE870401847094A026010
:103430004FF4807100228184FF21C0E90122C0E99C
:103440000322C0E90522C0E9072280F82610826223
:10345000704700BF606102084FF4807181840D499C
:1034600001600D4981624FF6FF7181854FF47F0144
:10347000002241634FF0FF31C0E90122C0E903227D
:10348000C0E90522C0E90722C0E9101202630287E1
:10349000C2637047D06002084C5A0208F8B5194B55
:1034A000018F1B888B4206462AD9174B1B682BB904
:1034B000164B174A17486C2120F048F913F81120D1
:1034C000154B1B6853F82250144B186800F0A8FEE7
:1034D0002B6807469B6B284698472B6804469B6CD5
:1034E0003946284698472B6814FB00F45B6A394636
:1034F00028469847A4B223181BB2A6F84630F8BD58
:103500000023FAE7B8280120B42801202C52020831
:103510006E520208A9520208BC280120C0280120CE
:103520002DE9F04F04468FB0A04600250EF0CAFAF0
:10353000924BE56348F8403B04F16C0A4046FFF7C4
:1035400075FF04F19807504604F1E006FFF76EFF9F
:103550003846FFF781FF304609F004FF04F5947305
:103560001846DFF848920393FFF776FF04F5BA7325
:10357000C4F828911846C4F870510493FFF76CFF03
:103580007F4BC4F87491C4E97A347E4BC4F8BC51C3
:10359000C4E97C35F02304F1040B2A4640464FF081
:1035A0007F49009329464FF4A073FFF72CFF414653
:1035B0005846C4F8689006F0EBF9F0232A465046C6
:1035C000009329464FF4A073FFF71DFF6E4BC4F81C
:1035D00094305146584606F0DBF90DF118083822B0
:1035E0002D213846FFF702FF39464046C4F8C890FF
:1035F000A4F8CC5009F03EF998E8070004F1D40390
:1036000083E80700DFF8A8A1CDF830A009230CA9B2
:103610003846ADF8343009F0D5FB3946584606F047
:10362000B7F93046B6224921FFF7E0FE02230CAA83
:103630000BA93046ADF82C300323ADF8303009F03B
:103640001EFC08233046A4F81831FFF727FF4FF07F
:10365000FF33C4E9473304F5F4733146C4F8083145
:10366000584606F095F91E235A22039800934921E3
:10367000D523FFF7C8FED4F828310399D3F8843056
:10368000C4F858914046A4F85C51984798E8070060
:1036900004F5B2733D4E83E8070004F5E07305932B
:1036A00033682BB93A4B3B4A60213B4820F04EF837
:1036B000DFF80091B9F80030062B03D8374B354AB4
:1036C0006121F2E7364F0621386800F0A9FD354A3E
:1036D00003460A2105980FF0A3FE059B0398C4F842
:1036E00070310CA90723ADF83430CDF830A009F0C3
:1036F00069FB0399584606F04BF91B232A460498A8
:1037000000934921E123FFF77EFE274BC4F8A43143
:10371000D4F874310499D3F88430A4F8A851404601
:10372000984798E8070004F5D87383E807003368E2
:1037300004F5EA75002BB5D0B9F80030042BBDD9DB
:103740003868042100F06CFD164A03460A21284619
:103750000FF066FE05230498C4F8BC510CA9ADF81F
:103760003430CDF830A009F02DFB5846049906F00E
:103770000FF920460FB0BDE8F08F00BF945B020840
:103780007C5B0208C9330008EFF781FFB4280120F1
:103790002C5202082E530208A9520208F0520208C5
:1037A000C0280120795302080000FFFFEC5A0208EC
:1037B0004C5A0208B8280120406A7047806A704756
:1037C00070478A880B8810B5D20A4C88C1699BB2B1
:1037D00051F8220043EA0443184410BD10B50446D2
:1037E000BAB1107B68B1537BD27A1B0203F4E06359
:1037F0001A43236A03EB82031A888A4202D193F99F
:10380000020010BD05D8013880B204330028F3D17E
:10381000F7E70020F5E710B52C2104461EF058FF0D
:10382000204610BD30B58BB00446BDF860500895F9
:10383000BDF85C5007959DF8505006959DF84C508A
:1038400005959DF8485004959DF8445003959DF8C2
:10385000405002959DF83C500195BDF838500095B8
:103860000DF036FF064B2360159BE361169B236228
:10387000199B63621A9BA36220460BB030BD00BF48
:10388000C85B020870477047704730B4C26844682C
:103890005510034604EB6200D20748BF62599B688B
:1038A00030BC48BFD35818470346406830B19A68C7
:1038B0001AB9D86800F0010070470120704710B5B0
:1038C000102104461EF004FF204610BD10B54FF431
:1038D000C87104461EF0FCFE204610BD9830884298
:1038E00008B505D10CF0EAF8BDE80840FFF7AABA20
:1038F00008BD00000022C0E90122C0E90322C0E99E
:103900000522C0E907224FF480728284014A0260D6
:10391000704700BF305C020838B5262204460D46C9
:10392000002120F086F92046FFF7E4FF064B2360D4
:103930002B88E384FF23204684F82830294609F0A9
:10394000D0FB204638BD00BFC86102082DE9F04F0A
:1039500004468DB0A14600250EF0B4F8684BE5632F
:1039600049F8403B4846FFF761FD04F16C0304F160
:103970009808184604F1E0070393FFF757FD404607
:1039800009F0F0FC29462622384620F052F9384644
:10399000FFF7B0FF5B4BC4F8E0305B4BC4F8083175
:1039A00004F594724FF47F034FF0FF3A4FF6FF7621
:1039B00004F5AA7BC4F81431C4E948A5A4F80C6145
:1039C000C4F81051A4F81851C4F81C510AA91046A3
:1039D0000292ADF828A0FFF79FFF0AA95846ADF85C
:1039E0002860FFF799FF494BC4E96034484BF02247
:1039F000C4E96235294600924FF4A0732A4648462E
:103A0000FFF701FD261D4FF07F42A2664946304672
:103A100005F0BEFFF0220398009229462A464FF493
:103A2000A073FFF7F0FC3B4BC4F894300399304689
:103A300005F0AEFF4046B0222821FFF7D7FC0AAAC6
:103A400009A901234046ADF82450ADF8283009F00B
:103A500016FA0323A4F8D0304046FFF71FFD04F503
:103A6000C073C4F8C03041463046C4E935AA05F0F9
:103A70008FFF38460D223721FFF7B8FC4FF07F4209
:103A8000A4F8145104ADC4F810213946284608F0B2
:103A9000F1FE95E8070004F58E7383E807001A4BE2
:103AA0000A930AA902233846ADF82C3009F08AF9A6
:103AB0003946304605F06CFF492202982121FFF774
:103AC00095FC08230298ADF828300AA909F009FBF3
:103AD0000299304605F05CFF49225846FA21FFF76B
:103AE00085FC07230AA95846ADF8283009F0F9FAF1
:103AF0003046594605F04CFF20460DB0BDE8F08F2A
:103B0000B05C0208D06002084C5A0208985C0208B7
:103B1000DD380008EFF781FF7047704710B54FF4AC
:103B20000D7104461EF0D4FD204610BD08B50BF003
:103B3000C5FFBDE80840FFF795B9000010B5262283
:103B40000446002120F075F82046FFF7D3FE0A4B0B
:103B5000A3624FF6FF73A3854FF47F020023C4E9ED
:103B60000C32064A226023874FF0FF32C4E910234B
:103B7000E363A364204610BD4C5A0208EC5A0208C5
:103B80002DE9F04F04468FB0264600250DF09AFF30
:103B9000A44BE56346F8403B04F16C093046FFF75F
:103BA00045FC04F198084846FFF740FC04F1C407BF
:103BB0004046FFF73BFC4FF6FF7A0CA93846ADF8BC
:103BC00030A0FFF7A9FE04F1F00318460393FFF7B6
:103BD000B5FF04F59E730CA918460593ADF830A007
:103BE000FFF79AFE04F5B4730CA918460693ADF8D6
:103BF00030A0FFF791FE04F5CA730CA9184607938D
:103C0000ADF830A0FFF788FE04F5E07318464FF0DA
:103C1000F00B0493FFF792FF2A4630464FF4A0734F
:103C20002946CDF800B0FFF7EEFB04F1040A4FF08F
:103C30007F433146A366504605F0AAFE2A46484611
:103C40004FF4A0732946CDF800B0FFF7DCFB764BAC
:103C5000C4F894304946504605F09AFE8223BE22AD
:103C60004046009329464FF4A073FFF7CCFB6F4BFF
:103C7000C4F8C0304146504605F08AFE92223846CC
:103C80004FF4C871FFF7B2FB052338460CA9ADF815
:103C900030304FF0210809F024FA3946504605F03B
:103CA00077FE2A460398CDF800809523DD21FFF7A3
:103CB000AAFB4FF07F43C4F82031D4F8F0300399C9
:103CC000D3F88430A4F8245108AE3046984796E8DB
:103CD0000700DFF87C9104F5967383E80700D9F8B4
:103CE000003004F503772BB9514B524A60215248FA
:103CF0001FF02CFD514B1B880A2B03D8504B4D4A0B
:103D00006121F4E7DFF84CB10A21DBF8000000F094
:103D100087FA4C4A03460A2138460FF081FB0B23F1
:103D20000398C4F838710CA9474FADF834300C979C
:103D300009F048F80399504605F02AFE42460598D6
:103D40004FF4A471FFF752FB4FF004080598ADF84B
:103D500030800CA909F0C5F90599504605F018FE08
:103D60003F2206984FF4CA71FFF740FB0698ADF862
:103D700030800CA909F0B5F90699504605F008FE07
:103D80008F2207981821FFF731FB08230798ADF819
:103D900030300CA909F0A5F90799504605F0F8FD57
:103DA00019232A46049800930721DD23FFF72BFBF4
:103DB000264BC4F8F031D4F8C0310499D3F88430DC
:103DC000A4F8F4513046984796E8070004F5FE73CE
:103DD00083E80700D9F8003004F50876002B83D07B
:103DE000164B1B88002B89D02946DBF8000000F019
:103DF00017FA144A03460A2130460FF011FB01233B
:103E00000498C4F808620CA9ADF834300C9708F097
:103E1000D9FF5046049905F0BBFD20460FB0BDE820
:103E2000F08F00BFE45C0208EFF781FF2B2321FF36
:103E30002C5202082E530208A9520208B828012069
:103E4000F0520208795302084C5A02080000FFFFA2
:103E5000B4280120C02801207047000030B5174D5C
:103E60002C6814F001048FB0BFF35B8F22D1284679
:103E70001EF030FCF0B13F230993114B0893114B16
:103E800007930123CDE9053304930423CDE90243CD
:103E900014230D49009310221623CDE90B440B483F
:103EA0000A940194FFF7BEFC09481FF06DFC2846F8
:103EB0001EF01CFC05480FB030BD00BFB819002033
:103EC00038920208A49202087C8E0208BC190020D5
:103ED000593E00087047000030B5174D2C6814F0AB
:103EE00001048FB0BFF35B8F23D128461EF0F2FB95
:103EF000F8B13F230993114B0893114B0793022309
:103F0000CDE9053301220423CDE903321E230D49F7
:103F100000930A222123CDE90B44CDE901440A484C
:103F20000A94FFF77FFC09481FF02EFC28461EF07C
:103F3000DDFB05480FB030BDE81900204C920208A7
:103F4000A89202085C8F0208EC190020D53E0008F8
:103F50007047000030B5174D2C6814F001048FB085
:103F6000BFF35B8F22D128461EF0B4FBF0B13F2394
:103F70000993114B0893114B07930123CDE9054396
:103F800004930423CDE9024314230D4900931E2218
:103F90001823CDE90B440B480A940194FFF742FC27
:103FA00009481FF0F1FB28461EF0A0FB05480FB0A2
:103FB00030BD00BF181A002064920208AC920208BB
:103FC000E88F02081C1A0020513F000870470000CB
:103FD00030B5164D2C6814F001048FB0BFF35B8F21
:103FE00020D128461EF076FBE0B13F230993104B09
:103FF0000893104B104911480A940122CDE9064359
:104000000423CDE9033219230093CDE90B44CDE914
:1040100001440594FFF706FC09481FF0B5FB28464C
:104020001EF064FB05480FB030BD00BF481A0020E9
:104030009C920208B09202088C9102084C1A00204F
:10404000CD3F00087047000030B5164D2C6814F0C5
:1040500001048FB0BFF35B8F21D128461EF03AFBDD
:10406000E8B13F230993104B0893104B10491148B6
:104070000A94CDE9064301220423CDE903321E232D
:1040800000930B22CDE90B44CDE901440594FFF7E1
:10409000C9FB09481FF078FB28461EF027FB05489E
:1040A0000FB030BD781A0020A0920208B492020826
:1040B0009C9102087C1A00204540000800207047AF
:1040C000002070470EB403B503AB002153F8042B56
:1040D00001930CF07BFD02B05DF804EB03B0704778
:1040E0000CB407B504AB53F8042B01930CF06EFD30
:1040F00003B05DF804EB02B070470000436C10B5EC
:10410000044673B3038F2BB9184B194AC5211948BC
:104110001FF01CFBC38E00EB43035B8C0BB30EF054
:10412000D6FB238F012B03D8134B144ACB21EEE788
:10413000E28E531C9BB2092B194688BFA3F10A01DA
:1041400004EB410140F63F10498C814209D10A2B12
:1041500004EB420228BF002304EB4303508C588435
:1041600051842046BDE810400EF0B4BA7C530208DA
:1041700085530208305402087A5402088854020811
:104180000EF06FBA10B586B002AC84E806001A468D
:104190000AAB05930193099B00932146089B0BF002
:1041A0002BF806B010BD000038B518BB124B1348F1
:1041B0001C681349B4B12268224402606268224438
:1041C0000A60A26814440F4B00221A8000F038F8ED
:1041D000054600F033F80C4B1C600C4B1D600C4B7B
:1041E000188007E00B4B03600B4B0B600B4B1C68FC
:1041F000002CE8D138BD00BFB41A0020AC1A002052
:10420000A81A0020B01A0020B4280120BC280120E0
:10421000B8280120E8920208B89202088C9302089C
:10422000044B1B6853F82100034B1B6803EB400051
:10423000704700BFA81A0020AC1A00200C2070475D
:1042400000487047B81A002010B5FFF783FE074CEE
:104250002060FFF7F9FE6060FFF7BAFEA060FFF78D
:104260003BFEE060FFF7FAFD206110BDB81A0020A8
:1042700010B5002404600C6014601C6010BD704711
:1042800010B54FF4AE7104461EF022FA204610BD60
:1042900010B50446D0F8580100F0EDF82046BDE80E
:1042A00010400BF08DBC000010B50446FEF786FDF3
:1042B000014B2360204610BD1C5D02087047043886
:1042C0007047704710B5102104461EF001FA2046D1
:1042D00010BDA0F10400F5E700228260024A0260EE
:1042E00018324260C1607047705D0208704700007C
:1042F00010B5034B03600446FEF7F9FF204610BDDE
:10430000985D020810B50446FFF7F2FF20464FF40F
:1043100004711EF0DDF9204610BD000090F8003257
:1043200010B50446A3B1D0E98132934211DA9B075C
:1043300009D190F80C2282F0010280F80C22202191
:10434000084801F02FFAD4F804320133C4F80432DB
:1043500010BD04480022202101F024FA002384F833
:104360000032F0E70000024010B50446FFF7D8F82D
:10437000064B23600023C4E98133C4F8F83184F884
:10438000003284F80C32204610BD00BF985D020850
:1043900038B50446FEF7ACFF144B154A154D1B68A3
:1043A0001268C4F8F8310A21C4F8FC2104F5E07061
:1043B0002A460FF035F804F594700CF031FDD4F86E
:1043C000FC312A460A2104F5EA700FF029F804F5B9
:1043D000BA700CF025FD012384F80032502200232E
:1043E000C4E9813284F80C3238BD00BFD01A0020F5
:1043F000CC1A00205A55020870470438704770479D
:1044000010B5102104461EF063F9204610BDA0F13E
:104410000400F5E700228260024A0260183242601E
:10442000C1607047CC5D02087047000010B5034BB7
:1044300003600446FFF727FA204610BDF45D02082A
:1044400010B50446FFF7F2FF20464FF4C8711EF086
:104450003FF9204610BD000010B50446FFF776FA7C
:10446000014B2360204610BDF45D0208FFF70CBA33
:1044700000220260704770477047043870477047E9
:1044800010B5102104461EF023F9204610BDA0F1FE
:104490000400F5E700228260024A0260183242609E
:1044A000C1607047285E02087047000010B5034BDA
:1044B00003600446FFF730FB204610BD505E020843
:1044C00010B50446FFF7F2FF20464FF41F711EF0AF
:1044D000FFF8204610BD000010B50446FFF750FB62
:1044E0000E4B236001220023C4E98D33C4E99133CC
:1044F000C4E99633C4E99C33C4F83C2284F84032C2
:10450000C4F84C32C4F8603284F86632C4F86832B9
:1045100084F86C3284F87832204610BD505E020870
:1045200030B587B0044600F00BFF0023CDE900331F
:104530000B2201230225694601A8CDE90323059535
:1045400000F0F2FF034618B100F00CFF07B030BDD9
:1045500002492246284600F037FFF5E700000E0822
:10456000024B1868431C08BF0020704700000E086B
:1045700010B50446FFF7D1FAB4F99E21B4F99E3084
:104580009B1AC4F83432A4F89A311E4B1B88C4F825
:1045900044329223C4F848321FF0E8F9032390FB19
:1045A000F3F303EB4303C01AD4F84432A4F8C83041
:1045B000D4F84832A4F8CA300023C4E99633FF2265
:1045C00084F86632C4F8683204304FF07F43C4F890
:1045D0002031C4F84C02A4F8642204F1F0000CF07D
:1045E0001FFCFFF7BDFF084A034610600A2104F5CF
:1045F0000870064A0EF014FF04F5E070BDE81040A4
:104600000CF00EBC50280120CC1A00205A5502088C
:104610002DE9F74304460121D74801F0BDF80128F0
:1046200094F8403234D173B96FF00E02C4F83822D6
:104630000A2284F8400284F86C02C4F87032C4F88C
:10464000742284F8783204F5CA7528460CF0E8FB29
:10465000D4E98D21D4F83C320B440A44C4F83832F2
:10466000B4F99E11B4F99E30C4F834225B1A9A4210
:1046700006DBC4F834320023C4F8383284F8403200
:10468000D4F83432A4F89A3128460CF0C9FB01E082
:10469000002BD8D104F1C40528460CF0C1FBD4F896
:1046A0004432D4F84C229B1AB4F9CC20C4F84432DA
:1046B000DA422FD5B14B1B88C4F844321FF056F9AB
:1046C000D4F86032002800F0010003F10103B8BF04
:1046D0004042052293FBF2F202EB820204309A1A66
:1046E000C4F84C02C4F860320AD194F86512C4F8D8
:1046F000682281F0010184F86512012184F86612B4
:104700009F4A0A2104F503700EF08AFE04F1F000BE
:104710000CF086FBD4F84432A4F8C830D4F8483200
:10472000A4F8CA30284604F59E750CF079FB28469B
:104730000CF076FBD4F85032B4F94421013BDA4254
:10474000C4F8503242BF8D4B1B88C4F85032D4F8A5
:104750005032A4F84031284604F5B4750CF060FBE3
:1047600028460CF05DFB94ED957AB4F97031F7EEC4
:10477000047A37EE677A07EE903AF8EEE77A84ED3E
:10478000957A77EE877AF5EEC07AF1EE10FA07D5D2
:104790007A4B1B8807EE903AF8EE677AC4ED957A6B
:1047A000D4ED957AFDEEE77A284617EE903AA4F814
:1047B0006C310CF035FB94F84032002B00F0B780E0
:1047C00004F5CA750823284601A9ADF8043008F09D
:1047D00088FC28460CF024FBB4F99831D4F8440244
:1047E000C01AFBF7A7FEB4F99A310646D4F848027E
:1047F000C01A0F46FBF79EFE3246804689463B466E
:1048000030463946FBF700FF424606460F464B4608
:1048100040464946FBF7F8FE02460B46304639460D
:10482000FBF73CFD41EC100B1DF079FF554B51ECB3
:10483000100B0022FCF75AF900B3534BD4F8602256
:104840001A60524B19688A42C8BF1A601868FFF78D
:1048500067FE4A4A00231288C4F86032C4F8442232
:104860000A21474A04F503700EF0DAFD04F1F00066
:104870000CF0D6FA23682046DB6A984794F8652244
:1048800094F86432002A73D0322B02D9033B84F8A7
:10489000643294F8643203EB032203EB022343F007
:1048A0007F43C4F8943004F16C000CF0B9FA94F82A
:1048B00066321BB3D4F868320A220133C4F8683276
:1048C00093FBF2F102FB1133042B04F1F005304BA2
:1048D000C8BF4FF07F43C4F8203128460CF0A0FA3F
:1048E000D4F868321E2B09DD002384F866324FF0BD
:1048F0007F43C4F8203128460CF092FA94F86C32C9
:1049000093B1D4E99C239A4244DA94F878221A4865
:1049100082F0010284F87822202100F043FFD4F8CD
:1049200070320133C4F8703203B0BDE8F083D4F8BC
:1049300058320133042BC4F858327FF74DAFD4F806
:104940005C32C3F10103C4F85C3204F5CA756BB97B
:10495000082301A92846ADF8043008F0C2FB284618
:104960000CF05EFA0023C4F8583235E70923F0E76B
:10497000FF2B8ED003338AE700000240502801202D
:104980005A55020800004640D01A0020CC1A0020D8
:104990000000FFFF04480022202100F003FF002355
:1049A00084F86C32C0E700BF00000240F02070477E
:1049B0004FF4A07070472920FDF7D4BD2820FDF7E3
:1049C000D1BD08B5FDF7A2FDCA20FDF7CBFDC32080
:1049D000FDF7ACFD0820FDF7A9FD5020FDF7A6FD71
:1049E000CF20FDF7BFFD0020FDF7A0FDC120FDF7A2
:1049F0009DFD3020FDF79AFDED20FDF7B3FD64200D
:104A0000FDF794FD0320FDF791FD1220FDF78EFDCB
:104A10008120FDF78BFDE820FDF7A4FD8520FDF743
:104A200085FD0020FDF782FD7820FDF77FFDCB207E
:104A3000FDF798FD3920FDF779FD2C20FDF776FD77
:104A40000020FDF773FD3420FDF770FD0220FDF717
:104A50006DFDF720FDF786FD2020FDF767FDEA20BC
:104A6000FDF780FD0020FDF761FD0020FDF75EFDF4
:104A7000B120FDF777FD0020FDF758FD1B20FDF765
:104A800055FDB620FDF76EFD0A20FDF74FFDA22073
:104A9000FDF74CFDC020FDF765FD1020FDF746FD3C
:104AA000C120FDF75FFD1020FDF740FDC520FDF79B
:104AB00059FD4520FDF73AFD1520FDF737FDC720CC
:104AC000FDF750FD9020FDF731FD3620FDF74AFD42
:104AD000C820FDF72BFDF220FDF744FD0020FDF777
:104AE00025FDB020FDF73EFDC220FDF71FFDB620DD
:104AF000FDF738FD0A20FDF719FDA720FDF716FD8B
:104B00002720FDF713FD0420FDF710FD2A20FDF7F7
:104B100029FD0020FDF70AFD0020FDF707FD00201C
:104B2000FDF704FDEF20FDF701FD2B20FDF71AFD39
:104B30000020FDF7FBFC0020FDF7F8FC0120FDF74D
:104B4000F5FC3F20FDF7F2FCF620FDF70BFD012000
:104B5000FDF7ECFC0020FDF7E9FC0620FDF7E6FC84
:104B60002C20FDF7FFFCC820FDF74AFD2620FDF7AD
:104B7000F9FC0120FDF7DAFCE020FDF7F3FC0F2043
:104B8000FDF7D4FC2920FDF7D1FC2420FDF7CEFC55
:104B90000C20FDF7CBFC0E20FDF7C8FC0920FDF72B
:104BA000C5FC4E20FDF7C2FC7820FDF7BFFC3C2081
:104BB000FDF7BCFC0920FDF7B9FC1320FDF7B6FC9E
:104BC0000520FDF7B3FC1720FDF7B0FC1120FDF721
:104BD000ADFC0020FDF7AAFCE120FDF7C3FC00209E
:104BE000FDF7A4FC1620FDF7A1FC1B20FDF79EFCA1
:104BF0000420FDF79BFC1120FDF798FC0720FDF732
:104C000095FC3120FDF792FC3320FDF78FFC42200C
:104C1000FDF78CFC0520FDF789FC0C20FDF786FCD8
:104C20000A20FDF783FC2820FDF780FC2F20FDF7EC
:104C30007DFC0F20FDF77AFC1120FDF793FCC820C6
:104C4000FDF7DEFC2920FDF78DFCBDE808402C2097
:104C5000FDF788BC08B5FDF759FC0321D320FDF70B
:104C60009DFC80B208BD10B5C4B2022203212046CB
:104C7000FDF702FC0A20FDF747FC20460022032135
:104C8000FDF7FAFBBDE810400220FDF73DBC38B54A
:104C90000446E4B2FDF7EEFB00212046FDF704FCDC
:104CA000012105462046FDF7FFFB40EA052080B2C2
:104CB00038BD10B5C4B240212046FDF7F5FB030610
:104CC00007D54C212046FDF7EFFB003818BF012027
:104CD00010BD01224B212046FDF7CEFB20460022CD
:104CE0004B21FDF7C9FB0020F2E773B50423C4B2E2
:104CF0000E461546D7210DEB03022046FDF7EEFBCD
:104D0000019B1BBA1A0DC3F30B23328020462B8064
:104D100001224B21FDF7B0FB00224B212046FDF77D
:104D2000ABFB02B070BD000010B50A4A1378984280
:104D300004460DD0517888420AD00BB141B9012305
:104D4000D454FDF797FB2046BDE81040FFF78BBF1A
:104D500010BD00BFD41A002010B5C4B209212046EE
:104D6000FDF7A2FB40F00102D2B220460921BDE8C6
:104D70001040FDF781BB10B5C4B209212046FDF7F4
:104D800093FB092100F0FE022046BDE81040FDF72C
:104D900073BB38B5C4B20D4620460A21FDF784FB2B
:104DA00040EA0502D2B220460A21BDE83840FDF7AC
:104DB00063BB10B50446FDF75EFB20461F21FFF7DD
:104DC000E8FF2046BDE81040FFF7C6BF38B5C4B2C3
:104DD0000D4620460A21FDF767FB20EA0502D2B204
:104DE00020460A21BDE83840FDF746BB10B5044611
:104DF000FFF7C1FF20461F21BDE81040FFF7E6BFC7
:104E000010B5C0B20C460B21FDF74EFB204010BD83
:104E10001F21FFF7F5BF0A46C0B20B21FDF72CBBDF
:104E20001F21FFF7F8BF38B5C4B20D462046172141
:104E3000FDF73AFB20EA0502D2B220461721BDE871
:104E40003840FDF719BB70B5C4B2064604212046B0
:104E5000FDF72AFB042100F0FB0205462046FDF782
:104E60000BFB3046F021FFF7DEFF05F0F80220468D
:104E70000421FDF701FB492220212046FDF7FCFA21
:104E80000220FDF741FB204601222121FDF7F4FA23
:104E900020469A224121FDF7EFFA204601224A21BD
:104EA000FDF7EAFA204601224B21FDF7E5FA2046FC
:104EB00000224B21FDF7E0FA204601225621FDF7A2
:104EC000DBFA204601225821FDF7D6FA20460122BE
:104ED0004021FDF7D1FA2046FF220B21FDF7CCFA45
:104EE000BDE870400220FDF70FBB0000054BD3F872
:104EF000882042F47002C3F888204FF000629A6064
:104F0000704700BF00ED00E008B50B4B1A6842F493
:104F100000721A601A6842F480621A601A6842F4D9
:104F200080721A60032000F02FF80020FDF7AAFD20
:104F3000FDF774FB002008BD003C0240034A044B0F
:104F400011681B780B441360704700BFD81A00200B
:104F500078000020014B1868704700BFD81A002065
:104F600038B50446FFF7F6FF631C1CBF054B1B78E2
:104F7000054618BFE418FFF7EDFF431BA342FAD321
:104F800038BD00BF780000200749CA6822F4E062FB
:104F90000302120403F4E063120C134343F0BF63F3
:104FA00043F40033CB60704700ED00E0164B30B5A2
:104FB000DC68C4F30224C4F10703251D042B28BFB9
:104FC0000423062D4FF0FF358CBF033C002405FA67
:104FD00003F321EA0303A54022EA0502A3400028C7
:104FE00043EA0203ACBF00F16040084A4FEA0313F2
:104FF000B8BF00F00F00DBB2AABF00F56140135448
:1050000080F8003330BD00BF00ED00E014ED00E09B
:10501000002807DB044A4109012300F01F008340F8
:1050200042F82130704700BF00E100E010B50446AF
:1050300050B1437903F0FF0213B90271FDF70EFB83
:1050400001236371002010BD0120FCE710B5044668
:1050500020B390F8393003F0FF021BB980F83820F4
:10506000FDF714FB022384F83930236861681A685D
:1050700022F440320A431A605A6BA16822F00702F8
:105080000A435A631A6CE1686FF30D020A431A640B
:1050900000200123E06384F8393010BD0120FCE7D3
:1050A00070477047036870B55E681D68F207044674
:1050B00014D5E90512D51A6822F480721A60C26B01
:1050C00042F00102C26301229A60042380F8393061
:1050D000002380F83830436903B19847B20616D5EB
:1050E000AB0414D523681A6822F400521A602022F7
:1050F0009A60E36B43F00203E363042384F83930DE
:10510000002384F8383063690BB120469847300794
:1051100016D5290514D523681A6822F400621A608E
:1051200008229A60E36B43F00403E363042384F8EA
:105130003930002384F8383063690BB12046984732
:1051400072070BD56B0509D523681A6822F48062B3
:105150001A6004229A602046FFF7A2FFB00714D518
:10516000A90512D523681A6822F400721A60022277
:105170009A60E36BE363012384F83930002384F8F9
:10518000383023690BB120469847F20613D5EB045B
:1051900011D523681A6822F480521A6010229A608E
:1051A000E36BE363012384F83930002384F838305B
:1051B0002046FFF776FF70BDF0B590F83820012A41
:1051C00003464FF002002BD0012283F8382083F8E9
:1051D000390003EB0112D2E90740556A174F44EA40
:1051E0000040093C012C9CBF05F07F4210434FEA70
:1051F00001161A6888BF40EA056091B9516A3940C2
:1052000001435162012C9969916103D8596A21F0D7
:105210007F4191620122002083F8392083F8380011
:10522000F0BDD16939400143D1619919012C8969D7
:1052300011619CBF25F07F451562EBE7F0FFFC0094
:10524000094910B50C6924F440740C610C6944F4EC
:1052500040740C610C6944F001040C610260BFF3FE
:105260006F8F436010BD00BF003C0240074B1A69BE
:1052700022F440721A611A6942F400721A611A69C2
:1052800042F001021A610160704700BF003C024019
:10529000074B1A6922F440721A611A6942F480724B
:1052A0001A611A6942F001021A610180704700BF59
:1052B000003C0240204BDA68D00606D51F49CA6977
:1052C00042F01002CA611022DA60DA68910606D54F
:1052D0001A49CA6942F00802CA612022DA60164BF4
:1052E000DA68520606D51549CA6942F00402CA6155
:1052F0004022DA60DA68100606D51049CA6942F021
:105300000202CA618022DA600B4BDA68D10507D548
:105310000A49CA6942F00102CA614FF48072DA6038
:10532000DA68920706D50549CA6942F02002CA61C7
:105330000222DA60704700BF003C0240DC1A002005
:10534000064B1A69002ABFBF054A5A6002F188322B
:105350005A60BABF1869C00F00207047003C024075
:1053600023016745034A136943F00043136100209A
:10537000704700BF003C0240114B70B5002204464C
:10538000DA61FFF7E7FD0F4D0646EB68DA030CD450
:10539000EB68DB0744BF0123EB60E86810F4F970A9
:1053A00007D0FFF787FF012003E0611CEDD00CB9A7
:1053B000032070BDFFF7CEFD801BA042E5D9F7E7C3
:1053C000DC1A0020003C02402DE9F0411F4E9846B7
:1053D000337E012B07460D46144635D001234CF28F
:1053E00050303376FFF7C8FFB0B9CFB9184B1A6900
:1053F00022F440721A611A691A611A69E4B242F021
:1054000001021A612C704CF25030FFF7B5FF104AC0
:10541000136923F00103136100233376BDE8F081A3
:10542000012F04D1A1B22846FFF732FFEBE7022F8C
:1054300004D121462846FFF719FFE4E722464346F8
:105440002846FFF7FDFEDEE70220E7E7DC1A002032
:10545000003C02400C4B1A6922F440721A61032985
:105460001A690BD142F4004242F004021A611A692F
:1054700042EA002040F48030186170470129F3D0DF
:1054800042F40042F2E700BF003C02400F4B1A69B1
:1054900022F440721A611A69022994BF09024FF47A
:1054A00040710A431A611A6922F0F8021A611A69F6
:1054B0000B2888BF043042EAC00242F002021A619F
:1054C0001A6942F480321A61704700BF003C024002
:1054D000144B1A6891050FD51A6822F400721A60ED
:1054E0001A6842F400621A601A6822F400621A60B4
:1054F0001A6842F400721A600A4B1A6852050FD5F6
:105500001A6822F480621A601A6842F480521A60A3
:105510001A6822F480521A601A6842F480621A6093
:10552000704700BF003C02402DE9F843DFF89C8043
:1055300098F81830012B05460F4642D001234CF253
:10554000503088F81830FFF717FF0446B8B94FF00D
:10555000FF333B602B68012B17D16968287CFFF76C
:1055600079FF4CF25030FFF707FF174A136923F415
:10557000004323F0040304461361FFF7A9FF00234F
:1055800088F818302046BDE8F883AE68DFF8389018
:10559000D5E902231344B342EFD9297C3046FFF703
:1055A00075FF4CF25030FFF7E7FED9F8103023F0CA
:1055B000FA03C9F8103010B13E600446DDE7013649
:1055C000E6E70224DEE700BF003C0240DC1A0020D0
:1055D0002DE9F74FDFF8BC916C4A00230D680124D8
:1055E0009C4004EA0506AC4340F0B7804D680327B1
:1055F00005F003044FEA430807FA08FC671E012F71
:105600006FEA0C0C34D8876807EA0C0ECF6807FAEB
:1056100008F747EA0E078760476827EA060EC5F3D2
:1056200000179F4047EA0E074760C76807EA0C0E5D
:105630008F6807FA08F747EA0E07022CC76019D1EE
:105640004FEAD30A00EB8A0A03F0070BDAF820705E
:105650004FEA8B0B4FF00F0E0EFA0BFE27EA0E0EE1
:105660000F6907FA0BF747EA0E07CAF8207001E046
:10567000032CDAD1076804FA08F407EA0C073C4364
:1056800015F4403F046068D000240194D9F84440E8
:1056900044F48044C9F84440D9F8444023F0030757
:1056A00007F1804704F4804407F59C37019403F028
:1056B000030C019CD7F808E04FEA8C0C0F2404FA85
:1056C0000CF42EEA040E324CA0424DD004F5806456
:1056D000A0424BD004F58064A04249D004F5806418
:1056E000A04247D004F58064A04245D004F5806410
:1056F000A04243D004F58064A04241D004F5806408
:10570000A0423FD004F58064A0423DD004F58064FF
:10571000A04214BF0A24092404FA0CF444EA0E043B
:10572000BC609468F74315F4801F0CBF3C403443C1
:105730009460D46815F4001F0CBF3C403443D4601F
:10574000546815F4003F0CBF3C4034435460146867
:10575000ED0354BF3C40344314600133102B7FF4FD
:105760003DAF03B0BDE8F08F0024D5E70124D3E7B7
:105770000224D1E70324CFE70424CDE70524CBE7B7
:105780000624C9E70724C7E70824C5E7003C014011
:1057900000000240003802400369194214BF012092
:1057A000002070470AB1816170470904FBE7436933
:1057B00001EA030221EA030141EA024181617047E3
:1057C000044A5169014208B502D05061FDF7C6F99B
:1057D00008BD00BF003C014001684B6913F48063C1
:1057E0004FF0000210D06FF480634B6120230263FE
:1057F00080F83D3080F83E20036C80F83C2043F078
:105800000403036401207047184670472DE9F846E9
:1058100006460F4691461D464FEA114A3368BAF1D3
:10582000010F0CBF5C699C6927EA0404A4B2B4FAB6
:1058300084F46409A14501D0002025E06A1CEED063
:10584000FFF788FB089BC01AA84201D8002DE5D1BC
:105850003368BAF1010F0CBF5B699B6927EA030348
:105860009BB2B3FA83F35B099945D7D10023202279
:10587000336386F83D2086F83E30326C86F83C3043
:1058800042F0200232640120BDE8F8862DE9F041A3
:1058900004460F46164698462568686927EA0000C0
:1058A00080B2C0B16B695A0517D52B6843F40073F9
:1058B0002B606FF480636B6120220023236384F8E4
:1058C0003D2084F83E30236C43F00403236400231E
:1058D00084F83C300120BDE8F081731CDDD0FFF777
:1058E00039FBA0EB0800B04201D8002ED4D12368C8
:1058F0005A6927EA020292B2002ACDD00023202260
:10590000236384F83D2084F83E30236C1343DDE7A5
:1059100070B504460D46164623685B691B0601D523
:1059200000201EE02046FFF757FFC8B96A1CF3D0DD
:10593000FFF710FB801BA84201D8002DECD1236893
:105940005B6913F08003E7D12022236384F83D20B4
:1059500084F83E30226C84F83C3042F0200222640D
:10596000012070BD2DE9F0431546026885B0DDE9E0
:105970000C789946136843F4807313600E463B46D7
:10598000CDF8008000224FF001110446FFF73EFFE2
:10599000236838B11B68DB0502D54FF4007323641C
:1059A000032620E006F0FE061E611A4943463A46E9
:1059B0002046FFF76BFFA8B9236803905A6903924A
:1059C0009B690393424639462046039BFFF7A0FF9D
:1059D000064660B1236C042B01BF2268136843F4B0
:1059E000007313600126304605B0BDE8F083B9F1BD
:1059F000010F236802D1EDB21D61F4E72A0A1A6192
:105A0000394642462046FFF783FF0028E2D123684B
:105A1000F1E700BF020001002DE9FF479A46036845
:105A200015461A6842F480621A601A68DDE90C783B
:105A300042F480721A600E463B46CDF80080002288
:105A40004FF001110446FFF7E1FE236838B11B68EF
:105A5000DB0544BF4FF400732364032021E05FFAA9
:105A600086F906F0FE061E612B4943463A4620465B
:105A7000FFF70CFFA0B9236803905A6903929B6952
:105A80000393424639462046039BFFF741FF58B136
:105A9000236C042B01BF2268136843F40073136066
:105AA000012004B0BDE8F087BAF1010F23681AD1D4
:105AB000EDB242461D6139462046FFF729FF0246F6
:105AC0000028E5D121680B6843F480730B60204601
:105AD000CDF800803B464FF00111FFF797FE22689A
