:020000040800F2
:10000000000003205D060008F9210008FB2100081C
:10001000FD210008FF210008012200080000000067
:10002000000000000000000000000000116900084E
:100030000322000800000000A169000831620008E6
:10004000AD060008AD060008AD060008AD060008C4
:10005000AD060008AD060008AD060008AD060008B4
:10006000AD060008AD060008AD060008AD060008A4
:10007000AD060008AD060008AD060008AD06000894
:10008000AD060008AD060008AD060008AD06000884
:10009000AD060008AD060008AD060008AD06000874
:1000A000AD060008AD060008AD060008AD06000864
:1000B000AD060008AD060008AD060008AD06000854
:1000C000AD060008AD060008AD060008AD06000844
:1000D000AD060008AD060008AD060008AD06000834
:1000E000AD060008AD060008AD060008AD06000824
:1000F000AD060008AD060008AD060008AD06000814
:10010000AD060008AD060008AD060008AD06000803
:10011000AD060008AD06000805220008AD0600087F
:10012000AD060008AD060008AD060008AD060008E3
:10013000AD060008AD060008AD060008AD060008D3
:10014000AD060008AD060008AD060008AD060008C3
:10015000AD060008AD060008AD060008AD060008B3
:10016000AD060008AD060008AD060008AD060008A3
:10017000AD060008AD060008AD060008000000004E
:10018000AD060008AD060008AD060008AD06000883
:10019000AD060008AD060008AD060008AD06000873
:0C01A00011220008AD0600081D22000816
:1001B00010B5054C237833B9044B13B10448AFF3A1
:1001C00000800123237010BD800300200000000088
:1001D0002430020808B5034B1BB103490348AFF3B1
:1001E000008008BD000000008403002024300208C5
:1001F00001F0FF01102A2BDB10F0070F08D010F8D8
:10020000013B013A8B422DD010F0070F42B3F6D1DB
:10021000F0B441EA012141EA014122F007047FF0F4
:1002200000070023F0E80256083C85EA010586EA4B
:10023000010685FA47F5A3FA87F586FA47F6A5FA87
:1002400087F68EB9EED1F0BC01F0FF0102F0070293
:1002500032B110F8013B013A83EA010313B1F8D13E
:100260000020704701387047002D06BF354603381F
:10027000073815F0010F07D1013015F4807F02BF58
:10028000013015F4C03F0130F0BC0138704700BFA9
:100290007BB972B90029BEBF00204FF0004106E0D3
:1002A00008BF00281CBF6FF000414FF0FF3000F086
:1002B000D3B9ADF1080C6DE904CE002909DB002BA0
:1002C0001ADB00F04DF8DDF804E0DDE9022304B0AC
:1002D0007047404261EB4101002B1BDB00F040F80E
:1002E000DDF804E0DDE9022304B0404261EB4101A6
:1002F000524263EB43037047524263EB430300F007
:100300002FF8DDF804E0DDE9022304B0404261EBA0
:1003100041017047524263EB430300F021F8DDF8DE
:1003200004E0DDE9022304B0524263EB430370476B
:1003300053B94AB9002908BF00281CBF4FF0FF314C
:100340004FF0FF3000F088B9ADF1080C6DE904CE34
:1003500000F006F8DDF804E0DDE9022304B07047A0
:100360002DE9F047089D8E4604468846002B4AD169
:100370008A42174662D9B2FA82F64EB1C6F120031C
:1003800001FA06F820FA03F3B74043EA0808B4403C
:100390004FEA174E1FFA87FCB8FBFEF1230C0EFB49
:1003A000118843EA084301FB0CF29A4209D9FB1871
:1003B00001F1FF3080F0EA809A4240F2E780023992
:1003C0003B449A1AA3B2B2FBFEF00EFB102243EAA2
:1003D000024300FB0CFC9C4509D9FB1800F1FF32DD
:1003E00080F0D6809C4540F2D3803B44023840EAFE
:1003F0000140A3EB0C0300211DB1F3400022C5E92D
:100400000032BDE8F0878B4205D90DB1C5E9000186
:1004100000210846F5E7B3FA83F1002946D1734578
:1004200002D3824200F20581841A6EEB030201209E
:100430009046002DE5D0C5E90048E2E7002A00F02B
:100440009080B2FA82F6002E40F0A4808A1A030C43
:100450004FEA174E80B2BCB20121B2FBFEFC0EFB8C
:100460001C2243EA024304FB0CF29A4207D9FB1810
:100470000CF1FF3802D29A4200F2E080C4469B1A87
:10048000B3FBFEF20EFB123340EA034302FB04F41B
:100490009C4207D9FB1802F1FF3002D29C4200F2C5
:1004A000CA8002461B1B42EA0C40A5E7C1F12006A8
:1004B0008B4022FA06F71F430EFA01F420FA06F3E6
:1004C0002EFA06FE4FEA1749234300FA01F81FFAF5
:1004D00087FCBEFBF9F01C0C09FB10EE44EA0E444D
:1004E00000FB0CFEA64502FA01F209D93C1900F105
:1004F000FF3A80F09C80A64540F2998002383C4447
:10050000A4EB0E041FFA83FEB4FBF9F309FB1344BA
:100510004EEA044403FB0CFCA44508D93C1903F142
:10052000FF3E80F08280A4457FD9023B3C4443EAF1
:100530000040A4EB0C04A0FB02EC64457346E146CA
:1005400062D35FD05DB1B8EB030264EB090404FA37
:1005500006F622FA01F31E43CC40C5E900640021EF
:100560004FE7B1FBF2FC010C41EA0E4180B240EAD8
:1005700001423B4638463C46B846BE462026B1FBC3
:10058000F7F1A2EB080241EA0C4166E7014618E7E1
:1005900010462CE7C6F120022EFA02F3B740B14014
:1005A00020FA02F24FEA174E0A43B3FBFEF8BCB240
:1005B0000EFB1833110C41EA034108FB04F9B0406B
:1005C00089454FEA104380B23ED9791808F1FF3CC3
:1005D00001D289451FD8A1EB0901B1FBFEF909FB46
:1005E00004F80EFB191192B242EA0142424529D2A7
:1005F000BA1809F1FF31C4D24245C2D2A9F10201B1
:100600003A44BEE7F0459DD2BEEB02036CEB070C0B
:100610000138E14696E7A7EB09094944A8F1020C25
:10062000B1FBFEF909FB04F8DBE773467FE75046B0
:1006300066E70846FDE63B44023A33E7ACF1020CBC
:100640003B441CE749469CE7A1EB0901C446B1FBCA
:10065000FEF909FB04F8C4E7704700BFDFF834D0A7
:10066000002103E00C4B5B58435004310B480C4B0A
:1006700042189A42F6D30B4A02E0002342F8043BA8
:10068000094B9A42F9D303F055FB21F05DFF01F0CD
:1006900063F870470000032040BA0F0800000020F4
:1006A000640100208003002074350120FEE77047BC
:1006B00008B500F0BBFDBDE8084000F03FBD00F00C
:1006C000B7BD704710B50421044620F051FD204607
:1006D00010BD000038B50C4B0C4C18800C4B822020
:1006E00019806368984740F6110398420AD1094D72
:1006F00023682C60822098472B688220DB6898470B
:10070000002038BD0120FCE7A60300204C0000209B
:10071000A4030020A80300204FF4A071F020FFF7ED
:10072000D9BF0000F7B5394D2B6804461B698220FC
:100730009847208000284ED02B680DF106025B6997
:1007400001A982209847324B1B78002B4BD0BDF873
:10075000062040F674639A423FD9ADF80630BDF8E2
:1007600006209B1A9BB20A2B42D90B22B3FBF2F351
:10077000284A1288934201D9013A93B2BDF8042065
:10078000254840F6B8318A4234D8C2F571620E323B
:10079000016892B20F25B2FBF5F2204D2D88AA42D6
:1007A00084BF05F1FF35AAB28A4215468EB22AD916
:1007B000921B91B21A4E3768BB42BAB28CBF9A1ADA
:1007C000D21A92B211440529C4BF05603360036890
:1007D00063803368A38003B0F0BDB32A9CBFB4220A
:1007E000ADF80620BBE7BDF80630A3F5B473B9E752
:1007F0000023C3E7C2F56D62083292B20E2A016887
:10080000C8D800252A46891A89B2D3E7A803002050
:1008100058170020A4030020A0030020A6030020F6
:100820009C03002037B568460D461446FFF77AFF53
:10083000BDF8000030B1BDF802302B60BDF80430C7
:100840002360012003B030BD032821D8DFE800F089
:10085000020B12190F4B1A68B2FA82F252090421E4
:100860000D4803F0FBBC0B4B5A68B2FA82F25209F6
:100870000821F5E7074B9A68B2FA82F25209102173
:10088000EEE7044BDA68B2FA82F252092021E7E778
:10089000704700BFAC03002000100240032821D89D
:1008A000DFE800F0020B12190F4B1A68003A18BF6C
:1008B000012204210D4803F0D1BC0B4B5A68003AC9
:1008C00018BF01220821F5E7074B9A68003A18BFC4
:1008D00001221021EEE7044BDA68003A18BF01222A
:1008E0002021E7E7704700BFAC0300200010024062
:1008F00003280DD8DFE800F00206080A04210548A5
:1009000003F0B1BC0821FAE71021F8E72021F6E74F
:10091000704700BF0010024008B5032811D8DFE877
:1009200000F0020A0C0E0421074803F091FC431E5C
:100930005842584108BD0821F6E71021F4E720216C
:10094000F2E70020F3E700BF0010024070B5084D49
:1009500000240126E0B2FFF7DFFF18B12B68012B5E
:1009600018BF2E600134052C05F10405F2D170BDCD
:10097000AC030020012380F8781080F879307047AC
:100980007047002070470000034B4164003918BFD6
:1009900001211970704700BF3328012070470020E3
:1009A0007047836B0BB10846184770474FF6FF70CE
:1009B0007047406803689B691847704770477047E5
:1009C0007047704710B5044600F048FD236803499E
:1009D000D3F890302046BDE810401847000000D002
:1009E00008B503680446D3F8843098472368204646
:1009F000DB6F984700F0ECF8236820465B6F984760
:100A0000292001F019F900F0E3F8236820465B6F14
:100A10009847F8E710B5044608F072FD23682046B1
:100A2000D3F8BC30BDE81040184700F0FBBC00F024
:100A3000FFBC00F031BD00F0D1BC00F041BD00F0C2
:100A400049BD00F0D5BC07F089BF10B5842104462C
:100A500020F08EFB204610BD10B590F8341090F8B1
:100A600078400C4B8C421A7809D03AB90A4A0B49A3
:100A70001488088810800C8001221A7010BD002A8A
:100A8000FCD0054A05491488088810800C80002293
:100A9000F3E700BF2C280120282801202A28012064
:100AA00070B50D46194635B9094B0A4A0A4840F255
:100AB000FF2121F099FAC0E90F52084B003A18BF04
:100AC00001221A700368BDE87040D3F890301847CF
:100AD00094300208CC3002081A3102083228012072
:100AE00008B5094B1B888B4203D8084B1B889342DF
:100AF00005D9074B074A0848A32121F075FA074B8F
:100B00001980074B1A8008BD282801202A280120B7
:100B10005F310208C23102081A3102082E28012072
:100B200030280120034690F87A0018B1586803680D
:100B30001B68184770470000012108B500220846CD
:100B400005F000FC0A4B186028B90A4B0A4A282114
:100B50000A4821F049FA00220421012005F091FC05
:100B6000074B186018B9074B034A2C21F0E708BD62
:100B7000C0030020053202084E3202087D3202080E
:100B8000BC030020C3320208024B4FF0FF3118684B
:100B900005F022BCC0030020014B186805F048BCDA
:100BA000C0030020024B0021186805F015BC00BFEF
:100BB000C0030020FFF7F0BF03480449006800238A
:100BC0001A4605F099BC00BFBC03002004000020B9
:100BD00013B5084C00231A4601A9206805F0BDFC96
:100BE00020684FF0FF33002201A905F0B6FC02B0E7
:100BF00010BD00BFBC03002003685B6C18470120D8
:100C0000704703689B6A1847FEE740F2EF30704771
:100C1000054B0360054B4FF08062C3F88820BFF39B
:100C20004F8FBFF36F8F7047BC3D020800E100E0BB
:100C300010B504464FF45A61FFF7EAFF204620F052
:100C400097FA204610BD000082B0002301930E4B9E
:100C50001A6B42F400021A631A6B02F4000201924A
:100C6000019A1A6942F400021A611A6922F4000218
:100C70001A61064B064A1A61064A5A61064B4FF042
:100C800080629A6002B0704700380240EC18002081
:100C9000E90E0008090C000800E100E008B50A2888
:100CA00009D8DFE800F006100E0808080810101038
:100CB0001000022008BD054B054A0648902121F08E
:100CC00093F90020F6E70120F4E700BF053302089E
:100CD000203302086B33020838B50C46887FFFF7D3
:100CE000DDFFA58AE28A164B2169586342EA054274
:100CF0005A64628BD963521B1A642568082D0ED181
:100D00009A611A615862207F0E4A42EA0062DA61F3
:100D1000E2681A620C4A5961D9601A6038BD002233
:100D2000D8611A61E1680A0A480902F4784200F4BD
:100D3000FC600243C1F3C4010A439A63034AECE72F
:100D400000B002400900010001230200012303005A
:100D500008B50B280BD8DFE800F00612100A0A0AC3
:100D60000A0808080808022008BD0520FCE7054B12
:100D7000054A06486F2121F037F90020F4E70120E9
:100D8000F2E700BF05330208AF3302086B330208F5
:100D90002DE9F04191F81D800C464046FFF7D8FF41
:100DA000A77F05463846FFF7D3FF06463846FFF7CC
:100DB00075FFA18A628B444B521A1A649A61228B86
:100DC000521A1A61E28A586342EA01425A6421695E
:100DD0006268D963DA602068802828D0227F0FD823
:100DE000202867D0402865D004281AD0364B45EA21
:100DF000026545F40035B845DD6161D0334A44E011
:100E0000B0F5807F04D0B0F5007FEFD1304800E02E
:100E1000304840EA0262DA61E2681A625E62596151
:100E200032E045EA026242F40032DA61F6E7A06895
:100E3000021DDA62227F45EA026545F40035DD6174
:100E40005E625961017841B1012921D0224B234AC8
:100E500023484FF48D7121F0C7F8DA69418822F4F4
:100E60007F42013922F0100242EA0122DA610121B7
:100E7000154BDA6942F02002DA61DA699206FCD495
:100E800010229A600029B9D0164A1A60BDE8F08194
:100E9000B2F1FF01DA69408822F47F4200F1FF30AD
:100EA00022F0100242EA002242F0100218BF012193
:100EB000DA61DDE745EA0262034B42F40032B4E74F
:100EC00042F20132E1E700BF00B00240012301001D
:100ED000090002000A000200F93302081334020874
:100EE0006B33020801230200024B1B685868036839
:100EF0005B6918473428012070B5044625460A4B23
:100F00000C30002660602672667245F8203B602235
:100F1000294608F04BFC04F55A63EE6024359D42E7
:100F2000FBD1204670BD00BFBC3D0208034B1A68D0
:100F3000D207FCD423229A60704700BF00B0024061
:100F40007047000030B50F4C2568ED07FCD4232511
:100F50000904A56041F001010225FF2B656361646E
:100F6000E0630AD00849656241EA0363E361074B25
:100F700022626061E060236030BDE561039BA36392
:100F8000034BF8E700B00240090001000100020035
:100F90000100030030B50E4C2568ED07FCD4232575
:100FA0001204A56042F001020225FF2B6563626412
:100FB000E063E16008D01B0643F00213E361054BD8
:100FC00065626061236030BD034BE3610123F9E793
:100FD00000B0024001000200020002FF30B50B4CDD
:100FE0002568ED07FCD4232512041B06A56043F4F5
:100FF0000033022542F0010265636264E063E16050
:10100000E361034B65626061236030BD00B0024064
:1010100001000200012070470C2070470C2303FBE5
:101020000100083070470C2303FB010008307047B3
:10103000012070474FF4137070474FF4137303FB94
:101040000100083070474FF4137303FB01000830B0
:101050007047012070471020704700EB01100830E6
:10106000704700EB011008307047084601F088BB5C
:1010700010B5034B0360044607F0C5F9204610BDC8
:10108000743E020810B50446FFF7F2FF2046142113
:1010900020F06EF8204610BD10B5034B03600446E7
:1010A00007F0B1F9204610BD403E020810B50446D5
:1010B000FFF7F2FF20464FF4157120F059F8204653
:1010C00010BD000010B5034B0360044607F09BF908
:1010D000204610BD0C3E020810B50446FFF7F2FF93
:1010E0002046182120F044F8204610BD10B5084BCA
:1010F0000360044600F52070FFF7BAFF04F12C00EE
:10110000FFF7CAFF04F11400FFF7DCFF204610BD13
:10111000A83E020808B50248FFF7E8FF08BD00BF77
:101120009C12002010B50446FFF7E0FF20464FF464
:101130007D7120F01DF8204610BD00002DE9F3411F
:1011400001F0EEF8054601F0EFF8002401462346D1
:1011500028462246009410F059FF274B274A1A6070
:10116000204602F065F9264D264B274A27489A600B
:1011700010F0B4FE2B68BFF35B8FDB0735D4284635
:101180001FF0F8FF88B3224C224B236004F526762B
:1011900004F1140004F12C0804F520776060C4F811
:1011A0000880E760266107F02FF91B4B636140461A
:1011B00007F02AF9194BE362384607F025F9184B76
:1011C000C4F8803204F5257002F0FCF9224604F5DB
:1011D0002571304602F0B0F9304601F0D1FA1148DD
:1011E00020F020FF28461FF0D1FF0F4802B0BDE8D5
:1011F000F041FFF7E7BB00BF98280120480400201A
:1012000098120020680400204C04002008000020F0
:101210009C120020A83E02080C3E0208403E020834
:10122000743E020815110008C40300207047000036
:101230000148FFF7D5BB00BFC403002070B5264EA0
:10124000264C274D274B23603046FFF755FE284696
:1012500015F0E2FF24480EF0E9FB244B2448DC6043
:1012600000224FF48071C3E9121222491A86C3E9A1
:101270001A12214983F85820C3E91E011F49C3F8F7
:1012800080101F491F480B60F021C3E90422C3E905
:101290000622C3E90822C3E90A22C3E90E22C3E9F0
:1012A0001022C3E91422C3E917225A6683F870207A
:1012B0005A67C3E9016501801348018013484FF460
:1012C000A07101801248018012490A70012283F83E
:1012D0003420114A1A6070BDF404002094120020DA
:1012E00068040020843002084C040020C40300205D
:1012F0000000010101000001000450001A00140068
:1013000034280120282801202E2801202A28012005
:10131000302801202C280120D03C02080148FFF78A
:1013200077BC00BFF4040020002070478180704724
:10133000C180704701817047418170477047704795
:1013400070477047704710B4C4880368121B8488C4
:101350005B6D091B12B25DF8044B09B218474FF6DA
:10136000FF7383814FF0FF3303621368C361106022
:101370007047002070478B8883800120704770473A
:1013800080F82610704790F82600704710B50022AC
:10139000B1F90840B1F90A10028042808480C1800E
:1013A00010BD0022028042808280C2807047017797
:1013B000704780ED080A704780F82410704780F865
:1013C0002510704701207047983070478C30704767
:1013D000843070477047704770470000034B90227D
:1013E00083F85A2383F85823704700BF00E100E0D8
:1013F000094A0A49D3680A48C3F30A03013B9BB26E
:101400000B801169C1F30A01013901801364536B28
:1014100043F00103536370470068014092160020B7
:1014200090160020014BD3F8AC00704700680140D3
:10143000024B0122C3F8AC105A62704700680140A9
:1014400010B52C2104461FF093FE204610BD10B5A8
:10145000BC2104461FF08CFE204610BD70B504462A
:1014600007F0D1FA23689D6E0DF078F8014620460A
:10147000A8472368054AD3F88C502046AC46002381
:10148000BDE87040A2F51631604700BF00B004D03F
:1014900007F0A0BA07F0AABA07F066BA07F0D5BB02
:1014A00090F8252012B103685B691847704790F8DF
:1014B00025201AB190F8242002B11860704700006E
:1014C000034B4FF080629A604FF080729A607047D1
:1014D00000E100E0084B4FF08062C3F88820BFF3C2
:1014E0004F8FBFF36F8F4FF08072C3F88820BFF328
:1014F0004F8FBFF36F8F704700E100E070B500239E
:10150000124E8380124B0360336893F858200546CF
:101510000AB1D86C00B998680368DB6A98473368E9
:10152000B0FA80F4D86C640930B10368DB6A98477C
:10153000002808BF44F001042CB9064B064A0748AE
:101540002C2120F051FD284670BD00BF3428012019
:10155000BC3E020851340208AF340208E8340208E5
:1015600070B5254E3568BFF35B8F15F0010540D18E
:1015700030461FF0FFFD00283BD0204C204B25615A
:1015800004F13400C4E90035C4E90255E584A562DC
:10159000A5850EF030FD04F1580009F0BDFD194B92
:1015A000A3652046184B40F8843BFFF7A7FF174B75
:1015B000C4F884302433C4F88C304FF4C803C4E931
:1015C00028350023C4F8AC30C4F8B030C4F8B430C7
:1015D000C4F8B8300E480F4BC4F89050C4F89C5073
:1015E000C4F8A850C4F8983020F01CFD30461FF015
:1015F000CDFD024870BD00BF941600209816002053
:10160000F0450208DC3E0208543F0208A4450208E7
:10161000D91300088445020838B5184C23685BB319
:10162000174B184A1B6C11888B4216D1164B198820
:1016300003F01CFC236893F86A200025013283F82C
:101640006A2083F87C50FFF7B7FA206807F058FF4C
:101650002846BDE83840FFF7F7B803F007FC2468D8
:10166000236820461B6A9847012384F87C300020B9
:10167000BDE83840FFF712B938BD00BF342801205B
:1016800000680140921600209016002007B5064B16
:10169000ADF806001B68054801220DF1060104F0B3
:1016A00085F903B05DF804FB0C00002098170020BA
:1016B00008B5642004F03AFEFBE7000030B595B0B1
:1016C000102200210AA820F096FE1422002103A86F
:1016D00020F091FE00241E4B01941A6C42F08052BF
:1016E0001A641B6C03F080530193019B194B029405
:1016F0001A6842F440421A601B6803F440430293A4
:101700000122029B4FF48033CDE9082302254FF4D8
:1017100080030821CDE90E534FF4B473CDE91013C3
:1017200008A804231393129503F0F8FB03F0BCFB05
:101730000F23CDE903354FF4A0504FF48053CDE98A
:101740000603052103A8059403F0C4FD15B030BDC0
:10175000003802400070004080B59AB002F0F8FAFC
:10176000FFF7ACFF142200210DA820F044FE002456
:10177000C74B00941A6BC748C74DDFF8588342F037
:1017800010021A631A6B02F010020092009A019480
:101790001A6B42F020021A631A6B02F020020192C7
:1017A000019A02941A6B42F080021A631A6B02F0DB
:1017B00080020292029A03941A6B42F004021A63A6
:1017C0001A6B02F004020392039A04941A6B42F01B
:1017D00001021A631A6B02F001020492049A059442
:1017E0001A6B42F002021A631A6B02F002020592AF
:1017F000059A06941A6B42F040021A631A6B02F0C3
:1018000040020692069A07941A6B42F008021A6385
:101810001B6B03F00803224607933C21079B02F051
:101820001DFD9E480122022102F018FD22469B4820
:10183000042102F013FD224699484FF4405102F072
:101840000DFD01263C23CDE90D3692480F9403236C
:101850000DA90227109302F017FC90480DA9CDE9BD
:101860000D76CDE90F4402F00FFC04238B480DA93F
:10187000CDE90D36CDE90F4702F006FC0DA94FF476
:1018800040538748CDE90D36CDE90F4702F0FCFB08
:101890008448854B036002F0EDFADFF83CE2834BAD
:1018A0002C62C5E900E328464FF48043C5E90434BF
:1018B000C5E90244C5E9064402F0DEFE10212846CF
:1018C00003F022F921462846794D03F03CF94FF404
:1018D0008273C5E900834FF400791823C5E90693A4
:1018E00028460A23C5E90244C5E90444C5E9084479
:1018F000AC62EB6203F0FEFF8F2322463946674855
:101900008DF824308DF8344002F0A8FC32464FF4B4
:101910007A7309A9284604F049F84FF47A733246DD
:101920000DA9284604F0EEF9324639465B48614D70
:1019300002F094FC9DF83430D32B04BF5E4B1E7034
:101940005E4B0126C5E90036102240230024C5E97C
:1019500004234FF4C073C5E906344FF40063C5E9AE
:1019600008344FF4005302274FF00409AB624FF0E4
:10197000030A07230DA92846CDE90D73CDE90F937E
:101980004FF00808C5E90249CDE911A7139703F004
:1019900095FE4FF6FF7209A92846CDE90A860894FC
:1019A00009960C9403F0AAFE304602F0FDF94FF6BA
:1019B000FF7209A92846CDE90978CDE90B6403F047
:1019C0009DFE4FF6FF7209A92846CDE909A8CDE989
:1019D0000B9403F093FE4FF40C730893089B0C9345
:1019E0004FF6FF7209A92846CDE909980B9603F036
:1019F00085FE40F26A51284603F09EFE34220DEB2C
:101A00000200214620F0F7FC2D4D2E4B2C61C5E93C
:101A100000340923C5E905361D23C5E9073A40F21C
:101A20000D1140F24313C5E9091340F2171040F2BB
:101A30004713C5E90B032846C5E90244AC8685F87F
:101A4000364003F01BF9FF214FF4806CF022CDE902
:101A500012140521CDE914C14FF4A0730DA9CDE9ED
:101A60000E24CDE9164228462246174D1893CDE99B
:101A700010370D94ADF864408DF8664003F0C9F955
:101A8000124B2B601B6898472B68114DDB6825E0D3
:101A90000038024000100240981800200008024060
:101AA000000C02402C19002000300240A0860100EA
:101AB000981700206417002058170020400100A04C
:101AC000F017002000680140541700201400002087
:101AD000EC18002000500140005C00409847134B78
:101AE0002846C5E90034C5E90274C5E90A47C5E9D5
:101AF0000C4402F0CFF93146284602F081FAFEF795
:101B0000D7FDFEF7D4FD04F0A1FB094A09482146A0
:101B100004F0C8FB084B094A18602146084804F045
:101B2000C1FB084B186004F0A3FBFEE700B00240C5
:101B3000BC3F0208B116000860170020983F020859
:101B4000BF0600085C170020704770477FB5094B3F
:101B50008DF817201B6802930DF1170201230092E4
:101B600001930A460146044802F02EFE07B05DF8D4
:101B700004FB00BF10000020981800207FB5002350
:101B80008DF81730084B1B6802930A4601230DF1AC
:101B90001701009101930146044802F0A5FE9DF84B
:101BA000170007B05DF804FB100000209818002013
:101BB0001FB5084C24680092CDE901340A46012380
:101BC0000146054802F090FE003818BF012004B01D
:101BD00010BD00BF100000209818002002F0E4B8EB
:101BE00010B5064C00222046042102F037FB2046A7
:101BF0000122BDE81040042102F030BB0008024081
:101C000038B50B4D044601220A484FF4005102F04A
:101C100025FB00220421284602F020FB2046FFF786
:101C200035FD28460122BDE83840042102F016BBEC
:101C300000080240000C024038B50B4D044600225B
:101C40000A484FF4005102F009FB00220421284603
:101C500002F004FB2046FFF719FD28460122BDE8EB
:101C60003840042102F0FABA00080240000C024099
:101C7000F7B5144E144F05460C4630460022042199
:101C800002F0ECFA00224FF40051384602F0E6FA76
:101C90002846FFF7FBFC0D4B0D481B68224601A9A7
:101CA00004F030F8384601224FF40051019C02F054
:101CB000D5FA30460122042102F0D0FA204603B0C2
:101CC000F0BD00BF00080240000C02400C000020E4
:101CD0009817002002F068B80268034B9A4201D1BD
:101CE00002F050B8704700BF00100040704700007D
:101CF00082B00E4B00220092596C41F4804159642D
:101D0000596C01F48041009100990192196C41F0E5
:101D1000805119641B6C03F080530193019B0F21C8
:101D20006FF0010002B002F065B800BF0038024059
:101D30000268094B9A4282B00BD100230193074BF2
:101D40001A6B42F480521A631B6B03F480530193A5
:101D5000019B02B0704700BF0030024000380240D3
:101D600007B50F4B02689A4216D10022A3F5F04343
:101D70000192196B41F4000119631B6B03F400031A
:101D8000019305215A20019B02F034F85A2003B038
:101D90005DF804EB02F060B803B05DF804FB00BF2F
:101DA00000B002402DE9F043044689B0142200211E
:101DB00003A820F020FB2268244B9A4243D1244CF4
:101DC000244800250095236B43F004032363236B11
:101DD00003F004030093009B0195236B43F0010380
:101DE0002363236B03F001030193019B4FF012095E
:101DF0004FF400734FF001080327042603A9CDE92F
:101E00000339CDE90587079602F03EF94FF4807358
:101E10001148079603A9CDE90339CDE9058702F0FA
:101E200033F90295236C43F400032364236C03F419
:101E300000030293029B236A43F400032362236A94
:101E400023F40003236209B0BDE8F083005C004086
:101E5000003802400008024000000240F0B599B08E
:101E600004461422002107A820F0C5FA30220DEB09
:101E70000200002120F0BFFA22685E4B9A4240F037
:101E8000B78008230C93C0231093042312930CA84B
:101E90004FF40033159303F0E5FA08B1FFF726FF7E
:101EA000554B5648002400945A6C42F080625A64A4
:101EB0005A6C02F080620092009A01941A6B42F010
:101EC00020021A631A6B02F020020192019A029416
:101ED0001A6B42F001021A631A6B02F001020292BD
:101EE000029A03941A6B42F002021A631A6B02F010
:101EF00002020392039A04941A6B42F040021A639E
:101F00001A6B02F040020492049A05941A6B42F094
:101F100004021A631A6B02F004020592059A0694F1
:101F20001A6B42F008021A631B6B03F00803069356
:101F300002250E26069B0B964FF4806307A9CDE978
:101F40000735CDE9094502F09FF841F658032C48C2
:101F50000B9607A9CDE907350927CDE9094502F018
:101F600093F8032327480B9707A9CDE90735CDE957
:101F7000094502F089F84FF4706322480B9607A9CF
:101F8000CDE90735CDE9094502F07EF84FF40C6341
:101F90001D480B9607A9CDE90735CDE9094502F0A3
:101FA00073F8C02319480B9607A9CDE90735CDE989
:101FB000094502F069F8082315480B9607A9CDE9F1
:101FC0000735CDE9094502F05FF84FF4A0530E48FC
:101FD0000B9707A9CDE90735CDE9094502F054F87B
:101FE00058202246052101F005FF582001F034FF5A
:101FF00019B0F0BD006801400038024000140240F2
:1020000000000240000402400018024000080240A4
:10201000000C024010B5044688B01422002103A829
:1020200020F0E9F92268144B9A4223D103F5684362
:10203000002101915A6C114842F480125A645A6C82
:1020400002F480120192019A02911A6B42F020026E
:102050001A631B6B03F020030293029B4FF4607220
:1020600002230321CDE903230523CDE9061303A9A8
:1020700002F00AF808B010BD005001400014024000
:102080002DE9F04186B0002303932B4B1C68002CF4
:102090004FD14FF00108C3F80080284B00949A6B91
:1020A000274842EA08029A639B6B03EA08030093FD
:1020B000022703260C25009B01A94FF63F03CDE91B
:1020C0000137CDE9046501F0DFFF1E48059501A940
:1020D000CDE90187CDE9034601F0D6FF48F233137D
:1020E0001948059501A9CDE90137CDE9034601F06D
:1020F000CBFF4FF683731548059501A9CDE901374C
:10210000CDE9034601F0C0FF4CF20373104805957A
:1021100001A9CDE90137CDE9034601F0B5FF602300
:102120000C48059501A9CDE90137CDE9034601F039
:10213000ABFF06B0BDE8F081341900200038024042
:102140000014024000080240001802400010024043
:10215000000C02400004024070B588B000230293D6
:10216000204B1A6C42F010021A641B6C03F010032F
:102170000293054601A903A8029B03F055F9069BAB
:102180004BBB03F041F9184E184B336040F2E73374
:10219000F360174BB0FBF3F3013B73603046002351
:1021A0003361B360B36103F07DFF044680B930460C
:1021B00003F04EFE044658B9362001F04DFE0F2DB7
:1021C0000DD822462946362001F014FE094B1D6029
:1021D000204608B070BD03F017F94000D3E7012492
:1021E000F6E700BF00380240381900200010004018
:1021F00040420F007C0000207047FEE7FEE7FEE74C
:10220000FEE77047014803F061BE00BF38190020A7
:10221000014802F0A1BD00BFF0170020014801F005
:1022200065BE00BFEC1800200120704708B520F003
:1022300085F9162303604FF0FF3008BD08B520F084
:102240007DF916230360FEE770B50D4614460E4671
:10225000731B9C4201DC204670BDAFF3008006F882
:10226000010BF5E770B50D4614460E46731B9C42F4
:1022700001DC204670BD16F8010BAFF30080F5E7D6
:102280004FF0FF3070474FF400534B600020704711
:1022900001207047002070470A4A116808B50346BC
:1022A00009B9094911601068694603448B4206D98F
:1022B00020F044F90C2303604FF0FF3008BD136099
:1022C000FCE700BF8019002078350120704708B571
:1022D00005291CD8DFE801F003070B0F131701F0E5
:1022E000F3F8006808BD01F0EFF84068FAE701F084
:1022F000EBF88068F6E701F0E7F8C068F2E701F074
:10230000E3F80069EEE701F0DFF84069EAE7002052
:10231000E8E710B5042104461EF02AFF204610BD50
:1023200000487047F43F02080A20704713B50024A4
:1023300051B1036801948DF8034001AA9C680DF126
:102340000303A04702B010BD0846FBE7C0897047F1
:10235000008A7047C088704780887047807A00F094
:102360007F007047807AC0097047002070470000E6
:102370009FED010A704700BF00000000704710B5D4
:10238000082104461EF0F4FE204610BD7047704739
:1023900000F598730868496803C370477047704731
:1023A0004160704770477047064BC0F84C310023BE
:1023B000C0F8503100F5A273C0F84801C0F84031B0
:1023C000704700BFB52500080123037270477047AE
:1023D00010B4C26841685410034601EB6200D20792
:1023E00048BF0A599B685DF8044B48BFD35818474B
:1023F0000346406830B19A681AB9D86800F0010005
:1024000070470120704710B50C2104461EF0B0FE45
:10241000204610BD10B5102104461EF0A9FE20462E
:1024200010BD10B54FF4AE7104461EF0A1FE20465B
:1024300010BD10B50CF092F80368BDE81040DB6BDE
:10244000184710B50446D0F8400158B10368DB685E
:10245000984738B1D4F8400103689B689847002337
:10246000C4F8403110BD00002DE9F14FD0E9556AA4
:102470000746B06803681B6A9847B0F5137F05D21A
:10248000444B454AA32145481FF0AEFD70680368E0
:102490001B6A98470F2803D8414B3F4AA421F2E713
:1024A000F06803681B6A98470B2803D83D4B3A4AEB
:1024B000A521E8E70CF052F8DFF8F09004300CF0BA
:1024C00072F8D9F8000010B10368DB689847D9F8B2
:1024D000000010B103681B689847DFF8D480D8F873
:1024E000000010B103685B699847D7F83C0110B150
:1024F00003685B689847D8F8000010B103681B6850
:102500009847D7F83C0110B103689B689847F0687A
:10251000036800215B6A98474FF0000B224BC0F81C
:1025200004B0044680F808B00360B06803685946F8
:102530005B6A9847054601F083F87068036859465E
:102540005B6A98472946064601F04EF8331DC7F8E6
:102550003C61C9F80040C8F80050CAF800302B6848
:10256000C6F808A02846DB68EE6398473368304613
:102570001B689847214628460EF0A0F9236820469C
:102580001B69984723685B69204601B0BDE8F04F9E
:10259000184700BF5F350208ED350208BF36020854
:1025A00006370208A9370208404102087C280120AA
:1025B000782801202DE9F14FD0E9556A0746B06827
:1025C00003681B6A9847B0F5C87F05D2444B454A5B
:1025D000A32145481FF008FD706803681B6A9847EF
:1025E0000F2803D8414B3F4AA421F2E7F068036863
:1025F0001B6A98470B2803D83D4B3A4AA521E8E7C8
:102600000BF0ACFFDFF8F09004300BF0CCFFD9F802
:10261000000010B10368DB689847D9F8000010B1DA
:1026200003681B689847DFF8D480D8F8000010B121
:1026300003685B699847D7F83C0110B103685B6891
:102640009847D8F8000010B103681B689847D7F87E
:102650003C0110B103689B689847F068036800214B
:102660005B6A98474FF0000B224BC0F804B0044659
:1026700080F808B00360B068036859465B6A984701
:10268000054600F093FF7068036859465B6A9847F7
:102690002946064600F068FF331DC7F83C61C9F8BB
:1026A0000040C8F80050CAF800302B68C6F808A0EF
:1026B0002846DB68EE639847336830461B689847C6
:1026C000214628460EF0FAF8236820461B699847F1
:1026D00023685B69204601B0BDE8F04F184700BF92
:1026E0005F3502084C380208BF3602080637020878
:1026F000A9370208404102087C28012078280120DF
:10270000044B1B6893F858200AB1D86C00B998683C
:10271000704700BF34280120F8B5174604460E461E
:102720000BF0DEFF124B1C60124B2360124B002596
:10273000C4E95135114BC4E95355186803680121A8
:102740009B68C4E94F55C4E955769847284600F080
:102750006FFEFFF7D5FF16F008FCFFF7D1FF16F06C
:102760007FFCFFF7CDFF16F087FC2046F8BD00BFC9
:1027700088280120EC400208D440020834280120B7
:10278000064BC0F84C310023C0F8503100F5A2735D
:10279000C0F84801C0F84031704700BFB5250008B7
:1027A000064BC0F84C310023C0F8503100F5A2733D
:1027B000C0F84801C0F84031704700BF69240008E4
:1027C0007047704770477047704730B5036885B0F1
:1027D0006D460181D3F88430014604462846984767
:1027E00095E807003C3484E8070005B030BD30B5FB
:1027F000036885B06D464181D3F8843001460446B4
:102800002846984795E807003C3484E8070005B05F
:1028100030BD0022028042808280C280704780F8F2
:102820003610704770B5036804461B6B1546984711
:102830002368294620465B6EBDE87040184700209B
:102840007047806C7047704710B54C2104461EF0ED
:102850008FFC204610BD08B5FEF722FE08BD000023
:10286000036870B55E6B124B1B6804468DB22BB9C2
:10287000104B114A6C2111481FF0B6FB1049828D94
:102880000988914203D80F4B0B4A6D21F3E713F8E7
:1028900012200D4B1B6853F8220003681B6B9847EE
:1028A000291A3346204609B2BDE87040184700BFD8
:1028B0008C280120183902085A3902089539020873
:1028C00090280120DC3902089428012000224FF0D2
:1028D000FF31C0E900218260704770B5036804468B
:1028E0001B6B154698472368294620465B6BBDE85D
:1028F0007040184770B504461D46BDF91060FFF7DB
:10290000ECFF2368294620469B6B98472368314695
:102910002046DB6BBDE8704018470000094A0260A2
:102920004FF4807100228184FF21C0E90122C0E9B7
:102930000322C0E90522C0E9072280F8261082623E
:10294000704700BF44470208F8B5194B018F1B8838
:102950008B4206462AD9174B1B682BB9164B174AD0
:1029600017486C211FF040FB13F81120154B1B6812
:1029700053F82250144B186800F096FD2B68074658
:102980009B6B284698472B6804469B6C3946284623
:1029900098472B6814FB00F45B6A39462846984731
:1029A000A4B223181BB2A6F84630F8BD0023FAE7FC
:1029B000902801208C280120183902085A39020871
:1029C000953902089428012098280120406A704710
:1029D000806A704770478A880B8810B5D20A4C8885
:1029E000C1699BB251F8220043EA0443184410BD68
:1029F00010B50446BAB1107B68B1537BD27A1B0282
:102A000003F4E0631A43236A03EB82031A888A42C1
:102A100002D193F9020010BD05D8013880B2043309
:102A20000028F3D1F7E70020F5E710B52C21044684
:102A30001EF09EFB204610BD30B58BB00446BDF89D
:102A400060500895BDF85C5007959DF8505006956C
:102A50009DF84C5005959DF8485004959DF84450BC
:102A600003959DF8405002959DF83C500195BDF8A6
:102A7000385000950DF07CFB064B2360159BE361FD
:102A8000169B2362199B63621A9BA36220460BB0BC
:102A900030BD00BFF441020870477047704730B442
:102AA000C26844685510034604EB6200D20748BF71
:102AB00062599B6830BC48BFD358184703464068EA
:102AC00030B19A681AB9D86800F001007047012047
:102AD000704710B5102104461EF04AFB204610BD79
:102AE00010B54FF4C87104461EF042FB204610BDDD
:102AF0009830884208B505D10BF030FDBDE808409C
:102B0000FFF74EBE08BD00000022C0E90122C0E967
:102B10000322C0E90522C0E907224FF480728284B3
:102B2000014A0260704700BF5C42020838B52622A5
:102B300004460D4600211FF05EFC2046FFF7E4FF2F
:102B4000064B23602B88E384FF23204684F828303B
:102B5000294609F016F8204638BD00BFAC470208E8
:102B60002DE9F04F04468DB0A14600250DF0FAFC8A
:102B7000694BE56349F8403B4846FFF7CFFE04F157
:102B80006C0304F19808184604F1E0070393FFF77B
:102B9000C5FE404609F036F92946262238461FF080
:102BA0002AFC3846FFF7B0FF5C4BC4F8E0305C4BC2
:102BB000C4F8083104F594724FF47F034FF0FF3AE4
:102BC0004FF6FF7604F5AA7BC4F81431A4F80C6123
:102BD0000AA91046C4E948A5C4F81051A4F8185130
:102BE000C4F81C510292ADF828A0FFF79FFF0AA974
:102BF0005846ADF82860FFF799FF4A4BC4E96034A6
:102C0000494B4FF4A072C4E9623529460092F02383
:102C10002A464846FFF76EFE261D4FF07F42A26609
:102C20004946304605F004FC4FF4A0720398009228
:102C300029462A46F023FFF75DFE3C4BC4F894304A
:102C40000399304605F0F4FB29464046DC22FFF7A5
:102C500044FE4FF001090AAA022309A94046ADF833
:102C60002830ADF8249008F05AFE4046A4F8D090E1
:102C7000FFF76AFE04F5C073C4F8C0304146304621
:102C8000C4E935AA05F0D4FB38462E220521FFF70A
:102C900024FE0DF110084FF07F42C4F81021394690
:102CA0004046A4F8145108F035FB98E8070004F5F5
:102CB0008E7383E807001A4B0A930AA93846ADF8C9
:102CC0002C5008F0CFFD3946304605F0B1FB782294
:102CD00002981B21FFF701FE07230298ADF8283068
:102CE0000AA908F04EFF0299304605F0A1FB7822B0
:102CF0005846A721FFF7F1FD08230AA95846ADF869
:102D0000283008F03EFF3046594605F091FB20463A
:102D10000DB0BDE8F08F00BFDC420208B4460208E7
:102D2000C4400208C4420208F12A0008EFF781FFFC
:102D3000704770477047704730B4C2684468551098
:102D4000034604EB6200D20748BF62599B6830BC5F
:102D500048BFD35818470346406830B19A681AB93B
:102D6000D86800F0010070470120704710B51021AD
:102D700004461EF0FDF9204610BD10B54FF40B714E
:102D800004461EF0F5F9204610BD00F58E728A4209
:102D900002D10368DB6A1847704700002DE9F04F45
:102DA000044691B0A14600250DF0DCFBA04BE56385
:102DB00049F8403B4846FFF7B1FD04F16C03184663
:102DC0000693FFF7ABFD04F1980318460793FFF74E
:102DD000A5FD04F1C4034FF6FF760EA91846039330
:102DE000ADF83860FFF7A2FE04F1F003184604F5D1
:102DF0008E780EA9049304F5B277ADF83860FFF72A
:102E000095FE404608F0FEFF2622294638461FF070
:102E1000F2FA3846FFF778FE864BC4F88C314FF44F
:102E20007F03C4F89831844BC4F864314FF0FF3A03
:102E300004F5D8731846C4E969A5A4F89061C4F8EC
:102E40009451A4F89C51C4F8A051C4F8AC510EA9F7
:102E500004F5EE7B0593ADF838A0FFF767FE0EA9E9
:102E60005846ADF83860FFF761FE744BC4E987340B
:102E7000734BC4E989354FF4A0732A462946009361
:102E80004846F023FFF736FD261D4FF07F43A3662B
:102E90004946304605F0CCFA4FF4A0732A4629463D
:102EA00006980093F023FFF725FD664B0699C4F8BA
:102EB0009430304605F0BCFA8223BE22294607989A
:102EC0000093F023FFF716FD5F4BC4F8C03007995D
:102ED000304605F0ADFA8F2203981921FFF7FDFC6B
:102EE00007230398ADF838300EA908F04AFE03997D
:102EF000304605F09DFA9222049840F22D11FFF71A
:102F0000ECFC06230498ADF838300EA908F039FE21
:102F10000499304605F08CFA2946E6224046FFF730
:102F2000DCFC0EAA0DA94046ADF83450ADF838507F
:102F300008F0F5FC0823A4F854314046FFF704FDDF
:102F400004F50773C4F8443141463046C4E956AA33
:102F500005F06EFA2A4691213846FFF7BEFC4FF085
:102F60007F43C4F89431D4F86431A4F8985108AD83
:102F70002846D3F884303946984795E8070004F589
:102F8000D07383E80700314B1B6804F502752BB939
:102F90002F4B304A602130481FF026F82F4B1B88FA
:102FA000092B03D82E4B2B4A6121F4E72D4B092125
:102FB000186800F079FA2C4A03460A2128460EF0D8
:102FC0007FFFC4F8AC51384608F02CFC194B0E9327
:102FD0000EA90A233846ADF83C3008F043FC3946C8
:102FE000304605F025FA21220598F021FFF775FCFF
:102FF00005250598ADF838500EA908F0C2FD0599D1
:10300000304605F015FA3F2258464FF4B971FFF7E4
:1030100064FC0EA95846ADF8385008F0B2FD3046B1
:10302000594605F005FA204611B0BDE8F08F00BF03
:1030300028430208C4400208644102081043020801
:103040008B2D0008EFF781FF2B2321FF8C28012017
:10305000183902081A3A0208953902089028012006
:10306000DC39020898280120653A02087047000000
:1030700030B5174D2C6814F001048FB0BFF35B8F8F
:1030800022D128461EF076F8F0B13F230993114B68
:103090000893114B114912480A94CDE906430122C5
:1030A0000423CDE90332172300931A221B23CDE911
:1030B0000B44CDE901440594FFF7BEFC09481EF01E
:1030C000B1FF28461EF062F805480FB030BD00BFC2
:1030D00084190020186F0208446F0208846B0208EC
:1030E000881900206D3000087047000030B5174D7A
:1030F0002C6814F001048FB0BFF35B8F23D12846F6
:103100001EF038F8F8B13F230993114B0893114B87
:1031100007930223CDE9053301220423CDE90332CD
:103120001D230D4900930A221F23CDE90B44CDE94D
:1031300001440A480A94FFF77FFC09481EF072FF19
:1031400028461EF023F805480FB030BDB419002002
:103150001C6F0208486F0208F06C0208B8190020C2
:10316000E93000087047000030B5164D2C6814F0A7
:1031700001048FB0BFF35B8F21D128461DF0FAFF09
:10318000E8B13F230993104B0893104B0793012399
:10319000CDE9054304930423CDE9024316230C49EA
:1031A00000931222CDE90B440A480A940194FFF7D8
:1031B00043FC09481EF036FF28461DF0E7FF05488E
:1031C0000FB030BDE4190020346F02084C6F0208C4
:1031D0007C6D0208E8190020653100087047000086
:1031E00030B5164D2C6814F001048FB0BFF35B8F1F
:1031F00020D128461DF0BEFFE0B13F230993104BBC
:103200000893104B104911480A940122CDE9064356
:103210000423CDE903320A230093CDE90B44CDE921
:1032200001440594FFF708FC09481EF0FBFE284600
:103230001DF0ACFF05480FB030BD00BF141A0020D0
:10324000386F0208506F0208786E0208181A0020C2
:10325000DD3100087047000030B5164D2C6814F0C1
:1032600001048FB0BFF35B8F21D128461DF082FF90
:10327000E8B13F230993104B0893104B10491148B4
:103280000A94CDE9064301220423CDE90332142335
:1032900000930922CDE90B44CDE901440594FFF7E1
:1032A000CBFB09481EF0BEFE28461DF06FFF054807
:1032B0000FB030BD441A00203C6F0208546F020862
:1032C000886E0208481A0020553200087047000036
:1032D00030B5164D2C6814F001048FB0BFF35B8F2E
:1032E00020D128461DF046FFE0B13F230993104B43
:1032F0000893104B104911480A940122CDE9064366
:103300000423CDE9033228230093CDE90B44CDE912
:1033100001440594FFF790FB09481EF083FE284600
:103320001DF034FF05480FB030BD00BF741A0020F7
:10333000406F0208586F0208086F0208781A0020D0
:10334000CD32000800207047002070470EB403B54E
:1033500003AB002153F8042B01930CF087F902B062
:103360005DF804EB03B070470CB407B504AB53F839
:10337000042B01930CF07AF903B05DF804EB02B072
:1033800070470000436C10B5044673B3038F2BB92C
:10339000184B194AC52119481EF026FEC38E00EBB2
:1033A00043035B8C0BB30DF0E2FF238F012B03D89B
:1033B000134B144ACB21EEE7E28E531C9BB2092B30
:1033C000194688BFA3F10A0104EB410140F63F1002
:1033D000498C814209D10A2B04EB420228BF002309
:1033E00004EB4303508C588451842046BDE81040C0
:1033F0000DF0C0BE683A0208713A02081C3B020890
:10340000663B0208743B02080DF07BBE10B586B027
:1034100002AC84E806001A460AAB05930193099BA7
:1034200000932146089B0AF037FC06B010BD00004F
:1034300038B518BB124B13481C681349B4B1226845
:1034400022440260626822440A60A26814440F4B5E
:1034500000221A8000F038F8054600F033F80C4BD3
:103460001C600C4B1D600C4B188007E00B4B03607D
:103470000B4B0B600B4B1C68002CE8D138BD00BF18
:10348000B01A0020A81A0020A41A0020AC1A0020AC
:103490008C2801209428012090280120886F0208A0
:1034A0005C6F020840700208044B1B6853F821004F
:1034B000034B1B6803EB4000704700BFA41A0020B9
:1034C000A81A00200B20704700487047B41A00204B
:1034D00010B5FFF7C1FE094C2060FFF7F9FE6060F0
:1034E000FFF77EFEA060FFF7C3FDE060FFF7FEFD83
:1034F0002061FFF739FE606110BD00BFB41A0020E3
:1035000010B5002404600C6014601C6010BD70478E
:1035100010B54FF4AE7104461DF02AFE204610BDD2
:1035200010B50446D0F8580100F04FF82046BDE829
:1035300010400BF095B8000010B50446FFF7ECF80A
:10354000014B2360204610BD6043020870470438D9
:103550007047704710B5102104461DF009FE204643
:1035600010BDA0F10400F5E700228260024A02606B
:1035700018324260C1607047B443020870470000CF
:1035800010B5034B03600446FFF787FA204610BDD1
:10359000DC43020810B50446FFF7F2FF20464FF463
:1035A000C8711DF0E5FD204610BD000010B50446B1
:1035B000FFF7D6FA014B2360204610BDDC4302081A
:1035C000FFF76CBA002202607047704770470438FA
:1035D0007047704710B5102104461DF0C9FD204604
:1035E00010BDA0F10400F5E700228260024A0260EB
:1035F00018324260C160704710440208704790F86A
:10360000383233B9012380F838326FF00E03C0F836
:103610003032704710B5034B03600446FFF78AFB56
:10362000204610BD3844020810B50446FFF7F2FFEB
:1036300020464FF413711DF09BFD204610BD000085
:1036400010B50446FFF7AAFB074B236001220023B5
:10365000C4E98B33C4F8342284F83832C4F83C32DD
:10366000C4F84832204610BD3844020810B504465C
:10367000FFF761FBB4F99E30B4F9CE209B1AC4F871
:103680002C32A4F8CA30034B1B88C4F83C32A4F88F
:10369000F43010BD2828012038B590F8383204469F
:1036A0001BB300F1C40528460CF00AF9D4E98B21BC
:1036B000D4F834320B440A44C4F83032B4F9CE1092
:1036C000B4F99E30C4F82C225B1A9A42A1BFC4F808
:1036D0002C320023C4F8303284F83832D4F82C323B
:1036E000A4F8CA3028460CF0EBF804F1F00528469F
:1036F0000CF0E6F8D4F83C32B4F9F820043BDA4296
:10370000C4F83C3208D53A4B1B88C4F83C32D4F894
:1037100048320133C4F84832D4F83C32A4F8F430CB
:10372000284604F5D8750CF0CBF828460CF0C8F8FC
:10373000D4F84032B4F9B821013BDA42C4F840323F
:1037400042BF2B4B1B88C4F84032D4F84032A4F857
:10375000B43128460CF0B4F804F5EE700CF0B0F873
:1037600094ED917AB4F9E431F7EE047A37EE677AA2
:1037700007EE903AF8EEE77A84ED917A77EE877A61
:10378000F5EEC07AF1EE10FA07D5194B1B8807EE5B
:10379000903AF8EE677AC4ED917AD4ED917AFDEE25
:1037A000E77A284617EE903AA4F8E0310CF088F852
:1037B000B4F9C820B4F9CC30D4F83C12134499427F
:1037C00014DAB4F9F8300B449A420FDAD4F82C2208
:1037D000B4F9CE301344B4F99E20934206DD0023A1
:1037E000C4F84832024B1B88C4F83C3238BD00BFD5
:1037F00028280120F02070474FF4A070704729203E
:10380000FEF71ABA2820FEF717BA08B5FEF7E8F94E
:10381000CA20FEF711FAC320FEF7F2F90820FEF7DE
:10382000EFF95020FEF7ECF9CF20FEF705FA002063
:10383000FEF7E6F9C120FEF7E3F93020FEF7E0F9E4
:10384000ED20FEF7F9F96420FEF7DAF90320FEF720
:10385000D7F91220FEF7D4F98120FEF7D1F9E8203C
:10386000FEF7EAF98520FEF7CBF90020FEF7C8F94C
:103870007820FEF7C5F9CB20FEF7DEF93920FEF7F8
:10388000BFF92C20FEF7BCF90020FEF7B9F934206F
:10389000FEF7B6F90220FEF7B3F9F720FEF7CCF9F0
:1038A0002020FEF7ADF9EA20FEF7C6F90020FEF76A
:1038B000A7F90020FEF7A4F9B120FEF7BDF900201A
:1038C000FEF79EF91B20FEF79BF9B620FEF7B4F930
:1038D0000A20FEF795F9A220FEF792F9C020FEF724
:1038E000ABF91020FEF78CF9C120FEF7A5F91020E6
:1038F000FEF786F9C520FEF79FF94520FEF780F90F
:103900001520FEF77DF9C720FEF796F99020FEF707
:1039100077F93620FEF790F9C820FEF771F9F2200A
:10392000FEF78AF90020FEF76BF9B020FEF784F964
:10393000C220FEF765F9B620FEF77EF90A20FEF7F1
:103940005FF9A720FEF75CF92720FEF759F904205C
:10395000FEF756F92A20FEF76FF90020FEF750F91E
:103960000020FEF74DF90020FEF74AF9EF20FEF7A0
:1039700047F92B20FEF760F90020FEF741F90020FF
:10398000FEF73EF90120FEF73BF93F20FEF738F93C
:10399000F620FEF751F90120FEF732F90020FEF77C
:1039A0002FF90620FEF72CF92C20FEF745F9C82048
:1039B000FEF790F92620FEF73FF90120FEF720F9E7
:1039C000E020FEF739F90F20FEF71AF92920FEF75B
:1039D00017F92420FEF714F90C20FEF711F90E2038
:1039E000FEF70EF90920FEF70BF94E20FEF708F955
:1039F0007820FEF705F93C20FEF702F90920FEF7D2
:103A0000FFF81320FEF7FCF80520FEF7F9F8172061
:103A1000FEF7F6F81120FEF7F3F80020FEF7F0F8B5
:103A2000E120FEF709F90020FEF7EAF81620FEF77C
:103A3000E7F81B20FEF7E4F80420FEF7E1F8112078
:103A4000FEF7DEF80720FEF7DBF83120FEF7D8F8A6
:103A50003320FEF7D5F84220FEF7D2F80520FEF716
:103A6000CFF80C20FEF7CCF80A20FEF7C9F8282082
:103A7000FEF7C6F82F20FEF7C3F80F20FEF7C0F8B8
:103A80001120FEF7D9F8C820FEF724F92920FEF707
:103A9000D3F8BDE808402C20FEF7CEB808B5FEF7F5
:103AA0009FF80321D320FEF7E3F880B208BD10B5DC
:103AB000C4B2022203212046FEF748F80A20FEF78E
:103AC0008DF8204600220321FEF740F8BDE81040A3
:103AD0000220FEF783B838B50446E4B2FEF734F8A6
:103AE00000212046FEF74AF8012105462046FEF750
:103AF00045F840EA052080B238BD10B5C4B2402177
:103B00002046FEF73BF8030607D54C212046FEF77A
:103B100035F8003818BF012010BD01224B21204686
:103B2000FEF714F8204600224B21FEF70FF8002084
:103B3000F2E773B50423C4B20E461546D7210DEB48
:103B400003022046FEF734F8019B1BBA1A0DC3F39B
:103B50000B23328020462B8001224B21FDF7F6FFFC
:103B600000224B212046FDF7F1FF02B070BD00009E
:103B700010B50A4A1378984204460DD0517888420D
:103B80000AD00BB141B90123D454FDF7DDFF204623
:103B9000BDE81040FFF78BBF10BD00BFCC1A00205E
:103BA00010B5C4B209212046FDF7E8FF40F001023C
:103BB000D2B220460921BDE81040FDF7C7BF10B5BD
:103BC000C4B209212046FDF7D9FF092100F0FE0209
:103BD0002046BDE81040FDF7B9BF38B5C4B20D4668
:103BE00020460A21FDF7CAFF40EA0502D2B220466C
:103BF0000A21BDE83840FDF7A9BF10B50446FDF71E
:103C0000A4FF20461F21FFF7E8FF2046BDE8104033
:103C1000FFF7C6BF38B5C4B20D4620460A21FDF7EE
:103C2000ADFF20EA0502D2B220460A21BDE83840A5
:103C3000FDF78CBF10B50446FFF7C1FF20461F21DA
:103C4000BDE81040FFF7E6BF10B5C0B20C460B212F
:103C5000FDF794FF204010BD1F21FFF7F5BF0A4676
:103C6000C0B20B21FDF772BF1F21FFF7F8BF38B5B7
:103C7000C4B20D4620461721FDF780FF20EA050259
:103C8000D2B220461721BDE83840FDF75FBF70B5BE
:103C9000C4B2064604212046FDF770FF042100F05F
:103CA000FB0205462046FDF751FF3046F021FFF7A5
:103CB000DEFF05F0F80220460421FDF747FF492208
:103CC00020212046FDF742FF0220FDF787FF204616
:103CD00001222121FDF73AFF20469A224121FDF7DA
:103CE00035FF204601224A21FDF730FF2046012200
:103CF0004B21FDF72BFF204600224B21FDF726FF2D
:103D0000204601225621FDF721FF2046012258219D
:103D1000FDF71CFF204601224021FDF717FF20463A
:103D2000FF220B21FDF712FFBDE870400220FDF7D6
:103D300055BF0000054BD3F8882042F47002C3F849
:103D400088204FF000629A60704700BF00ED00E0ED
:103D500008B50B4B1A6842F400721A601A6842F4F4
:103D600080621A601A6842F480721A60032000F0C0
:103D70002FF80020FEF7F0F9FDF7BAFF002008BD8C
:103D8000003C0240034A044B11681B780B4413604B
:103D9000704700BFD01A002078000020014B18683F
:103DA000704700BFD01A002038B50446FFF7F6FF71
:103DB000631C1CBF054B1B78054618BFE418FFF7B2
:103DC000EDFF431BA342FAD338BD00BF78000020AB
:103DD0000749CA6822F4E0620302120403F4E063B4
:103DE000120C134343F0BF6343F40033CB607047BE
:103DF00000ED00E0164B30B5DC68C4F30224C4F1DA
:103E00000703251D042B28BF0423062D4FF0FF3583
:103E10008CBF033C002405FA03F321EA0303A54009
:103E200022EA0502A340002843EA0203ACBF00F1E6
:103E30006040084A4FEA0313B8BF00F00F00DBB23E
:103E4000AABF00F56140135480F8003330BD00BFB5
:103E500000ED00E014ED00E0002807DB044A410912
:103E6000012300F01F00834042F82130704700BF5B
:103E700000E100E010B5044650B1437903F0FF02C1
:103E800013B90271FDF754FF01236371002010BDC7
:103E90000120FCE710B5044620B390F8393003F058
:103EA000FF021BB980F83820FDF75AFF022384F87F
:103EB0003930236861681A6822F440320A431A6074
:103EC0005A6BA16822F007020A435A631A6CE16830
:103ED0006FF30D020A431A6400200123E06384F8A3
:103EE000393010BD0120FCE770477047036870B59A
:103EF0005E681D68F207044614D5E90512D51A68F4
:103F000022F480721A60C26B42F00102C263012285
:103F10009A60042380F83930002380F838304369F0
:103F200003B19847B20616D5AB0414D523681A68B6
:103F300022F400521A6020229A60E36B43F00203DD
:103F4000E363042384F83930002384F8383063694C
:103F50000BB120469847300716D5290514D523689C
:103F60001A6822F400621A6008229A60E36B43F038
:103F70000403E363042384F83930002384F83830E1
:103F800063690BB12046984772070BD56B0509D5BD
:103F900023681A6822F480621A6004229A6020461C
:103FA000FFF7A2FFB00714D5A90512D523681A6838
:103FB00022F400721A6002229A60E36BE363012329
:103FC00084F83930002384F8383023690BB1204657
:103FD0009847F20613D5EB0411D523681A6822F42A
:103FE00080521A6010229A60E36BE363012384F825
:103FF0003930002384F838302046FFF776FF70BD53
:10400000F0B590F83820012A03464FF002002BD07B
:10401000012283F8382083F8390003EB0112D2E93A
:104020000740556A174F44EA0040093C012C9CBFE9
:1040300005F07F4210434FEA01161A6888BF40EA34
:10404000056091B9516A394001435162012C996967
:10405000916103D8596A21F07F41916201220020C9
:1040600083F8392083F83800F0BDD1693940014325
:10407000D1619919012C896911619CBF25F07F4597
:104080001562EBE7F0FFFC002DE9F74FDFF8BC917C
:104090006C4A00230D6801249C4004EA0506AC43E9
:1040A00040F0B7804D68032705F003044FEA43084A
:1040B00007FA08FC671E012F6FEA0C0C34D88768DA
:1040C00007EA0C0ECF6807FA08F747EA0E07876081
:1040D000476827EA060EC5F300179F4047EA0E0718
:1040E0004760C76807EA0C0E8F6807FA08F747EAC7
:1040F0000E07022CC76019D14FEAD30A00EB8A0AD7
:1041000003F0070BDAF820704FEA8B0B4FF00F0E1D
:104110000EFA0BFE27EA0E0E0F6907FA0BF747EAB5
:104120000E07CAF8207001E0032CDAD1076804FA00
:1041300008F407EA0C073C4315F4403F046068D0DC
:1041400000240194D9F8444044F48044C9F8444020
:10415000D9F8444023F0030707F1804704F4804472
:1041600007F59C37019403F0030C019CD7F808E095
:104170004FEA8C0C0F2404FA0CF42EEA040E324C95
:10418000A0424DD004F58064A0424BD004F5806479
:10419000A04249D004F58064A04247D004F5806471
:1041A000A04245D004F58064A04243D004F5806469
:1041B000A04241D004F58064A0423FD004F5806461
:1041C000A0423DD004F58064A04214BF0A24092413
:1041D00004FA0CF444EA0E04BC609468F74315F446
:1041E000801F0CBF3C4034439460D46815F4001F1A
:1041F0000CBF3C403443D460546815F4003F0CBFFE
:104200003C40344354601468ED0354BF3C40344395
:1042100014600133102B7FF43DAF03B0BDE8F08F85
:104220000024D5E70124D3E70224D1E70324CFE714
:104230000424CDE70524CBE70624C9E70724C7E714
:104240000824C5E7003C014000000240003802405D
:104250000369194214BF0120002070470AB181612F
:1042600070470904FBE7436901EA030221EA0301FD
:1042700041EA02418161704701684B6913F4806330
:104280004FF0000210D06FF480634B612023026373
:1042900080F83D3080F83E20036C80F83C2043F0ED
:1042A0000403036401207047184670472DE9F8465F
:1042B00006460F4691461D464FEA114A3368BAF149
:1042C000010F0CBF5C699C6927EA0404A4B2B4FA2C
:1042D00084F46409A14501D0002025E06A1CEED0D9
:1042E000FFF75CFD089BC01AA84201D8002DE5D15C
:1042F0003368BAF1010F0CBF5B699B6927EA0303BE
:104300009BB2B3FA83F35B099945D7D100232022EE
:10431000336386F83D2086F83E30326C86F83C30B8
:1043200042F0200232640120BDE8F8862DE9F04118
:1043300004460F46164698462568686927EA000035
:1043400080B2C0B16B695A0517D52B6843F400736E
:104350002B606FF480636B6120220023236384F859
:104360003D2084F83E30236C43F004032364002393
:1043700084F83C300120BDE8F081731CDDD0FFF7EC
:104380000DFDA0EB0800B04201D8002ED4D1236867
:104390005A6927EA020292B2002ACDD000232022D5
:1043A000236384F83D2084F83E30236C1343DDE71B
:1043B00070B504460D46164623685B691B0601D599
:1043C00000201EE02046FFF757FFC8B96A1CF3D053
:1043D000FFF7E4FC801BA84201D8002DECD1236834
:1043E0005B6913F08003E7D12022236384F83D202A
:1043F00084F83E30226C84F83C3042F02002226483
:10440000012070BD2DE9F0431546026885B0DDE955
:104410000C789946136843F4807313600E463B464C
:10442000CDF8008000224FF001110446FFF73EFF57
:10443000236838B11B68DB0502D54FF40073236491
:10444000032620E006F0FE061E611A4943463A465E
:104450002046FFF76BFFA8B9236803905A690392BF
:104460009B690393424639462046039BFFF7A0FF12
:10447000064660B1236C042B01BF2268136843F425
:10448000007313600126304605B0BDE8F083B9F132
:10449000010F236802D1EDB21D61F4E72A0A1A6107
:1044A000394642462046FFF783FF0028E2D12368C1
:1044B000F1E700BF020001002DE9FF479A460368BB
:1044C00015461A6842F480621A601A68DDE90C78B1
:1044D00042F480721A600E463B46CDF800800022FE
:1044E0004FF001110446FFF7E1FE236838B11B6865
:1044F000DB0544BF4FF400732364032021E05FFA1F
:1045000086F906F0FE061E612B4943463A462046D0
:10451000FFF70CFFA0B9236803905A6903929B69C7
:104520000393424639462046039BFFF741FF58B1AB
:10453000236C042B01BF2268136843F400731360DB
:10454000012004B0BDE8F087BAF1010F23681AD149
:10455000EDB242461D6139462046FFF729FF02466B
:104560000028E5D121680B6843F480730B60204676
:10457000CDF800803B464FF00111FFF797FE22680F
:1045800060B11368B4E72A0A1A61394642462046E8
:10459000FFF70EFF0028CBD12368D9E749F00103CC
:1045A0001361054943463A462046FFF7BFFE0038EF
:1045B00018BF0120C5E700BF0200010070B5044626
:1045C0000D46164623685B695B0701D500201EE097
:1045D0002046FFF751FEC8B96A1CF3D0FFF7DEFB97
:1045E000801BA84201D8002DECD123685B6913F031
:1045F0000403E7D12022236384F83D2084F83E3071
:10460000226C84F83C3042F020022264012070BD0C
:1046100070B504460D46164621684B6913F04003F9
:1046200001D0002011E04A69D2060FD56FF01002C8
:104630004A612022236384F83D2084F83E30236CB5
:104640002364002384F83C30012070BDFFF7A6FBF3
:10465000801BA84201D8002DDED123685B6913F0CE
:104660004003D9D12022236384F83D2084F83E30D2
:10467000236C1343E4E7000070B5044608B9012039
:1046800070BD90F83D3003F0FF021BB980F83C206C
:10469000FDF788FB242384F83D3023681A6822F054
:1046A00001021A601A6842F400421A601A6822F481
:1046B00000421A6000F0A8FE3F4B65689D4294BF1F
:1046C0003E4B3F4B98428CBF00230123002BD6D199
:1046D0002268394E51683B4BB0FBF3F321F03F01A8
:1046E0001943B542516088BF4FF49676116A88BF6E
:1046F000734321F03F0184BF4FF47A76B3FBF6F3A6
:1047000001330B431362D169431E2B4821F44F41FF
:10471000854221F0FF0132D86D0040F6FC70B3FBFA
:10472000F5F30133034242D0C3F30B031943D161C4
:10473000D4E907301168034321F0C0010B43136033
:104740009168D4E9030321F40341034321F0FF01FD
:104750000B439360D4E90530D168034321F0FF0196
:104760000B43D360136843F0010313600020202340
:10477000206484F83D30206384F83E0080E7A06820
:1047800050B905EB4505B3FBF5F30133C3F30B0358
:104790007BB143F40043C9E719206843B3FBF0F34E
:1047A0000133C3F30B0323B143F44043BEE70423B7
:1047B000BCE70123BAE700BFA08601007F841E008A
:1047C000FF083D0040420F002DE9F743044699469B
:1047D0000C9E0F469046FFF7E1FA94F83D30202BEF
:1047E000054603D0022003B0BDE8F08300903C49A9
:1047F000192301222046FFF759FD0028F2D194F831
:104800003C30012BEED02068012384F83C30036853
:10481000D9075EBF036843F001030360036823F414
:1048200000630360212384F83D30402384F83E3048
:10483000002323640A9B6362BDF82C306385638D7B
:104840002385284BE3624246CDE900654B46394655
:104850002046FFF7D7FD00282AD00120C3E7FFF745
:10486000A7FD40B1236C042B01BF2268136843F4F9
:1048700000731360F1E7636A27681A4612F8011B98
:1048800039616262628D218D013A92B262857A69E4
:10489000481E80B2520720850AD548B15A783A613D
:1048A00002336362638D013B02399BB221856385CC
:1048B000238D2A4631462046002BD0D1FFF77EFEBD
:1048C0000028CFD12268136843F4007313602023BB
:1048D00084F83D3084F83C0084F83E0083E700BF54
:1048E000020010000000FFFF2DE9F043044687B0EE
:1048F0009946109F0D469046FFF750FA94F83D30C8
:10490000202B064604D00225284607B0BDE8F083D8
:1049100000907A49192301222046FFF7C7FC00289E
:10492000F1D194F83C30012BEDD02068012384F8BC
:104930003C300368DB075EBF036843F0010303609C
:10494000036823F400630360222384F83D3040238E
:1049500084F83E30002323640E9B6362BDF83C3034
:104960006385638D2385664BE3622946CDE9007636
:104970004B4642462046FFF79FFD054608B10125FC
:10498000C2E7228D2368B2B902905A6902929A69ED
:104990000292029A1A6842F400721A60DFF8648187
:1049A000238D002B2CD1202284F83D2084F83C302C
:1049B00084F83E30A8E7012A0AD11A6822F48062FE
:1049C0001A6003905A6903929A690392039AE1E785
:1049D000022A0ED11A6822F480621A601A6842F420
:1049E00000621A6004905A6904929B690493049BC4
:1049F000D4E705905A6905929B690593059BCDE71D
:104A0000032B56D8012B15D1324639462046FFF7E5
:104A1000FFFD0028B3D123681A69636A1A70636ABC
:104A200001336362238D013B2385638D013B9BB280
:104A30006385B5E7022B00963B464FF000024146E6
:104A4000204619D1FFF732FC002898D123681A6854
:104A500042F400721A601A69636A1A70626A531C1F
:104A60006362238D013B2385638D013B9BB263858C
:104A700023681B695370D2E7FFF718FC0246002831
:104A80007FF47DAF2368196821F48061196019698A
:104A9000636A1970636A01336362238D013B238566
:104AA000638D013B9BB26385414600963B462046A1
:104AB000C8E7324639462046FFF7AAFD00287FF4B2
:104AC0005EAF23681A69636A1A70628D616A013A7F
:104AD00092B24B1C628522686362238D5069013B50
:104AE0009BB2400723857FF55BAF032B02BF1368A2
:104AF00023F48063136013694B7090E70200100089
:104B00000000FFFF0400010010B590F83D30202B9D
:104B1000DCB216D1242380F83D3003681A6822F0F5
:104B200001021A605A6A22F010025A625A6A11434C
:104B300059621A6842F001021A6080F83D40002074
:104B400010BD0220FCE730B590F83D30202BDCB2E0
:104B500016D10268242380F83D30136823F0010346
:104B60001360556A4FF6F0732B400B439BB25362B0
:104B7000136843F00103136080F83D40002030BD0E
:104B80000220FCE70068D1F800C0D201843283180B
:104B90002DE9F043C6685D684C68D1F8189005F4BB
:104BA00070455D60C5680CF10107C5F30B45C6F3A0
:104BB0000B4626443D4445EA06455D60C668CD681F
:104BC000C6F30A062E449D6805F470459D60C768CB
:104BD0008D68C7F30A0701353D4445EA06459D60E7
:104BE0001D690E6925F007051D614FF0000E1E615D
:104BF00091F832709D6991F83180C3F818E091F80E
:104C0000305045EA096545EA082545EA07459D61B2
:104C10005D6925F0FF055D614D695D61DD6925F424
:104C2000E06525F00705DD61D1E907573D43DD610A
:104C30009D6A4D6AC3F828E0072E9D629CBF0E4D09
:104C4000AE5DDD6A05F0E025DD6288BF01268D6A74
:104C5000C96AA4EB0C0474437543033444EA054465
:104C6000DC621C6B6FF30A041C631963835843F006
:104C700001038350BDE8F0838044020838B5044640
:104C8000002863D090F8A13003F0FF021BB980F830
:104C9000A020FDF7E3F8022384F8A13023689A6985
:104CA00022F070429A61D4E901200243E0689969D8
:104CB0000243206902430A439A619A682449606961
:104CC0000A409A609A6842EA0042A06902439A60E8
:104CD000DA68E0690A40DA60DA6842EA0042206A8B
:104CE0000243DA601A69606A0A401A611A6942EA84
:104CF0000042A06A02431A615A690A405A615A691D
:104D0000E16A42EA0142216B0A435A61DA6A94F885
:104D1000350094F8361002F07F42DA62DD6A94F8CA
:104D200034202A4342EA002242EA0142DA625A6B04
:104D300042F006025A639A6942F001029A61002029
:104D40000123C4F8A40084F8A13038BD0120FCE799
:104D500000F800F070477047036870B59E6B5D6B9C
:104D60007207044614D5690712D55A6B22F0040263
:104D70005A630422DA63D0F8A43043F00103C0F888
:104D8000A430002380F8A12080F8A030FFF7E2FFD4
:104D9000B20716D5AB0714D523685A6B22F002026E
:104DA0005A630222DA63D4F8A4301343C4F8A4305F
:104DB000042384F8A130002384F8A0302046FFF7B4
:104DC000C9FFF00710D5E9070ED523685A6B22F00A
:104DD00001025A630122DA63002384F8A12084F8D7
:104DE000A0302046FCF718FC320711D52B070FD551
:104DF00023685A6B22F008025A630822DA630123FF
:104E000084F8A130002384F8A0302046FFF7A3FFE8
:104E100070BD2DE9F04190F8A030012B06460F46F9
:104E200094464FF002001FD04FF0010886F8A08092
:104E300086F8A10034240D4604FB02640FCD3834FB
:104E40000FC40FCD0FC40FCD0FC42B6823603046A5
:104E500062463946FFF796FE33680020C3F8248087
:104E600086F8A18086F8A000BDE8F08190F8A02027
:104E7000012A03464FF0020012D01A6883F8A100FD
:104E8000506B20F00100506306480164516B41F003
:104E9000010151630020012283F8A12083F8A000C2
:104EA000704700BF0068014037B500230193184BDD
:104EB000184D1A6C42F080521A641B6C03F0805338
:104EC0000193019B144B01221A64FEF767FF04460D
:104ED0006B68DA030BD5104B0E4D01225A64FEF7B6
:104EE0005DFF04466B689B030AD5002006E0FEF7D1
:104EF00055FF001BB0F57A7FEAD9032003B030BD1F
:104F0000FEF74CFF001BB0F57A7FEBD9F5E700BF49
:104F1000003802400070004000000E422DE9F341CD
:104F2000044640B30368DE0710D423689D075BD4B2
:104F30002368190700F19D8023685A0700F1BD809E
:104F4000A369002B40F0248100202CE08D4B9A684F
:104F500002F00C02042A07D09A6802F00C02082A18
:104F60000BD15B68590208D5864B1B689A03DCD5C8
:104F70006368002BD9D1012015E06368814DB3F53A
:104F8000803F13D12B6843F480332B60FEF706FF7C
:104F90007C4E054633689B03C7D4FEF7FFFE401BDB
:104FA0006428F7D9032002B0BDE8F081B3F5A02F43
:104FB00004D12B6843F480232B60E3E72A6822F4B2
:104FC00080322A602A6822F480222A60002BDDD1F8
:104FD000FEF7E4FE06462B689F03A6D5FEF7DEFE2D
:104FE000801B6428F7D9DDE7664B9A6812F00C0F36
:104FF00007D09A6802F00C02082A11D15B685D02A2
:105000000ED4604A1368990702D5E368012BB2D128
:105010001368216923F0F80343EAC103136087E7AB
:10502000E268594BB2B101221A60FEF7B7FE554D46
:1050300006462B689B0707D52B68226923F0F803E7
:1050400043EAC2032B6073E7FEF7A8FE801B022829
:10505000EFD9A7E71A60FEF7A1FE4A4E054633686E
:105060009F077FF565AFFEF799FE401B0228F6D932
:1050700098E76269444B82B10122C3F8802EFEF7A3
:105080008DFE404E0546736F9B073FF555AFFEF70B
:1050900085FE401B0228F6D984E7C3F8802EFEF770
:1050A0007DFE384E0546736F9F077FF545AFFEF7CF
:1050B00075FE401B0228F6D974E7324B1A6C12F0C9
:1050C000805228D101921A6C42F080521A641B6CF3
:1050D00003F080530193019B01272C4D2B68D805C9
:1050E0001BD5A368274D012B27D12B6F43F001035C
:1050F0002B67FEF753FE234E054641F28838336F87
:105100009A0739D5002F3FF41BAF1E4A136C23F0CA
:105110008053136414E70027DFE72B6843F48073A0
:105120002B60FEF73BFE06462B68D905D9D4FEF767
:1051300035FE801B0228F7D934E7052B04D12B6FED
:1051400043F004032B67D0E72A6F22F001022A679D
:105150002A6F22F004022A67002BCAD1FEF71EFE36
:1051600041F2883806462B6F9B07CBD5FEF716FE1B
:10517000801B4045F7D915E7FEF710FE401B404560
:10518000BDD90FE7003802400000474200700040E0
:10519000374DAA6802F00C02082A3ED0022B354B8C
:1051A0004FF000021A662BD1FEF7F8FD06462B6879
:1051B00099011FD4D4E907321343626A43EA821388
:1051C000E26A43EA0263A26A5208013A43EA0243EE
:1051D0006B60284B264D01221A66FEF7DFFD044660
:1051E0002B689A013FF5B0AEFEF7D8FD001B0228F0
:1051F000F6D9D7E6FEF7D2FD801B0228D7D9D1E633
:10520000FEF7CCFD04462B689B017FF59DAEFEF7B3
:10521000C5FD001B0228F6D9C4E6012B3FF4ABAE56
:105220006B68E26903F4800191427FF4A4AE216AC5
:1052300003F03F028A427FF49EAE616A47F6C07275
:105240001A40B2EB811F7FF496AEA26A520803F4B3
:105250004031013AB1EB024F7FF48DAEE26A03F0C8
:105260007063B3EB026F14BF012000209BE600BF08
:105270000038024000004742134908B58B6803F02C
:105280000C03042B1CD0082B1CD14A684B684968BE
:1052900013F4800314BF0D480D48C1F3881118BFE3
:1052A000002302F03F02A1FB0001FBF741F8064B8F
:1052B0005B68C3F3014301335B00B0FBF3F008BD4F
:1052C0000248FCE70248FAE70038024000127A0080
:1052D0000024F4002DE9F0410D46044610B90120E8
:1052E000BDE8F081434B1A6802F00F028A4228D3CE
:1052F00021688F072DD4C80740D43E4B1A6802F0AE
:105300000F02AA4265D8226851076BD4130707D54C
:10531000394A2169936823F4604343EAC1039360E7
:10532000FFF7AAFF344B354A9B68C3F30313D35CE2
:10533000D840334B1860334B1868FCF70DFF002042
:10534000CEE7CAB21A701B6803F00F038B42C6D1B6
:10535000CEE7294B11F0040F1EBF9A6842F4E052C9
:105360009A600E0742BF9A6842F460429A609A6857
:10537000A06822F0F00202439A60BCE762681E4B0C
:10538000012A1CD11B6813F4003FA8D01A4EB36841
:1053900023F003031343B360FEF700FD41F28838A6
:1053A0000746B368626803F00C03B3EB820FA4D026
:1053B000FEF7F4FCC01B4045F3D9032090E7911E93
:1053C00001291B6802D813F0007FDEE713F0020FFB
:1053D000DBE7EAB21A701B6803F00F03AB427FF4FD
:1053E0007EAF90E70449E0688B6823F4E053034301
:1053F0008B608BE7003C024000380240704402089A
:10540000740000207C000020044B054A9B68C3F315
:105410008223D35C034A1068D840704700380240AA
:1054200068440208740000200F2303600B4B9A6845
:1054300002F0030242609A6802F0F00282609A6809
:1054400002F4E052C2609B68DB0803F4E05303619E
:10545000034B1B6803F00F030B60704700380240DA
:10546000003C0240036813F0430FF7B5044640F0D8
:105470008880236813F00C0F45D08C4B8C4D002294
:105480001A67FEF78BFC06462B68990000F1CB806B
:1054900021684A0715D5D4E90403D5F888201B06EE
:1054A00002F0E04243EA80131343C5F88830D5F890
:1054B0008C30226A23F4F853013A43EA0223C5F8F8
:1054C0008C300B0714D57A4AA369D2F8881020696A
:1054D0001B0701F0706143EA80130B43C2F8883068
:1054E000D2F88C30616A23F440330B43C2F88C301D
:1054F0006E4B6F4E01221A67FEF750FC054633686B
:105500009F0040F197802368980634D500230193CB
:10551000674B684D1A6C42F080521A641B6C03F0A2
:1055200080530193019B2B6843F480732B60FEF73B
:1055300035FC06462B68D80540F183805C4DA26A95
:105540002B6F13F4407340F08380A36A03F440721E
:10555000B2F5407F564A40F09E80916823F070403B
:1055600021F4F81120F4407001439160116FC3F3EE
:105570000B030B4313672368DB0600F190800020C8
:105580004FE04A4B4A4E00229A66FEF707FC05465A
:1055900033681F013FD42168C80741BFD4E9012304
:1055A0001B0743EA8213C6F884308A0715D5404AA0
:1055B000E368D2F8840065681B0600F0E04043EA27
:1055C00085130343C2F88430D2F88C00E36920F0DD
:1055D0001F00013B0343C2F88C304B060AD5E36839
:1055E00062681B0643EA8213A26843EA0273304AE8
:1055F000C2F884302D4B2E4E01229A66FEF7CEFB68
:10560000054633681F013FF534AFFEF7C7FB401B6B
:105610000228F6D904E0FEF7C1FB401B0228B7D9E7
:10562000032003B0F0BDFEF7B9FB801B02287FF614
:105630002BAFF5E7FEF7B2FB401B02287FF65FAF0A
:10564000EEE7FEF7ABFB801B02287FF673AFE7E7C0
:1056500002F4407293423FF478AF2B6F134A01215A
:10566000C2F8401E23F440730021C2F8401E2B678D
:105670002B6FD9077FF569AFFEF790FB41F28837B2
:1056800006462B6F9A073FF560AFFEF787FB801B3E
:10569000B842F6D9C4E7916821F4F81165E7064BE2
:1056A00094F82C20C3F8E02169E700BF00004742CE
:1056B00000380240007000400010474238B50D46E7
:1056C0000446C8B190F82C3003F0FF021BB980F8F3
:1056D0002D20FCF7D5FC022384F82C30211D2068F6
:1056E00000F00EFD62682068294600F03FFD0123AE
:1056F00084F82C30002038BD0120FCE770B590F80C
:105700002C30022B05460E46D8B212D000F0FB0416
:10571000012C0FD1022385F82C30286800F05CFDA5
:105720003368022B06BF052385F82C3085F82C4002
:10573000002070BD0120FCE738B590F82C30022B1A
:105740000446D8B20DD094F82C30012BDDB209D12B
:105750000223206884F82C3000F062FD84F82C507D
:10576000002038BD0120FCE72DE9F3471F4689469C
:1057700090460446FEF712FB0A9D3D442D1AFEF7A3
:105780000DFB264B1E68C6F3CB366E438246019650
:105790002268936839EA03030CBF012300234345C1
:1057A00001D100202EE07B1CF3D0FEF7F7FAA0EB2E
:1057B0000A00A84229D323685A6822F0E0025A60FE
:1057C0006268B2F5827F0AD1A268B2F5004F02D0BA
:1057D000B2F5806F03D11A6822F040021A60A26A03
:1057E000B2F5005F07D11A6822F400521A601A68F5
:1057F00042F400521A60012384F85130002384F8E7
:105800005030032002B0BDE8F087019A019B002AC6
:1058100003F1FF33019308BF1546B9E77400002078
:10582000F0B585B00B4600920E46174602210122C4
:105830000446FFF799FF054628B1636D43F0200346
:105840006365032515E0124B1868124BB0FBF3F0AB
:105850004FF47A73584363680390B3F5827F0BD19A
:10586000009733462A4680212046FFF77DFF002817
:10587000E3D1284605B0F0BD039B002BF9D0039B74
:10588000013B039323689B681B06F5D4F1E700BF37
:105890007400002000366E0137B50B464168B1F543
:1058A000827F044608D0009201210022FFF75CFFAE
:1058B000D0B9002003B030BD8168B1F5004F02D0EF
:1058C000B1F5806F07D125682868B1F5806F20F0A9
:1058D0004000286004D00092802100222046E5E7A5
:1058E000009201210022F9E7636D43F02003636514
:1058F0000320DFE710B50446002855D0436A002B8B
:105900004ED14268B2F5827F00D0C3610023A3620A
:1059100094F8513003F0FF0223B984F85020204658
:10592000FCF778FB2168A068A269022384F8513053
:105930000B6823F040030B60636800F4044003F439
:1059400082730343E06800F400600343206900F0C1
:1059500002000343606900F00100034302F4007099
:105960000343E06900F038000343206A00F0800040
:105970000343A06A00F4005003430B60636A120CF7
:1059800003F0100302F004021A434A60CB6923F4C7
:105990000063CB6100200123606584F8513010BDA5
:1059A0000023C0E90433B1E70120F8E72DE9F7430C
:1059B00004461F460D469046FEF7F0F994F8513024
:1059C000012B8146D8B240F09F80002D74D0B8F1F1
:1059D000000F71D094F85030012B00F09580032314
:1059E00084F8513000236365C4E91033A4F836808D
:1059F000A363A387E387A368266884F85000B3F500
:105A0000004F2563A4F8348007D1336823F04003A6
:105A10003360336843F4804333603368E2685B0685
:105A20005EBF336843F040033360B2F5006F6368D4
:105A300045D113B1B8F1010F07D135F8023BF3603E
:105A40002563E38E013B9BB2E386E38E9BB2D3B921
:105A50004A4639462046FFF7E3FE002851D1A368A5
:105A600033B901932368DA6801929B680193019B23
:105A7000012384F85130606D0023C01A84F850303F
:105A800018BF012018E022689368980705D5236B9A
:105A900033F8021BD1602363D3E7FEF77FF9A0EB55
:105AA0000900B842D1D3791CCFD0012384F85130FA
:105AB000002384F85030032003B0BDE8F08313B115
:105AC000B8F1010F08D12B783373236B01332363B3
:105AD000E38E013B9BB2E386E38E9BB2002BB7D0F3
