:020000040800F2
:100000000000032021060008AD210008AF210008F0
:10001000B1210008B3210008B5210008000000004C
:10002000000000000000000000000000D162000895
:10003000B72100080000000061630008E55B0008CC
:1000400071060008710600087106000871060008B4
:1000500071060008710600087106000871060008A4
:100060007106000871060008710600087106000894
:100070007106000871060008710600087106000884
:100080007106000871060008710600087106000874
:100090007106000871060008710600087106000864
:1000A0007106000871060008710600087106000854
:1000B0007106000871060008710600087106000844
:1000C0007106000871060008710600087106000834
:1000D0007106000871060008710600087106000824
:1000E0007106000871060008710600087106000814
:1000F0007106000871060008710600087106000804
:1001000071060008710600087106000871060008F3
:100110007106000871060008B92100087106000880
:1001200071060008710600087106000871060008D3
:1001300071060008710600087106000871060008C3
:1001400071060008710600087106000871060008B3
:1001500071060008710600087106000871060008A3
:100160007106000871060008710600087106000893
:100170007106000871060008710600080000000002
:100180007106000871060008710600087106000873
:100190007106000871060008710600087106000863
:0C01A000C521000871060008D1210008EC
:1001B00010B5054C237833B9044B13B10448AFF3A1
:1001C00000800123237010BD800300200000000088
:1001D000CC24020808B5034B1BB103490348AFF315
:1001E000008008BD0000000084030020CC24020829
:1001F00001F0FF01102A2BDB10F0070F08D010F8D8
:10020000013B013A8B422DD010F0070F42B3F6D1DB
:10021000F0B441EA012141EA014122F007047FF0F4
:1002200000070023F0E80256083C85EA010586EA4B
:10023000010685FA47F5A3FA87F586FA47F6A5FA87
:1002400087F68EB9EED1F0BC01F0FF0102F0070293
:1002500032B110F8013B013A83EA010313B1F8D13E
:100260000020704701387047002D06BF354603381F
:10027000073815F0010F07D1013015F4807F02BF58
:10028000013015F4C03F0130F0BC0138704700BFA9
:100290007BB972B90029BEBF00204FF0004106E0D3
:1002A00008BF00281CBF6FF000414FF0FF3000F086
:1002B000B5B9ADF1080C6DE904CE002909DB002BBE
:1002C0001ADB00F04DF8DDF804E0DDE9022304B0AC
:1002D0007047404261EB4101002B1BDB00F040F80E
:1002E000DDF804E0DDE9022304B0404261EB4101A6
:1002F000524263EB43037047524263EB430300F007
:100300002FF8DDF804E0DDE9022304B0404261EBA0
:1003100041017047524263EB430300F021F8DDF8DE
:1003200004E0DDE9022304B0524263EB430370476B
:1003300053B94AB9002908BF00281CBF4FF0FF314C
:100340004FF0FF3000F06AB9ADF1080C6DE904CE52
:1003500000F006F8DDF804E0DDE9022304B07047A0
:100360002DE9F047089D0C46002B4ED194468C4554
:100370008646B2FA82F262D94AB1C2F120039140B4
:1003800020FA03F30CFA02FC194300FA02FE4FEACA
:100390001C471FFA8CF6B1FBF7F44FEA1E4307FB2C
:1003A000141143EA014304FB06F199420AD91CEBFC
:1003B000030304F1FF3080F01281994240F20F8173
:1003C000023C6344591A1FFA8EF3B1FBF7F007FBA6
:1003D000101143EA014300FB06F69E420AD91CEBCA
:1003E000030300F1FF3180F0FC809E4240F2F9806F
:1003F000634402389B1B40EA044000211DB1D340F6
:100400000022C5E90032BDE8F0878B4205D90DB165
:10041000C5E9000100210846F5E7B3FA83F1002998
:1004200046D1A34202D39042C0F0F080861A64EB1A
:1004300003030120002DE6D0C5E90063E3E7002AAD
:1004400040F09080A1EB0C044FEA1C481FFA8CF797
:100450000121B4FBF8F64FEA1E4308FB164443EAB9
:10046000044307FB06F0984208D91CEB030306F18E
:10047000FF3402D2984200F2CD8026461C1A1FFAA1
:100480008EF3B4FBF8F008FB104443EA044300FB8E
:1004900007F79F4208D91CEB030300F1FF3402D297
:1004A0009F4200F2B0802046DB1B40EA0640A5E7F1
:1004B000C1F120068B4022FA06F71F4320FA06FC02
:1004C00004FA01F343EA0C03F44000FA01F8380C93
:1004D0004FEA1349B4FBF0FE1FFA87FC00FB1E44F1
:1004E00049EA04440EFB0CF9A14502FA01F20AD9CB
:1004F0003C190EF1FF3A80F08480A14540F28180E2
:10050000AEF1020E3C44A4EB09041FFA83F9B4FBDC
:10051000F0F300FB134449EA044403FB0CFCA4453C
:1005200007D93C1903F1FF3067D2A44565D9023BD6
:100530003C4443EA0E40A0FB0293A4EB0C049C4213
:10054000CE469C4651D34ED055B1B8EB0E0364EB6A
:100550000C0404FA06F6CB401E43CC40C5E9006407
:10056000002150E7C2F1200320FA03F10CFA02FC4B
:1005700024FA03F394400C434FEA1C4800FA02FEAD
:100580001FFA8CF7B3FBF8F008FB1031230C43EA99
:10059000014300FB07F1994208D91CEB030300F16A
:1005A000FF362CD299422AD9023863445B1AA4B28E
:1005B000B3FBF8F108FB113344EA034401FB07F3F2
:1005C000A34208D91CEB040401F1FF3613D2A34265
:1005D00011D902396444E41A41EA004139E704467A
:1005E000F0E6084606E7C845AED2B9EB020E63EB6B
:1005F000070C0138A8E73146EDE7034699E7304696
:10060000D4E7D6467FE7634402384DE706462346E3
:1006100008460FE7023E634430E700BF704700BF63
:10062000DFF834D0002103E00C4B5B584350043119
:100630000B480C4B42189A42F6D30B4A02E00023B7
:1006400042F8043B094B9A42F9D303F029F821F010
:10065000CDF901F05BF87047000003207CFF030830
:100660000000002064010020800300208C34012061
:10067000FEE7704708B500F0B3FDBDE8084000F0A4
:1006800037BD00F0AFBD704710B5042104461FF020
:10069000B7FF204610BD000038B50C4B0C4C18803D
:1006A0000C4B822019806368984740F611039842EA
:1006B0000AD1094D23682C60822098472B6882203C
:1006C000DB689847002038BD0120FCE7A603002026
:1006D0004C000020A4030020A80300204FF4A071C8
:1006E000F020FFF7D9BF0000F7B5374D2B6804465F
:1006F0001B6982209847208000284ED02B680DF17E
:1007000006025B6901A982209847304B1B78002BB9
:100710004BD0BDF8063040F6746293423FD9ADF835
:100720000620BDF80630D21A92B20A2A42D90B230B
:10073000B2FBF3F2264B1B889A4201D9013B9AB2D5
:10074000BDF8043040F6B8318B4235D8C3F571633B
:100750000E339BB20F21B3FBF1F31E4909888B4284
:1007600001D901398BB21C4E1C4D30682F68834271
:1007700081B28CBF591AC91AB8B2BA428CBF101ACA
:10078000801A89B280B201440529C8BF336033683A
:10079000C8BF2A6063802B68A38003B0F0BDB32B71
:1007A0009CBFB423ADF80630BBE7BDF80620A2F528
:1007B000B472B9E70022C3E7C3F56D6308339BB297
:1007C0000E2BC7D80023CEE7A80300200C1700206B
:1007D000A4030020A6030020A00300209C03002007
:1007E00037B568460D461446FFF77EFFBDF800009A
:1007F00030B1BDF802302B60BDF804302360012019
:1008000003B030BD032821D8DFE800F0020B121935
:100810000F4B1A68B2FA82F2520904210D4803F014
:10082000D5B90B4B5A68B2FA82F252090821F5E7A2
:10083000074B9A68B2FA82F252091021EEE7044B94
:10084000DA68B2FA82F252092021E7E7704700BF66
:10085000AC03002000100240032821D8DFE800F09C
:10086000020B12190F4B1A68003A18BF012204211B
:100870000D4803F0ABB90B4B5A68003A18BF012280
:100880000821F5E7074B9A68003A18BF01221021AA
:10089000EEE7044BDA68003A18BF01222021E7E7AF
:1008A000704700BFAC0300200010024003280DD8A1
:1008B000DFE800F00206080A0421054803F08BB9BE
:1008C0000821FAE71021F8E72021F6E7704700BF7A
:1008D0000010024008B5032811D8DFE800F0020A32
:1008E0000C0E0421074803F06BF9431E584258418F
:1008F00008BD0821F6E71021F4E72021F2E70020E7
:10090000F3E700BF0010024070B5084D0024012637
:10091000E0B2FFF7DFFF18B12B68012B18BF2E6084
:100920000134052C05F10405F2D170BDAC030020A3
:10093000012380F8781080F87930704770470020E4
:1009400070470000034B4164003918BF0121197042
:10095000704700BF4B270120704700207047836B12
:100960000BB10846184770474FF6FF707047406854
:1009700003689B6918477047704770477047704716
:1009800010B5044600F044FD23680349D3F89030C5
:100990002046BDE810401847000000D008B50368A5
:1009A0000446D3F88430984723682046DB6F984785
:1009B00000F0ECF8236820465B6F9847292001F08F
:1009C00015F900F0E3F8236820465B6F9847F8E7D5
:1009D00010B5044608F076FA23682046D3F8BC30F8
:1009E000BDE81040184700F0F5BC00F0F9BC00F07D
:1009F0002DBD00F0CBBC00F03DBD00F045BD00F0CA
:100A0000CFBC07F08DBC10B5842104461FF0F8FD63
:100A1000204610BD10B590F8341090F878400C4B7B
:100A20008C421A7809D03AB90A4A0B4914880888C6
:100A300010800C8001221A7010BD002AFCD0054ADB
:100A400005491488088810800C800022F3E700BF55
:100A500044270120402701204227012070B50D4680
:100A6000194635B9094B0A4A0A4840F2FF2120F0DD
:100A70000DFDC0E90F52084B003A18BF01221A7051
:100A80000368BDE87040D3F8903018473C25020851
:100A900074250208C22502084A27012008B5094B1F
:100AA0001B888B4203D8084B1B88934205D9074B00
:100AB000074A0848A32120F0E9FC074B1980074B9F
:100AC0001A8008BD4027012042270120072602087E
:100AD0006A260208C225020846270120482701206D
:100AE000034690F87A0018B1586803681B681847E5
:100AF00070470000012108B50022084605F0FFF804
:100B00000A4B186028B90A4B0A4A28210A4820F0E3
:100B1000BDFC00220421012005F090F9074B18606C
:100B200018B9074B034A2C21F0E708BDC003002089
:100B30009C270208E527020814280208BC030020AD
:100B40005F280208024B4FF0FF31186805F021B909
:100B5000C0030020014B186805F047B9C00300200E
:100B6000024B0021186805F014B900BFC003002033
:100B7000FFF7F0BF03480449006800231A4605F058
:100B800098B900BFBC0300200400002013B5084C36
:100B900000231A4601A9206805F0BCF920684FF02F
:100BA000FF33002201A905F0B5F902B010BD00BF66
:100BB000BC03002003685B6C184701207047036882
:100BC0009B6A1847FEE740F2EF307047054B036021
:100BD000054B4FF08062C3F88820BFF34F8FBFF3FF
:100BE0006F8F7047FC29020800E100E010B5044651
:100BF0004FF45A61FFF7EAFF20461FF001FD20463F
:100C000010BD000082B0002301930E4B1A6B42F41A
:100C100000021A631A6B02F400020192019A1A6927
:100C200042F400021A611A6922F400021A61064BAA
:100C3000064A1A61064A5A61064B4FF080629A6072
:100C400002B0704700380240A0180020A50E00082E
:100C5000C50B000800E100E008B50A2809D8DFE864
:100C600000F006100E0808080810101010000220EE
:100C700008BD054B054A0648902120F007FC0020DE
:100C8000F6E70120F4E700BFA1280208BC2802080B
:100C90000729020838B50C46887FFFF7DDFFA58AD3
:100CA000E28A164B2169586342EA05425A64628B14
:100CB000D963521B1A642568082D0ED19A611A61F6
:100CC0005862207F0E4A42EA0062DA61E2681A62E4
:100CD0000C4A5961D9601A6038BD0022D8611A6186
:100CE000E1680A0A480902F4784200F4FC60024311
:100CF000C1F3C4010A439A63034AECE700B002401F
:100D000009000100012302000123030008B50B289C
:100D10000BD8DFE800F00612100A0A0A0A080808D1
:100D20000808022008BD0520FCE7054B054A0648D7
:100D30006F2120F0ABFB0020F4E70120F2E700BFB9
:100D4000A128020850290208072902082DE9F041CC
:100D500091F81D800C464046FFF7D8FFA77F054657
:100D60003846FFF7D3FF06463846FFF775FFA18ADE
:100D7000628B444B521A1A649A61228B521A1A617E
:100D8000E28A586342EA01425A6421696268D9637F
:100D9000DA602068802828D0227F0FD8202867D0EA
:100DA000402865D004281AD0364B45EA026545F440
:100DB0000035B845DD6161D0334A44E0B0F5807F4D
:100DC00004D0B0F5007FEFD1304800E0304840EA71
:100DD0000262DA61E2681A625E62596132E045EAF3
:100DE000026242F40032DA61F6E7A068021DDA62BC
:100DF000227F45EA026545F40035DD615E62596196
:100E0000017841B1012921D0224B234A23484FF4D4
:100E10008D7120F03BFBDA69418822F47F42013971
:100E200022F0100242EA0122DA610121154BDA694F
:100E300042F02002DA61DA699206FCD410229A604C
:100E40000029B9D0164A1A60BDE8F081B2F1FF015D
:100E5000DA69408822F47F4200F1FF3022F010026C
:100E600042EA002242F0100218BF0121DA61DDE7F8
:100E700045EA0262034B42F40032B4E742F2013227
:100E8000E1E700BF00B002400123010009000200B9
:100E90000A0002009A290208B42902080729020858
:100EA00001230200024B1B68586803685B691847FE
:100EB0004C27012070B5044625460A4B0C3000260D
:100EC00060602672667245F8203B6022294608F071
:100ED0004FF904F55A63EE6024359D42FBD120465C
:100EE00070BD00BFFC290208034B1A68D207FCD46E
:100EF00023229A60704700BF00B002407047000094
:100F000030B50F4C2568ED07FCD423250904A560F6
:100F100041F001010225FF2B65636164E0630AD0A3
:100F20000849656241EA0363E361074B226260613D
:100F3000E060236030BDE561039BA363034BF8E7EA
:100F400000B002400900010001000200010003009E
:100F500030B50E4C2568ED07FCD423251204A5609E
:100F600042F001020225FF2B65636264E063E160E9
:100F700008D01B0643F00213E361054B6562606114
:100F8000236030BD034BE3610123F9E700B0024069
:100F900001000200020002FF30B50B4C2568ED078E
:100FA000FCD4232512041B06A56043F4003302255C
:100FB00042F0010265636264E063E160E361034B58
:100FC00065626061236030BD00B002400100020034
:100FD000012070470C2070470C2303FB01000830F0
:100FE00070470C2303FB0100083070470120704755
:100FF0004FF40070704700EB41200830704700EB61
:10100000412008307047012070471020704700EBE6
:1010100001100830704700EB011008307047084697
:1010200001F0D4BA10B5034B0360044606F0CDFEC0
:10103000204610BDB42A020810B50446FFF7F2FF9F
:10104000204614211FF0DCFA204610BD10B5034BDA
:101050000360044606F0B9FE204610BD802A02084F
:1010600010B50446FFF7F2FF20464FF402711FF05F
:10107000C7FA204610BD000010B5034B03600446BC
:1010800006F0A3FE204610BD4C2A020810B5044607
:10109000FFF7F2FF204618211FF0B2FA204610BDDC
:1010A00010B5084B0360044600F50D70FFF7BAFF5A
:1010B00004F12C00FFF7CAFF04F11400FFF7DCFF76
:1010C000204610BDE82A020808B50248FFF7E8FFED
:1010D00008BD00BF9C12002010B50446FFF7E0FFDA
:1010E00020464FF46A711FF08BFA204610BD0000B5
:1010F0002DE9F34101F0E0F8054601F0E1F80024A4
:101100000146234628462246009410F0C7F9274B93
:10111000274A1A60204601F08DFE264D264B274AAD
:1011200027489A6010F022F92B68BFF35B8FDB072A
:1011300035D428461FF066FA88B3224C224B236030
:1011400004F5137604F1140004F12C0804F50D776E
:101150006060C4F80880E760266106F037FE1B4B2C
:101160006361404606F032FE194BE362384606F0F2
:101170002DFE184BC4F8343204F5127001F0DEFE77
:10118000224604F51271304601F0CEFE304601F0E1
:101190001DFA114820F098F928461FF03FFA0F4831
:1011A00002B0BDE8F041FFF7EBBB00BFB027012064
:1011B0004804002098120020680400204C040020FD
:1011C000080000209C120020E82A02084C2A02088D
:1011D000802A0208B42A0208C9100008C4030020AB
:1011E000704700000148FFF7D9BB00BFC4030020CF
:1011F00070B5264E264C274D274B23603046FFF70F
:1012000059FE284615F050FA24480DF071FE244B83
:101210002448DC6000224FF48071C3E91212224995
:101220001A86C3E91A12214983F85820C3E91E011E
:101230001F49C3F880101F491F480B60F021C3E904
:101240000422C3E90622C3E90822C3E90A22C3E94A
:101250000E22C3E91022C3E91422C3E917225A66F9
:1012600083F870205A67C3E9016501801348018043
:1012700013484FF4A07101801248018012490A708E
:10128000012283F83420114A1A6070BDF404002052
:1012900094120020680400202C2502084C04002031
:1012A000C4030020000001010100000100045000FF
:1012B0001A0014004C270120402701204627012056
:1012C000422701204827012044270120B826020890
:1012D0000148FFF77BBC00BFF404002000207047EA
:1012E00081807047C180704701817047418170479C
:1012F0007047704770477047704710B4C4880368E0
:10130000121B84885B6D091B12B25DF8044B09B295
:1013100018474FF6FF7383814FF0FF330362136862
:10132000C36110607047002070478B888380012064
:101330007047704780F82610704790F82600704775
:1013400010B50022B1F90840B1F90A1002804280BC
:101350008480C18010BD0022028042808280C280D1
:1013600070470177704780ED080A704780F82410B5
:10137000704780F8251070470120704798307047FB
:101380008C3070478430704770470000034B9022C8
:1013900083F85A2383F85823704700BF00E100E028
:1013A000094A0A49D3680A48C3F30A03013B9BB2BE
:1013B0000B801169C1F30A01013901801364536B79
:1013C00043F0010353637047006801404616002054
:1013D00044160020014BD3F8AC0070470068014070
:1013E000024B0122C3F8AC105A62704700680140FA
:1013F0007047704710B52C2104461FF001F92046B4
:1014000010BD10B5BC2104461FF0FAF8204610BDEF
:1014100070B5044606F0D9FF23689D6E0CF000FB02
:1014200001462046A8472368054AD3F88C50204639
:10143000AC460023BDE87040A2F51631604700BFFE
:1014400000B004D006F0A8BF06F0B2BF06F06EBF31
:1014500007F0DDB890F8252012B103685B691847E2
:10146000704790F825201AB190F8242002B1186036
:1014700070470000034B4FF080629A604FF080721B
:101480009A60704700E100E0084B4FF08062C3F8BB
:101490008820BFF34F8FBFF36F8F4FF08072C3F878
:1014A0008820BFF34F8FBFF36F8F704700E100E0DC
:1014B00070B50023124E8380124B0360336893F89B
:1014C000582005460AB1D86C00B998680368DB6AF1
:1014D00098473368B0FA80F4D86C640930B1036877
:1014E000DB6A9847002808BF44F001042CB9064B7A
:1014F000064A07482C211FF0C9FF284670BD00BFCF
:101500004C270120F82B0208F42A0208522B02086B
:101510008B2B020870B5254E3568BFF35B8F15F035
:10152000010540D130461FF06DF800283BD0204C1B
:10153000204B256104F13400C4E90035C4E90255AB
:10154000E584A562A5850DF0B8FF04F1580009F007
:10155000C3FA194BA3652046184B40F8843BFFF7AC
:10156000A7FF174BC4F884302433C4F88C304FF4F1
:10157000C803C4E928350023C4F8AC30C4F8B0303F
:10158000C4F8B430C4F8B8300E480F4BC4F89050CB
:10159000C4F89C50C4F8A850C4F898301FF094FFC9
:1015A00030461FF03BF8024870BD00BF48160020CF
:1015B0004C1600205C380208182C0208902C0208F7
:1015C0001038020889130008F037020838B5184CA3
:1015D00023685BB3174B184A1B6C11888B4216D1DA
:1015E000164B198803F004F9236893F86A20002544
:1015F000013283F86A2083F87C50FFF7BBFA206839
:1016000007F060FC2846BDE83840FFF7FBB803F060
:10161000EFF82468236820461B6A9847012384F862
:101620007C300020BDE83840FFF716B938BD00BF58
:101630004C27012000680140461600204416002077
:1016400007B5064BADF806001B68054801220DF1F1
:10165000060103F06DFE03B05DF804FB0C000020F2
:101660004C17002008B5642004F03DFBFBE70000A8
:1016700030B595B0102200210AA820F00EF91422EE
:10168000002103A820F009F900241E4B01941A6CD4
:1016900042F080521A641B6C03F080530193019B4B
:1016A000194B02941A6842F440421A601B6803F412
:1016B000404302930122029B4FF48033CDE908237B
:1016C00002254FF480030821CDE90E534FF4B47383
:1016D000CDE9101308A804231393129503F0E0F842
:1016E00003F0A4F80F23CDE903354FF4A0504FF4D5
:1016F0008053CDE90603052103A8059403F0ACFA55
:1017000015B030BD003802400070004080B59AB07E
:1017100001F0D4FFFFF7ACFF142200210DA820F048
:10172000BCF80024C74B00941A6BC748C74DDFF8BC
:10173000588342F010021A631A6B02F010020092F2
:10174000009A01941A6B42F020021A631A6B02F09D
:1017500020020192019A02941A6B42F080021A63ED
:101760001A6B02F080020292029A03941A6B42F002
:1017700004021A631A6B02F004020392039A04949F
:101780001A6B42F001021A631A6B02F00102049212
:10179000049A05941A6B42F002021A631A6B02F063
:1017A00002020592059A06941A6B42F040021A63EF
:1017B0001A6B02F040020692069A07941A6B42F0E6
:1017C00008021A631B6B03F00803224607933C21AF
:1017D000079B02F0FBF99E480122022102F0F6F974
:1017E00022469B48042102F0F1F9224699484FF421
:1017F000405102F0EBF901263C23CDE90D36924829
:101800000F9403230DA90227109302F0F5F89048D6
:101810000DA9CDE90D76CDE90F4402F0EDF80423D2
:101820008B480DA9CDE90D36CDE90F4702F0E4F85C
:101830000DA94FF440538748CDE90D36CDE90F4748
:1018400002F0DAF88448854B036001F0C9FFDFF845
:101850003CE2834B2C62C5E900E328464FF4804309
:10186000C5E90434C5E90244C5E9064402F0BCFBFD
:101870001021284602F000FE21462846794D02F04C
:101880001AFE4FF48273C5E900834FF400791823E0
:10189000C5E9069328460A23C5E90244C5E904447C
:1018A000C5E90844AC62EB6203F0E6FC8F232246F4
:1018B000394667488DF824308DF8344002F086F9B7
:1018C00032464FF47A7309A9284603F031FD4FF4EC
:1018D0007A7332460DA9284603F0D6FE32463946C1
:1018E0005B48614D02F072F99DF83430D32B04BF90
:1018F0005E4B1E705E4B0126C5E900361022402368
:101900000024C5E904234FF4C073C5E906344FF43D
:101910000063C5E908344FF4005302274FF004096F
:10192000AB624FF0030A07230DA92846CDE90D73DA
:10193000CDE90F934FF00808C5E90249CDE911A799
:10194000139703F07DFB4FF6FF7209A92846CDE9F6
:101950000A86089409960C9403F092FB304601F035
:10196000D9FE4FF6FF7209A92846CDE90978CDE9DD
:101970000B6403F085FB4FF6FF7209A92846CDE9F9
:1019800009A8CDE90B9403F07BFB4FF40C7308938B
:10199000089B0C934FF6FF7209A92846CDE90998D8
:1019A0000B9603F06DFB40F26A51284603F086FB6C
:1019B00034220DEB020021461FF06FFF2D4D2E4B00
:1019C0002C61C5E900340923C5E905361D23C5E9A5
:1019D000073A40F20D1140F24313C5E9091340F2F2
:1019E000171040F24713C5E90B032846C5E9024426
:1019F000AC8685F8364002F003FEFF214FF4806C80
:101A0000F022CDE912140521CDE914C14FF4A073E1
:101A10000DA9CDE90E24CDE9164228462246174DE0
:101A20001893CDE910370D94ADF864408DF86640F9
:101A300002F0B1FE124B2B601B6898472B68114DCA
:101A4000DB6825E000380240001002404C180020FE
:101A500000080240000C0240E01800200030024064
:101A6000A08601004C170020181700200C1700203A
:101A7000400100A0A41700200068014008170020C2
:101A800014000020A018002000500140005C00401D
:101A90009847134B2846C5E90034C5E90274C5E9E7
:101AA0000A47C5E90C4401F0ABFE3146284601F077
:101AB0005FFFFEF7DFFDFEF7DCFD04F0A1F8094A49
:101AC0000948214604F0C8F8084B094A1860214625
:101AD000084804F0C1F8084B186004F0A3F8FEE7CA
:101AE00000B00240102D02086516000814170020EF
:101AF000EC2C02088306000810170020704770477E
:101B00007FB5094B8DF817201B6802930DF1170262
:101B10000123009201930A460146044802F00CFB9F
:101B200007B05DF804FB00BF100000204C18002037
:101B30007FB500238DF81730084B1B6802930A46C7
:101B400001230DF11701009101930146044802F0B1
:101B500083FB9DF8170007B05DF804FB1000002020
:101B60004C1800201FB5084C24680092CDE90134C0
:101B70000A4601230146054802F06EFB003818BFF3
:101B8000012004B010BD00BF100000204C18002040
:101B900001F0C0BD10B5064C00222046042102F021
:101BA00015F820460122BDE81040042102F00EB8CD
:101BB0000008024038B50B4D044601220A484FF494
:101BC000005102F003F800220421284601F0FEFF34
:101BD0002046FFF735FD28460122BDE838400421A4
:101BE00001F0F4BF00080240000C024038B50B4D74
:101BF000044600220A484FF4005101F0E7FF00229A
:101C00000421284601F0E2FF2046FFF719FD28468F
:101C10000122BDE83840042101F0D8BF000802408D
:101C2000000C0240F7B5144E144F05460C463046E2
:101C30000022042101F0CAFF00224FF4005138466F
:101C400001F0C4FF2846FFF7FBFC0D4B0D481B6855
:101C5000224601A903F018FD384601224FF4005135
:101C6000019C01F0B3FF30460122042101F0AEFFD8
:101C7000204603B0F0BD00BF00080240000C024047
:101C80000C0000204C17002001F044BD0268034BFB
:101C90009A4201D101F02CBD704700BF00100040F6
:101CA0007047000082B00E4B00220092596C41F444
:101CB00080415964596C01F480410091009901926E
:101CC000196C41F0805119641B6C03F0805301932F
:101CD000019B0F216FF0010002B001F041BD00BF78
:101CE000003802400268094B9A4282B00BD10023AF
:101CF0000193074B1A6B42F480521A631B6B03F477
:101D000080530193019B02B0704700BF0030024036
:101D10000038024007B50F4B02689A4216D10022E4
:101D2000A3F5F0430192196B41F4000119631B6B99
:101D300003F40003019305215A20019B01F010FDDB
:101D40005A2003B05DF804EB01F03CBD03B05DF830
:101D500004FB00BF00B002402DE9F043044689B007
:101D60001422002103A81FF098FD2268244B9A42F8
:101D700043D1244C244800250095236B43F00403F1
:101D80002363236B03F004030093009B0195236BF3
:101D900043F001032363236B03F001030193019BD1
:101DA0004FF012094FF400734FF001080327042687
:101DB00003A9CDE90339CDE90587079601F01CFE9B
:101DC0004FF480731148079603A9CDE90339CDE993
:101DD000058701F011FE0295236C43F40003236490
:101DE000236C03F400030293029B236A43F4000371
:101DF0002362236A23F40003236209B0BDE8F08361
:101E0000005C004000380240000802400000024030
:101E1000F0B599B004461422002107A81FF03DFD3B
:101E200030220DEB020000211FF037FD22685E4BCF
:101E30009A4240F0B78008230C93C02310930423E8
:101E400012930CA84FF40033159302F0CDFF08B1A4
:101E5000FFF726FF554B5648002400945A6C42F079
:101E600080625A645A6C02F080620092009A019477
:101E70001A6B42F020021A631A6B02F020020192E0
:101E8000019A02941A6B42F001021A631A6B02F073
:101E900001020292029A03941A6B42F002021A6340
:101EA0001A6B02F002020392039A04941A6B42F036
:101EB00040021A631A6B02F040020492049A0594DD
:101EC0001A6B42F004021A631A6B02F004020592C4
:101ED000059A06941A6B42F008021A631B6B03F012
:101EE0000803069302250E26069B0B964FF480638B
:101EF00007A9CDE90735CDE9094501F07DFD41F69A
:101F000058032C480B9607A9CDE907350927CDE9D9
:101F1000094501F071FD032327480B9707A9CDE977
:101F20000735CDE9094501F067FD4FF4706322489C
:101F30000B9607A9CDE90735CDE9094501F05CFD10
:101F40004FF40C631D480B9607A9CDE90735CDE981
:101F5000094501F051FDC02319480B9607A9CDE9A9
:101F60000735CDE9094501F047FD082315480B96D3
:101F700007A9CDE90735CDE9094501F03DFD4FF44D
:101F8000A0530E480B9707A9CDE90735CDE90945C0
:101F900001F032FD58202246052101F0E1FB5820D6
:101FA00001F010FC19B0F0BD00680140003802409B
:101FB00000140240000002400004024000180240E9
:101FC00000080240000C024010B5044688B01422FC
:101FD000002103A81FF061FC2268144B9A4223D110
:101FE00003F56843002101915A6C114842F48012B4
:101FF0005A645A6C02F480120192019A02911A6B8F
:1020000042F020021A631B6B03F020030293029B31
:102010004FF4607202230321CDE903230523CDE9A8
:10202000061303A901F0E8FC08B010BD0050014000
:10203000001402402DE9F04186B0002303932B4B9E
:102040001C68002C4FD14FF00108C3F80080284BCA
:1020500000949A6B274842EA08029A639B6B03EA52
:1020600008030093022703260C25009B01A94FF6C5
:102070003F03CDE90137CDE9046501F0BDFC1E4801
:10208000059501A9CDE90187CDE9034601F0B4FC2E
:1020900048F233131948059501A9CDE90137CDE977
:1020A000034601F0A9FC4FF683731548059501A975
:1020B000CDE90137CDE9034601F09EFC4CF20373F4
:1020C0001048059501A9CDE90137CDE9034601F096
:1020D00093FC60230C48059501A9CDE90137CDE9B2
:1020E000034601F089FC06B0BDE8F081E818002045
:1020F000003802400014024000080240001802406C
:1021000000100240000C02400004024070B588B08C
:1021100000230293204B1A6C42F010021A641B6CCD
:1021200003F010030293054601A903A8029B02F0E5
:102130003DFE069B4BBB02F029FE184E184B336048
:1021400040F2E733F360174BB0FBF3F3013B7360EE
:10215000304600233361B360B36103F079FC044679
:1021600080B9304603F036FB044658B9362001F0FA
:1021700029FB0F2D0DD822462946362001F0F0FA12
:10218000094B1D60204608B070BD02F0FFFD400005
:10219000D3E70124F6E700BF00380240EC18002026
:1021A0000010004040420F007C0000207047FEE716
:1021B000FEE7FEE7FEE77047014803F049BB00BFBA
:1021C000EC180020014802F089BA00BFA4170020D3
:1021D000014801F043BB00BFA01800200120704758
:1021E00008B51FF0FDFB162303604FF0FF3008BD5C
:1021F00008B51FF0F5FB16230360FEE770B50D462A
:1022000014460E46731B9C4201DC204670BDAFF3A2
:10221000008006F8010BF5E770B50D4614460E4632
:10222000731B9C4201DC204670BD16F8010BAFF316
:102230000080F5E74FF0FF3070474FF400534B60DC
:102240000020704701207047002070470A4A11683B
:1022500008B5034609B90949116010686946034485
:102260008B4206D91FF0BCFB0C2303604FF0FF30FC
:1022700008BD1360FCE700BF341900209034012032
:10228000704710B5042104461EF0BAF9204610BD6F
:10229000012908B506D0022908D059B900F016FE68
:1022A000006808BD00F012FE4068FAE700F00EFE7C
:1022B0008068F6E70020F4E700487047482D0208E0
:1022C0000420704713B5002451B1036801948DF8C0
:1022D000034001AA9C680DF10303A04702B010BDA2
:1022E0000846FBE7C0897047008A7047C08870477E
:1022F00080887047807A00F07F007047807AC0093C
:1023000070470020704700009FED010A704700BF32
:1023100000000000704710B5082104461EF070F957
:10232000204610BD7047704700F5987308684968EB
:1023300003C37047704770474160704770470000A3
:10234000064BC0F84C310023C0F8503100F5A273A1
:10235000C0F84801C0F84031704700BF01240008B0
:102360000123037270477047704710B4C268416818
:102370005410034601EB6200D20748BF0A599B681C
:102380005DF8044B48BFD35818470346406830B146
:102390009A681AB9D86800F00100704701207047A8
:1023A00010B50C2104461EF02BF9204610BD10B5C7
:1023B000102104461EF024F9204610BD10B54FF43C
:1023C000AE7104461EF01CF9204610BD10B50BF08E
:1023D00027FB0368BDE81040DB6B184710B50446C7
:1023E000D0F8400158B10368DB68984738B1D4F899
:1023F000400103689B6898470023C4F8403110BD32
:102400002DE9F14FD0E9556A0746B06803681B6AA9
:102410009847B0F5007F05D2444B454AA321454873
:102420001FF034F8706803681B6A98470F2803D8B8
:10243000414B3F4AA421F2E7F06803681B6A9847C2
:102440000B2803D83D4B3A4AA521E8E70BF0E8FA00
:10245000DFF8F09004300BF008FBD9F8000010B161
:102460000368DB689847D9F8000010B103681B685F
:102470009847DFF8D480D8F8000010B103685B6992
:102480009847D7F83C0110B103685B689847D8F8C3
:10249000000010B103681B689847D7F83C0110B1E1
:1024A00003689B689847F068036800215B6A984757
:1024B0004FF0000B224BC0F804B0044680F808B07F
:1024C0000360B068036859465B6A9847054600F0A8
:1024D00075FD7068036859465B6A98472946064649
:1024E00000F03EFD331DC7F83C61C9F80040C8F854
:1024F0000050CAF800302B68C6F808A02846DB68F0
:10250000EE639847336830461B6898472146284653
:102510000DF036FC236820461B69984723685B69E9
:10252000204601B0BDE8F04F184700BFA82D0208B3
:10253000362E0208082F02084F2F0208F22F020839
:102540000C3102089427012090270120044B1B68BE
:1025500093F858200AB1D86C00B99868704700BF4A
:102560004C270120F8B5174604460E460BF01AFB1F
:10257000124B1C60124B2360124B0025C4E95135ED
:10258000114BC4E953551868036801219B68C4E9DD
:102590004F55C4E955769847284600F04BFCFFF7A5
:1025A000D5FF15F02AFFFFF7D1FF15F0A1FFFFF7C8
:1025B000CDFF15F0A9FF2046F8BD00BFA0270120E0
:1025C000B8300208A03002084C270120064BC0F8A2
:1025D0004C310023C0F8503100F5A273C0F8480117
:1025E000C0F84031704700BF01240008406A7047BE
:1025F000806A704770478A880B8810B5D20A4C8869
:10260000C1699BB251F8220043EA0443184410BD4B
:1026100010B50446BAB1107B68B1537BD27A1B0265
:1026200003F4E0631A43236A03EB82031A888A42A5
:1026300002D193F9020010BD05D8013880B20433ED
:102640000028F3D1F7E70020F5E710B52C21044668
:102650001DF0D6FF204610BD30B58BB00446BDF846
:1026600060500895BDF85C5007959DF85050069550
:102670009DF84C5005959DF8485004959DF84450A0
:1026800003959DF8405002959DF83C500195BDF88A
:10269000385000950CF0CEFF064B2360159BE3618C
:1026A000169B2362199B63621A9BA36220460BB0A0
:1026B00030BD00BF30310208704770477047704727
:1026C000704730B50368018185B06D460146D3F887
:1026D000843004462846984795E807003C3484E84F
:1026E000070005B030BD30B50368418185B06D4647
:1026F0000146D3F8843004462846984795E80700F9
:102700003C3484E8070005B030BD002202804280DE
:102710008280C280704780F83610704770B50368B9
:1027200004461B6B154698472368294620465B6E76
:10273000BDE87040184700207047806C70477047B4
:10274000704770477047704730B4C268446855108E
:10275000034604EB6200D20748BF62599B6830BC55
:1027600048BFD35818470346406830B19A681AB931
:10277000D86800F0010070470120704710B54C2167
:1027800004461DF03DFF204610BD10B51021044643
:102790001DF036FF204610BD10B54FF4E071044621
:1027A0001DF02EFF204610BD08B5FEF753FE08BDF4
:1027B00000F58E728A4202D10368DB6A18477047BF
:1027C000036870B55E6B124B1B6804468DB22BB963
:1027D000104B114A6C2111481EF058FE1049828D91
:1027E0000988914203D80F4B0B4A6D21F3E713F888
:1027F00012200D4B1B6853F8220003681B6B98478F
:10280000291A3346204609B2BDE87040184700BF78
:10281000A427012090310208D23102080D320208AB
:10282000A827012054320208AC27012000224FF0D3
:10283000FF31C0E900218260704770B5036804462B
:102840001B6B154698472368294620465B6BBDE8FD
:102850007040184770B504461D46BDF91060FFF77B
:10286000ECFF2368294620469B6B98472368314636
:102870002046DB6BBDE87040184700000022C0E92D
:102880000122C0E90322C0E90522C0E907224FF472
:1028900080728284014A0260704700BFE8320208F9
:1028A00010B52622044600211EF0F7FF2046FFF750
:1028B000E5FF044B2360FF2384F826300023A36246
:1028C000204610BD2039020838B5262204460D46A0
:1028D00000211EF0E2FF2046FFF7D0FF064B2360E9
:1028E0002B88E384FF23204684F82830294608F00B
:1028F000AAFB204638BD00BF88390208F8B5194B3D
:10290000018F1B888B4206462AD9174B1B682BB9AF
:10291000164B174A17486C211EF0B8FD13F811200A
:10292000154B1B6853F82250144B186800F0BEFA80
:102930002B6807469B6B284698472B6804469B6C80
:102940003946284698472B6814FB00F45B6A3946E1
:1029500028469847A4B223181BB2A6F84630F8BD03
:102960000023FAE7A8270120A427012090310208BC
:10297000D23102080D320208AC270120B027012015
:102980002DE9F04F04468DB0A14600250DF04CF81E
:10299000844BE56349F8403B4846FFF781FF04F16B
:1029A0006C0318460293FFF77BFF04F19803184667
:1029B00004F1C40B039304F1F00AFFF771FF4FF623
:1029C000FF760AA9584604F58E78ADF82860FFF71F
:1029D0007BFF0AA9504604F5B277ADF82860FFF7EF
:1029E00073FF404608F070FC2622294638461EF048
:1029F00054FF3846FFF742FF6B4BC4F88C314FF45D
:102A00007F03C4F89831694BC4F864314FF0FF3349
:102A1000C4E96935664BA4F89061C4E96C34654B30
:102A2000C4F89451C4E96E354FF4A0732A46484661
:102A3000A4F89C51C4F8A051C4F8AC5129460093A5
:102A4000F023FFF707FF261D4FF07F434946A3669B
:102A5000304605F0CFF94FF4A0732A460298009350
:102A60002946F023FFF7F6FE534B0299C4F8943041
:102A7000304605F0BFF98823B82203980093294611
:102A8000F023FFF7E7FE4D4BC4F8C0300399304602
:102A900005F0B0F989221E215846FFF7CEFE032328
:102AA0000AA95846ADF8283008F0CDFA5946304604
:102AB00005F0A0F9892250464FF4BE71FFF7BDFE24
:102AC0004FF0020950460AA9ADF8289008F0BBFA69
:102AD0005146304605F08EF94046E3222946FFF77D
:102AE000ACFE4FF0010A0AAA09A94046ADF82450ED
:102AF000ADF828A008F075F94046A4F85491FFF706
:102B0000FDFE4FF0FF33C4E9563304F5D873C4F823
:102B100044314146304605F06DF92A468C2138464D
:102B2000FFF78BFE4FF07F43C4F89431D4F8643143
:102B3000A4F898510DF11008D3F884303946404676
:102B4000984798E8070004F5D07383E807001C4B0A
:102B50001B682BB91B4B1C4A60211C481EF096FCBD
:102B60001B4B1B88012B03D81A4B174A6121F4E732
:102B7000194B5146186800F099F9C4F8AC01384671
:102B800008F0B2F8084B0A930AA93846ADF82C5061
:102B900008F0CAF83046394605F02CF920460DB049
:102BA000BDE8F08FF8330208A02D02085033020868
:102BB000E0330208B1270008FDFF99FF3D3D3DFFCE
:102BC000A427012090310208923202080D32020837
:102BD000A827012054320208B027012070470000C6
:102BE00030B5164D2C68BFF35B8F14F001048FB025
:102BF00020D128461DF006FDE0B13F230993104B7C
:102C00000893104B104911480A940122CDE906435C
:102C10000423CDE903320A230093CDE90B44CDE927
:102C200001440594FFF718FD09481EF04DFC2846A5
:102C30001DF0F4FC05480FB030BD00BF381900206E
:102C4000704802087C4802088C4702083C190020A2
:102C5000DD2B00087047000030B5174D2C68BFF31E
:102C60005B8F14F001048FB022D128461DF0CAFCFE
:102C7000F0B13F230993114B0893114B11491248AE
:102C80000A94CDE9064301220423CDE9033214233B
:102C900000930E221823CDE90B44CDE9014405949D
:102CA000FFF7DAFC09481EF00FFC28461DF0B6FCC1
:102CB00005480FB030BD00BF6819002074480208F5
:102CC000804802089C4702086C190020552C000817
:102CD0007047000030B5164D2C68BFF35B8F14F0C1
:102CE00001048FB020D128461DF08CFCE0B13F23B9
:102CF0000993104B0893104B104911480A94012274
:102D0000CDE906430423CDE9033228230093CDE91E
:102D10000B44CDE901440594FFF79EFC09481EF0E1
:102D2000D3FB28461DF07AFC05480FB030BD00BF2C
:102D30009819002078480208844802086048020870
:102D40009C190020D12C00080020704700207047FB
:102D50000EB403B503AB002153F8042B01930BF021
:102D6000E7FE02B05DF804EB03B070470CB407B5A2
:102D700004AB53F8042B01930BF0DAFE03B05DF8BB
:102D800004EB02B070470000436C10B5044673B307
:102D9000038F2BB9184B194AC52119481EF076FB31
:102DA000C38E00EB43035B8C0BB30DF028FD238F28
:102DB000012B03D8134B144ACB21EEE7E28E531CB0
:102DC0009BB2092B194688BFA3F10A0104EB41010C
:102DD00040F63F10498C814209D10A2B04EB420294
:102DE00028BF002304EB4303508C588451842046B1
:102DF000BDE810400DF006BC28340208313402084A
:102E0000DC34020826350208343502080DF0C1BB57
:102E100010B586B002AC84E806001A460AAB0593EA
:102E20000193099B00932146089B0AF097F906B08D
:102E300010BD000038B518BB124B13481C6813496D
:102E4000B4B1226822440260626822440A60A26827
:102E500014440F4B00221A8000F038F8054600F0A9
:102E600033F80C4B1C600C4B1D600C4B188007E0BA
:102E70000B4B03600B4B0B600B4B1C68002CE8D119
:102E800038BD00BFD4190020CC190020C81900207B
:102E9000D0190020A4270120AC270120A827012059
:102EA0009848020888480208BC480208044B1B687E
:102EB00053F82100034B1B6803EB4000704700BF31
:102EC000C8190020CC190020042070470048704722
:102ED000D819002010B5FFF7BFFE044C2060FFF7A3
:102EE000F9FE6060FFF77CFEA06010BDD8190020DD
:102EF00010B5002404600C6014601C6010BD7047A5
:102F000010B54FF4AE7104461DF07AFB204610BD9B
:102F100010B50446D0F8580100F013F82046BDE87B
:102F200010400AF0FFBD000010B50446FFF71AFB81
:102F3000014B2360204610BD1036020800220260BB
:102F400070477047704704387047704710B51021BC
:102F500004461DF055FB204610BDA0F10400F5E726
:102F600000228260024A026018324260C1607047EB
:102F7000643602087047000090F8CC312BB9012369
:102F800080F8CC31014BC0F8C43170470000A0C1BB
:102F900010B5034B03600446FFF7D2FB204610BD7B
:102FA0009836020810B50446FFF7F2FF20464FF4AA
:102FB00000711DF025FB204610BD000010B5044631
:102FC000FFF7DEFC084B236000220023C4F8C42175
:102FD0004FF07F52C4E97433C4F8C031C4F8C8213B
:102FE00084F8CC31204610BD9836020838B5044626
:102FF000FFF7A7FBB4F9CE20B4F99E309B1AC4F8B2
:10300000C031A4F8CA300B4B0B4A1B88C4F8D0312E
:1030100004F5EC75A4F8F4302846D4F8D431142122
:103020000EF096F9C4F8AC5104F5B270BDE8384022
:103030000BF0A8BE402701208436020890F8CC315E
:1030400070B5044673B300F1C40528460BF09AFE30
:10305000D4ED707A94ED717AB4F99E20B4F9CE1063
:10306000F8EEE77A521A77EE877AFDEEE77A17EEF6
:10307000903AC4ED707AD4ED727A77EE877A934203
:10308000C4ED717A07DB0023C4F8C4310023C4F80F
:10309000C02184F8CC31D4F8C031A4F8CA30284615
:1030A0000BF070FE04F1F00630460BF06BFED4F826
:1030B000D031B4F9F820043BDA42C4F8D03115D548
:1030C000254B264A1B88C4F8D031D4F8D43104F5F6
:1030D000EC750133C4F8D431142128460EF038F9C8
:1030E000C4F8AC5104F5B2700BF04CFED4F8D031FA
:1030F000A4F8F43030460BF045FEB4F9C820B4F91A
:10310000CC30D4F8D0111344994223DAB4F9F83012
:103110000B449A421EDAD4F8C021B4F9CE301344DD
:10312000B4F99E20934215DD0B4A04F5EC75128824
:10313000C4F8D0210023C4F8D4312846074A14210A
:103140000EF006F9C4F8AC5104F5B270BDE8704059
:103150000BF018BE70BD00BF402701208436020866
:10316000F02070474FF4A07070472920FEF73EBD55
:103170002820FEF73BBD08B5FEF70CFDCA20FEF780
:1031800035FDC320FEF716FD0820FEF713FD502085
:10319000FEF710FDCF20FEF729FD0020FEF70AFD07
:1031A000C120FEF707FD3020FEF704FDED20FEF7FD
:1031B0001DFD6420FEF7FEFC0320FEF7FBFC122041
:1031C000FEF7F8FC8120FEF7F5FCE820FEF70EFD87
:1031D0008520FEF7EFFC0020FEF7ECFC7820FEF7E0
:1031E000E9FCCB20FEF702FD3920FEF7E3FC2C20A2
:1031F000FEF7E0FC0020FEF7DDFC3420FEF7DAFCF1
:103200000220FEF7D7FCF720FEF7F0FC2020FEF7A7
:10321000D1FCEA20FEF7EAFC0020FEF7CBFC002000
:10322000FEF7C8FCB120FEF7E1FC0020FEF7C2FC6F
:103230001B20FEF7BFFCB620FEF7D8FC0A20FEF7E5
:10324000B9FCA220FEF7B6FCC020FEF7CFFC102090
:10325000FEF7B0FCC120FEF7C9FC1020FEF7AAFC67
:10326000C520FEF7C3FC4520FEF7A4FC1520FEF7A1
:10327000A1FCC720FEF7BAFC9020FEF79BFC36208D
:10328000FEF7B4FCC820FEF795FCF220FEF7AEFC7A
:103290000020FEF78FFCB020FEF7A8FCC220FEF74E
:1032A00089FCB620FEF7A2FC0A20FEF783FCA720CB
:1032B000FEF780FC2720FEF77DFC0420FEF77AFC59
:1032C0002A20FEF793FC0020FEF774FC0020FEF796
:1032D00071FC0020FEF76EFCEF20FEF76BFC2B204C
:1032E000FEF784FC0020FEF765FC0020FEF762FC80
:1032F0000120FEF75FFC3F20FEF75CFCF620FEF7A6
:1033000075FC0120FEF756FC0020FEF753FC06205A
:10331000FEF750FC2C20FEF769FCC820FEF7B4FC39
:103320002620FEF763FC0120FEF744FCE020FEF7B8
:103330005DFC0F20FEF73EFC2920FEF73BFC24201D
:10334000FEF738FC0C20FEF735FC0E20FEF732FCB1
:103350000920FEF72FFC4E20FEF72CFC7820FEF70C
:1033600029FC3C20FEF726FC0920FEF723FC132055
:10337000FEF720FC0520FEF71DFC1720FEF71AFCC7
:103380001120FEF717FC0020FEF714FCE120FEF7E9
:103390002DFC0020FEF70EFC1620FEF70BFC1B2078
:1033A000FEF708FC0420FEF705FC1120FEF702FCE6
:1033B0000720FEF7FFFB3120FEF7FCFB3320FEF772
:1033C000F9FB4220FEF7F6FB0520FEF7F3FB0C208D
:1033D000FEF7F0FB0A20FEF7EDFB2820FEF7EAFBE4
:1033E0002F20FEF7E7FB0F20FEF7E4FB1120FEF78E
:1033F000FDFBC820FEF748FC2920FEF7F7FBBDE8DF
:1034000008402C20FEF7F2BB08B5FEF7C3FB0321F2
:10341000D320FEF707FC80B208BD10B5C4B202226B
:1034200003212046FEF76CFB0A20FEF7B1FB204685
:1034300000220321FEF764FBBDE810400220FEF7E6
:10344000A7BB38B50446E4B2FEF758FB002120467E
:10345000FEF76EFB012105462046FEF769FB40EAB8
:10346000052080B238BD10B5C4B240212046FEF719
:103470005FFB030607D54C212046FEF759FB0038B9
:1034800018BF012010BD01224B212046FEF738FB5A
:10349000204600224B21FEF733FB0020F2E773B5F4
:1034A0000423C4B20E461546D7210DEB0302204675
:1034B000FEF758FB019B1BBA1A0DC3F30B23328096
:1034C00020462B8001224B21FEF71AFB00224B21C4
:1034D0002046FEF715FB02B070BD000010B50A4A89
:1034E0001378984204460DD0517888420AD00BB127
:1034F00041B90123D454FEF701FB2046BDE810403A
:10350000FFF78BBF10BD00BFE419002010B5C4B297
:1035100009212046FEF70CFB40F00102D2B2204602
:103520000921BDE81040FEF7EBBA10B5C4B209217D
:103530002046FEF7FDFA092100F0FE022046BDE814
:103540001040FEF7DDBA38B5C4B20D4620460A2158
:10355000FEF7EEFA40EA0502D2B220460A21BDE8A3
:103560003840FEF7CDBA10B50446FEF7C8FA20463B
:103570001F21FFF7E8FF2046BDE81040FFF7C6BF58
:1035800038B5C4B20D4620460A21FEF7D1FA20EA2A
:103590000502D2B220460A21BDE83840FEF7B0BA93
:1035A00010B50446FFF7C1FF20461F21BDE81040BB
:1035B000FFF7E6BF10B5C0B20C460B21FEF7B8FA14
:1035C000204010BD1F21FFF7F5BF0A46C0B20B21F6
:1035D000FEF796BA1F21FFF7F8BF38B5C4B20D4603
:1035E00020461721FEF7A4FA20EA0502D2B22046AF
:1035F0001721BDE83840FEF783BA70B5C4B206465D
:1036000004212046FEF794FA042100F0FB0205464F
:103610002046FEF775FA3046F021FFF7DEFF05F091
:10362000F80220460421FEF76BFA492220212046A9
:10363000FEF766FA0220FEF7ABFA204601222121AE
:10364000FEF75EFA20469A224121FEF759FA2046FB
:1036500001224A21FEF754FA204601224B21FEF7AF
:103660004FFA204600224B21FEF74AFA204601225B
:103670005621FEF745FA204601225821FEF740FA6E
:10368000204601224021FEF73BFA2046FF220B2173
:10369000FEF736FABDE870400220FEF779BA000066
:1036A000054BD3F8882042F47002C3F888204FF00D
:1036B00000629A60704700BF00ED00E008B50B4B58
:1036C0001A6842F400721A601A6842F480621A6042
:1036D0001A6842F480721A60032000F02FF800206C
:1036E000FEF714FDFEF7DEFA002008BD003C0240A4
:1036F000034A044B11681B780B441360704700BFEA
:10370000E819002078000020014B1868704700BFBE
:10371000E819002038B50446FFF7F6FF631C1CBF0C
:10372000054B1B78054618BFE418FFF7EDFF431B58
:10373000A342FAD338BD00BF780000200749CA6809
:1037400022F4E0620302120403F4E063120C134358
:1037500043F0BF6343F40033CB60704700ED00E0FB
:10376000164B30B5DC68C4F30224C4F10703251DF1
:10377000042B28BF0423062D4FF0FF358CBF033CDC
:10378000002405FA03F321EA0303A54022EA050217
:10379000A340002843EA0203ACBF00F16040084A9E
:1037A0004FEA0313B8BF00F00F00DBB2AABF00F569
:1037B0006140135480F8003330BD00BF00ED00E0DD
:1037C00014ED00E0002807DB044A4109012300F062
:1037D0001F00834042F82130704700BF00E100E045
:1037E00010B5044650B1437903F0FF0213B90271DA
:1037F000FEF778FA01236371002010BD0120FCE779
:1038000010B5044630B390F8393003F0FF021BB90D
:1038100080F83820FEF77EFA22686168022384F877
:103820003930136823F440330B431360536BA168A2
:1038300023F007030B435363136CE16823F47F53B6
:1038400023F03F030B43136400200123E06384F85B
:10385000393010BD0120FCE770477047036870B530
:103860005E681D68F207044614D5E90512D51A688A
:1038700022F480721A60C26B42F00102C26301221C
:103880009A60042380F83930002380F83830436987
:1038900003B19847B20616D5AB0414D523681A684D
:1038A00022F400521A6020229A60E36B43F0020374
:1038B000E363042384F83930002384F838306369E3
:1038C0000BB120469847300716D5290514D5236833
:1038D0001A6822F400621A6008229A60E36B43F0CF
:1038E0000403E363042384F83930002384F8383078
:1038F00063690BB12046984772070BD56B0509D554
:1039000023681A6822F480621A6004229A602046B2
:10391000FFF7A2FFB00714D5A90512D523681A68CE
:1039200022F400721A6002229A60E36BE3630123BF
:1039300084F83930002384F8383023690BB12046ED
:103940009847F20613D5EB0411D523681A6822F4C0
:1039500080521A6010229A60E36BE363012384F8BB
:103960003930002384F838302046FFF776FF70BDE9
:10397000F0B590F83820012A03464FF002002BD012
:10398000012283F8382083F8390003EB0112D2E9D1
:103990000740556A174F44EA0040093C012C9CBF80
:1039A00005F07F4210434FEA01161A6888BF40EACB
:1039B000056091B9516A394001435162012C9969FE
:1039C000916103D8596A21F07F4191620122002060
:1039D00083F8392083F83800F0BDD16939400143BC
:1039E000D1619919012C896911619CBF25F07F452E
:1039F0001562EBE7F0FFFC002DE9F74FDFF8BC9113
:103A00006C4A00230D6801249C4004EA0506AC437F
:103A100040F0B7804D68032705F003044FEA4308E0
:103A200007FA08FC671E012F6FEA0C0C34D8876870
:103A300007EA0C0ECF6807FA08F747EA0E07876017
:103A4000476827EA060EC5F300179F4047EA0E07AE
:103A50004760C76807EA0C0E8F6807FA08F747EA5D
:103A60000E07022CC76019D14FEAD30A00EB8A0A6D
:103A700003F0070BDAF820704FEA8B0B4FF00F0EB4
:103A80000EFA0BFE27EA0E0E0F6907FA0BF747EA4C
:103A90000E07CAF8207001E0032CDAD1076804FA97
:103AA00008F407EA0C073C4315F4403F046068D073
:103AB00000240194D9F8444044F48044C9F84440B7
:103AC000D9F8444023F0030707F1804704F4804409
:103AD00007F59C37019403F0030C019CD7F808E02C
:103AE0004FEA8C0C0F2404FA0CF42EEA040E324C2C
:103AF000A0424DD004F58064A0424BD004F5806410
:103B0000A04249D004F58064A04247D004F5806407
:103B1000A04245D004F58064A04243D004F58064FF
:103B2000A04241D004F58064A0423FD004F58064F7
:103B3000A0423DD004F58064A04214BF0A240924A9
:103B400004FA0CF444EA0E04BC609468F74315F4DC
:103B5000801F0CBF3C4034439460D46815F4001FB0
:103B60000CBF3C403443D460546815F4003F0CBF94
:103B70003C40344354601468ED0354BF3C4034432C
:103B800014600133102B7FF43DAF03B0BDE8F08F1C
:103B90000024D5E70124D3E70224D1E70324CFE7AB
:103BA0000424CDE70524CBE70624C9E70724C7E7AB
:103BB0000824C5E7003C01400000024000380240F4
:103BC0000369194214BF0120002070470AB18161C6
:103BD00070470904FBE7436901EA030221EA030194
:103BE00041EA02418161704701684B6913F48063C7
:103BF0004FF0000210D06FF480634B61202302630A
:103C000080F83D3080F83E20036C80F83C2043F083
:103C10000403036401207047184670472DE9F846F5
:103C200006460F4691461D464FEA114A3368BAF1DF
:103C3000010F0CBF5C699C6927EA0404A4B2B4FAC2
:103C400084F46409A14501D0002025E06A1CEED06F
:103C5000FFF75AFD089BC01AA84201D8002DE5D1F4
:103C60003368BAF1010F0CBF5B699B6927EA030354
:103C70009BB2B3FA83F35B099945D7D10023202285
:103C8000336386F83D2086F83E30326C86F83C304F
:103C900042F0200232640120BDE8F8862DE9F041AF
:103CA00004460F46164698462568686927EA0000CC
:103CB00080B2C0B16B695A0517D52B6843F4007305
:103CC0002B606FF480636B6120220023236384F8F0
:103CD0003D2084F83E30236C43F00403236400232A
:103CE00084F83C300120BDE8F081731CDDD0FFF783
:103CF0000BFDA0EB0800B04201D8002ED4D1236800
:103D00005A6927EA020292B2002ACDD0002320226B
:103D1000236384F83D2084F83E30236C1343DDE7B1
:103D200070B504460D46164623685B691B0601D52F
:103D300000201EE02046FFF757FFC8B96A1CF3D0E9
:103D4000FFF7E2FC801BA84201D8002DECD12368CC
:103D50005B6913F08003E7D12022236384F83D20C0
:103D600084F83E30226C84F83C3042F02002226419
:103D7000012070BD2DE9F0431546026885B0DDE9EC
:103D80000C789946136843F4807313600E463B46E3
:103D9000CDF8008000224FF001110446FFF73EFFEE
:103DA000236838B11B68DB0502D54FF40073236428
:103DB000032620E006F0FE061E611A4943463A46F5
:103DC0002046FFF76BFFA8B9236803905A69039256
:103DD0009B690393424639462046039BFFF7A0FFA9
:103DE000064660B1236C042B01BF2268136843F4BC
:103DF000007313600126304605B0BDE8F083B9F1C9
:103E0000010F236802D1EDB21D61F4E72A0A1A619D
:103E1000394642462046FFF783FF0028E2D1236857
:103E2000F1E700BF020001002DE9FF479A46036851
:103E300015461A6842F480621A601A68DDE90C7847
:103E400042F480721A600E463B46CDF80080002294
:103E50004FF001110446FFF7E1FE236838B11B68FB
:103E6000DB0544BF4FF400732364032021E05FFAB5
:103E700086F906F0FE061E612B4943463A46204667
:103E8000FFF70CFFA0B9236803905A6903929B695E
:103E90000393424639462046039BFFF741FF58B142
:103EA000236C042B01BF2268136843F40073136072
:103EB000012004B0BDE8F087BAF1010F23681AD1E0
:103EC000EDB242461D6139462046FFF729FF024602
:103ED0000028E5D121680B6843F480730B6020460D
:103EE000CDF800803B464FF00111FFF797FE2268A6
:103EF00060B11368B4E72A0A1A613946424620467F
:103F0000FFF70EFF0028CBD12368D9E749F0010362
:103F10001361054943463A462046FFF7BFFE003885
:103F200018BF0120C5E700BF0200010070B50446BC
:103F30000D46164623685B695B0701D500201EE02D
:103F40002046FFF751FEC8B96A1CF3D0FFF7DCFB2F
:103F5000801BA84201D8002DECD123685B6913F0C7
:103F60000403E7D12022236384F83D2084F83E3007
:103F7000226C84F83C3042F020022264012070BDA3
:103F800070B504460D46164621684B6913F0400390
:103F900001D0002011E04A69D2060FD56FF010025F
:103FA0004A612022236384F83D2084F83E30236C4C
:103FB0002364002384F83C30012070BDFFF7A4FB8C
:103FC000801BA84201D8002DDED123685B6913F065
:103FD0004003D9D12022236384F83D2084F83E3069
:103FE000236C1343E4E7000070B5044608B90120D0
:103FF00070BD90F83D3003F0FF021BB980F83C2003
:10400000FDF7AAFE242384F83D3023681A6822F0C5
:1040100001021A601A6842F400421A601A6822F417
:1040200000421A6000F0B2FE3F4B65689D4294BFAB
:104030003E4B3F4B98428CBF00230123002BD6D12F
:104040002268394E51683B4BB0FBF3F321F03F013E
:104050001943B542516088BF4FF49676116A88BF04
:10406000734321F03F0184BF4FF47A76B3FBF6F33C
:1040700001330B431362D169431E2B4821F44F4196
:10408000854221F0FF0132D86D0040F6FC70B3FB91
:10409000F5F30133034242D0C3F30B031943D1615B
:1040A000D4E907301168034321F0C0010B431360CA
:1040B0009168D4E9030321F40341034321F0FF0194
:1040C0000B439360D4E90530D168034321F0FF012D
:1040D0000B43D360136843F00103136000202023D7
:1040E000206484F83D30206384F83E0080E7A068B7
:1040F00050B905EB4505B3FBF5F30133C3F30B03EF
:104100007BB143F40043C9E719206843B3FBF0F3E4
:104110000133C3F30B0323B143F44043BEE704234D
:10412000BCE70123BAE700BFA08601007F841E0020
:10413000FF083D0040420F002DE9F7430446994631
:104140000C9E0F469046FFF7DFFA94F83D30202B87
:10415000054603D0022003B0BDE8F08300903C493F
:10416000192301222046FFF759FD0028F2D194F8C7
:104170003C30012BEED02068012384F83C300368EA
:10418000D9075EBF036843F001030360036823F4AB
:1041900000630360212384F83D30402384F83E30DF
:1041A000002323640A9B6362BDF82C306385638D12
:1041B0002385284BE3624246CDE900654B463946EC
:1041C0002046FFF7D7FD00282AD00120C3E7FFF7DC
:1041D000A7FD40B1236C042B01BF2268136843F490
:1041E00000731360F1E7636A27681A4612F8011B2F
:1041F00039616262628D218D013A92B262857A697B
:10420000481E80B2520720850AD548B15A783A61D3
:1042100002336362638D013B02399BB22185638562
:10422000238D2A4631462046002BD0D1FFF77EFE53
:104230000028CFD12268136843F400731360202351
:1042400084F83D3084F83C0084F83E0083E700BFEA
:10425000020010000000FFFF2DE9F043044687B084
:104260009946109F0D469046FFF74EFA94F83D3060
:10427000202B064604D00225284607B0BDE8F0836F
:1042800000907A49192301222046FFF7C7FC002835
:10429000F1D194F83C30012BEDD02068012384F853
:1042A0003C300368DB075EBF036843F00103036033
:1042B000036823F400630360222384F83D30402325
:1042C00084F83E30002323640E9B6362BDF83C30CB
:1042D0006385638D2385664BE3622946CDE90076CD
:1042E0004B4642462046FFF79FFD054608B1012593
:1042F000C2E7228D2368B2B902905A6902929A6984
:104300000292029A1A6842F400721A60DFF864811D
:10431000238D002B2CD1202284F83D2084F83C30C2
:1043200084F83E30A8E7012A0AD11A6822F4806294
:104330001A6003905A6903929A690392039AE1E71B
:10434000022A0ED11A6822F480621A601A6842F4B6
:1043500000621A6004905A6904929B690493049B5A
:10436000D4E705905A6905929B690593059BCDE7B3
:10437000032B56D8012B15D1324639462046FFF77C
:10438000FFFD0028B3D123681A69636A1A70636A53
:1043900001336362238D013B2385638D013B9BB217
:1043A0006385B5E7022B00963B464FF0000241467D
:1043B000204619D1FFF732FC002898D123681A68EB
:1043C00042F400721A601A69636A1A70626A531CB6
:1043D0006362238D013B2385638D013B9BB2638523
:1043E00023681B695370D2E7FFF718FC02460028C8
:1043F0007FF47DAF2368196821F480611960196921
:10440000636A1970636A01336362238D013B2385FC
:10441000638D013B9BB26385414600963B46204637
:10442000C8E7324639462046FFF7AAFD00287FF448
:104430005EAF23681A69636A1A70628D616A013A15
:1044400092B24B1C628522686362238D5069013BE6
:104450009BB2400723857FF55BAF032B02BF136838
:1044600023F48063136013694B7090E7020010001F
:104470000000FFFF0400010010B590F83D30202B34
:10448000DCB216D1242380F83D3003681A6822F08C
:1044900001021A605A6A22F010025A625A6A1143E3
:1044A00059621A6842F001021A6080F83D4000200B
:1044B00010BD0220FCE730B590F83D30202BDCB277
:1044C00016D10268242380F83D30136823F00103DD
:1044D0001360556A4FF6F0732B400B439BB2536247
:1044E000136843F00103136080F83D40002030BDA5
:1044F0000220FCE70068D1F800C0D20184328318A2
:104500002DE9F043C6685D684C68D1F8189005F451
:1045100070455D60C5680CF10107C5F30B45C6F336
:104520000B463D44264445EA06455D60C668CD68B5
:10453000C6F30A062E449D6805F470459D60C76861
:104540008D68C7F30A0701353D4445EA06459D607D
:104550001D690E6925F007051D614FF0000E1E61F3
:104560009D6991F8327091F83180C3F818E091F8A4
:10457000305045EA096545EA082545EA07459D6149
:104580005D6925F0FF055D614D695D61DD6925F4BB
:10459000E06525F00705DD61D1E907573D43DD61A1
:1045A0009D6A4D6AC3F828E09D621EB3012E23D098
:1045B000B51E022D22D9072E14BF01250225DE6A61
:1045C00006F0E026DE62A4EB0C048E6AC96A6C4336
:1045D0006E43033444EA0644DC621C6B24F4FF643B
:1045E00024F007041C631963835843F001038350CC
:1045F000BDE8F0830425E2E70325E0E70225DEE7D6
:1046000038B50446002863D090F8A13003F0FF02CB
:104610001BB980F8A020FDF7FBFB022384F8A13032
:1046200023689A6922F070429A61D4E9012002431A
:10463000E06899690243206902430A439A619A68D3
:10464000244960690A409A609A6842EA0042A06977
:1046500002439A60DA68E0690A40DA60DA6842EA9E
:104660000042206A0243DA601A69606A0A401A61ED
:104670001A6942EA0042A06A02431A615A690A4072
:104680005A615A69E16A42EA0142216B0A435A615E
:10469000DA6A94F8350094F8361002F07F42DA6254
:1046A000DD6A94F834202A4342EA002242EA0142B9
:1046B000DA625A6B42F006025A639A6942F00102CA
:1046C0009A6100200123C4F8A40084F8A13038BD09
:1046D0000120FCE700F800F070477047036870B5F0
:1046E0009E6B5D6B7207044614D5690712D55A6B31
:1046F00022F004025A630422DA63D0F8A43043F0B3
:104700000103C0F8A430002380F8A12080F8A03075
:10471000FFF7E2FFB20716D5AB0714D523685A6B33
:1047200022F002025A630222DA63D4F8A43013435F
:10473000C4F8A430042384F8A130002384F8A03006
:104740002046FFF7C9FFF00710D5E9070ED523680B
:104750005A6B22F001025A630122DA63002384F8C3
:10476000A12084F8A0302046FCF730FF320711D595
:104770002B070FD523685A6B22F008025A630822D0
:10478000DA63012384F8A130002384F8A0302046A6
:10479000FFF7A3FF70BD2DE9F04190F8A030012B89
:1047A00006460F4694464FF002001FD04FF0010816
:1047B00086F8A08086F8A10034240D4604FB02642C
:1047C0000FCD38340FC40FCD0FC40FCD0FC42B68DD
:1047D0002360304662463946FFF78CFE336800207E
:1047E000C3F8248086F8A18086F8A000BDE8F08197
:1047F00090F8A020012A03464FF0020012D01A6858
:1048000083F8A100506B20F001005063064801645A
:10481000516B41F0010151630020012283F8A12076
:1048200083F8A000704700BF0068014037B500233F
:104830000193184B184D1A6C42F080521A641B6C8D
:1048400003F080530193019B144B01221A64FEF77D
:104850005BFF04466B68DA030BD5104B0E4D01224B
:104860005A64FEF751FF04466B689B030AD500208B
:1048700006E0FEF749FF001BB0F57A7FEAD9032076
:1048800003B030BDFEF740FF001BB0F57A7FEBD9D7
:10489000F5E700BF003802400070004000000E4203
:1048A0002DE9F341044640B30368DE0710D42368C2
:1048B0009D075BD42368190700F19D8023685A0780
:1048C00000F1BD80A369002B40F0248100202CE082
:1048D0008D4B9A6802F00C02042A07D09A6802F005
:1048E0000C02082A0BD15B68590208D5864B1B685D
:1048F0009A03DCD56368002BD9D1012015E06368E9
:10490000814DB3F5803F13D12B6843F480332B6086
:10491000FEF7FAFE7C4E054633689B03C7D4FEF7CC
:10492000F3FE401B6428F7D9032002B0BDE8F081F4
:10493000B3F5A02F04D12B6843F480232B60E3E769
:104940002A6822F480322A602A6822F480222A60AF
:10495000002BDDD1FEF7D8FE06462B689F03A6D5B7
:10496000FEF7D2FE801B6428F7D9DDE7664B9A6814
:1049700012F00C0F07D09A6802F00C02082A11D12D
:104980005B685D020ED4604A1368990702D5E3683C
:10499000012BB2D11368216923F0F80343EAC10364
:1049A000136087E7E268594BB2B101221A60FEF743
:1049B000ABFE554D06462B689B0707D52B68226931
:1049C00023F0F80343EAC2032B6073E7FEF79CFE73
:1049D000801B0228EFD9A7E71A60FEF795FE4A4E22
:1049E000054633689F077FF565AFFEF78DFE401BD8
:1049F0000228F6D998E76269444B82B10122C3F8D4
:104A0000802EFEF781FE404E0546736F9B073FF5F3
:104A100055AFFEF779FE401B0228F6D984E7C3F8AC
:104A2000802EFEF771FE384E0546736F9F077FF5A7
:104A300045AFFEF769FE401B0228F6D974E7324BFA
:104A40001A6C12F0805228D101921A6C42F08052F6
:104A50001A641B6C03F080530193019B01272C4DBA
:104A60002B68D8051BD5A368274D012B27D12B6FA9
:104A700043F001032B67FEF747FE234E054641F244
:104A80008838336F9A0739D5002F3FF41BAF1E4A81
:104A9000136C23F08053136414E70027DFE72B68BF
:104AA00043F480732B60FEF72FFE06462B68D90572
:104AB000D9D4FEF729FE801B0228F7D934E7052B4D
:104AC00004D12B6F43F004032B67D0E72A6F22F049
:104AD00001022A672A6F22F004022A67002BCAD13A
:104AE000FEF712FE41F2883806462B6F9B07CBD5A6
:104AF000FEF70AFE801B4045F7D915E7FEF704FED6
:104B0000401B4045BDD90FE7003802400000474236
:104B100000700040374DAA6802F00C02082A3ED00F
:104B2000022B354B4FF000021A662BD1FEF7ECFD3D
:104B300006462B6899011FD4D4E907321343626AF1
:104B400043EA8213E26A43EA0263A26A5208013A24
:104B500043EA02436B60284B264D01221A66FEF79A
:104B6000D3FD04462B689A013FF5B0AEFEF7CCFDAD
:104B7000001B0228F6D9D7E6FEF7C6FD801B0228E7
:104B8000D7D9D1E6FEF7C0FD04462B689B017FF51F
:104B90009DAEFEF7B9FD001B0228F6D9C4E6012B35
:104BA0003FF4ABAE6B68E26903F4800191427FF49D
:104BB000A4AE216A03F03F028A427FF49EAE616A8E
:104BC00047F6C0721A40B2EB811F7FF496AEA26A1C
:104BD000520803F44031013AB1EB024F7FF48DAE3D
:104BE000E26A03F07063B3EB026F14BF0120002090
:104BF0009BE600BF0038024000004742134908B559
:104C00008B6803F00C03042B1CD0082B1CD14A68C2
:104C10004B68496813F4800314BF0D480D48C1F375
:104C2000881118BF002302F03F02A1FB0001FBF72F
:104C30007FFB064B5B68C3F3014301335B00B0FBB2
:104C4000F3F008BD0248FCE70248FAE700380240EA
:104C500000127A000024F4002DE9F0410D460446CC
:104C600010B90120BDE8F081434B1A6802F00F0231
:104C70008A4228D321688F072DD4C80740D43E4BE1
:104C80001A6802F00F02AA4265D8226851076BD455
:104C9000130707D5394A2169936823F4604343EA2F
:104CA000C1039360FFF7AAFF344B354A9B68C3F3F7
:104CB0000313D35CD840334B1860334B1868FDF7AF
:104CC00025FA0020CEE7CAB21A701B6803F00F0362
:104CD0008B42C6D1CEE7294B11F0040F1EBF9A6854
:104CE00042F4E0529A600E0742BF9A6842F4604272
:104CF0009A609A68A06822F0F00202439A60BCE7CA
:104D000062681E4B012A1CD11B6813F4003FA8D017
:104D10001A4EB36823F003031343B360FEF7F4FCA9
:104D200041F288380746B368626803F00C03B3EBBE
:104D3000820FA4D0FEF7E8FCC01B4045F3D9032046
:104D400090E7911E01291B6802D813F0007FDEE76F
:104D500013F0020FDBE7EAB21A701B6803F00F03CF
:104D6000AB427FF47EAF90E70449E0688B6823F4A0
:104D7000E05303438B608BE7003C02400038024065
:104D8000D0360208740000207C000020044B054A45
:104D90009B68C3F38223D35C034A1068D8407047F2
:104DA00000380240C8360208740000200F23036058
:104DB0000B4B9A6802F0030242609A6802F0F0021C
:104DC00082609A6802F4E052C2609B68DB0803F4D8
:104DD000E0530361034B1B6803F00F030B60704744
:104DE00000380240003C0240036813F0430FF7B55F
:104DF000044640F08880236813F00C0F45D08C4B9C
:104E00008C4D00221A67FEF77FFC06462B6899003E
:104E100000F1CB8021684A0715D5D4E90403D5F801
:104E200088201B0602F0E04243EA80131343C5F8D2
:104E30008830D5F88C30226A23F4F853013A43EADB
:104E40000223C5F88C300B0714D57A4AA369D2F82F
:104E5000881020691B0701F0706143EA80130B433F
:104E6000C2F88830D2F88C30616A23F440330B43A7
:104E7000C2F88C306E4B6F4E01221A67FEF744FC6D
:104E8000054633689F0040F197802368980634D523
:104E900000230193674B684D1A6C42F080521A64EC
:104EA0001B6C03F080530193019B2B6843F48073C8
:104EB0002B60FEF729FC06462B68D80540F183805D
:104EC0005C4DA26A2B6F13F4407340F08380A36A99
:104ED00003F44072B2F5407F564A40F09E809168DC
:104EE00023F0704021F4F81120F4407001439160E8
:104EF000116FC3F30B030B4313672368DB0600F149
:104F0000908000204FE04A4B4A4E00229A66FEF7FE
:104F1000FBFB054633681F013FD42168C80741BF2A
:104F2000D4E901231B0743EA8213C6F884308A07B9
:104F300015D5404AE368D2F8840065681B0600F086
:104F4000E04043EA85130343C2F88430D2F88C0072
:104F5000E36920F01F00013B0343C2F88C304B068D
:104F60000AD5E36862681B0643EA8213A26843EA33
:104F70000273304AC2F884302D4B2E4E01229A66BD
:104F8000FEF7C2FB054633681F013FF534AFFEF75D
:104F9000BBFB401B0228F6D904E0FEF7B5FB401B23
:104FA0000228B7D9032003B0F0BDFEF7ADFB801B8C
:104FB00002287FF62BAFF5E7FEF7A6FB401B022881
:104FC0007FF65FAFEEE7FEF79FFB801B02287FF6C0
:104FD00073AFE7E702F4407293423FF478AF2B6F70
:104FE000134A0121C2F8401E23F440730021C2F885
:104FF000401E2B672B6FD9077FF569AFFEF784FB47
:1050000041F2883706462B6F9A073FF560AFFEF7EF
:105010007BFB801BB842F6D9C4E7916821F4F811F4
:1050200065E7064B94F82C20C3F8E02169E700BF40
:105030000000474200380240007000400010474224
:1050400038B50D460446C8B190F82C3003F0FF0285
:105050001BB980F82D20FCF7EDFF022384F82C30DB
:10506000211D206800F022FD62682068294600F0BA
:1050700055FD012384F82C30002038BD0120FCE7C9
:1050800070B590F82C30022B05460E46D8B212D0DF
:1050900000F0FB04012C0FD1022385F82C30286886
:1050A00000F072FD3368022B06BF052385F82C3013
:1050B00085F82C40002070BD0120FCE738B590F841
:1050C0002C30022B0446D8B20DD094F82C30012B92
:1050D000DDB209D10223206884F82C3000F078FD7D
:1050E00084F82C50002038BD0120FCE72DE9F3475F
:1050F0001F46894690460446FEF706FB0A9D3D443E
:105100002D1AFEF701FB264B1E68C6F3CB366E4305
:10511000824601962268936839EA03030CBF012393
:105120000023434501D100202EE07B1CF3D0FEF785
:10513000EBFAA0EB0A00A84229D323685A6822F0B0
:10514000E0025A606268B2F5827F0AD1A268B2F5C5
:10515000004F02D0B2F5806F03D11A6822F04002EE
:105160001A60A26AB2F5005F07D11A6822F40052F1
:105170001A601A6842F400521A60012384F8513010
:10518000002384F85030032002B0BDE8F087019A74
:10519000019B002A03F1FF33019308BF1546B9E7CD
:1051A00074000020F0B585B00B4600920E461746FD
:1051B000022101220446FFF799FF054628B1636DDD
:1051C00043F020036365032515E0124B1868124B6A
:1051D000B0FBF3F04FF47A73584363680390B3F570
:1051E000827F0BD1009733462A4680212046FFF765
:1051F0007DFF0028E3D1284605B0F0BD039B002BBE
:10520000F9D0039B013B039323689B681B06F5D4ED
:10521000F1E700BF7400002000366E0137B50B4681
:105220004168B1F5827F044608D000920121002236
:10523000FFF75CFFD0B9002003B030BD8168B1F545
:10524000004F02D0B1F5806F07D125682868B1F50D
:10525000806F20F04000286004D00092802100225E
:105260002046E5E7009201210022F9E7636D43F053
:10527000200363650320DFE710B50446002855D0FE
:10528000436A002B4ED14268B2F5827F00D0C361E1
:105290000023A36294F8513003F0FF0223B984F88D
:1052A00050202046FCF790FE2168A068A2690223E6
:1052B00084F851300B6823F040030B60636800F4FE
:1052C000044003F482730343E06800F40060034386
:1052D000206900F002000343606900F0010003430D
:1052E00002F400700343E06900F038000343206AD1
:1052F00000F080000343A06A00F4005003430B60F9
:10530000636A120C03F0100302F004021A434A60AD
:10531000CB6923F40063CB6100200123606584F82E
:10532000513010BD0023C0E90433B1E70120F8E794
:105330002DE9F74304461F460D469046FEF7E4F973
:1053400094F85130012B8146D8B240F09F80002D57
:1053500074D0B8F1000F71D094F85030012B00F0E8
:105360009580032384F8513000236365C4E910332A
:10537000A4F83680A363A387E387A368266884F82C
:105380005000B3F5004F2563A4F8348007D133688B
:1053900023F040033360336843F480433360336861
:1053A000E2685B065EBF336843F040033360B2F5EA
:1053B000006F636845D113B1B8F1010F07D135F81B
:1053C000023BF3602563E38E013B9BB2E386E38EF1
:1053D0009BB2D3B94A4639462046FFF7E3FE002880
:1053E00051D1A36833B901932368DA6801929B68AD
:1053F0000193019B012384F85130606D0023C01A92
:1054000084F8503018BF012018E02268936898078C
:1054100005D5236B33F8021BD1602363D3E7FEF776
:1054200073F9A0EB0900B842D1D3791CCFD0012386
:1054300084F85130002384F85030032003B0BDE8D5
:10544000F08313B1B8F1010F08D12B783373236BBC
:1054500001332363E38E013B9BB2E386E38E9BB271
:10546000002BB7D023689A68920703D5226B127875
:105470001A73ECE7FEF748F9A0EB0900B842EDD348
:105480007B1CEBD0D3E720236365AAE70220D5E796
:105490002DE9F74304460D4691461E46DDF8288067
:1054A000FEF732F994F851306268012B0746D9B201
:1054B0000AD0B2F5827F40F0E580A368002B40F06F
:1054C000E180042940F0DE80002D4BD0B9F1000FBF
:1054D00048D0002E46D094F85030012B00F0D280F6
:1054E000012384F8503094F85130C4F83890042BDC
:1054F0001CBF052384F8513000236365C4E91033D1
:105500002368E687E6861968A687490658BF1968A2
:10551000256358BF41F04001A68658BF1960E16875
:10552000B1F5006F55D10AB1012E07D135F8022B24
:10553000DA60E38E2563013B9BB2E3860125E38EAF
:105540009BB28BB9E38F9BB273B93A464146204672
:10555000FFF728FE002800F08180202363650023E8
:1055600084F85030012031E021688B689A070DD50E
:10557000E38E9BB253B145B1236B33F8022BCA6063
:105580002363E38E013B9BB2E38600258A6812F019
:1055900001020CD0E38F9BB24BB1A36BC96823F817
:1055A000021BA363E38F013B9BB2E3871546FEF723
:1055B000ABF8C01B4045C2D3B8F1FF3FBFD00123B9
:1055C00084F85130002384F85030032003B0BDE844
:1055D000F0830AB1012E08D12A781A73236B0133A4
:1055E0002363E38E013B9BB2E38601252DE0226815
:1055F00093689B070ED5E38E9BB25BB14DB1236BD5
:105600001B781373236B01332363E38E013B9BB23F
:10561000E38600252268916811F001010DD0E38F27
:105620009BB253B1A36BD2681A70A36B0133A3630F
:10563000E38F013B9BB2E3870D46FEF765F8C01B85
:10564000404502D3B8F1FF3FB9D1E38E9BB2002BA6
:10565000CDD1E38F9BB2002BC9D176E7A36833B9D4
:1056600001932368DA6801929B680193019B0123EF
:1056700084F85130606D0023C01A84F8503018BF90
:105680000120A3E70220A1E72DE9F7431E4690F889
:105690005130012B044689461746DDB204D002255D
:1056A000284603B0BDE8F0834368B3F5827F0BD191
:1056B00083684BB9042380F85130134600960A469C
:1056C000FFF7E6FE0546EBE7FEF71EF88046B9F168
:1056D000000FE5D0002FE3D094F85030012BDED03E
:1056E000A268C4F838900123002584F85030B2F540
:1056F000004F4FF0040384F85130C4E9105565653C
:105700002368E787A7872563A586E58607D11A68FA
:1057100022F040021A601A6822F480421A601A6865
:1057200055065EBF1A6842F040021A60E368F3B1A2
:10573000E38F9BB2FBB123689A68D2073CD5DA6845
:10574000A36B23F8022BA363E38F013B9BB2E38798
:10575000EEE723689A68D0071ED5A26B1B7B1370F7
:10576000A36B0133A363E38F013B9BB2E387E38F1A
:105770009BB2002BEDD1424631462046FFF74EFD4D
:1057800018BB012384F85130656D0023ED1A84F8AD
:10579000503018BF012583E7FDF7B6FFA0EB0800E6
:1057A000B042E4D3711CE2D0012384F851300023CD
:1057B00084F85030032573E7FDF7A6FFA0EB08003F
:1057C000B042B5D3731CB3D0EEE720236365D8E7AE
:1057D0007047000090F83D30012B30D1022380F853
:1057E0003D300368DA6842F00102DA60154A9342FC
:1057F0001AD0B3F1804F17D0A2F57C42934213D058
:1058000002F5806293420FD002F5806293420BD082
:1058100002F57842934207D002F57052934203D0CA
:10582000A2F59432934204D19A6802F00702062A44
:1058300003D01A6842F001021A600020704701206C
:10584000704700BF000001407047704770477047C5
:10585000036870B5DD681E69B10704460DD5AA0757
:105860000BD56FF002021A61012202779B699B0738
:1058700069D0FFF7EAFF00232377710710D56A0785
:105880000ED523686FF004021A61022222779B6909
:1058900013F4407F20465CD0FFF7D7FF0023237727
:1058A00033070FD528070DD523686FF008021A615A
:1058B00004222277DB699907204650D0FFF7C5FF05
:1058C00000232377F20610D5EB060ED523686FF080
:1058D00010021A6108222277DB6913F4407F204608
:1058E00043D0FFF7B2FF00232377F00708D5E9077D
:1058F00006D523686FF001021A612046FCF7C6F94D
:10590000320608D52B0606D523686FF080021A618F
:10591000204600F0CAF8700608D5690606D5236847
:105920006FF040021A612046FFF791FFB20622D5C0
:10593000AB0620D523686FF0200220461A61BDE82F
:10594000704000F0B1B8FFF77FFF2046FFF77EFF01
:1059500091E7FFF779FF2046FFF778FF9EE7FFF713
:1059600073FF2046FFF772FFAAE7FFF76DFF20469F
:10597000FFF76CFFB7E770BD334A0368904212D05F
:10598000B0F1804F0FD0A2F57C4290420BD002F5CF
:105990008062904207D002F58062904203D002F507
:1059A0007842904219D14A6823F070031343264A83
:1059B000904229D0B0F1804F26D0A2F57C4290428F
:1059C00022D002F5806290421ED002F580629042A1
:1059D0001AD002F57842904216D01C4A904213D059
:1059E00002F5806290420FD002F5806290420BD0A7
:1059F000A2F59832904207D002F58062904203D01F
:105A000002F58062904203D1CA6823F440731343C5
:105A10004A6923F08003134303608B68C3620B68F9
:105A20008362094B984203D003F58063984201D109
:105A30000B690363012343610369DB0742BF036909
:105A400023F0010303617047000001400040014062
:105A500010B5044630B390F83D3003F0FF021BB997
:105A600080F83C20FFF7B4FE0223206884F83D3024
:105A7000211DFFF781FF012384F84630002084F8C0
:105A80003E3084F83F3084F8403084F8413084F868
:105A9000423084F8433084F8443084F8453084F848
:105AA0003D3010BD0120FCE7704770472DE9F04103
:105AB000D1E90738D1E9012CD1E90376D1E90554C0
:105AC000D1F824E0096843EA080391B943EA0E03D8
:105AD000134343EA0C0301683B4333432B4321F454
