:020000040800F2
:1000000000000320F90E00088D2A00088F2A00083E
:10001000912A0008932A0008952A00080000000091
:10002000000000000000000000000000A1700008B7
:10003000972A00080000000031710008BD6900081F
:10004000490F0008490F0008490F0008490F000830
:10005000490F0008490F0008490F0008490F000820
:10006000490F0008490F0008490F0008490F000810
:10007000490F0008490F0008490F0008490F000800
:10008000490F0008490F0008490F0008490F0008F0
:10009000490F0008490F0008490F0008490F0008E0
:1000A000490F0008490F0008490F0008490F0008D0
:1000B000490F0008490F0008490F0008490F0008C0
:1000C000490F0008490F0008490F0008490F0008B0
:1000D000490F0008490F0008490F0008490F0008A0
:1000E000490F0008490F0008490F0008490F000890
:1000F000490F0008490F0008490F0008490F000880
:10010000490F0008490F0008490F0008490F00086F
:10011000490F0008490F0008992A0008490F0008F4
:10012000490F0008490F0008490F0008490F00084F
:10013000490F0008490F0008490F0008490F00083F
:10014000490F0008490F0008490F0008490F00082F
:10015000490F0008490F0008490F0008490F00081F
:10016000490F0008490F0008490F0008490F00080F
:10017000490F0008490F0008490F0008000000005F
:10018000490F0008490F0008490F0008490F0008EF
:10019000490F0008490F0008490F0008490F0008DF
:0C01A000A52A0008490F0008B12A000839
:1001B00010B5054C237833B9044B13B10448AFF3A1
:1001C00000800123237010BD800300200000000088
:1001D000D839020808B5034B1BB103490348AFF3F4
:1001E000008008BD0000000084030020D839020808
:1001F00001F0FF01102A2BDB10F0070F08D010F8D8
:10020000013B013A8B422DD010F0070F42B3F6D1DB
:10021000F0B441EA012141EA014122F007047FF0F4
:1002200000070023F0E80256083C85EA010586EA4B
:10023000010685FA47F5A3FA87F586FA47F6A5FA87
:1002400087F68EB9EED1F0BC01F0FF0102F0070293
:1002500032B110F8013B013A83EA010313B1F8D13E
:100260000020704701387047002D06BF354603381F
:10027000073815F0010F07D1013015F4807F02BF58
:10028000013015F4C03F0130F0BC0138704700BFA9
:1002900081F0004102E000BF83F0004330B54FEA37
:1002A00041044FEA430594EA050F08BF90EA020FA4
:1002B0001FBF54EA000C55EA020C7FEA645C7FEA37
:1002C000655C00F0E2804FEA5454D4EB5555B8BF5A
:1002D0006D420CDD2C4480EA020281EA030382EACB
:1002E000000083EA010180EA020281EA0303362D5D
:1002F00088BF30BD11F0004F4FEA01314FF4801C30
:100300004CEA113102D0404261EB410113F0004F41
:100310004FEA03334CEA133302D0524263EB4303F8
:1003200094EA050F00F0A780A4F10104D5F1200E96
:100330000DDB02FA0EFC22FA05F2801841F10001F1
:1003400003FA0EF2801843FA05F359410EE0A5F1C5
:1003500020050EF1200E012A03FA0EFC28BF4CF0F6
:10036000020C43FA05F3C01851EBE37101F00045AC
:1003700007D54FF0000EDCF1000C7EEB00006EEBB9
:100380000101B1F5801F1BD3B1F5001F0CD3490843
:100390005FEA30004FEA3C0C04F101044FEA44529A
:1003A00012F5800F80F09A80BCF1004F08BF5FEA21
:1003B000500C50F1000041EB045141EA050130BD01
:1003C0005FEA4C0C404141EB0101013C28BFB1F513
:1003D000801FE9D291F0000F04BF01460020B1FA5E
:1003E00081F308BF2033A3F10B03B3F120020CDA31
:1003F0000C3208DD02F1140CC2F10C0201FA0CF00F
:1004000021FA02F10CE002F11402D8BFC2F1200C73
:1004100001FA02F120FA0CFCDCBF41EA0C01904029
:10042000E41AA2BF01EB0451294330BD6FEA040472
:100430001F3C1CDA0C340EDC04F11404C4F120025D
:1004400020FA04F001FA02F340EA030021FA04F36F
:1004500045EA030130BDC4F10C04C4F1200220FAC6
:1004600002F001FA04F340EA0300294630BD21FA04
:1004700004F0294630BD94F0000F83F4801306BFCA
:1004800081F480110134013D4EE77FEA645C18BFBE
:100490007FEA655C29D094EA050F08BF90EA020F55
:1004A00005D054EA000C04BF1946104630BD91EA4D
:1004B000030F1EBF0021002030BD5FEA545C05D150
:1004C0004000494128BF41F0004130BD14F580048F
:1004D0003CBF01F5801130BD01F0004545F0FE4103
:1004E00041F470014FF0000030BD7FEA645C1ABF38
:1004F000194610467FEA655C1CBF0B46024650EA6F
:10050000013406BF52EA033591EA030F41F400219A
:1005100030BD00BF90F0000F04BF0021704730B520
:100520004FF4806404F132044FF000054FF00001F5
:1005300050E700BF90F0000F04BF0021704730B5B6
:100540004FF4806404F1320410F0004548BF40428B
:100550004FF000013EE700BF42004FEAE2014FEAE0
:1005600031014FEA02701FBF12F07F4393F07F4FBB
:1005700081F06051704732F07F4208BF704793F0BE
:100580007F4F04BF41F40021704730B54FF46074D1
:1005900001F0004521F000411CE700BF50EA0102D4
:1005A00008BF704730B54FF000050AE050EA01027D
:1005B00008BF704730B511F0004502D5404261EBED
:1005C00041014FF4806404F132045FEA915C3FF42E
:1005D000D8AE4FF003025FEADC0C18BF03325FEACB
:1005E000DC0C18BF033202EBDC02C2F1200300FA7C
:1005F00003FC20FA02F001FA03FE40EA0E0021FAA1
:1006000002F11444BDE600BF70B54FF0FF0C4CF48E
:10061000E06C1CEA11541DBF1CEA135594EA0C0F40
:1006200095EA0C0F00F0DEF82C4481EA030621EA7B
:100630004C5123EA4C5350EA013518BF52EA0335B6
:1006400041F4801143F4801338D0A0FB02CE4FF068
:100650000005E1FB02E506F00042E0FB03E54FF098
:100660000006E1FB03569CF0000F18BF4EF0010E90
:10067000A4F1FF04B6F5007F64F5407404D25FEA8C
:100680004E0E6D4146EB060642EAC62141EA55513F
:100690004FEAC52040EA5E504FEACE2EB4F1FD0C81
:1006A00088BFBCF5E06F1ED8BEF1004F08BF5FEAFF
:1006B000500E50F1000041EB045170BD06F00046B1
:1006C00046EA010140EA020081EA0301B4EB5C045E
:1006D000C2BFD4EB0C0541EA045170BD41F4801156
:1006E0004FF0000E013C00F3AB8014F1360FDEBF7B
:1006F000002001F0004170BDC4F10004203C35DA57
:100700000C341BDC04F11404C4F1200500FA05F3D9
:1007100020FA04F001FA05F240EA020001F000427A
:1007200021F0004110EBD37021FA04F642EB0601F0
:100730005EEA430E08BF20EAD37070BDC4F10C041A
:10074000C4F1200500FA04F320FA05F001FA04F2DE
:1007500040EA020001F0004110EBD37041F10001CA
:100760005EEA430E08BF20EAD37070BDC4F12005D5
:1007700000FA05F24EEA020E20FA04F301FA05F23D
:1007800043EA020321FA04F001F0004121FA04F2E5
:1007900020EA020000EBD3705EEA430E08BF20EAB5
:1007A000D37070BD94F0000F0FD101F000464000EF
:1007B00041EB010111F4801F08BF013CF7D041EA71
:1007C000060195F0000F18BF704703F00046520075
:1007D00043EB030313F4801F08BF013DF7D043EA46
:1007E0000603704794EA0C0F0CEA135518BF95EAFC
:1007F0000C0F0CD050EA410618BF52EA4306D1D183
:1008000081EA030101F000414FF0000070BD50EAA1
:10081000410606BF1046194652EA430619D094EA2B
:100820000C0F02D150EA013613D195EA0C0F05D115
:1008300052EA03361CBF104619460AD181EA030169
:1008400001F0004141F0FE4141F470014FF0000021
:1008500070BD41F0FE4141F4780170BD70B54FF0BC
:10086000FF0C4CF4E06C1CEA11541DBF1CEA13553C
:1008700094EA0C0F95EA0C0F00F0A7F8A4EB05041E
:1008800081EA030E52EA03354FEA013100F0888015
:100890004FEA03334FF0805545EA131343EA1263DE
:1008A0004FEA022245EA111545EA10654FEA002693
:1008B0000EF000419D4208BF964244F1FD0404F54C
:1008C000407402D25B084FEA3202B61A65EB0305A8
:1008D0005B084FEA32024FF480104FF4002CB6EB65
:1008E000020E75EB030E22BFB61A754640EA0C00E5
:1008F0005B084FEA3202B6EB020E75EB030E22BF25
:10090000B61A754640EA5C005B084FEA3202B6EB65
:10091000020E75EB030E22BFB61A754640EA9C0024
:100920005B084FEA3202B6EB020E75EB030E22BFF4
:10093000B61A754640EADC0055EA060E18D04FEAB2
:10094000051545EA16754FEA06164FEAC30343EA52
:1009500052734FEAC2025FEA1C1CC0D111F4801F1F
:100960000BD141EA00014FF000004FF0004CB6E718
:1009700011F4801F04BF01430020B4F1FD0C88BFB7
:10098000BCF5E06F3FF6AFAEB5EB030C04BFB6EBC2
:10099000020C5FEA500C50F1000041EB045170BDB5
:1009A0000EF0004E4EEA113114EB5C04C2BFD4EBE2
:1009B0000C0541EA045170BD41F480114FF0000E66
:1009C000013C90E645EA060E8DE60CEA135594EAE2
:1009D0000C0F08BF95EA0C0F3FF43BAF94EA0C0FE5
:1009E0000AD150EA01347FF434AF95EA0C0F7FF45A
:1009F00025AF104619462CE795EA0C0F06D152EAAE
:100A000003353FF4FDAE1046194622E750EA410691
:100A100018BF52EA43067FF4C5AE50EA41047FF4A2
:100A20000DAF52EA43057FF4EBAE12E74FF0FF3C07
:100A300006E000BF4FF0010C02E000BF4FF0010CD8
:100A40004DF804CD4FEA410C7FEA6C5C4FEA430C51
:100A500018BF7FEA6C5C1BD001B050EA410C0CBFA0
:100A600052EA430C91EA030F02BF90EA020F002002
:100A7000704710F1000F91EA030F58BF994208BF69
:100A800090422CBFD8176FEAE37040F00100704726
:100A90004FEA410C7FEA6C5C02D150EA013C07D17D
:100AA0004FEA430C7FEA6C5CD6D152EA033CD3D0C8
:100AB0005DF8040B704700BF8446104662468C46C2
:100AC0001946634600E000BF01B5FFF7B7FF0028F5
:100AD00048BF10F1000F01BD4DF808EDFFF7F4FF1E
:100AE0000CBF012000205DF808FB00BF4DF808EDA9
:100AF000FFF7EAFF34BF012000205DF808FB00BFCC
:100B00004DF808EDFFF7E0FF94BF012000205DF8ED
:100B100008FB00BF4DF808EDFFF7CEFF94BF0120A2
:100B200000205DF808FB00BF4DF808EDFFF7C4FF9B
:100B300034BF012000205DF808FB00BF4FEA410CE4
:100B40007FEA6C5C02D150EA013C0AD14FEA430CC7
:100B50007FEA6C5C02D152EA033C02D14FF0000004
:100B600070474FF0010070477BB972B90029BEBFD2
:100B700000204FF0004106E008BF00281CBF6FF0C6
:100B800000414FF0FF3000F0B5B9ADF1080C6DE950
:100B900004CE002909DB002B1ADB00F04DF8DDF84C
:100BA00004E0DDE9022304B07047404261EB4101FB
:100BB000002B1BDB00F040F8DDF804E0DDE9022348
:100BC00004B0404261EB4101524263EB4303704782
:100BD000524263EB430300F02FF8DDF804E0DDE957
:100BE000022304B0404261EB41017047524263EB83
:100BF000430300F021F8DDF804E0DDE9022304B04E
:100C0000524263EB4303704753B94AB9002908BF06
:100C100000281CBF4FF0FF314FF0FF3000F06AB9E1
:100C2000ADF1080C6DE904CE00F006F8DDF804E043
:100C3000DDE9022304B070472DE9F047089D0C461A
:100C4000002B4ED194468C458646B2FA82F262D988
:100C50004AB1C2F12003914020FA03F30CFA02FCDE
:100C6000194300FA02FE4FEA1C471FFA8CF6B1FB4B
:100C7000F7F44FEA1E4307FB141143EA014304FB58
:100C800006F199420AD91CEB030304F1FF3080F00E
:100C90001281994240F20F81023C6344591A1FFAB3
:100CA0008EF3B1FBF7F007FB101143EA014300FBA1
:100CB00006F69E420AD91CEB030300F1FF3180F0D7
:100CC000FC809E4240F2F980634402389B1B40EA5C
:100CD000044000211DB1D3400022C5E90032BDE827
:100CE000F0878B4205D90DB1C5E900010021084606
:100CF000F5E7B3FA83F1002946D1A34202D390422B
:100D0000C0F0F080861A64EB03030120002DE6D0CA
:100D1000C5E90063E3E7002A40F09080A1EB0C04F2
:100D20004FEA1C481FFA8CF70121B4FBF8F64FEA92
:100D30001E4308FB164443EA044307FB06F09842AF
:100D400008D91CEB030306F1FF3402D2984200F2EB
:100D5000CD8026461C1A1FFA8EF3B4FBF8F008FB70
:100D6000104443EA044300FB07F79F4208D91CEBF9
:100D7000030300F1FF3402D29F4200F2B08020460C
:100D8000DB1B40EA0640A5E7C1F120068B4022FAB2
:100D900006F71F4320FA06FC04FA01F343EA0C03AA
:100DA000F44000FA01F8380C4FEA1349B4FBF0FEA6
:100DB0001FFA87FC00FB1E4449EA04440EFB0CF9B1
:100DC000A14502FA01F20AD93C190EF1FF3A80F06E
:100DD0008480A14540F28180AEF1020E3C44A4EB38
:100DE00009041FFA83F9B4FBF0F300FB134449EA4A
:100DF000044403FB0CFCA44507D93C1903F1FF3064
:100E000067D2A44565D9023B3C4443EA0E40A0FBAF
:100E10000293A4EB0C049C42CE469C4651D34ED088
:100E200055B1B8EB0E0364EB0C0404FA06F6CB40A4
:100E30001E43CC40C5E90064002150E7C2F1200305
:100E400020FA03F10CFA02FC24FA03F394400C4359
:100E50004FEA1C4800FA02FE1FFA8CF7B3FBF8F0C9
:100E600008FB1031230C43EA014300FB07F19942D0
:100E700008D91CEB030300F1FF362CD299422AD982
:100E8000023863445B1AA4B2B3FBF8F108FB1133D8
:100E900044EA034401FB07F3A34208D91CEB040412
:100EA00001F1FF3613D2A34211D902396444E41A86
:100EB00041EA004139E70446F0E6084606E7C8453E
:100EC000AED2B9EB020E63EB070C0138A8E731464E
:100ED000EDE7034699E73046D4E7D6467FE763441B
:100EE00002384DE70646234608460FE7023E6344B4
:100EF00030E700BF704700BFDFF834D0002103E0C7
:100F00000C4B5B58435004310B480C4B42189A422F
:100F1000F6D30B4A02E0002342F8043B094B9A4205
:100F2000F9D303F0A9FA21F0E7FF01F05FF8704769
:100F30000000032014D905080000002078010020DB
:100F4000800300204C3C0120FEE7704708B500F00C
:100F5000B7FDBDE8084000F03BBD00F0B3BD7047F1
:100F600010B50421044620F0CBFC204610BD000043
:100F700038B50C4B0C4C18800C4B822019806368E0
:100F8000984740F6110398420AD1094D23682C6016
:100F9000822098472B688220DB689847002038BD64
:100FA0000120FCE7A60300204C000020A403002041
:100FB000A80300204FF4A071F020FFF7D9BF000074
:100FC000F7B5374D2B6804461B698220984720806F
:100FD00000284ED02B680DF106025B6901A9822022
:100FE0009847304B1B78002B4BD0BDF8063040F6AD
:100FF000746293423FD9ADF80620BDF80630D21A8C
:1010000092B20A2A42D90B23B2FBF3F2264B1B8879
:101010009A4201D9013B9AB2BDF8043040F6B8318A
:101020008B4235D8C3F571630E339BB20F21B3FBEE
:10103000F1F31E4909888B4201D901398BB21C4E4C
:101040001C4D30682F68834281B28CBF591AC91A6F
:10105000B8B2BA428CBF101A801A89B280B2014469
:101060000529C8BF33603368C8BF2A6063802B6816
:10107000A38003B0F0BDB32B9CBFB423ADF8063002
:10108000BBE7BDF80620A2F5B472B9E70022C3E7BA
:10109000C3F56D6308339BB20E2BC7D80023CEE790
:1010A000A8030020CC1E0020A4030020A6030020DB
:1010B000A00300209C03002037B568460D46144667
:1010C000FFF77EFFBDF8000030B1BDF802302B60A5
:1010D000BDF804302360012003B030BD032821D8BF
:1010E000DFE800F0020B12190F4B1A68B2FA82F215
:1010F000520904210D4803F055BC0B4B5A68B2FA53
:1011000082F252090821F5E7074B9A68B2FA82F297
:1011100052091021EEE7044BDA68B2FA82F2520962
:101120002021E7E7704700BFAC0300200010024019
:10113000032821D8DFE800F0020B12190F4B1A68C0
:10114000003A18BF012204210D4803F02BBC0B4BC1
:101150005A68003A18BF01220821F5E7074B9A6840
:10116000003A18BF01221021EEE7044BDA68003A7A
:1011700018BF01222021E7E7704700BFAC03002021
:101180000010024003280DD8DFE800F00206080A2C
:101190000421054803F00BBC0821FAE71021F8E709
:1011A0002021F6E7704700BF0010024008B5032871
:1011B00011D8DFE800F0020A0C0E0421074803F002
:1011C000EBFB431E5842584108BD0821F6E71021A9
:1011D000F4E72021F2E70020F3E700BF001002400F
:1011E00070B5084D00240126E0B2FFF7DFFF18B10B
:1011F0002B68012B18BF2E600134052C05F1040566
:10120000F2D170BDAC030020012380F8781080F883
:10121000793070477047002070470000034B4164ED
:10122000003918BF01211970704700BF0B2F012032
:10123000704700207047836B0BB108461847704712
:101240004FF6FF707047406803689B691847704706
:10125000704770477047704710B5044600F048FD6E
:1012600023680349D3F890302046BDE81040184762
:10127000000000D008B503680446D3F884309847CE
:1012800023682046DB6F984700F0ECF8236820467F
:101290005B6F9847292001F019F900F0E3F8236803
:1012A00020465B6F9847F8E710B5044608F0F2FC5B
:1012B00023682046D3F8BC30BDE81040184700F042
:1012C000F9BC00F0FDBC00F031BD00F0CFBC00F077
:1012D00041BD00F049BD00F0D3BC07F009BF10B517
:1012E0008421044620F00CFB204610BD10B590F878
:1012F000341090F878400C4B8C421A7809D03AB9E7
:101300000A4A0B491488088810800C8001221A7040
:1013100010BD002AFCD0054A0549148808881080B1
:101320000C800022F3E700BF042F0120002F0120D2
:10133000022F012070B50D46194635B9094B0A4AEE
:101340000A4840F2FF2121F027FBC0E90F52084B69
:10135000003A18BF01221A700368BDE87040D3F844
:1013600090301847483A0208803A0208CE3A0208FC
:101370000A2F012008B5094B1B888B4203D8084B64
:101380001B88934205D9074B074A0848A32121F03F
:1013900003FB074B1980074B1A8008BD002F012063
:1013A000022F0120133B0208763B0208CE3A0208C6
:1013B000062F0120082F0120034690F87A0018B16B
:1013C000586803681B68184770470000012108B57A
:1013D0000022084605F07FFB0A4B186028B90A4B2B
:1013E0000A4A28210A4821F0D7FA002204210120C4
:1013F00005F010FC074B186018B9074B034A2C2165
:10140000F0E708BDC0030020A83C0208F13C020838
:10141000203D0208BC0300206B3D0208024B4FF048
:10142000FF31186805F0A1BBC0030020014B18680C
:1014300005F0C7BBC0030020024B0021186805F06F
:1014400094BB00BFC0030020FFF7F0BF034804496E
:10145000006800231A4605F018BC00BFBC0300203A
:101460000400002013B5084C00231A4601A9206887
:1014700005F03CFC20684FF0FF33002201A905F085
:1014800035FC02B010BD00BFBC03002003685B6CDC
:1014900018470120704703689B6A1847FEE740F22F
:1014A000EF307047054B0360054B4FF08062C3F887
:1014B0008820BFF34F8FBFF36F8F7047083F02083C
:1014C00000E100E010B504464FF45A61FFF7EAFF6F
:1014D000204620F015FA204610BD000082B00023FF
:1014E00001930E4B1A6B42F400021A631A6B02F45A
:1014F00000020192019A1A6942F400021A611A6903
:1015000022F400021A61064B064A1A61064A5A6121
:10151000064B4FF080629A6002B07047003802407C
:10152000602000207D1700089D14000800E100E005
:1015300008B50A2809D8DFE800F006100E080808E8
:10154000081010101000022008BD054B054A06487F
:10155000902121F021FA0020F6E70120F4E700BFF6
:10156000AD3D0208C83D0208133E020838B50C46DE
:10157000887FFFF7DDFFA58AE28A164B2169586351
:1015800042EA05425A64628BD963521B1A64256889
:10159000082D0ED19A611A615862207F0E4A42EAE4
:1015A0000062DA61E2681A620C4A5961D9601A6015
:1015B00038BD0022D8611A61E1680A0A480902F4BC
:1015C000784200F4FC600243C1F3C4010A439A6309
:1015D000034AECE700B002400900010001230200C9
:1015E0000123030008B50B280BD8DFE800F0061232
:1015F000100A0A0A0A0808080808022008BD05207F
:10160000FCE7054B054A06486F2121F0C5F900208B
:10161000F4E70120F2E700BFAD3D02085C3E02089E
:10162000133E02082DE9F04191F81D800C4640461A
:10163000FFF7D8FFA77F05463846FFF7D3FF0646DA
:101640003846FFF775FFA18A628B444B521A1A6421
:101650009A61228B521A1A61E28A586342EA014265
:101660005A6421696268D963DA602068802828D0CA
:10167000227F0FD8202867D0402865D004281AD0B0
:10168000364B45EA026545F40035B845DD6161D069
:10169000334A44E0B0F5807F04D0B0F5007FEFD14D
:1016A000304800E0304840EA0262DA61E2681A62DB
:1016B0005E62596132E045EA026242F40032DA6168
:1016C000F6E7A068021DDA62227F45EA026545F46A
:1016D0000035DD615E625961017841B1012921D097
:1016E000224B234A23484FF48D7121F055F9DA69D2
:1016F000418822F47F42013922F0100242EA01229D
:10170000DA610121154BDA6942F02002DA61DA6907
:101710009206FCD410229A600029B9D0164A1A60A9
:10172000BDE8F081B2F1FF01DA69408822F47F421E
:1017300000F1FF3022F0100242EA002242F01002D3
:1017400018BF0121DA61DDE745EA0262034B42F48A
:101750000032B4E742F20132E1E700BF00B00240DC
:1017600001230100090002000A000200A63E02084F
:10177000C03E0208133E020801230200024B1B6810
:10178000586803685B6918470C2F012070B5044640
:1017900025460A4B0C30002660602672667245F8BA
:1017A000203B6022294608F0CBFB04F55A63EE602B
:1017B00024359D42FBD1204670BD00BF083F020882
:1017C000034B1A68D207FCD423229A60704700BFEB
:1017D00000B002407047000030B50F4C2568ED079F
:1017E000FCD423250904A56041F001010225FF2B4B
:1017F00065636164E0630AD00849656241EA036396
:10180000E361074B22626061E060236030BDE56107
:10181000039BA363034BF8E700B0024009000100FB
:10182000010002000100030030B50E4C2568ED07F1
:10183000FCD423251204A56042F001020225FF2BEF
:1018400065636264E063E16008D01B0643F0021345
:10185000E361054B65626061236030BD034BE3616A
:101860000123F9E700B0024001000200020002FF7C
:1018700030B50B4C2568ED07FCD4232512041B065C
:10188000A56043F40033022542F0010265636264FF
:10189000E063E160E361034B65626061236030BD3A
:1018A00000B0024001000200012070470C20704788
:1018B0000C2303FB0100083070470C2303FB0100DD
:1018C00008307047012070474FF41C6070474FF498
:1018D0001C6303FB0100083070474FF41C6303FBDB
:1018E000010008307047012070471020704700EB5E
:1018F00001100830704700EB0110083070470846AF
:1019000001F07CBB10B5034B0360044607F045F9BA
:10191000204610BDC03F020810B50446FFF7F2FF95
:10192000204614211FF0ECFF204610BD10B5034BDC
:101930000360044607F031F9204610BD8C3F0208D1
:1019400010B50446FFF7F2FF204640F6C8111FF01D
:10195000D7FF204610BD000010B5034B03600446BE
:1019600007F01BF9204610BD583F020810B5044689
:10197000FFF7F2FF204618211FF0C2FF204610BDDE
:1019800010B5084B0360044600F6F410FFF7BAFFE9
:1019900004F12C00FFF7CAFF04F11400FFF7DCFF8D
:1019A000204610BDF43F020808B50248FFF7E8FFE3
:1019B00008BD00BF9C12002010B50446FFF7E0FFF1
:1019C000204640F668311FF09BFF204610BD000006
:1019D0002DE9F34101F0E2F8054601F0E3F80024B7
:1019E0000146234628462246009410F0D7FE274B96
:1019F000274A1A60204602F0AFF8264D264B274AA8
:101A000027489A6010F032FE2B68BFF35B8FDB072C
:101A100035D428461FF076FF88B3224C224B236032
:101A200004F60C2604F1140004F12C0804F6F41753
:101A30006060C4F80880E760266107F0AFF81B4BD0
:101A40006361404607F0AAF8194BE362384607F095
:101A5000A5F8184BC4F8F43904F6082002F03CF954
:101A6000224604F60821304602F0F0F8304601F034
:101A7000C5FA114820F0AEFF28461FF04FFF0F486F
:101A800002B0BDE8F041FFF7E7BB00BF702F0120B7
:101A90004804002098120020680400204C04002014
:101AA000080000209C120020F43F0208583F020862
:101AB0008C3F0208C03F0208A9190008C403002097
:101AC000704700000148FFF7D5BB00BFC4030020EA
:101AD00070B5264E264C274D274B23603046FFF726
:101AE00055FE284615F060FF24480EF067FB244B96
:101AF0002448DC6000224FF48071C3E912122249AD
:101B00001A86C3E91A12214983F85820C3E91E0135
:101B10001F49C3F880101F491F480B60F021C3E91B
:101B20000422C3E90622C3E90822C3E90A22C3E961
:101B30000E22C3E91022C3E91422C3E917225A6610
:101B400083F870205A67C3E901650180134801805A
:101B500013484FF4A07101801248018012490A70A5
:101B6000012283F83420114A1A6070BDF404002069
:101B70009412002068040020383A02084C04002027
:101B8000C403002000000101010000010004500016
:101B90001A0014000C2F0120002F0120062F012015
:101BA000022F0120082F0120042F0120C43B02082E
:101BB0000148FFF777BC00BFF40400200020704705
:101BC00081807047C18070470181704741817047B3
:101BD0007047704770477047704710B4C4880368F7
:101BE000121B84885B6D091B12B25DF8044B09B2AD
:101BF00018474FF6FF7383814FF0FF33036213687A
:101C0000C36110607047002070478B88838001207B
:101C10007047704780F82610704790F8260070478C
:101C200010B50022B1F90840B1F90A1002804280D3
:101C30008480C18010BD0022028042808280C280E8
:101C400070470177704780ED080A704780F82410CC
:101C5000704780F825107047012070479830704712
:101C60008C3070478430704770470000034B9022DF
:101C700083F85A2383F85823704700BF00E100E03F
:101C8000094A0A49D3680A48C3F30A03013B9BB2D5
:101C90000B801169C1F30A01013901801364536B90
:101CA00043F001035363704700680140061E0020A3
:101CB000041E0020014BD3F8AC00704700680140BF
:101CC000024B0122C3F8AC105A6270470068014011
:101CD0007047704710B52C2104461FF011FE2046B6
:101CE00010BD10B5BC2104461FF00AFE204610BDF1
:101CF00070B5044607F051FA23689D6E0CF0F6FFAC
:101D000001462046A8472368054AD3F88C50204650
:101D1000AC460023BDE87040A2F51631604700BF15
:101D200000B004D007F020BA07F02ABA07F0E6B9ED
:101D300007F055BB90F8252012B103685B6918477E
:101D4000704790F825201AB190F8242002B118604D
:101D500070470000034B4FF080629A604FF0807232
:101D60009A60704700E100E0084B4FF08062C3F8D2
:101D70008820BFF34F8FBFF36F8F4FF08072C3F88F
:101D80008820BFF34F8FBFF36F8F704700E100E0F3
:101D900070B50023124E8380124B0360336893F8B2
:101DA000582005460AB1D86C00B998680368DB6A08
:101DB00098473368B0FA80F4D86C640930B103688E
:101DC000DB6A9847002808BF44F001042CB9064B91
:101DD000064A07482C2120F0DFFD284670BD00BFD1
:101DE0000C2F012004410208004002085E40020856
:101DF0009740020870B5254E3568BFF35B8F15F02C
:101E0000010540D130461FF07DFD00283BD0204C1D
:101E1000204B256104F13400C4E90035C4E90255C2
:101E2000E584A562A5850EF0AEFC04F1580009F02A
:101E30003BFD194BA3652046184B40F8843BFFF748
:101E4000A7FF174BC4F884302433C4F88C304FF408
:101E5000C803C4E928350023C4F8AC30C4F8B03056
:101E6000C4F8B430C4F8B8300E480F4BC4F89050E2
:101E7000C4F89C50C4F8A850C4F8983020F0AAFDCB
:101E800030461FF04BFD024870BD00BF081E002009
:101E90000C1E00201C4F0208244102089C4102082D
:101EA000D04E0208691C0008B04E020838B5184C24
:101EB00023685BB3174B184A1B6C11888B4216D1F1
:101EC000164B198803F080FB236893F86A200025DD
:101ED000013283F86A2083F87C50FFF7B7FA206854
:101EE00007F0D8FE2846BDE83840FFF7F7B803F002
:101EF0006BFB2468236820461B6A9847012384F8FB
:101F00007C300020BDE83840FFF712B938BD00BF73
:101F10000C2F012000680140061E0020041E002036
:101F200007B5064BADF806001B68054801220DF108
:101F3000060104F0E9F803B05DF804FB0C00002092
:101F40000C1F002008B5642004F0B9FDFBE7000079
:101F500030B595B0102200210AA820F024FF1422E9
:101F6000002103A820F01FFF00241E4B01941A6CCF
:101F700042F080521A641B6C03F080530193019B62
:101F8000194B02941A6842F440421A601B6803F429
:101F9000404302930122029B4FF48033CDE9082392
:101FA00002254FF480030821CDE90E534FF4B4739A
:101FB000CDE9101308A804231393129503F05CFBDA
:101FC00003F020FB0F23CDE903354FF4A0504FF46D
:101FD0008053CDE90603052103A8059403F028FDED
:101FE00015B030BD003802400070004080B59AB096
:101FF00002F050FAFFF7ACFF142200210DA820F0E8
:10200000D2FE0024C74B00941A6BC748C74DDFF8B7
:10201000588342F010021A631A6B02F01002009209
:10202000009A01941A6B42F020021A631A6B02F0B4
:1020300020020192019A02941A6B42F080021A6304
:102040001A6B02F080020292029A03941A6B42F019
:1020500004021A631A6B02F004020392039A0494B6
:102060001A6B42F001021A631A6B02F00102049229
:10207000049A05941A6B42F002021A631A6B02F07A
:1020800002020592059A06941A6B42F040021A6306
:102090001A6B02F040020692069A07941A6B42F0FD
:1020A00008021A631B6B03F00803224607933C21C6
:1020B000079B02F077FC9E480122022102F072FC8D
:1020C00022469B48042102F06DFC224699484FF4B9
:1020D000405102F067FC01263C23CDE90D369248C1
:1020E0000F9403230DA90227109302F071FB90486F
:1020F0000DA9CDE90D76CDE90F4402F069FB04236B
:102100008B480DA9CDE90D36CDE90F4702F060FBF4
:102110000DA94FF440538748CDE90D36CDE90F475F
:1021200002F056FB8448854B036002F045FADFF865
:102130003CE2834B2C62C5E900E328464FF4804320
:10214000C5E90434C5E90244C5E9064402F038FE95
:102150001021284603F07CF821462846794D03F0EB
:1021600096F84FF48273C5E900834FF40079182381
:10217000C5E9069328460A23C5E90244C5E9044493
:10218000C5E90844AC62EB6203F062FF8F2322468C
:10219000394667488DF824308DF8344002F002FC4F
:1021A00032464FF47A7309A9284603F0ADFF4FF485
:1021B0007A7332460DA9284604F052F93246394660
:1021C0005B48614D02F0EEFB9DF83430D32B04BF29
:1021D0005E4B1E705E4B0126C5E90036102240237F
:1021E0000024C5E904234FF4C073C5E906344FF455
:1021F0000063C5E908344FF4005302274FF0040987
:10220000AB624FF0030A07230DA92846CDE90D73F1
:10221000CDE90F934FF00808C5E90249CDE911A7B0
:10222000139703F0F9FD4FF6FF7209A92846CDE98F
:102230000A86089409960C9403F00EFE304602F0CC
:1022400055F94FF6FF7209A92846CDE90978CDE97D
:102250000B6403F001FE4FF6FF7209A92846CDE991
:1022600009A8CDE90B9403F0F7FD4FF40C73089324
:10227000089B0C934FF6FF7209A92846CDE90998EF
:102280000B9603F0E9FD40F26A51284603F002FE86
:1022900034220DEB0200214620F085FD2D4D2E4B02
:1022A0002C61C5E900340923C5E905361D23C5E9BC
:1022B000073A40F20D1140F24313C5E9091340F209
:1022C000171040F24713C5E90B032846C5E902443D
:1022D000AC8685F8364003F07FF8FF214FF4806C20
:1022E000F022CDE912140521CDE914C14FF4A073F9
:1022F0000DA9CDE90E24CDE9164228462246174DF8
:102300001893CDE910370D94ADF864408DF8664010
:1023100003F02DF9124B2B601B6898472B68114D69
:10232000DB6825E000380240001002400C2000204D
:1023300000080240000C0240A020002000300240B3
:10234000A08601000C1F0020D81E0020CC1E0020FB
:10235000400100A0641F002000680140C81E00204A
:10236000140000206020002000500140005C00406C
:102370009847134B2846C5E90034C5E90274C5E9FE
:102380000A47C5E90C4402F027F93146284602F015
:10239000DBF9FEF7DBFDFEF7D8FD04F01DFB094A73
:1023A0000948214604F044FB084B094A18602146BD
:1023B000084804F03DFB084B186004F01FFBFEE7E3
:1023C00000B002401C420208451F0008D41E002035
:1023D000F84102085B0F0008D01E002070477047CC
:1023E0007FB5094B8DF817201B6802930DF117027A
:1023F0000123009201930A460146044802F088FD39
:1024000007B05DF804FB00BF100000200C20002086
:102410007FB500238DF81730084B1B6802930A46DE
:1024200001230DF11701009101930146044802F0C8
:10243000FFFD9DF8170007B05DF804FB10000020B9
:102440000C2000201FB5084C24680092CDE901340F
:102450000A4601230146054802F0EAFD003818BF8C
:10246000012004B010BD00BF100000200C2000208F
:1024700002F03CB810B5064C00222046042102F0C0
:1024800091FA20460122BDE81040042102F08ABAE8
:102490000008024038B50B4D044601220A484FF4AB
:1024A000005102F07FFA00220421284602F07AFA55
:1024B0002046FFF735FD28460122BDE838400421BB
:1024C00002F070BA00080240000C024038B50B4D13
:1024D000044600220A484FF4005102F063FA002239
:1024E0000421284602F05EFA2046FFF719FD28462F
:1024F0000122BDE83840042102F054BA000802402D
:10250000000C0240F7B5144E144F05460C463046F9
:102510000022042102F046FA00224FF4005138460E
:1025200002F040FA2846FFF7FBFC0D4B0D481B68F4
:10253000224601A903F094FF384601224FF40051CE
:10254000019C02F02FFA30460122042102F02AFAFF
:10255000204603B0F0BD00BF00080240000C02405E
:102560000C0000200C1F002001F0C0BF0268034BCC
:102570009A4201D101F0A8BF704700BF001000408F
:102580007047000082B00E4B00220092596C41F45B
:1025900080415964596C01F4804100910099019285
:1025A000196C41F0805119641B6C03F08053019346
:1025B000019B0F216FF0010002B001F0BDBF00BF11
:1025C000003802400268094B9A4282B00BD10023C6
:1025D0000193074B1A6B42F480521A631B6B03F48E
:1025E00080530193019B02B0704700BF003002404E
:1025F0000038024007B50F4B02689A4216D10022FC
:10260000A3F5F0430192196B41F4000119631B6BB0
:1026100003F40003019305215A20019B01F08CFF74
:102620005A2003B05DF804EB01F0B8BF03B05DF8C9
:1026300004FB00BF00B002402DE9F043044689B01E
:102640001422002103A820F0AEFB2268244B9A42FA
:1026500043D1244C244800250095236B43F0040308
:102660002363236B03F004030093009B0195236B0A
:1026700043F001032363236B03F001030193019BE8
:102680004FF012094FF400734FF00108032704269E
:1026900003A9CDE90339CDE90587079602F098F83B
:1026A0004FF480731148079603A9CDE90339CDE9AA
:1026B000058702F08DF80295236C43F40003236430
:1026C000236C03F400030293029B236A43F4000388
:1026D0002362236A23F40003236209B0BDE8F08378
:1026E000005C004000380240000802400000024048
:1026F000F0B599B004461422002107A820F053FB3E
:1027000030220DEB0200002120F04DFB22685E4BD1
:102710009A4240F0B78008230C93C02310930423FF
:1027200012930CA84FF40033159303F049FA08B143
:10273000FFF726FF554B5648002400945A6C42F090
:1027400080625A645A6C02F080620092009A01948E
:102750001A6B42F020021A631A6B02F020020192F7
:10276000019A02941A6B42F001021A631A6B02F08A
:1027700001020292029A03941A6B42F002021A6357
:102780001A6B02F002020392039A04941A6B42F04D
:1027900040021A631A6B02F040020492049A0594F4
:1027A0001A6B42F004021A631A6B02F004020592DB
:1027B000059A06941A6B42F008021A631B6B03F029
:1027C0000803069302250E26069B0B964FF48063A2
:1027D00007A9CDE90735CDE9094501F0F9FF41F633
:1027E00058032C480B9607A9CDE907350927CDE9F1
:1027F000094501F0EDFF032327480B9707A9CDE911
:102800000735CDE9094501F0E3FF4FF47063224835
:102810000B9607A9CDE90735CDE9094501F0D8FFA9
:102820004FF40C631D480B9607A9CDE90735CDE998
:10283000094501F0CDFFC02319480B9607A9CDE942
:102840000735CDE9094501F0C3FF082315480B966C
:1028500007A9CDE90735CDE9094501F0B9FF4FF4E6
:10286000A0530E480B9707A9CDE90735CDE90945D7
:1028700001F0AEFF58202246052101F05DFE5820F0
:1028800001F08CFE19B0F0BD006801400038024034
:102890000014024000000240000402400018024000
:1028A00000080240000C024010B5044688B0142213
:1028B000002103A820F077FA2268144B9A4223D112
:1028C00003F56843002101915A6C114842F48012CB
:1028D0005A645A6C02F480120192019A02911A6BA6
:1028E00042F020021A631B6B03F020030293029B49
:1028F0004FF4607202230321CDE903230523CDE9C0
:10290000061303A901F064FF08B010BD0050014098
:10291000001402402DE9F04186B0002303932B4BB5
:102920001C68002C4FD14FF00108C3F80080284BE1
:1029300000949A6B274842EA08029A639B6B03EA69
:1029400008030093022703260C25009B01A94FF6DC
:102950003F03CDE90137CDE9046501F039FF1E4899
:10296000059501A9CDE90187CDE9034601F030FFC6
:1029700048F233131948059501A9CDE90137CDE98E
:10298000034601F025FF4FF683731548059501A90D
:10299000CDE90137CDE9034601F01AFF4CF203738C
:1029A0001048059501A9CDE90137CDE9034601F0AD
:1029B0000FFF60230C48059501A9CDE90137CDE94A
:1029C000034601F005FF06B0BDE8F081A820002015
:1029D0000038024000140240000802400018024083
:1029E00000100240000C02400004024070B588B0A4
:1029F00000230293204B1A6C42F010021A641B6CE5
:102A000003F010030293054601A903A8029B03F0FB
:102A1000B9F8069B4BBB03F0A5F8184E184B336072
:102A200040F2E733F360174BB0FBF3F3013B736005
:102A3000304600233361B360B36103F0F5FE044612
:102A400080B9304603F0B2FD044658B9362001F093
:102A5000A5FD0F2D0DD822462946362001F06CFD2C
:102A6000094B1D60204608B070BD03F07BF84000A4
:102A7000D3E70124F6E700BF00380240AC20002075
:102A80000010004040420F007C0000207047FEE72D
:102A9000FEE7FEE7FEE77047014803F0C5BD00BF53
:102AA000AC200020014802F005BD00BF641F0020DB
:102AB000014801F0BFBD00BF602000200120704729
:102AC00008B520F013FA162303604FF0FF3008BD5D
:102AD00008B520F00BFA16230360FEE770B50D462B
:102AE00014460E46731B9C4201DC204670BDAFF3BA
:102AF000008006F8010BF5E770B50D4614460E464A
:102B0000731B9C4201DC204670BD16F8010BAFF32D
:102B10000080F5E74FF0FF3070474FF400534B60F3
:102B20000020704701207047002070470A4A116852
:102B300008B5034609B9094911601068694603449C
:102B40008B4206D920F0D2F90C2303604FF0FF30FE
:102B500008BD1360FCE700BFF4200020503C0120BA
:102B6000704710B5042104461EF0CAFE204610BD71
:102B700008B503290FD8DFE801F00A02060A01F0C0
:102B800037F8406808BD01F033F88068FAE701F0D3
:102B90002FF80068F6E70020F4E7000000487047CF
:102BA000544202080620704713B5002451B103684F
:102BB00001948DF8034001AA9C680DF10303A0471E
:102BC00002B010BD0846FBE7C0897047008A704715
:102BD000C088704780887047807A00F07F00704717
:102BE000807AC00970470020704700009FED010AFD
:102BF000704700BF00000000704710B50821044670
:102C00001EF07EFE204610BD7047704700F5987399
:102C10000868496803C37047704770474160704750
:102C200070470000064BC0F84C310023C0F850310B
:102C300000F5A273C0F84801C0F84031704700BFEA
:102C4000312E00080123037270477047704710B49B
:102C5000C26841685410034601EB6200D20748BFC6
:102C60000A599B685DF8044B48BFD3581847034680
:102C7000406830B19A681AB9D86800F0010070470E
:102C80000120704710B50C2104461EF039FE204685
:102C900010BD10B5102104461EF032FE204610BDB6
:102CA00010B54FF4AE7104461EF02AFE204610BD4A
:102CB00010B50CF01BF80368BDE81040DB6B18473B
:102CC00010B50446D0F8400158B10368DB68984756
:102CD00038B1D4F8400103689B6898470023C4F8D2
:102CE000403110BD2DE9F14FD0E9556A0746B06873
:102CF00003681B6A9847B0F5C27F05D2444B454A2A
:102D0000A32145481FF048FE706803681B6A984776
:102D10000F2803D8414B3F4AA421F2E7F06803682B
:102D20001B6A98470B2803D83D4B3A4AA521E8E790
:102D30000BF0DCFFDFF8F09004300BF0FCFFD9F86B
:102D4000000010B10368DB689847D9F8000010B1A3
:102D500003681B689847DFF8D480D8F8000010B1EA
:102D600003685B699847D7F83C0110B103685B685A
:102D70009847D8F8000010B103681B689847D7F847
:102D80003C0110B103689B689847F0680368002114
:102D90005B6A98474FF0000B224BC0F804B0044622
:102DA00080F808B00360B068036859465B6A9847CA
:102DB000054600F085FF7068036859465B6A9847CE
:102DC0002946064600F05AFF331DC7F83C61C9F892
:102DD0000040C8F80050CAF800302B68C6F808A0B8
:102DE0002846DB68EE639847336830461B6898478F
:102DF000214628460EF02AF9236820461B69984789
:102E000023685B69204601B0BDE8F04F184700BF5A
:102E1000DC4202086A4302084A440208914402085C
:102E20003445020820470208542F0120502F01206A
:102E30002DE9F14FD0E9556A0746B06803681B6A6F
:102E40009847B0F51C6F05D2444B454AA32145482D
:102E50001FF0A2FD706803681B6A98470F2803D80B
:102E6000414B3F4AA421F2E7F06803681B6A984788
:102E70000B2803D83D4B3A4AA521E8E70BF036FF73
:102E8000DFF8F09004300BF056FFD9F8000010B1D5
:102E90000368DB689847D9F8000010B103681B6825
:102EA0009847DFF8D480D8F8000010B103685B6958
:102EB0009847D7F83C0110B103685B689847D8F889
:102EC000000010B103681B689847D7F83C0110B1A7
:102ED00003689B689847F068036800215B6A98471D
:102EE0004FF0000B224BC0F804B0044680F808B045
:102EF0000360B068036859465B6A9847054600F06E
:102F000029FF7068036859465B6A98472946064658
:102F100000F0F4FE331DC7F83C61C9F80040C8F862
:102F20000050CAF800302B68C6F808A02846DB68B5
:102F3000EE639847336830461B6898472146284619
:102F40000EF084F8236820461B69984723685B6964
:102F5000204601B0BDE8F04F184700BFDC42020830
:102F6000D74502084A440208914402083445020841
:102F700020470208542F0120502F0120044B1B68CA
:102F800093F858200AB1D86C00B99868704700BF10
:102F90000C2F0120F8B5174604460E460BF068FFCB
:102FA000124B1C60124B2360124B0025C4E95135B3
:102FB000114BC4E953551868036801219B68C4E9A3
:102FC0004F55C4E955769847284600F0C5FDFFF7F0
:102FD000D5FF16F092FBFFF7D1FF16F009FCFFF7C3
:102FE000CDFF16F011FC2046F8BD00BF602F012078
:102FF000CC460208B44602080C2F0120064BC0F84C
:103000004C310023C0F8503100F5A273C0F84801DC
:10301000C0F84031704700BF312E0008064BC0F8A1
:103020004C310023C0F8503100F5A273C0F84801BC
:10303000C0F84031704700BFE52C0008704770476A
:1030400070477047704730B50368018185B06D46A1
:103050000146D3F8843004462846984795E807008F
:103060003C3484E8070005B030BD30B503684181C9
:1030700085B06D460146D3F884300446284698470B
:1030800095E807003C3484E8070005B030BD002215
:10309000028042808280C280704780F8361070477C
:1030A00070B5036804461B6B15469847236829468C
:1030B00020465B6EBDE87040184700207047806C6A
:1030C0007047704770477047704730B4C2684468B3
:1030D0005510034604EB6200D20748BF62599B6853
:1030E00030BC48BFD35818470346406830B19A688F
:1030F0001AB9D86800F0010070470120704710B578
:103100004C2104461EF0FCFB204610BD10B51021DA
:1031100004461EF0F5FB204610BD10B54FF4C271F9
:1031200004461EF0EDFB204610BD08B5FEF702FE7A
:1031300008BD0000036870B55E6B124B1B68044647
:103140008DB22BB9104B114A6C2111481FF024FC91
:103150001049828D0988914203D80F4B0B4A6D218B
:10316000F3E713F812200D4B1B6853F82200036895
:103170001B6B9847291A3346204609B2BDE87040B8
:10318000184700BF642F01203C4702087E47020811
:10319000B9470208682F0120004802086C2F01205F
:1031A00000F59670884208B505D10BF09FFDBDE88B
:1031B0000840FFF723BF08BD00224FF0FF31C0E9F0
:1031C00000218260704770B5036804461B6B15468A
:1031D00098472368294620465B6BBDE87040184736
:1031E00070B504461D46BDF91060FFF7ECFF23687B
:1031F000294620469B6B9847236831462046DB6B67
:10320000BDE8704018470000094A02604FF4807121
:1032100000228184FF21C0E90122C0E90322C0E924
:103220000522C0E9072280F826108262704700BF9D
:10323000705002084FF4807181840D4901600D497E
:1032400081624FF6FF7181854FF47F010022416357
:103250004FF0FF31C0E90122C0E90322C0E9052295
:10326000C0E90722C0E9101202630287C2637047F7
:10327000E04F0208D4420208F8B5194B018F1B88B1
:103280008B4206462AD9174B1B682BB9164B174A97
:1032900017486C211FF080FB13F81120154B1B6899
:1032A00053F82250144B186800F092FC2B68074624
:1032B0009B6B284698472B6804469B6C39462846EA
:1032C00098472B6814FB00F45B6A394628469847F8
:1032D000A4B223181BB2A6F84630F8BD0023FAE7C3
:1032E000682F0120642F01203C4702087E47020816
:1032F000B94702086C2F0120702F01202DE9F04FF3
:1033000004468DB0A24600250DF0F4FC674BE56342
:103310004AF8403B5046FFF777FF04F16C0304F195
:1033200098091846039304F1E006FFF76DFF48463D
:10333000FFF780FF3046FFF77DFF04F596785C4B82
:10334000C4F8E030C4F82851404609F023F9594B3D
:10335000C4E95D34584BC4E95F354FF4A0732A4685
:1033600050464FF07F4B271D00932946F023FFF76F
:1033700037FF51463846C4F868B005F023FC4FF4D7
:10338000A0732A46039800932946F023FFF728FFED
:103390004A4BC4F894300399384605F013FC0DF1FC
:1033A000100A5C2229464846FFF70DFF4946504661
:1033B000C4F8C8B0A4F8CC5008F074FB9AE8070031
:1033C00004F1D40383E807003D4B0A930AA94FF0A8
:1033D00003034846ADF82C3008F00CFE4946384649
:1033E00005F0F0FB8E2233213046FFF7ECFED4F8D7
:1033F000E030C4F810B1D3F88430A4F81451314649
:10340000504698479AE8070004F58E7383E8070052
:103410002C4B1B682BB92C4B2C4A60212C481FF0DD
:10342000BBFA2C4B1B88012B03D82B4B274A61215D
:10343000F4E72A4B0121186800F0CAFBC4F8280100
:10344000304608F0B7FD4FF002091D4B0A930AA958
:103450003046ADF82C9008F0CDFD3146384605F0E9
:10346000B1FB4046AF222221FFF7ADFE4FF0030330
:103470000AAA09A94046ADF82430ADF8289008F012
:1034800016FE4046A4F86451FFF7F6FE4FF0FF33F6
:10349000C4E95A3304F5BA733846C4F85431414686
:1034A00005F090FB20460DB0BDE8F08F3C490208C6
:1034B0009448020824490208A1310008D0FF00FF07
:1034C000D4420208642F01203C4702083E4802080B
:1034D000B9470208682F012000480208702F012018
:1034E000406A7047806A704770478A880B8810B5B9
:1034F000D20A4C88C1699BB251F8220043EA0443C6
:10350000184410BD10B50446BAB1107B68B1537BA6
:10351000D27A1B0203F4E0631A43236A03EB8203AB
:103520001A888A4202D193F9020010BD05D80138E9
:1035300080B204330028F3D1F7E70020F5E710B597
:103540002C2104461EF0DCF9204610BD30B58BB0AE
:103550000446BDF860500895BDF85C5007959DF88D
:10356000505006959DF84C5005959DF8485004958F
:103570009DF8445003959DF8405002959DF83C50AD
:103580000195BDF8385000950DF0BAF9064B23604F
:10359000159BE361169B2362199B63621A9BA362CE
:1035A00020460BB030BD00BF70490208704770471D
:1035B0007047704730B4C26844685510034604EB46
:1035C0006200D20748BF62599B6830BC48BFD358DD
:1035D00018470346406830B19A681AB9D86800F0B5
:1035E000010070470120704710B5102104461EF0FD
:1035F00087F9204610BD10B54FF4196104461EF03E
:103600007FF9204610BD08B50BF070FBBDE80840FF
:10361000FFF704BD00F58E728A4202D103681B6B6E
:10362000184770470022C0E90122C0E90322C0E91F
:103630000522C0E907224FF480728284014A0260A9
:10364000704700BFDC49020838B5262204460D4603
:1036500000211FF0A8FB2046FFF7E4FF064B236084
:103660002B88E384FF23204684F82830294608F07D
:1036700050FE204638BD00BFD85002082DE9F04F5B
:1036800004468DB0A04600250DF034FB8B4BE5635E
:1036900048F8403B4046FFF7B7FD04F16C0318467D
:1036A0000293FFF7B1FD04F19803184604F1C40931
:1036B00003934FF6FF76FFF7A7FD04F1F00A0AA97E
:1036C000484604F58E7BADF82860FFF7BDFF0AA9D8
:1036D000504604F5B277ADF82860FFF7B5FF5846BD
:1036E00008F058FF2946262238461FF05CFB384672
:1036F000FFF798FF724BC4F88C314FF47F03C4F886
:103700009831704BC4F864314FF0FF33C4E9693528
:103710006D4BC4F880396D4BC4F888394FF4A073F1
:103720002A46A4F89061C4F89451A4F89C51C4F8B6
:10373000A051C4F8AC51C4F88C5929464046C4F88D
:1037400084490093F023FFF74BFD261D4FF07F4384
:103750004146A366304605F035FA4FF4A0732A4679
:10376000294602980093F023FFF73AFD584B02993F
:10377000C4F89430304605F025FA8823B82229464B
:1037800003980093F023FFF72BFD524BC4F8C03091
:103790000399304605F016FA892248461921FFF7A9
:1037A00012FD4FF0050848460AA9ADF8288008F038
:1037B000B0FD4946304605F005FA902240F22D1141
:1037C0005046FFF700FD4FF004090AA95046ADF836
:1037D000289008F09EFD5146304605F0F3F9294641
:1037E000E3225846FFF7EFFC0AAA012309A958462D
:1037F000ADF82450ADF8283008F059FC0623A4F8A1
:1038000054315846FFF738FD4FF0FF33C4E95633C3
:1038100004F51863C4F844315946304605F0D2F92E
:103820001A23082200934D218A233846FFF7D8FC3B
:103830004FF07F43C4F89431D4F86431A4F8985120
:1038400004AD2846D3F884303946984795E80700F8
:1038500004F5D07383E807001F4B1B6804F5D87587
:103860002BB91E4B1E4A60211E481FF095F81E4BB7
:103870001B88052B03D81D4B194A6121F4E71C4B0B
:103880004146186800F0A4F91A4A03464FF47A71C9
:1038900028460EF0DDFE0A4BC4F8AC510AA93846A2
:1038A0000A93ADF82C9008F0A5FB3046394605F098
:1038B00089F920460DB0BDE8F08F00BF5C4A0208D0
:1038C000D442020894480208444A02081536000807
:1038D000FDFF99FF3D3D3DFF642F01203C4702085D
:1038E0003E480208B9470208682F01200048020834
:1038F000702F0120D04902087047000030B5164DE6
:103900002C68BFF35B8F14F001048FB020D12846E0
:103910001DF0F8FFE0B13F230993104B0893104BC3
:10392000104911480A940122CDE906430423CDE948
:1039300003320A230093CDE90B44CDE901440594F9
:10394000FFF704FE09481FF045F828461DF0E6FF82
:1039500005480FB030BD00BFF8200020180E030846
:103960005C100308D8F50208FC200020F938000894
:103970007047000030B5184D2C68BFF35B8F14F012
:1039800001048FB025D128461DF0BCFF08B33F23AA
:103990000993124B0893124B079307220A23CDE990
:1039A000053201210423CDE9033114230D4900938D
:1039B00040F2B1121923CDE90B44CDE901440A4884
:1039C0000A94FFF7C3FD09481FF004F828461DF0CC
:1039D000A5FF05480FB030BD282100201C0E0308AC
:1039E00060100308E8F502082C2100207139000856
:1039F0007047000030B5174D2C68BFF35B8F14F093
:103A000001048FB022D128461DF07CFFF0B13F2386
:103A10000993114B0893114B114912480A94CDE9AF
:103A2000064301220423CDE903322823009309220F
:103A30002923CDE90B44CDE901440594FFF786FD28
:103A400009481EF0C7FF28461DF068FF05480FB063
:103A500030BD00BF58210020541003086410030833
:103A6000980D03085C210020F13900080020704700
:103A7000002070470EB403B503AB002153F8042BAC
:103A800001930CF0BBF902B05DF804EB03B0704792
:103A90000CB407B504AB53F8042B01930CF0AEF94A
:103AA00003B05DF804EB02B070470000436C10B542
:103AB000044673B3038F2BB9184B194AC521194813
:103AC0001EF06AFFC38E00EB43035B8C0BB30EF05A
:103AD00016F8238F012B03D8134B144ACB21EEE7A2
:103AE000E28E531C9BB2092B194688BFA3F10A0131
:103AF00004EB410140F63F10498C814209D10A2B69
:103B000004EB420228BF002304EB4303508C58848B
:103B100051842046BDE810400DF0F4BE904A0208E2
:103B2000994A0208444B02088E4B02089C4B02083B
:103B30000DF0AFBE10B586B002AC84E806001A46A0
:103B40000AAB05930193099B00932146089B0AF059
:103B50006BFC06B010BD000038B518BB124B134803
:103B60001C681349B4B1226822440260626822448E
:103B70000A60A26814440F4B00221A8000F038F843
:103B8000054600F033F80C4B1C600C4B1D600C4BD1
:103B9000188007E00B4B03600B4B0B600B4B1C6852
:103BA000002CE8D138BD00BF942100208C210020DA
:103BB0008821002090210020642F01206C2F0120FB
:103BC000682F01208810030868100308DC10030820
:103BD000044B1B6853F82100034B1B6803EB4000A8
:103BE000704700BF882100208C21002008207047EA
:103BF000004870479821002010B5FFF7BBFE044C29
:103C00002060FFF7F7FE6060FFF778FEA06010BD50
:103C10009821002010B5002404600C6014601C6022
:103C200010BD704710B54FF4AE7104461DF068FE2C
:103C3000204610BD10B50446D0F8580100F04FF8EA
:103C40002046BDE810400BF0D3B8000010B5044684
:103C5000FFF7A0F9014B2360204610BD784C020805
:103C6000704704387047704710B5102104461DF0A6
:103C700047FE204610BDA0F10400F5E70022826057
:103C8000024A026018324260C1607047CC4C0208A0
:103C90007047000010B5034B03600446FFF711FAAC
:103CA000204610BDF44C020810B50446FFF7F2FFA1
:103CB00020464FF4C2711DF023FE204610BD0000C7
:103CC00010B50446FFF71AFB014B2360204610BDD8
:103CD000F44C0208FFF7F6B9002202607047704703
:103CE000704704387047704710B5102104461DF026
:103CF00007FE204610BDA0F10400F5E70022826017
:103D0000024A026018324260C1607047284D0208C2
:103D1000704790F89C3933B9012380F89C396FF0D3
:103D20000E03C0F89439704710B5034B0360044686
:103D3000FFF73DFC204610BD544D020810B5044667
:103D4000FFF7F2FF20464FF41C611DF0D9FD20461D
:103D500010BD000010B50446FFF790FC094B23602E
:103D600001220023C4F89039C4F89439C4F8982982
:103D700084F89C39C4F8B439C4F8B839A4F8BC390B
:103D8000204610BD544D020838B50446FFF710FC1C
:103D9000B4F9CE20B4F99E309B1AC4F89039A4F837
:103DA000CA300D4B04F69E151B88C4F8B439902216
:103DB000C4F8B829A4F8F4302846B4F8BC39074A46
:103DC00014210EF045FCC4F8AC5104F5B270BDE806
:103DD00038400CF03DB900BF002F0120484D0208CB
:103DE00090F89C392DE9F04704462BB300F1C40547
:103DF00028460CF02DF9D4F89419D4F89839D4F851
:103E000090290B440A44C4F89439B4F9CE10B4F99B
:103E10009E30C4F890295B1A9A42A1BFC4F8903929
:103E20000023C4F8943984F89C39D4F89039A4F864
:103E3000CA3028460CF00CF904F1F00630460CF0BC
:103E400007F9D4F8B439B4F9F820043BDA42C4F8DD
:103E5000B43916D5354B364A1B88C4F8B439B4F892
:103E6000BC3901339BB204F69E15A4F8BC39142169
:103E700028460EF0EDFBC4F8AC5104F5B2700CF01E
:103E8000E7F8D4F8B439A4F8F430D4F8B839A4F881
:103E9000F63030460CF0DCF8B4F9C830D4F8B40988
:103EA000C01AFCF747FBB4F9CA308046D4F8B80909
:103EB000C01A8946FCF73EFB02460B46FCF7A4FB02
:103EC000424606460F464B4640464946FCF79CFB99
:103ED00002460B4630463946FCF7E0F941EC100B40
:103EE0001DF035FD134B51EC100B0022FCF7FEFDCD
:103EF000C8B10E4A00231288A4F8BC3904F69E15F6
:103F0000C4F8B42914210A4A28460EF0A1FB04F58E
:103F1000B270C4F8AC510CF09BF823682046DB6A01
:103F2000BDE8F0471847BDE8F08700BF002F01202B
:103F3000484D020800804640F02070474FF4A070C2
:103F400070472920FEF7C2BA2820FEF7BFBA08B58D
:103F5000FEF790FACA20FEF7B9FAC320FEF79AFAE4
:103F60000820FEF797FA5020FEF794FACF20FEF7CC
:103F7000ADFA0020FEF78EFAC120FEF78BFA302052
:103F8000FEF788FAED20FEF7A1FA6420FEF782FA28
:103F90000320FEF77FFA1220FEF77CFA8120FEF75D
:103FA00079FAE820FEF792FA8520FEF773FA0020EE
:103FB000FEF770FA7820FEF76DFACB20FEF786FA4E
:103FC0003920FEF767FA2C20FEF764FA0020FEF78E
:103FD00061FA3420FEF75EFA0220FEF75BFAF72062
:103FE000FEF774FA2020FEF755FAEA20FEF76EFA83
:103FF0000020FEF74FFA0020FEF74CFAB120FEF742
:1040000065FA0020FEF746FA1B20FEF743FAB620B9
:10401000FEF75CFA0A20FEF73DFAA220FEF73AFA14
:10402000C020FEF753FA1020FEF734FAC120FEF745
:104030004DFA1020FEF72EFAC520FEF747FA45206C
:10404000FEF728FA1520FEF725FAC720FEF73EFAFC
:104050009020FEF71FFA3620FEF738FAC820FEF748
:1040600019FAF220FEF732FA0020FEF713FAB02018
:10407000FEF72CFAC220FEF70DFAB620FEF726FA5C
:104080000A20FEF707FAA720FEF704FA2720FEF71A
:1040900001FA0420FEF7FEF92A20FEF717FA0020A5
:1040A000FEF7F8F90020FEF7F5F90020FEF7F2F927
:1040B000EF20FEF7EFF92B20FEF708FA0020FEF7BD
:1040C000E9F90020FEF7E6F90120FEF7E3F93F20C9
:1040D000FEF7E0F9F620FEF7F9F90120FEF7DAF92C
:1040E0000020FEF7D7F90620FEF7D4F92C20FEF7C2
:1040F000EDF9C820FEF738FA2620FEF7E7F901208F
:10410000FEF7C8F9E020FEF7E1F90F20FEF7C2F94B
:104110002920FEF7BFF92420FEF7BCF90C20FEF79A
:10412000B9F90E20FEF7B6F90920FEF7B3F94E20D3
:10413000FEF7B0F97820FEF7ADF93C20FEF7AAF9BA
:104140000920FEF7A7F91320FEF7A4F90520FEF7D2
:10415000A1F91720FEF79EF91120FEF79BF9002028
:10416000FEF798F9E120FEF7B1F90020FEF792F989
:104170001620FEF78FF91B20FEF78CF90420FEF7BE
:1041800089F91120FEF786F90720FEF783F931201F
:10419000FEF780F93320FEF77DF94220FEF77AF929
:1041A0000520FEF777F90C20FEF774F90A20FEF7D8
:1041B00071F92820FEF76EF92F20FEF76BF90F201A
:1041C000FEF768F91120FEF781F9C820FEF7CCF957
:1041D0002920FEF77BF9BDE808402C20FEF776B9D0
:1041E00008B5FEF747F90321D320FEF78BF980B21B
:1041F00008BD10B5C4B2022203212046FEF7F0F834
:104200000A20FEF735F9204600220321FEF7E8F8E0
:10421000BDE810400220FEF72BB938B50446E4B2E1
:10422000FEF7DCF800212046FEF7F2F801210546F2
:104230002046FEF7EDF840EA052080B238BD10B503
:10424000C4B240212046FEF7E3F8030607D54C210F
:104250002046FEF7DDF8003818BF012010BD01220E
:104260004B212046FEF7BCF8204600224B21FEF7EA
:10427000B7F80020F2E773B50423C4B20E46154622
:10428000D7210DEB03022046FEF7DCF8019B1BBA99
:104290001A0DC3F30B23328020462B8001224B21C1
:1042A000FEF79EF800224B212046FEF799F802B057
:1042B00070BD000010B50A4A1378984204460DD02C
:1042C000517888420AD00BB141B90123D454FEF78A
:1042D00085F82046BDE81040FFF78BBF10BD00BF3A
:1042E000A421002010B5C4B209212046FEF790F8A1
:1042F00040F00102D2B220460921BDE81040FEF78D
:104300006FB810B5C4B209212046FEF781F8092123
:1043100000F0FE022046BDE81040FEF761B838B557
:10432000C4B20D4620460A21FEF772F840EA0502A3
:10433000D2B220460A21BDE83840FEF751B810B588
:104340000446FEF74CF820461F21FFF7E8FF204601
:10435000BDE81040FFF7C6BF38B5C4B20D462046D1
:104360000A21FEF755F820EA0502D2B220460A21BA
:10437000BDE83840FEF734B810B50446FFF7C1FF7A
:1043800020461F21BDE81040FFF7E6BF10B5C0B2C0
:104390000C460B21FEF73CF8204010BD1F21FFF713
:1043A000F5BF0A46C0B20B21FEF71AB81F21FFF76E
:1043B000F8BF38B5C4B20D4620461721FEF728F8DD
:1043C00020EA0502D2B220461721BDE83840FEF7A8
:1043D00007B870B5C4B2064604212046FEF718F8A7
:1043E000042100F0FB0205462046FDF7F9FF3046A8
:1043F000F021FFF7DEFF05F0F80220460421FDF76B
:10440000EFFF492220212046FDF7EAFF0220FEF7B8
:104410002FF8204601222121FDF7E2FF20469A22B3
:104420004121FDF7DDFF204601224A21FDF7D8FF9B
:10443000204601224B21FDF7D3FF204600224B21CD
:10444000FDF7CEFF204601225621FDF7C9FF204689
:1044500001225821FDF7C4FF204601224021FDF72B
:10446000BFFF2046FF220B21FDF7BAFFBDE87040D9
:104470000220FDF7FDBF0000054BD3F8882042F471
:104480007002C3F888204FF000629A60704700BF46
:1044900000ED00E008B50B4B1A6842F400721A6098
:1044A0001A6842F480621A601A6842F480721A60D4
:1044B000032000F02FF80020FEF798FAFEF762F8CC
:1044C000002008BD003C0240034A044B11681B78E1
:1044D0000B441360704700BFA82100207800002023
:1044E000014B1868704700BFA821002038B504466A
:1044F000FFF7F6FF631C1CBF054B1B78054618BF72
:10450000E418FFF7EDFF431BA342FAD338BD00BF09
:10451000780000200749CA6822F4E062030212040E
:1045200003F4E063120C134343F0BF6343F400331E
:10453000CB60704700ED00E0164B30B5DC68C4F38B
:104540000224C4F10703251D042B28BF0423062DD4
:104550004FF0FF358CBF033C002405FA03F321EA3A
:104560000303A54022EA0502A340002843EA020310
:10457000ACBF00F16040084A4FEA0313B8BF00F037
:104580000F00DBB2AABF00F56140135480F800337E
:1045900030BD00BF00ED00E014ED00E0002807DBB7
:1045A000044A4109012300F01F00834042F82130F2
:1045B000704700BF00E100E010B5044650B14379F8
:1045C00003F0FF0213B90271FDF7FCFF01236371D1
:1045D000002010BD0120FCE710B5044630B390F870
:1045E000393003F0FF021BB980F83820FEF702F8DB
:1045F00022686168022384F83930136823F4403359
:104600000B431360536BA16823F007030B43536301
:10461000136CE16823F47F5323F03F030B431364CF
:1046200000200123E06384F8393010BD0120FCE74D
:1046300070477047036870B55E681D68F2070446EE
:1046400014D5E90512D51A6822F480721A60C26B7B
:1046500042F00102C26301229A60042380F83930DB
:10466000002380F83830436903B19847B20616D565
:10467000AB0414D523681A6822F400521A60202271
:104680009A60E36B43F00203E363042384F8393058
:10469000002384F8383063690BB12046984730070F
:1046A00016D5290514D523681A6822F400621A6009
:1046B00008229A60E36B43F00403E363042384F865
:1046C0003930002384F8383063690BB120469847AD
:1046D00072070BD56B0509D523681A6822F480622E
:1046E0001A6004229A602046FFF7A2FFB00714D593
:1046F000A90512D523681A6822F400721A600222F2
:104700009A60E36BE363012384F83930002384F873
:10471000383023690BB120469847F20613D5EB04D5
:1047200011D523681A6822F480521A6010229A6008
:10473000E36BE363012384F83930002384F83830D5
:104740002046FFF776FF70BDF0B590F83820012ABB
:1047500003464FF002002BD0012283F8382083F863
:10476000390003EB0112D2E90740556A174F44EABA
:104770000040093C012C9CBF05F07F4210434FEAEA
:1047800001161A6888BF40EA056091B9516A39403C
:1047900001435162012C9969916103D8596A21F052
:1047A0007F4191620122002083F8392083F838008C
:1047B000F0BDD16939400143D1619919012C896952
:1047C00011619CBF25F07F451562EBE7F0FFFC000F
:1047D0002DE9F74FDFF8BC916C4A00230D680124E6
:1047E0009C4004EA0506AC4340F0B7804D680327BF
:1047F00005F003044FEA430807FA08FC671E012F7F
:104800006FEA0C0C34D8876807EA0C0ECF6807FAF9
:1048100008F747EA0E078760476827EA060EC5F3E0
:1048200000179F4047EA0E074760C76807EA0C0E6B
:104830008F6807FA08F747EA0E07022CC76019D1FC
:104840004FEAD30A00EB8A0A03F0070BDAF820706C
:104850004FEA8B0B4FF00F0E0EFA0BFE27EA0E0EEF
:104860000F6907FA0BF747EA0E07CAF8207001E054
:10487000032CDAD1076804FA08F407EA0C073C4372
:1048800015F4403F046068D000240194D9F84440F6
:1048900044F48044C9F84440D9F8444023F0030765
:1048A00007F1804704F4804407F59C37019403F036
:1048B000030C019CD7F808E04FEA8C0C0F2404FA93
:1048C0000CF42EEA040E324CA0424DD004F5806464
:1048D000A0424BD004F58064A04249D004F5806426
:1048E000A04247D004F58064A04245D004F580641E
:1048F000A04243D004F58064A04241D004F5806416
:10490000A0423FD004F58064A0423DD004F580640D
:10491000A04214BF0A24092404FA0CF444EA0E0449
:10492000BC609468F74315F4801F0CBF3C403443CF
:104930009460D46815F4001F0CBF3C403443D4602D
:10494000546815F4003F0CBF3C4034435460146875
:10495000ED0354BF3C40344314600133102B7FF40B
:104960003DAF03B0BDE8F08F0024D5E70124D3E7C5
:104970000224D1E70324CFE70424CDE70524CBE7C5
:104980000624C9E70724C7E70824C5E7003C01401F
:1049900000000240003802400369194214BF0120A0
:1049A000002070470AB1816170470904FBE7436941
:1049B00001EA030221EA030141EA024181617047F1
:1049C00001684B6913F480634FF0000210D06FF45C
:1049D00080634B612023026380F83D3080F83E20E5
:1049E000036C80F83C2043F004030364012070470B
:1049F000184670472DE9F84606460F4691461D4673
:104A00004FEA114A3368BAF1010F0CBF5C699C6927
:104A100027EA0404A4B2B4FA84F46409A14501D0DD
:104A2000002025E06A1CEED0FFF75AFD089BC01A53
:104A3000A84201D8002DE5D13368BAF1010F0CBFAF
:104A40005B699B6927EA03039BB2B3FA83F35B09B3
:104A50009945D7D100232022336386F83D2086F87C
:104A60003E30326C86F83C3042F020023264012045
:104A7000BDE8F8862DE9F04104460F4616469846F3
:104A80002568686927EA000080B2C0B16B695A05E1
:104A900017D52B6843F400732B606FF480636B6150
:104AA00020220023236384F83D2084F83E30236CC9
:104AB00043F004032364002384F83C300120BDE864
:104AC000F081731CDDD0FFF70BFDA0EB0800B042B6
:104AD00001D8002ED4D123685A6927EA020292B283
:104AE000002ACDD000232022236384F83D2084F8BF
:104AF0003E30236C1343DDE770B504460D46164681
:104B000023685B691B0601D500201EE02046FFF7E5
:104B100057FFC8B96A1CF3D0FFF7E2FC801BA8421C
:104B200001D8002DECD123685B6913F08003E7D135
:104B30002022236384F83D2084F83E30226C84F8E0
:104B40003C3042F020022264012070BD2DE9F04388
:104B50001546026885B0DDE90C789946136843F480
:104B6000807313600E463B46CDF8008000224FF064
:104B700001110446FFF73EFF236838B11B68DB05CF
:104B800002D54FF400732364032620E006F0FE06EE
:104B90001E611A4943463A462046FFF76BFFA8B903
:104BA000236803905A6903929B69039342463946EE
:104BB0002046039BFFF7A0FF064660B1236C042B41
:104BC00001BF2268136843F4007313600126304666
:104BD00005B0BDE8F083B9F1010F236802D1EDB251
:104BE0001D61F4E72A0A1A61394642462046FFF75A
:104BF00083FF0028E2D12368F1E700BF0200010033
:104C00002DE9FF479A46036815461A6842F4806208
:104C10001A601A68DDE90C7842F480721A600E4658
:104C20003B46CDF8008000224FF001110446FFF70B
:104C3000E1FE236838B11B68DB0544BF4FF4007305
:104C40002364032021E05FFA86F906F0FE061E6168
:104C50002B4943463A462046FFF70CFFA0B923688C
:104C600003905A6903929B69039342463946204652
:104C7000039BFFF741FF58B1236C042B01BF22684F
:104C8000136843F400731360012004B0BDE8F0879B
:104C9000BAF1010F23681AD1EDB242461D613946BF
:104CA0002046FFF729FF02460028E5D121680B685E
:104CB00043F480730B602046CDF800803B464FF0F4
:104CC0000111FFF797FE226860B11368B4E72A0A62
:104CD0001A61394642462046FFF70EFF0028CBD125
:104CE0002368D9E749F001031361054943463A4671
:104CF0002046FFF7BFFE003818BF0120C5E700BF00
:104D00000200010070B504460D46164623685B6933
:104D10005B0701D500201EE02046FFF751FEC8B911
:104D20006A1CF3D0FFF7DCFB801BA84201D8002DE2
:104D3000ECD123685B6913F00403E7D120222363DD
:104D400084F83D2084F83E30226C84F83C3042F0F8
:104D500020022264012070BD70B504460D4616463F
:104D600021684B6913F0400301D0002011E04A692B
:104D7000D2060FD56FF010024A612022236384F817
:104D80003D2084F83E30236C2364002384F83C30BB
:104D9000012070BDFFF7A4FB801BA84201D8002DA5
:104DA000DED123685B6913F04003D9D1202223634D
:104DB00084F83D2084F83E30236C1343E4E7000080
:104DC00070B5044608B9012070BD90F83D3003F07D
:104DD000FF021BB980F83C20FDF72EFC242384F849
:104DE0003D3023681A6822F001021A601A6842F402
:104DF00000421A601A6822F400421A6000F0B2FE03
:104E00003F4B65689D4294BF3E4B3F4B98428CBFE1
:104E100000230123002BD6D12268394E51683B4B29
:104E2000B0FBF3F321F03F011943B542516088BF55
:104E30004FF49676116A88BF734321F03F0184BF17
:104E40004FF47A76B3FBF6F301330B431362D16967
:104E5000431E2B4821F44F41854221F0FF0132D8F7
:104E60006D0040F6FC70B3FBF5F30133034242D012
:104E7000C3F30B031943D161D4E90730116803432D
:104E800021F0C0010B4313609168D4E9030321F4BE
:104E90000341034321F0FF010B439360D4E9053044
:104EA000D168034321F0FF010B43D360136843F043
:104EB0000103136000202023206484F83D30206328
:104EC00084F83E0080E7A06850B905EB4505B3FBC8
:104ED000F5F30133C3F30B037BB143F40043C9E79C
:104EE00019206843B3FBF0F30133C3F30B0323B181
:104EF00043F44043BEE70423BCE70123BAE700BF05
:104F0000A08601007F841E00FF083D0040420F0084
:104F10002DE9F743044699460C9E0F469046FFF74D
:104F2000DFFA94F83D30202B054603D0022003B071
:104F3000BDE8F08300903C49192301222046FFF789
:104F400059FD0028F2D194F83C30012BEED02068B6
:104F5000012384F83C300368D9075EBF036843F03F
:104F600001030360036823F400630360212384F8D2
:104F70003D30402384F83E30002323640A9B636263
:104F8000BDF82C306385638D2385284BE362424650
:104F9000CDE900654B4639462046FFF7D7FD00288E
:104FA0002AD00120C3E7FFF7A7FD40B1236C042BF3
:104FB00001BF2268136843F400731360F1E7636A6A
:104FC00027681A4612F8011B39616262628D218DD1
:104FD000013A92B262857A69481E80B252072085F2
:104FE0000AD548B15A783A6102336362638D013B56
:104FF00002399BB221856385238D2A46314620469E
:10500000002BD0D1FFF77EFE0028CFD12268136895
:1050100043F400731360202384F83D3084F83C008F
:1050200084F83E0083E700BF020010000000FFFF8D
:105030002DE9F043044687B09946109F0D469046EF
:10504000FFF74EFA94F83D30202B064604D0022597
:10505000284607B0BDE8F08300907A491923012261
:105060002046FFF7C7FC0028F1D194F83C30012B13
:10507000EDD02068012384F83C300368DB075EBF75
:10508000036843F001030360036823F400630360D3
:10509000222384F83D30402384F83E3000232364EB
:1050A0000E9B6362BDF83C306385638D2385664B40
:1050B000E3622946CDE900764B4642462046FFF79B
:1050C0009FFD054608B10125C2E7228D2368B2B9CC
:1050D00002905A6902929A690292029A1A6842F4FC
:1050E00000721A60DFF86481238D002B2CD12022FE
:1050F00084F83D2084F83C3084F83E30A8E7012A4B
:105100000AD11A6822F480621A6003905A690392E5
:105110009A690392039AE1E7022A0ED11A6822F4EF
:1051200080621A601A6842F400621A6004905A6938
:1051300004929B690493049BD4E705905A690592F5
:105140009B690593059BCDE7032B56D8012B15D101
:10515000324639462046FFF7FFFD0028B3D12368C9
:105160001A69636A1A70636A01336362238D013BB3
:105170002385638D013B9BB26385B5E7022B0096C7
:105180003B464FF000024146204619D1FFF732FC62
:10519000002898D123681A6842F400721A601A69CC
:1051A000636A1A70626A531C6362238D013B238514
:1051B000638D013B9BB2638523681B695370D2E703
:1051C000FFF718FC024600287FF47DAF23681968BA
:1051D00021F4806119601969636A1970636A013387
:1051E0006362238D013B2385638D013B9BB2638505
:1051F000414600963B462046C8E73246394620469F
:10520000FFF7AAFD00287FF45EAF23681A69636A7E
:105210001A70628D616A013A92B24B1C62852268F3
:105220006362238D5069013B9BB2400723857FF564
:105230005BAF032B02BF136823F480631360136911
:105240004B7090E7020010000000FFFF0400010017
:1052500010B590F83D30202BDCB216D1242380F815
:105260003D3003681A6822F001021A605A6A22F07F
:1052700010025A625A6A114359621A6842F00102D6
:105280001A6080F83D40002010BD0220FCE730B5D8
:1052900090F83D30202BDCB216D10268242380F830
:1052A0003D30136823F001031360556A4FF6F07325
:1052B0002B400B439BB25362136843F0010313600E
:1052C00080F83D40002030BD0220FCE70068D1F8A6
:1052D00000C0D201843283182DE9F043C6685D68AE
:1052E0004C68D1F8189005F470455D60C5680CF104
:1052F0000107C5F30B45C6F30B463D44264445EA7A
:1053000006455D60C668CD68C6F30A062E449D68F2
:1053100005F470459D60C7688D68C7F30A070135BD
:105320003D4445EA06459D601D690E6925F0070567
:105330001D614FF0000E1E619D6991F8327091F869
:105340003180C3F818E091F8305045EA096545EA24
:10535000082545EA07459D615D6925F0FF055D610A
:105360004D695D61DD6925F4E06525F00705DD61C6
:10537000D1E907573D43DD619D6A4D6AC3F828E0D6
:105380009D621EB3012E23D0B51E022D22D9072EF9
:1053900014BF01250225DE6A06F0E026DE62A4EBDA
:1053A0000C048E6AC96A6C436E43033444EA0644B3
:1053B000DC621C6B24F4FF6424F007041C63196393
:1053C000835843F001038350BDE8F0830425E2E7EE
:1053D0000325E0E70225DEE738B50446002863D060
:1053E00090F8A13003F0FF021BB980F8A020FDF770
:1053F0007FF9022384F8A13023689A6922F0704271
:105400009A61D4E901200243E06899690243206966
:1054100002430A439A619A68244960690A409A6083
:105420009A6842EA0042A06902439A60DA68E06939
:105430000A40DA60DA6842EA0042206A0243DA602F
:105440001A69606A0A401A611A6942EA0042A06A4F
:1054500002431A615A690A405A615A69E16A42EA8A
:105460000142216B0A435A61DA6A94F8350094F8D4
:10547000361002F07F42DA62DD6A94F834202A4363
:1054800042EA002242EA0142DA625A6B42F0060224
:105490005A639A6942F001029A6100200123C4F81C
:1054A000A40084F8A13038BD0120FCE700F800F02A
:1054B00070477047036870B59E6B5D6B720704465A
:1054C00014D5690712D55A6B22F004025A630422DC
:1054D000DA63D0F8A43043F00103C0F8A43000230D
:1054E00080F8A12080F8A030FFF7E2FFB20716D5C0
:1054F000AB0714D523685A6B22F002025A630222CA
:10550000DA63D4F8A4301343C4F8A430042384F835
:10551000A130002384F8A0302046FFF7C9FFF00730
:1055200010D5E9070ED523685A6B22F001025A63A1
:105530000122DA63002384F8A12084F8A0302046F9
:10554000FCF7B4FC320711D52B070FD523685A6B33
:1055500022F008025A630822DA63012384F8A1309A
:10556000002384F8A0302046FFF7A3FF70BD2DE98B
:10557000F04190F8A030012B06460F4694464FF0BC
:1055800002001FD04FF0010886F8A08086F8A10025
:1055900034240D4604FB02640FCD38340FC40FCD04
:1055A0000FC40FCD0FC42B682360304662463946C6
:1055B000FFF78CFE33680020C3F8248086F8A180B2
:1055C00086F8A000BDE8F08190F8A020012A0346EB
:1055D0004FF0020012D01A6883F8A100506B20F03F
:1055E0000100506306480164516B41F001015163B1
:1055F0000020012283F8A12083F8A000704700BF9B
:105600000068014037B500230193184B184D1A6C00
:1056100042F080521A641B6C03F080530193019B8B
:10562000144B01221A64FEF75BFF04466B68DA0331
:105630000BD5104B0E4D01225A64FEF751FF044664
:105640006B689B030AD5002006E0FEF749FF001BAC
:10565000B0F57A7FEAD9032003B030BDFEF740FFF2
:10566000001BB0F57A7FEBD9F5E700BF00380240A8
:105670000070004000000E422DE9F341044640B3A3
:105680000368DE0710D423689D075BD423681907DD
:1056900000F19D8023685A0700F1BD80A369002BAB
:1056A00040F0248100202CE08D4B9A6802F00C021F
:1056B000042A07D09A6802F00C02082A0BD15B6812
:1056C000590208D5864B1B689A03DCD56368002B0A
:1056D000D9D1012015E06368814DB3F5803F13D126
:1056E0002B6843F480332B60FEF7FAFE7C4E0546B0
:1056F00033689B03C7D4FEF7F3FE401B6428F7D939
:10570000032002B0BDE8F081B3F5A02F04D12B68CF
:1057100043F480232B60E3E72A6822F480322A6076
:105720002A6822F480222A60002BDDD1FEF7D8FE01
:1057300006462B689F03A6D5FEF7D2FE801B642881
:10574000F7D9DDE7664B9A6812F00C0F07D09A681C
:1057500002F00C02082A11D15B685D020ED4604A87
:105760001368990702D5E368012BB2D11368216948
:1057700023F0F80343EAC103136087E7E268594B5B
:10578000B2B101221A60FEF7ABFE554D06462B68FA
:105790009B0707D52B68226923F0F80343EAC2036D
:1057A0002B6073E7FEF79CFE801B0228EFD9A7E76A
:1057B0001A60FEF795FE4A4E054633689F077FF54F
:1057C00065AFFEF78DFE401B0228F6D998E76269A7
:1057D000444B82B10122C3F8802EFEF781FE404E79
:1057E0000546736F9B073FF555AFFEF779FE401BEB
:1057F0000228F6D984E7C3F8802EFEF771FE384EF2
:105800000546736F9F077FF545AFFEF769FE401BA6
:105810000228F6D974E7324B1A6C12F0805228D164
:1058200001921A6C42F080521A641B6C03F0805390
:105830000193019B01272C4D2B68D8051BD5A3682C
:10584000274D012B27D12B6F43F001032B67FEF768
:1058500047FE234E054641F28838336F9A0739D503
:10586000002F3FF41BAF1E4A136C23F080531364C8
:1058700014E70027DFE72B6843F480732B60FEF703
:105880002FFE06462B68D905D9D4FEF729FE801BCA
:105890000228F7D934E7052B04D12B6F43F004031A
:1058A0002B67D0E72A6F22F001022A672A6F22F0C5
:1058B00004022A67002BCAD1FEF712FE41F2883893
:1058C00006462B6F9B07CBD5FEF70AFE801B404593
:1058D000F7D915E7FEF704FE401B4045BDD90FE799
:1058E000003802400000474200700040374DAA686F
:1058F00002F00C02082A3ED0022B354B4FF000027A
:105900001A662BD1FEF7ECFD06462B6899011FD4D1
:10591000D4E907321343626A43EA8213E26A43EA34
:105920000263A26A5208013A43EA02436B60284BC1
:10593000264D01221A66FEF7D3FD04462B689A0114
:105940003FF5B0AEFEF7CCFD001B0228F6D9D7E636
:10595000FEF7C6FD801B0228D7D9D1E6FEF7C0FDB1
:1059600004462B689B017FF59DAEFEF7B9FD001B39
:105970000228F6D9C4E6012B3FF4ABAE6B68E269AE
:1059800003F4800191427FF4A4AE216A03F03F0248
:105990008A427FF49EAE616A47F6C0721A40B2EB4B
:1059A000811F7FF496AEA26A520803F44031013A97
:1059B000B1EB024F7FF48DAEE26A03F07063B3EB9C
:1059C000026F14BF012000209BE600BF0038024098
:1059D00000004742134908B58B6803F00C03042B01
:1059E0001CD0082B1CD14A684B68496813F480030B
:1059F00014BF0D480D48C1F3881118BF002302F0F1
:105A00003F02A1FB0001FBF7FFF8064B5B68C3F305
:105A1000014301335B00B0FBF3F008BD0248FCE733
:105A20000248FAE70038024000127A000024F4002D
:105A30002DE9F0410D46044610B90120BDE8F08182
:105A4000434B1A6802F00F028A4228D321688F075D
:105A50002DD4C80740D43E4B1A6802F00F02AA4268
:105A600065D8226851076BD4130707D5394A2169D5
:105A7000936823F4604343EAC1039360FFF7AAFFEE
:105A8000344B354A9B68C3F30313D35CD840334B84
:105A90001860334B1868FCF7A9FF0020CEE7CAB2A4
:105AA0001A701B6803F00F038B42C6D1CEE7294B57
:105AB00011F0040F1EBF9A6842F4E0529A600E077C
:105AC00042BF9A6842F460429A609A68A06822F0E5
:105AD000F00202439A60BCE762681E4B012A1CD1A7
